{
  "_format": "hh-sol-artifact-1",
  "contractName": "NFT",
  "sourceName": "contracts/NFT.sol",
  "abi": [
    {
      "inputs": [
        {
          "internalType": "string",
          "name": "_baseURIinput",
          "type": "string"
        }
      ],
      "stateMutability": "nonpayable",
      "type": "constructor"
    },
    {
      "anonymous": false,
      "inputs": [
        {
          "indexed": true,
          "internalType": "address",
          "name": "owner",
          "type": "address"
        },
        {
          "indexed": true,
          "internalType": "address",
          "name": "approved",
          "type": "address"
        },
        {
          "indexed": true,
          "internalType": "uint256",
          "name": "tokenId",
          "type": "uint256"
        }
      ],
      "name": "Approval",
      "type": "event"
    },
    {
      "anonymous": false,
      "inputs": [
        {
          "indexed": true,
          "internalType": "address",
          "name": "owner",
          "type": "address"
        },
        {
          "indexed": true,
          "internalType": "address",
          "name": "operator",
          "type": "address"
        },
        {
          "indexed": false,
          "internalType": "bool",
          "name": "approved",
          "type": "bool"
        }
      ],
      "name": "ApprovalForAll",
      "type": "event"
    },
    {
      "anonymous": false,
      "inputs": [
        {
          "indexed": true,
          "internalType": "address",
          "name": "from",
          "type": "address"
        },
        {
          "indexed": true,
          "internalType": "address",
          "name": "to",
          "type": "address"
        },
        {
          "indexed": true,
          "internalType": "uint256",
          "name": "tokenId",
          "type": "uint256"
        }
      ],
      "name": "Transfer",
      "type": "event"
    },
    {
      "inputs": [
        {
          "internalType": "address",
          "name": "to",
          "type": "address"
        },
        {
          "internalType": "uint256",
          "name": "tokenId",
          "type": "uint256"
        }
      ],
      "name": "approve",
      "outputs": [],
      "stateMutability": "nonpayable",
      "type": "function"
    },
    {
      "inputs": [
        {
          "internalType": "address",
          "name": "owner",
          "type": "address"
        }
      ],
      "name": "balanceOf",
      "outputs": [
        {
          "internalType": "uint256",
          "name": "",
          "type": "uint256"
        }
      ],
      "stateMutability": "view",
      "type": "function"
    },
    {
      "inputs": [],
      "name": "baseURI",
      "outputs": [
        {
          "internalType": "string",
          "name": "",
          "type": "string"
        }
      ],
      "stateMutability": "view",
      "type": "function"
    },
    {
      "inputs": [
        {
          "internalType": "uint256",
          "name": "tokenId",
          "type": "uint256"
        }
      ],
      "name": "getApproved",
      "outputs": [
        {
          "internalType": "address",
          "name": "",
          "type": "address"
        }
      ],
      "stateMutability": "view",
      "type": "function"
    },
    {
      "inputs": [
        {
          "internalType": "address",
          "name": "owner",
          "type": "address"
        },
        {
          "internalType": "address",
          "name": "operator",
          "type": "address"
        }
      ],
      "name": "isApprovedForAll",
      "outputs": [
        {
          "internalType": "bool",
          "name": "",
          "type": "bool"
        }
      ],
      "stateMutability": "view",
      "type": "function"
    },
    {
      "inputs": [
        {
          "internalType": "address",
          "name": "recipientAddress",
          "type": "address"
        },
        {
          "internalType": "string",
          "name": "tokenURI_",
          "type": "string"
        }
      ],
      "name": "mint",
      "outputs": [
        {
          "internalType": "uint256",
          "name": "newItemId",
          "type": "uint256"
        }
      ],
      "stateMutability": "nonpayable",
      "type": "function"
    },
    {
      "inputs": [],
      "name": "name",
      "outputs": [
        {
          "internalType": "string",
          "name": "",
          "type": "string"
        }
      ],
      "stateMutability": "view",
      "type": "function"
    },
    {
      "inputs": [
        {
          "internalType": "uint256",
          "name": "tokenId",
          "type": "uint256"
        }
      ],
      "name": "ownerOf",
      "outputs": [
        {
          "internalType": "address",
          "name": "",
          "type": "address"
        }
      ],
      "stateMutability": "view",
      "type": "function"
    },
    {
      "inputs": [
        {
          "internalType": "address",
          "name": "from",
          "type": "address"
        },
        {
          "internalType": "address",
          "name": "to",
          "type": "address"
        },
        {
          "internalType": "uint256",
          "name": "tokenId",
          "type": "uint256"
        }
      ],
      "name": "safeTransferFrom",
      "outputs": [],
      "stateMutability": "nonpayable",
      "type": "function"
    },
    {
      "inputs": [
        {
          "internalType": "address",
          "name": "from",
          "type": "address"
        },
        {
          "internalType": "address",
          "name": "to",
          "type": "address"
        },
        {
          "internalType": "uint256",
          "name": "tokenId",
          "type": "uint256"
        },
        {
          "internalType": "bytes",
          "name": "_data",
          "type": "bytes"
        }
      ],
      "name": "safeTransferFrom",
      "outputs": [],
      "stateMutability": "nonpayable",
      "type": "function"
    },
    {
      "inputs": [
        {
          "internalType": "address",
          "name": "operator",
          "type": "address"
        },
        {
          "internalType": "bool",
          "name": "approved",
          "type": "bool"
        }
      ],
      "name": "setApprovalForAll",
      "outputs": [],
      "stateMutability": "nonpayable",
      "type": "function"
    },
    {
      "inputs": [
        {
          "internalType": "bytes4",
          "name": "interfaceId",
          "type": "bytes4"
        }
      ],
      "name": "supportsInterface",
      "outputs": [
        {
          "internalType": "bool",
          "name": "",
          "type": "bool"
        }
      ],
      "stateMutability": "view",
      "type": "function"
    },
    {
      "inputs": [],
      "name": "symbol",
      "outputs": [
        {
          "internalType": "string",
          "name": "",
          "type": "string"
        }
      ],
      "stateMutability": "view",
      "type": "function"
    },
    {
      "inputs": [
        {
          "internalType": "uint256",
          "name": "tokenId",
          "type": "uint256"
        }
      ],
      "name": "tokenURI",
      "outputs": [
        {
          "internalType": "string",
          "name": "",
          "type": "string"
        }
      ],
      "stateMutability": "view",
      "type": "function"
    },
    {
      "inputs": [
        {
          "internalType": "address",
          "name": "from",
          "type": "address"
        },
        {
          "internalType": "address",
          "name": "to",
          "type": "address"
        },
        {
          "internalType": "uint256",
          "name": "tokenId",
          "type": "uint256"
        }
      ],
      "name": "transferFrom",
      "outputs": [],
      "stateMutability": "nonpayable",
      "type": "function"
    }
  ],
  "bytecode": "0x60806040523480156200001157600080fd5b506040516200311d3803806200311d833981810160405281019062000037919062000219565b6040518060400160405280600681526020017f55564c61627300000000000000000000000000000000000000000000000000008152506040518060400160405280600381526020017f55564c00000000000000000000000000000000000000000000000000000000008152508160009080519060200190620000bb929190620000f7565b508060019080519060200190620000d4929190620000f7565b5050508060089080519060200190620000ef929190620000f7565b5050620003ce565b8280546200010590620002f3565b90600052602060002090601f01602090048101928262000129576000855562000175565b82601f106200014457805160ff191683800117855562000175565b8280016001018555821562000175579182015b828111156200017457825182559160200191906001019062000157565b5b50905062000184919062000188565b5090565b5b80821115620001a357600081600090555060010162000189565b5090565b6000620001be620001b88462000287565b6200025e565b905082815260208101848484011115620001d757600080fd5b620001e4848285620002bd565b509392505050565b600082601f830112620001fe57600080fd5b815162000210848260208601620001a7565b91505092915050565b6000602082840312156200022c57600080fd5b600082015167ffffffffffffffff8111156200024757600080fd5b6200025584828501620001ec565b91505092915050565b60006200026a6200027d565b905062000278828262000329565b919050565b6000604051905090565b600067ffffffffffffffff821115620002a557620002a46200038e565b5b620002b082620003bd565b9050602081019050919050565b60005b83811015620002dd578082015181840152602081019050620002c0565b83811115620002ed576000848401525b50505050565b600060028204905060018216806200030c57607f821691505b602082108114156200032357620003226200035f565b5b50919050565b6200033482620003bd565b810181811067ffffffffffffffff821117156200035657620003556200038e565b5b80604052505050565b7f4e487b7100000000000000000000000000000000000000000000000000000000600052602260045260246000fd5b7f4e487b7100000000000000000000000000000000000000000000000000000000600052604160045260246000fd5b6000601f19601f8301169050919050565b612d3f80620003de6000396000f3fe608060405234801561001057600080fd5b50600436106100f55760003560e01c80636c0360eb11610097578063b88d4fde11610066578063b88d4fde14610284578063c87b56dd146102a0578063d0def521146102d0578063e985e9c514610300576100f5565b80636c0360eb146101fc57806370a082311461021a57806395d89b411461024a578063a22cb46514610268576100f5565b8063095ea7b3116100d3578063095ea7b31461017857806323b872dd1461019457806342842e0e146101b05780636352211e146101cc576100f5565b806301ffc9a7146100fa57806306fdde031461012a578063081812fc14610148575b600080fd5b610114600480360381019061010f9190611dec565b610330565b60405161012191906121f2565b60405180910390f35b610132610412565b60405161013f919061220d565b60405180910390f35b610162600480360381019061015d9190611e3e565b6104a4565b60405161016f919061218b565b60405180910390f35b610192600480360381019061018d9190611db0565b610529565b005b6101ae60048036038101906101a99190611c56565b610641565b005b6101ca60048036038101906101c59190611c56565b6106a1565b005b6101e660048036038101906101e19190611e3e565b6106c1565b6040516101f3919061218b565b60405180910390f35b610204610773565b604051610211919061220d565b60405180910390f35b610234600480360381019061022f9190611bf1565b610801565b604051610241919061242f565b60405180910390f35b6102526108b9565b60405161025f919061220d565b60405180910390f35b610282600480360381019061027d9190611d20565b61094b565b005b61029e60048036038101906102999190611ca5565b610961565b005b6102ba60048036038101906102b59190611e3e565b6109c3565b6040516102c7919061220d565b60405180910390f35b6102ea60048036038101906102e59190611d5c565b610b15565b6040516102f7919061242f565b60405180910390f35b61031a60048036038101906103159190611c1a565b610b47565b60405161032791906121f2565b60405180910390f35b60007f80ac58cd000000000000000000000000000000000000000000000000000000007bffffffffffffffffffffffffffffffffffffffffffffffffffffffff1916827bffffffffffffffffffffffffffffffffffffffffffffffffffffffff191614806103fb57507f5b5e139f000000000000000000000000000000000000000000000000000000007bffffffffffffffffffffffffffffffffffffffffffffffffffffffff1916827bffffffffffffffffffffffffffffffffffffffffffffffffffffffff1916145b8061040b575061040a82610bdb565b5b9050919050565b60606000805461042190612685565b80601f016020809104026020016040519081016040528092919081815260200182805461044d90612685565b801561049a5780601f1061046f5761010080835404028352916020019161049a565b820191906000526020600020905b81548152906001019060200180831161047d57829003601f168201915b5050505050905090565b60006104af82610c45565b6104ee576040517f08c379a00000000000000000000000000000000000000000000000000000000081526004016104e5906123af565b60405180910390fd5b6004600083815260200190815260200160002060009054906101000a900473ffffffffffffffffffffffffffffffffffffffff169050919050565b6000610534826106c1565b90508073ffffffffffffffffffffffffffffffffffffffff168373ffffffffffffffffffffffffffffffffffffffff1614156105a5576040517f08c379a000000000000000000000000000000000000000000000000000000000815260040161059c906123ef565b60405180910390fd5b8073ffffffffffffffffffffffffffffffffffffffff166105c4610cb1565b73ffffffffffffffffffffffffffffffffffffffff1614806105f357506105f2816105ed610cb1565b610b47565b5b610632576040517f08c379a0000000000000000000000000000000000000000000000000000000008152600401610629906122ef565b60405180910390fd5b61063c8383610cb9565b505050565b61065261064c610cb1565b82610d72565b610691576040517f08c379a00000000000000000000000000000000000000000000000000000000081526004016106889061240f565b60405180910390fd5b61069c838383610e50565b505050565b6106bc83838360405180602001604052806000815250610961565b505050565b6000806002600084815260200190815260200160002060009054906101000a900473ffffffffffffffffffffffffffffffffffffffff169050600073ffffffffffffffffffffffffffffffffffffffff168173ffffffffffffffffffffffffffffffffffffffff16141561076a576040517f08c379a00000000000000000000000000000000000000000000000000000000081526004016107619061232f565b60405180910390fd5b80915050919050565b6008805461078090612685565b80601f01602080910402602001604051908101604052809291908181526020018280546107ac90612685565b80156107f95780601f106107ce576101008083540402835291602001916107f9565b820191906000526020600020905b8154815290600101906020018083116107dc57829003601f168201915b505050505081565b60008073ffffffffffffffffffffffffffffffffffffffff168273ffffffffffffffffffffffffffffffffffffffff161415610872576040517f08c379a00000000000000000000000000000000000000000000000000000000081526004016108699061230f565b60405180910390fd5b600360008373ffffffffffffffffffffffffffffffffffffffff1673ffffffffffffffffffffffffffffffffffffffff168152602001908152602001600020549050919050565b6060600180546108c890612685565b80601f01602080910402602001604051908101604052809291908181526020018280546108f490612685565b80156109415780601f1061091657610100808354040283529160200191610941565b820191906000526020600020905b81548152906001019060200180831161092457829003601f168201915b5050505050905090565b61095d610956610cb1565b83836110b7565b5050565b61097261096c610cb1565b83610d72565b6109b1576040517f08c379a00000000000000000000000000000000000000000000000000000000081526004016109a89061240f565b60405180910390fd5b6109bd84848484611224565b50505050565b60606109ce82610c45565b610a0d576040517f08c379a0000000000000000000000000000000000000000000000000000000008152600401610a049061238f565b60405180910390fd5b6000600660008481526020019081526020016000208054610a2d90612685565b80601f0160208091040260200160405190810160405280929190818152602001828054610a5990612685565b8015610aa65780601f10610a7b57610100808354040283529160200191610aa6565b820191906000526020600020905b815481529060010190602001808311610a8957829003601f168201915b505050505090506000610ab7611280565b9050600081511415610acd578192505050610b10565b600082511115610b02578082604051602001610aea929190612167565b60405160208183030381529060405292505050610b10565b610b0b84611312565b925050505b919050565b6000610b2160076113b9565b610b2b60076113cf565b9050610b3783826113dd565b610b4181836113fb565b92915050565b6000600560008473ffffffffffffffffffffffffffffffffffffffff1673ffffffffffffffffffffffffffffffffffffffff16815260200190815260200160002060008373ffffffffffffffffffffffffffffffffffffffff1673ffffffffffffffffffffffffffffffffffffffff16815260200190815260200160002060009054906101000a900460ff16905092915050565b60007f01ffc9a7000000000000000000000000000000000000000000000000000000007bffffffffffffffffffffffffffffffffffffffffffffffffffffffff1916827bffffffffffffffffffffffffffffffffffffffffffffffffffffffff1916149050919050565b60008073ffffffffffffffffffffffffffffffffffffffff166002600084815260200190815260200160002060009054906101000a900473ffffffffffffffffffffffffffffffffffffffff1673ffffffffffffffffffffffffffffffffffffffff1614159050919050565b600033905090565b816004600083815260200190815260200160002060006101000a81548173ffffffffffffffffffffffffffffffffffffffff021916908373ffffffffffffffffffffffffffffffffffffffff160217905550808273ffffffffffffffffffffffffffffffffffffffff16610d2c836106c1565b73ffffffffffffffffffffffffffffffffffffffff167f8c5be1e5ebec7d5bd14f71427d1e84f3dd0314c0f7b2291e5b200ac8c7c3b92560405160405180910390a45050565b6000610d7d82610c45565b610dbc576040517f08c379a0000000000000000000000000000000000000000000000000000000008152600401610db3906122cf565b60405180910390fd5b6000610dc7836106c1565b90508073ffffffffffffffffffffffffffffffffffffffff168473ffffffffffffffffffffffffffffffffffffffff161480610e3657508373ffffffffffffffffffffffffffffffffffffffff16610e1e846104a4565b73ffffffffffffffffffffffffffffffffffffffff16145b80610e475750610e468185610b47565b5b91505092915050565b8273ffffffffffffffffffffffffffffffffffffffff16610e70826106c1565b73ffffffffffffffffffffffffffffffffffffffff1614610ec6576040517f08c379a0000000000000000000000000000000000000000000000000000000008152600401610ebd9061224f565b60405180910390fd5b600073ffffffffffffffffffffffffffffffffffffffff168273ffffffffffffffffffffffffffffffffffffffff161415610f36576040517f08c379a0000000000000000000000000000000000000000000000000000000008152600401610f2d9061228f565b60405180910390fd5b610f4183838361146f565b610f4c600082610cb9565b6001600360008573ffffffffffffffffffffffffffffffffffffffff1673ffffffffffffffffffffffffffffffffffffffff1681526020019081526020016000206000828254610f9c919061259b565b925050819055506001600360008473ffffffffffffffffffffffffffffffffffffffff1673ffffffffffffffffffffffffffffffffffffffff1681526020019081526020016000206000828254610ff39190612514565b92505081905550816002600083815260200190815260200160002060006101000a81548173ffffffffffffffffffffffffffffffffffffffff021916908373ffffffffffffffffffffffffffffffffffffffff160217905550808273ffffffffffffffffffffffffffffffffffffffff168473ffffffffffffffffffffffffffffffffffffffff167fddf252ad1be2c89b69c2b068fc378daa952ba7f163c4a11628f55a4df523b3ef60405160405180910390a46110b2838383611474565b505050565b8173ffffffffffffffffffffffffffffffffffffffff168373ffffffffffffffffffffffffffffffffffffffff161415611126576040517f08c379a000000000000000000000000000000000000000000000000000000000815260040161111d906122af565b60405180910390fd5b80600560008573ffffffffffffffffffffffffffffffffffffffff1673ffffffffffffffffffffffffffffffffffffffff16815260200190815260200160002060008473ffffffffffffffffffffffffffffffffffffffff1673ffffffffffffffffffffffffffffffffffffffff16815260200190815260200160002060006101000a81548160ff0219169083151502179055508173ffffffffffffffffffffffffffffffffffffffff168373ffffffffffffffffffffffffffffffffffffffff167f17307eab39ab6107e8899845ad3d59bd9653f200f220920489ca2b5937696c318360405161121791906121f2565b60405180910390a3505050565b61122f848484610e50565b61123b84848484611479565b61127a576040517f08c379a00000000000000000000000000000000000000000000000000000000081526004016112719061222f565b60405180910390fd5b50505050565b60606008805461128f90612685565b80601f01602080910402602001604051908101604052809291908181526020018280546112bb90612685565b80156113085780601f106112dd57610100808354040283529160200191611308565b820191906000526020600020905b8154815290600101906020018083116112eb57829003601f168201915b5050505050905090565b606061131d82610c45565b61135c576040517f08c379a0000000000000000000000000000000000000000000000000000000008152600401611353906123cf565b60405180910390fd5b6000611366611280565b9050600081511161138657604051806020016040528060008152506113b1565b8061139084611610565b6040516020016113a1929190612167565b6040516020818303038152906040525b915050919050565b6001816000016000828254019250508190555050565b600081600001549050919050565b6113f78282604051806020016040528060008152506117bd565b5050565b61140482610c45565b611443576040517f08c379a000000000000000000000000000000000000000000000000000000000815260040161143a9061234f565b60405180910390fd5b8060066000848152602001908152602001600020908051906020019061146a929190611a15565b505050565b505050565b505050565b600061149a8473ffffffffffffffffffffffffffffffffffffffff16611818565b15611603578373ffffffffffffffffffffffffffffffffffffffff1663150b7a026114c3610cb1565b8786866040518563ffffffff1660e01b81526004016114e594939291906121a6565b602060405180830381600087803b1580156114ff57600080fd5b505af192505050801561153057506040513d601f19601f8201168201806040525081019061152d9190611e15565b60015b6115b3573d8060008114611560576040519150601f19603f3d011682016040523d82523d6000602084013e611565565b606091505b506000815114156115ab576040517f08c379a00000000000000000000000000000000000000000000000000000000081526004016115a29061222f565b60405180910390fd5b805181602001fd5b63150b7a0260e01b7bffffffffffffffffffffffffffffffffffffffffffffffffffffffff1916817bffffffffffffffffffffffffffffffffffffffffffffffffffffffff191614915050611608565b600190505b949350505050565b60606000821415611658576040518060400160405280600181526020017f300000000000000000000000000000000000000000000000000000000000000081525090506117b8565b600082905060005b6000821461168a578080611673906126e8565b915050600a82611683919061256a565b9150611660565b60008167ffffffffffffffff8111156116cc577f4e487b7100000000000000000000000000000000000000000000000000000000600052604160045260246000fd5b6040519080825280601f01601f1916602001820160405280156116fe5781602001600182028036833780820191505090505b5090505b600085146117b157600182611717919061259b565b9150600a856117269190612731565b60306117329190612514565b60f81b81838151811061176e577f4e487b7100000000000000000000000000000000000000000000000000000000600052603260045260246000fd5b60200101907effffffffffffffffffffffffffffffffffffffffffffffffffffffffffffff1916908160001a905350600a856117aa919061256a565b9450611702565b8093505050505b919050565b6117c7838361183b565b6117d46000848484611479565b611813576040517f08c379a000000000000000000000000000000000000000000000000000000000815260040161180a9061222f565b60405180910390fd5b505050565b6000808273ffffffffffffffffffffffffffffffffffffffff163b119050919050565b600073ffffffffffffffffffffffffffffffffffffffff168273ffffffffffffffffffffffffffffffffffffffff1614156118ab576040517f08c379a00000000000000000000000000000000000000000000000000000000081526004016118a29061236f565b60405180910390fd5b6118b481610c45565b156118f4576040517f08c379a00000000000000000000000000000000000000000000000000000000081526004016118eb9061226f565b60405180910390fd5b6119006000838361146f565b6001600360008473ffffffffffffffffffffffffffffffffffffffff1673ffffffffffffffffffffffffffffffffffffffff16815260200190815260200160002060008282546119509190612514565b92505081905550816002600083815260200190815260200160002060006101000a81548173ffffffffffffffffffffffffffffffffffffffff021916908373ffffffffffffffffffffffffffffffffffffffff160217905550808273ffffffffffffffffffffffffffffffffffffffff16600073ffffffffffffffffffffffffffffffffffffffff167fddf252ad1be2c89b69c2b068fc378daa952ba7f163c4a11628f55a4df523b3ef60405160405180910390a4611a1160008383611474565b5050565b828054611a2190612685565b90600052602060002090601f016020900481019282611a435760008555611a8a565b82601f10611a5c57805160ff1916838001178555611a8a565b82800160010185558215611a8a579182015b82811115611a89578251825591602001919060010190611a6e565b5b509050611a979190611a9b565b5090565b5b80821115611ab4576000816000905550600101611a9c565b5090565b6000611acb611ac68461246f565b61244a565b905082815260208101848484011115611ae357600080fd5b611aee848285612643565b509392505050565b6000611b09611b04846124a0565b61244a565b905082815260208101848484011115611b2157600080fd5b611b2c848285612643565b509392505050565b600081359050611b4381612cad565b92915050565b600081359050611b5881612cc4565b92915050565b600081359050611b6d81612cdb565b92915050565b600081519050611b8281612cdb565b92915050565b600082601f830112611b9957600080fd5b8135611ba9848260208601611ab8565b91505092915050565b600082601f830112611bc357600080fd5b8135611bd3848260208601611af6565b91505092915050565b600081359050611beb81612cf2565b92915050565b600060208284031215611c0357600080fd5b6000611c1184828501611b34565b91505092915050565b60008060408385031215611c2d57600080fd5b6000611c3b85828601611b34565b9250506020611c4c85828601611b34565b9150509250929050565b600080600060608486031215611c6b57600080fd5b6000611c7986828701611b34565b9350506020611c8a86828701611b34565b9250506040611c9b86828701611bdc565b9150509250925092565b60008060008060808587031215611cbb57600080fd5b6000611cc987828801611b34565b9450506020611cda87828801611b34565b9350506040611ceb87828801611bdc565b925050606085013567ffffffffffffffff811115611d0857600080fd5b611d1487828801611b88565b91505092959194509250565b60008060408385031215611d3357600080fd5b6000611d4185828601611b34565b9250506020611d5285828601611b49565b9150509250929050565b60008060408385031215611d6f57600080fd5b6000611d7d85828601611b34565b925050602083013567ffffffffffffffff811115611d9a57600080fd5b611da685828601611bb2565b9150509250929050565b60008060408385031215611dc357600080fd5b6000611dd185828601611b34565b9250506020611de285828601611bdc565b9150509250929050565b600060208284031215611dfe57600080fd5b6000611e0c84828501611b5e565b91505092915050565b600060208284031215611e2757600080fd5b6000611e3584828501611b73565b91505092915050565b600060208284031215611e5057600080fd5b6000611e5e84828501611bdc565b91505092915050565b611e70816125cf565b82525050565b611e7f816125e1565b82525050565b6000611e90826124d1565b611e9a81856124e7565b9350611eaa818560208601612652565b611eb38161281e565b840191505092915050565b6000611ec9826124dc565b611ed381856124f8565b9350611ee3818560208601612652565b611eec8161281e565b840191505092915050565b6000611f02826124dc565b611f0c8185612509565b9350611f1c818560208601612652565b80840191505092915050565b6000611f356032836124f8565b9150611f408261282f565b604082019050919050565b6000611f586025836124f8565b9150611f638261287e565b604082019050919050565b6000611f7b601c836124f8565b9150611f86826128cd565b602082019050919050565b6000611f9e6024836124f8565b9150611fa9826128f6565b604082019050919050565b6000611fc16019836124f8565b9150611fcc82612945565b602082019050919050565b6000611fe4602c836124f8565b9150611fef8261296e565b604082019050919050565b60006120076038836124f8565b9150612012826129bd565b604082019050919050565b600061202a602a836124f8565b915061203582612a0c565b604082019050919050565b600061204d6029836124f8565b915061205882612a5b565b604082019050919050565b6000612070602e836124f8565b915061207b82612aaa565b604082019050919050565b60006120936020836124f8565b915061209e82612af9565b602082019050919050565b60006120b66031836124f8565b91506120c182612b22565b604082019050919050565b60006120d9602c836124f8565b91506120e482612b71565b604082019050919050565b60006120fc602f836124f8565b915061210782612bc0565b604082019050919050565b600061211f6021836124f8565b915061212a82612c0f565b604082019050919050565b60006121426031836124f8565b915061214d82612c5e565b604082019050919050565b61216181612639565b82525050565b60006121738285611ef7565b915061217f8284611ef7565b91508190509392505050565b60006020820190506121a06000830184611e67565b92915050565b60006080820190506121bb6000830187611e67565b6121c86020830186611e67565b6121d56040830185612158565b81810360608301526121e78184611e85565b905095945050505050565b60006020820190506122076000830184611e76565b92915050565b600060208201905081810360008301526122278184611ebe565b905092915050565b6000602082019050818103600083015261224881611f28565b9050919050565b6000602082019050818103600083015261226881611f4b565b9050919050565b6000602082019050818103600083015261228881611f6e565b9050919050565b600060208201905081810360008301526122a881611f91565b9050919050565b600060208201905081810360008301526122c881611fb4565b9050919050565b600060208201905081810360008301526122e881611fd7565b9050919050565b6000602082019050818103600083015261230881611ffa565b9050919050565b600060208201905081810360008301526123288161201d565b9050919050565b6000602082019050818103600083015261234881612040565b9050919050565b6000602082019050818103600083015261236881612063565b9050919050565b6000602082019050818103600083015261238881612086565b9050919050565b600060208201905081810360008301526123a8816120a9565b9050919050565b600060208201905081810360008301526123c8816120cc565b9050919050565b600060208201905081810360008301526123e8816120ef565b9050919050565b6000602082019050818103600083015261240881612112565b9050919050565b6000602082019050818103600083015261242881612135565b9050919050565b60006020820190506124446000830184612158565b92915050565b6000612454612465565b905061246082826126b7565b919050565b6000604051905090565b600067ffffffffffffffff82111561248a576124896127ef565b5b6124938261281e565b9050602081019050919050565b600067ffffffffffffffff8211156124bb576124ba6127ef565b5b6124c48261281e565b9050602081019050919050565b600081519050919050565b600081519050919050565b600082825260208201905092915050565b600082825260208201905092915050565b600081905092915050565b600061251f82612639565b915061252a83612639565b9250827fffffffffffffffffffffffffffffffffffffffffffffffffffffffffffffffff0382111561255f5761255e612762565b5b828201905092915050565b600061257582612639565b915061258083612639565b9250826125905761258f612791565b5b828204905092915050565b60006125a682612639565b91506125b183612639565b9250828210156125c4576125c3612762565b5b828203905092915050565b60006125da82612619565b9050919050565b60008115159050919050565b60007fffffffff0000000000000000000000000000000000000000000000000000000082169050919050565b600073ffffffffffffffffffffffffffffffffffffffff82169050919050565b6000819050919050565b82818337600083830152505050565b60005b83811015612670578082015181840152602081019050612655565b8381111561267f576000848401525b50505050565b6000600282049050600182168061269d57607f821691505b602082108114156126b1576126b06127c0565b5b50919050565b6126c08261281e565b810181811067ffffffffffffffff821117156126df576126de6127ef565b5b80604052505050565b60006126f382612639565b91507fffffffffffffffffffffffffffffffffffffffffffffffffffffffffffffffff82141561272657612725612762565b5b600182019050919050565b600061273c82612639565b915061274783612639565b92508261275757612756612791565b5b828206905092915050565b7f4e487b7100000000000000000000000000000000000000000000000000000000600052601160045260246000fd5b7f4e487b7100000000000000000000000000000000000000000000000000000000600052601260045260246000fd5b7f4e487b7100000000000000000000000000000000000000000000000000000000600052602260045260246000fd5b7f4e487b7100000000000000000000000000000000000000000000000000000000600052604160045260246000fd5b6000601f19601f8301169050919050565b7f4552433732313a207472616e7366657220746f206e6f6e20455243373231526560008201527f63656976657220696d706c656d656e7465720000000000000000000000000000602082015250565b7f4552433732313a207472616e736665722066726f6d20696e636f72726563742060008201527f6f776e6572000000000000000000000000000000000000000000000000000000602082015250565b7f4552433732313a20746f6b656e20616c7265616479206d696e74656400000000600082015250565b7f4552433732313a207472616e7366657220746f20746865207a65726f2061646460008201527f7265737300000000000000000000000000000000000000000000000000000000602082015250565b7f4552433732313a20617070726f766520746f2063616c6c657200000000000000600082015250565b7f4552433732313a206f70657261746f7220717565727920666f72206e6f6e657860008201527f697374656e7420746f6b656e0000000000000000000000000000000000000000602082015250565b7f4552433732313a20617070726f76652063616c6c6572206973206e6f74206f7760008201527f6e6572206e6f7220617070726f76656420666f7220616c6c0000000000000000602082015250565b7f4552433732313a2062616c616e636520717565727920666f7220746865207a6560008201527f726f206164647265737300000000000000000000000000000000000000000000602082015250565b7f4552433732313a206f776e657220717565727920666f72206e6f6e657869737460008201527f656e7420746f6b656e0000000000000000000000000000000000000000000000602082015250565b7f45524337323155524953746f726167653a2055524920736574206f66206e6f6e60008201527f6578697374656e7420746f6b656e000000000000000000000000000000000000602082015250565b7f4552433732313a206d696e7420746f20746865207a65726f2061646472657373600082015250565b7f45524337323155524953746f726167653a2055524920717565727920666f722060008201527f6e6f6e6578697374656e7420746f6b656e000000000000000000000000000000602082015250565b7f4552433732313a20617070726f76656420717565727920666f72206e6f6e657860008201527f697374656e7420746f6b656e0000000000000000000000000000000000000000602082015250565b7f4552433732314d657461646174613a2055524920717565727920666f72206e6f60008201527f6e6578697374656e7420746f6b656e0000000000000000000000000000000000602082015250565b7f4552433732313a20617070726f76616c20746f2063757272656e74206f776e6560008201527f7200000000000000000000000000000000000000000000000000000000000000602082015250565b7f4552433732313a207472616e736665722063616c6c6572206973206e6f74206f60008201527f776e6572206e6f7220617070726f766564000000000000000000000000000000602082015250565b612cb6816125cf565b8114612cc157600080fd5b50565b612ccd816125e1565b8114612cd857600080fd5b50565b612ce4816125ed565b8114612cef57600080fd5b50565b612cfb81612639565b8114612d0657600080fd5b5056fea26469706673582212209b35ebdc8e6727efcd36d8b6a3843e1df758157f790c07137104beb500146df564736f6c63430008010033",
  "linkReferences": {},
  "deployedLinkReferences": {}
}