{
  "_format": "hh-sol-artifact-1",
  "contractName": "NFT",
  "sourceName": "contracts/NFT.sol",
  "abi": [
    {
      "inputs": [],
      "stateMutability": "nonpayable",
      "type": "constructor"
    },
    {
      "anonymous": false,
      "inputs": [
        {
          "indexed": true,
          "internalType": "address",
          "name": "owner",
          "type": "address"
        },
        {
          "indexed": true,
          "internalType": "address",
          "name": "approved",
          "type": "address"
        },
        {
          "indexed": true,
          "internalType": "uint256",
          "name": "tokenId",
          "type": "uint256"
        }
      ],
      "name": "Approval",
      "type": "event"
    },
    {
      "anonymous": false,
      "inputs": [
        {
          "indexed": true,
          "internalType": "address",
          "name": "owner",
          "type": "address"
        },
        {
          "indexed": true,
          "internalType": "address",
          "name": "operator",
          "type": "address"
        },
        {
          "indexed": false,
          "internalType": "bool",
          "name": "approved",
          "type": "bool"
        }
      ],
      "name": "ApprovalForAll",
      "type": "event"
    },
    {
      "anonymous": false,
      "inputs": [
        {
          "indexed": true,
          "internalType": "address",
          "name": "from",
          "type": "address"
        },
        {
          "indexed": true,
          "internalType": "address",
          "name": "to",
          "type": "address"
        },
        {
          "indexed": true,
          "internalType": "uint256",
          "name": "tokenId",
          "type": "uint256"
        }
      ],
      "name": "Transfer",
      "type": "event"
    },
    {
      "inputs": [
        {
          "internalType": "address",
          "name": "to",
          "type": "address"
        },
        {
          "internalType": "uint256",
          "name": "tokenId",
          "type": "uint256"
        }
      ],
      "name": "approve",
      "outputs": [],
      "stateMutability": "nonpayable",
      "type": "function"
    },
    {
      "inputs": [
        {
          "internalType": "address",
          "name": "owner",
          "type": "address"
        }
      ],
      "name": "balanceOf",
      "outputs": [
        {
          "internalType": "uint256",
          "name": "",
          "type": "uint256"
        }
      ],
      "stateMutability": "view",
      "type": "function"
    },
    {
      "inputs": [
        {
          "internalType": "uint256",
          "name": "tokenId",
          "type": "uint256"
        }
      ],
      "name": "getApproved",
      "outputs": [
        {
          "internalType": "address",
          "name": "",
          "type": "address"
        }
      ],
      "stateMutability": "view",
      "type": "function"
    },
    {
      "inputs": [
        {
          "internalType": "address",
          "name": "owner",
          "type": "address"
        },
        {
          "internalType": "address",
          "name": "operator",
          "type": "address"
        }
      ],
      "name": "isApprovedForAll",
      "outputs": [
        {
          "internalType": "bool",
          "name": "",
          "type": "bool"
        }
      ],
      "stateMutability": "view",
      "type": "function"
    },
    {
      "inputs": [
        {
          "internalType": "address",
          "name": "recipientAddress",
          "type": "address"
        }
      ],
      "name": "mint",
      "outputs": [
        {
          "internalType": "uint256",
          "name": "",
          "type": "uint256"
        }
      ],
      "stateMutability": "nonpayable",
      "type": "function"
    },
    {
      "inputs": [],
      "name": "name",
      "outputs": [
        {
          "internalType": "string",
          "name": "",
          "type": "string"
        }
      ],
      "stateMutability": "view",
      "type": "function"
    },
    {
      "inputs": [
        {
          "internalType": "uint256",
          "name": "tokenId",
          "type": "uint256"
        }
      ],
      "name": "ownerOf",
      "outputs": [
        {
          "internalType": "address",
          "name": "",
          "type": "address"
        }
      ],
      "stateMutability": "view",
      "type": "function"
    },
    {
      "inputs": [
        {
          "internalType": "address",
          "name": "from",
          "type": "address"
        },
        {
          "internalType": "address",
          "name": "to",
          "type": "address"
        },
        {
          "internalType": "uint256",
          "name": "tokenId",
          "type": "uint256"
        }
      ],
      "name": "safeTransferFrom",
      "outputs": [],
      "stateMutability": "nonpayable",
      "type": "function"
    },
    {
      "inputs": [
        {
          "internalType": "address",
          "name": "from",
          "type": "address"
        },
        {
          "internalType": "address",
          "name": "to",
          "type": "address"
        },
        {
          "internalType": "uint256",
          "name": "tokenId",
          "type": "uint256"
        },
        {
          "internalType": "bytes",
          "name": "_data",
          "type": "bytes"
        }
      ],
      "name": "safeTransferFrom",
      "outputs": [],
      "stateMutability": "nonpayable",
      "type": "function"
    },
    {
      "inputs": [
        {
          "internalType": "address",
          "name": "operator",
          "type": "address"
        },
        {
          "internalType": "bool",
          "name": "approved",
          "type": "bool"
        }
      ],
      "name": "setApprovalForAll",
      "outputs": [],
      "stateMutability": "nonpayable",
      "type": "function"
    },
    {
      "inputs": [
        {
          "internalType": "bytes4",
          "name": "interfaceId",
          "type": "bytes4"
        }
      ],
      "name": "supportsInterface",
      "outputs": [
        {
          "internalType": "bool",
          "name": "",
          "type": "bool"
        }
      ],
      "stateMutability": "view",
      "type": "function"
    },
    {
      "inputs": [],
      "name": "symbol",
      "outputs": [
        {
          "internalType": "string",
          "name": "",
          "type": "string"
        }
      ],
      "stateMutability": "view",
      "type": "function"
    },
    {
      "inputs": [
        {
          "internalType": "uint256",
          "name": "tokenId",
          "type": "uint256"
        }
      ],
      "name": "tokenURI",
      "outputs": [
        {
          "internalType": "string",
          "name": "",
          "type": "string"
        }
      ],
      "stateMutability": "view",
      "type": "function"
    },
    {
      "inputs": [
        {
          "internalType": "address",
          "name": "from",
          "type": "address"
        },
        {
          "internalType": "address",
          "name": "to",
          "type": "address"
        },
        {
          "internalType": "uint256",
          "name": "tokenId",
          "type": "uint256"
        }
      ],
      "name": "transferFrom",
      "outputs": [],
      "stateMutability": "nonpayable",
      "type": "function"
    }
  ],
  "bytecode": "0x60806040523480156200001157600080fd5b506040518060400160405280600681526020017f55564c61627300000000000000000000000000000000000000000000000000008152506040518060400160405280600381526020017f55564c0000000000000000000000000000000000000000000000000000000000815250816000908051906020019062000096929190620000b8565b508060019080519060200190620000af929190620000b8565b505050620001cd565b828054620000c69062000168565b90600052602060002090601f016020900481019282620000ea576000855562000136565b82601f106200010557805160ff191683800117855562000136565b8280016001018555821562000136579182015b828111156200013557825182559160200191906001019062000118565b5b50905062000145919062000149565b5090565b5b80821115620001645760008160009055506001016200014a565b5090565b600060028204905060018216806200018157607f821691505b602082108114156200019857620001976200019e565b5b50919050565b7f4e487b7100000000000000000000000000000000000000000000000000000000600052602260045260246000fd5b61278e80620001dd6000396000f3fe608060405234801561001057600080fd5b50600436106100ea5760003560e01c80636a6278421161008c578063a22cb46511610066578063a22cb4651461026f578063b88d4fde1461028b578063c87b56dd146102a7578063e985e9c5146102d7576100ea565b80636a627842146101f157806370a082311461022157806395d89b4114610251576100ea565b8063095ea7b3116100c8578063095ea7b31461016d57806323b872dd1461018957806342842e0e146101a55780636352211e146101c1576100ea565b806301ffc9a7146100ef57806306fdde031461011f578063081812fc1461013d575b600080fd5b61010960048036038101906101049190611990565b610307565b6040516101169190611d50565b60405180910390f35b6101276103e9565b6040516101349190611d6b565b60405180910390f35b610157600480360381019061015291906119e2565b61047b565b6040516101649190611ce9565b60405180910390f35b61018760048036038101906101829190611954565b610500565b005b6101a3600480360381019061019e919061184e565b610618565b005b6101bf60048036038101906101ba919061184e565b610678565b005b6101db60048036038101906101d691906119e2565b610698565b6040516101e89190611ce9565b60405180910390f35b61020b600480360381019061020691906117e9565b61074a565b6040516102189190611f4d565b60405180910390f35b61023b600480360381019061023691906117e9565b610777565b6040516102489190611f4d565b60405180910390f35b61025961082f565b6040516102669190611d6b565b60405180910390f35b61028960048036038101906102849190611918565b6108c1565b005b6102a560048036038101906102a0919061189d565b6108d7565b005b6102c160048036038101906102bc91906119e2565b610939565b6040516102ce9190611d6b565b60405180910390f35b6102f160048036038101906102ec9190611812565b6109e0565b6040516102fe9190611d50565b60405180910390f35b60007f80ac58cd000000000000000000000000000000000000000000000000000000007bffffffffffffffffffffffffffffffffffffffffffffffffffffffff1916827bffffffffffffffffffffffffffffffffffffffffffffffffffffffff191614806103d257507f5b5e139f000000000000000000000000000000000000000000000000000000007bffffffffffffffffffffffffffffffffffffffffffffffffffffffff1916827bffffffffffffffffffffffffffffffffffffffffffffffffffffffff1916145b806103e257506103e182610a74565b5b9050919050565b6060600080546103f890612172565b80601f016020809104026020016040519081016040528092919081815260200182805461042490612172565b80156104715780601f1061044657610100808354040283529160200191610471565b820191906000526020600020905b81548152906001019060200180831161045457829003601f168201915b5050505050905090565b600061048682610ade565b6104c5576040517f08c379a00000000000000000000000000000000000000000000000000000000081526004016104bc90611ecd565b60405180910390fd5b6004600083815260200190815260200160002060009054906101000a900473ffffffffffffffffffffffffffffffffffffffff169050919050565b600061050b82610698565b90508073ffffffffffffffffffffffffffffffffffffffff168373ffffffffffffffffffffffffffffffffffffffff16141561057c576040517f08c379a000000000000000000000000000000000000000000000000000000000815260040161057390611f0d565b60405180910390fd5b8073ffffffffffffffffffffffffffffffffffffffff1661059b610b4a565b73ffffffffffffffffffffffffffffffffffffffff1614806105ca57506105c9816105c4610b4a565b6109e0565b5b610609576040517f08c379a000000000000000000000000000000000000000000000000000000000815260040161060090611e4d565b60405180910390fd5b6106138383610b52565b505050565b610629610623610b4a565b82610c0b565b610668576040517f08c379a000000000000000000000000000000000000000000000000000000000815260040161065f90611f2d565b60405180910390fd5b610673838383610ce9565b505050565b610693838383604051806020016040528060008152506108d7565b505050565b6000806002600084815260200190815260200160002060009054906101000a900473ffffffffffffffffffffffffffffffffffffffff169050600073ffffffffffffffffffffffffffffffffffffffff168173ffffffffffffffffffffffffffffffffffffffff161415610741576040517f08c379a000000000000000000000000000000000000000000000000000000000815260040161073890611e8d565b60405180910390fd5b80915050919050565b60006107566006610f50565b60006107626006610f66565b905061076e8382610f74565b80915050919050565b60008073ffffffffffffffffffffffffffffffffffffffff168273ffffffffffffffffffffffffffffffffffffffff1614156107e8576040517f08c379a00000000000000000000000000000000000000000000000000000000081526004016107df90611e6d565b60405180910390fd5b600360008373ffffffffffffffffffffffffffffffffffffffff1673ffffffffffffffffffffffffffffffffffffffff168152602001908152602001600020549050919050565b60606001805461083e90612172565b80601f016020809104026020016040519081016040528092919081815260200182805461086a90612172565b80156108b75780601f1061088c576101008083540402835291602001916108b7565b820191906000526020600020905b81548152906001019060200180831161089a57829003601f168201915b5050505050905090565b6108d36108cc610b4a565b8383610f92565b5050565b6108e86108e2610b4a565b83610c0b565b610927576040517f08c379a000000000000000000000000000000000000000000000000000000000815260040161091e90611f2d565b60405180910390fd5b610933848484846110ff565b50505050565b606061094482610ade565b610983576040517f08c379a000000000000000000000000000000000000000000000000000000000815260040161097a90611eed565b60405180910390fd5b600061098d61115b565b905060008151116109ad57604051806020016040528060008152506109d8565b806109b784611172565b6040516020016109c8929190611cc5565b6040516020818303038152906040525b915050919050565b6000600560008473ffffffffffffffffffffffffffffffffffffffff1673ffffffffffffffffffffffffffffffffffffffff16815260200190815260200160002060008373ffffffffffffffffffffffffffffffffffffffff1673ffffffffffffffffffffffffffffffffffffffff16815260200190815260200160002060009054906101000a900460ff16905092915050565b60007f01ffc9a7000000000000000000000000000000000000000000000000000000007bffffffffffffffffffffffffffffffffffffffffffffffffffffffff1916827bffffffffffffffffffffffffffffffffffffffffffffffffffffffff1916149050919050565b60008073ffffffffffffffffffffffffffffffffffffffff166002600084815260200190815260200160002060009054906101000a900473ffffffffffffffffffffffffffffffffffffffff1673ffffffffffffffffffffffffffffffffffffffff1614159050919050565b600033905090565b816004600083815260200190815260200160002060006101000a81548173ffffffffffffffffffffffffffffffffffffffff021916908373ffffffffffffffffffffffffffffffffffffffff160217905550808273ffffffffffffffffffffffffffffffffffffffff16610bc583610698565b73ffffffffffffffffffffffffffffffffffffffff167f8c5be1e5ebec7d5bd14f71427d1e84f3dd0314c0f7b2291e5b200ac8c7c3b92560405160405180910390a45050565b6000610c1682610ade565b610c55576040517f08c379a0000000000000000000000000000000000000000000000000000000008152600401610c4c90611e2d565b60405180910390fd5b6000610c6083610698565b90508073ffffffffffffffffffffffffffffffffffffffff168473ffffffffffffffffffffffffffffffffffffffff161480610ccf57508373ffffffffffffffffffffffffffffffffffffffff16610cb78461047b565b73ffffffffffffffffffffffffffffffffffffffff16145b80610ce05750610cdf81856109e0565b5b91505092915050565b8273ffffffffffffffffffffffffffffffffffffffff16610d0982610698565b73ffffffffffffffffffffffffffffffffffffffff1614610d5f576040517f08c379a0000000000000000000000000000000000000000000000000000000008152600401610d5690611dad565b60405180910390fd5b600073ffffffffffffffffffffffffffffffffffffffff168273ffffffffffffffffffffffffffffffffffffffff161415610dcf576040517f08c379a0000000000000000000000000000000000000000000000000000000008152600401610dc690611ded565b60405180910390fd5b610dda83838361131f565b610de5600082610b52565b6001600360008573ffffffffffffffffffffffffffffffffffffffff1673ffffffffffffffffffffffffffffffffffffffff1681526020019081526020016000206000828254610e359190612088565b925050819055506001600360008473ffffffffffffffffffffffffffffffffffffffff1673ffffffffffffffffffffffffffffffffffffffff1681526020019081526020016000206000828254610e8c9190612001565b92505081905550816002600083815260200190815260200160002060006101000a81548173ffffffffffffffffffffffffffffffffffffffff021916908373ffffffffffffffffffffffffffffffffffffffff160217905550808273ffffffffffffffffffffffffffffffffffffffff168473ffffffffffffffffffffffffffffffffffffffff167fddf252ad1be2c89b69c2b068fc378daa952ba7f163c4a11628f55a4df523b3ef60405160405180910390a4610f4b838383611324565b505050565b6001816000016000828254019250508190555050565b600081600001549050919050565b610f8e828260405180602001604052806000815250611329565b5050565b8173ffffffffffffffffffffffffffffffffffffffff168373ffffffffffffffffffffffffffffffffffffffff161415611001576040517f08c379a0000000000000000000000000000000000000000000000000000000008152600401610ff890611e0d565b60405180910390fd5b80600560008573ffffffffffffffffffffffffffffffffffffffff1673ffffffffffffffffffffffffffffffffffffffff16815260200190815260200160002060008473ffffffffffffffffffffffffffffffffffffffff1673ffffffffffffffffffffffffffffffffffffffff16815260200190815260200160002060006101000a81548160ff0219169083151502179055508173ffffffffffffffffffffffffffffffffffffffff168373ffffffffffffffffffffffffffffffffffffffff167f17307eab39ab6107e8899845ad3d59bd9653f200f220920489ca2b5937696c31836040516110f29190611d50565b60405180910390a3505050565b61110a848484610ce9565b61111684848484611384565b611155576040517f08c379a000000000000000000000000000000000000000000000000000000000815260040161114c90611d8d565b60405180910390fd5b50505050565b606060405180602001604052806000815250905090565b606060008214156111ba576040518060400160405280600181526020017f3000000000000000000000000000000000000000000000000000000000000000815250905061131a565b600082905060005b600082146111ec5780806111d5906121d5565b915050600a826111e59190612057565b91506111c2565b60008167ffffffffffffffff81111561122e577f4e487b7100000000000000000000000000000000000000000000000000000000600052604160045260246000fd5b6040519080825280601f01601f1916602001820160405280156112605781602001600182028036833780820191505090505b5090505b60008514611313576001826112799190612088565b9150600a85611288919061221e565b60306112949190612001565b60f81b8183815181106112d0577f4e487b7100000000000000000000000000000000000000000000000000000000600052603260045260246000fd5b60200101907effffffffffffffffffffffffffffffffffffffffffffffffffffffffffffff1916908160001a905350600a8561130c9190612057565b9450611264565b8093505050505b919050565b505050565b505050565b611333838361151b565b6113406000848484611384565b61137f576040517f08c379a000000000000000000000000000000000000000000000000000000000815260040161137690611d8d565b60405180910390fd5b505050565b60006113a58473ffffffffffffffffffffffffffffffffffffffff166116f5565b1561150e578373ffffffffffffffffffffffffffffffffffffffff1663150b7a026113ce610b4a565b8786866040518563ffffffff1660e01b81526004016113f09493929190611d04565b602060405180830381600087803b15801561140a57600080fd5b505af192505050801561143b57506040513d601f19601f8201168201806040525081019061143891906119b9565b60015b6114be573d806000811461146b576040519150601f19603f3d011682016040523d82523d6000602084013e611470565b606091505b506000815114156114b6576040517f08c379a00000000000000000000000000000000000000000000000000000000081526004016114ad90611d8d565b60405180910390fd5b805181602001fd5b63150b7a0260e01b7bffffffffffffffffffffffffffffffffffffffffffffffffffffffff1916817bffffffffffffffffffffffffffffffffffffffffffffffffffffffff191614915050611513565b600190505b949350505050565b600073ffffffffffffffffffffffffffffffffffffffff168273ffffffffffffffffffffffffffffffffffffffff16141561158b576040517f08c379a000000000000000000000000000000000000000000000000000000000815260040161158290611ead565b60405180910390fd5b61159481610ade565b156115d4576040517f08c379a00000000000000000000000000000000000000000000000000000000081526004016115cb90611dcd565b60405180910390fd5b6115e06000838361131f565b6001600360008473ffffffffffffffffffffffffffffffffffffffff1673ffffffffffffffffffffffffffffffffffffffff16815260200190815260200160002060008282546116309190612001565b92505081905550816002600083815260200190815260200160002060006101000a81548173ffffffffffffffffffffffffffffffffffffffff021916908373ffffffffffffffffffffffffffffffffffffffff160217905550808273ffffffffffffffffffffffffffffffffffffffff16600073ffffffffffffffffffffffffffffffffffffffff167fddf252ad1be2c89b69c2b068fc378daa952ba7f163c4a11628f55a4df523b3ef60405160405180910390a46116f160008383611324565b5050565b6000808273ffffffffffffffffffffffffffffffffffffffff163b119050919050565b600061172b61172684611f8d565b611f68565b90508281526020810184848401111561174357600080fd5b61174e848285612130565b509392505050565b600081359050611765816126fc565b92915050565b60008135905061177a81612713565b92915050565b60008135905061178f8161272a565b92915050565b6000815190506117a48161272a565b92915050565b600082601f8301126117bb57600080fd5b81356117cb848260208601611718565b91505092915050565b6000813590506117e381612741565b92915050565b6000602082840312156117fb57600080fd5b600061180984828501611756565b91505092915050565b6000806040838503121561182557600080fd5b600061183385828601611756565b925050602061184485828601611756565b9150509250929050565b60008060006060848603121561186357600080fd5b600061187186828701611756565b935050602061188286828701611756565b9250506040611893868287016117d4565b9150509250925092565b600080600080608085870312156118b357600080fd5b60006118c187828801611756565b94505060206118d287828801611756565b93505060406118e3878288016117d4565b925050606085013567ffffffffffffffff81111561190057600080fd5b61190c878288016117aa565b91505092959194509250565b6000806040838503121561192b57600080fd5b600061193985828601611756565b925050602061194a8582860161176b565b9150509250929050565b6000806040838503121561196757600080fd5b600061197585828601611756565b9250506020611986858286016117d4565b9150509250929050565b6000602082840312156119a257600080fd5b60006119b084828501611780565b91505092915050565b6000602082840312156119cb57600080fd5b60006119d984828501611795565b91505092915050565b6000602082840312156119f457600080fd5b6000611a02848285016117d4565b91505092915050565b611a14816120bc565b82525050565b611a23816120ce565b82525050565b6000611a3482611fbe565b611a3e8185611fd4565b9350611a4e81856020860161213f565b611a578161230b565b840191505092915050565b6000611a6d82611fc9565b611a778185611fe5565b9350611a8781856020860161213f565b611a908161230b565b840191505092915050565b6000611aa682611fc9565b611ab08185611ff6565b9350611ac081856020860161213f565b80840191505092915050565b6000611ad9603283611fe5565b9150611ae48261231c565b604082019050919050565b6000611afc602583611fe5565b9150611b078261236b565b604082019050919050565b6000611b1f601c83611fe5565b9150611b2a826123ba565b602082019050919050565b6000611b42602483611fe5565b9150611b4d826123e3565b604082019050919050565b6000611b65601983611fe5565b9150611b7082612432565b602082019050919050565b6000611b88602c83611fe5565b9150611b938261245b565b604082019050919050565b6000611bab603883611fe5565b9150611bb6826124aa565b604082019050919050565b6000611bce602a83611fe5565b9150611bd9826124f9565b604082019050919050565b6000611bf1602983611fe5565b9150611bfc82612548565b604082019050919050565b6000611c14602083611fe5565b9150611c1f82612597565b602082019050919050565b6000611c37602c83611fe5565b9150611c42826125c0565b604082019050919050565b6000611c5a602f83611fe5565b9150611c658261260f565b604082019050919050565b6000611c7d602183611fe5565b9150611c888261265e565b604082019050919050565b6000611ca0603183611fe5565b9150611cab826126ad565b604082019050919050565b611cbf81612126565b82525050565b6000611cd18285611a9b565b9150611cdd8284611a9b565b91508190509392505050565b6000602082019050611cfe6000830184611a0b565b92915050565b6000608082019050611d196000830187611a0b565b611d266020830186611a0b565b611d336040830185611cb6565b8181036060830152611d458184611a29565b905095945050505050565b6000602082019050611d656000830184611a1a565b92915050565b60006020820190508181036000830152611d858184611a62565b905092915050565b60006020820190508181036000830152611da681611acc565b9050919050565b60006020820190508181036000830152611dc681611aef565b9050919050565b60006020820190508181036000830152611de681611b12565b9050919050565b60006020820190508181036000830152611e0681611b35565b9050919050565b60006020820190508181036000830152611e2681611b58565b9050919050565b60006020820190508181036000830152611e4681611b7b565b9050919050565b60006020820190508181036000830152611e6681611b9e565b9050919050565b60006020820190508181036000830152611e8681611bc1565b9050919050565b60006020820190508181036000830152611ea681611be4565b9050919050565b60006020820190508181036000830152611ec681611c07565b9050919050565b60006020820190508181036000830152611ee681611c2a565b9050919050565b60006020820190508181036000830152611f0681611c4d565b9050919050565b60006020820190508181036000830152611f2681611c70565b9050919050565b60006020820190508181036000830152611f4681611c93565b9050919050565b6000602082019050611f626000830184611cb6565b92915050565b6000611f72611f83565b9050611f7e82826121a4565b919050565b6000604051905090565b600067ffffffffffffffff821115611fa857611fa76122dc565b5b611fb18261230b565b9050602081019050919050565b600081519050919050565b600081519050919050565b600082825260208201905092915050565b600082825260208201905092915050565b600081905092915050565b600061200c82612126565b915061201783612126565b9250827fffffffffffffffffffffffffffffffffffffffffffffffffffffffffffffffff0382111561204c5761204b61224f565b5b828201905092915050565b600061206282612126565b915061206d83612126565b92508261207d5761207c61227e565b5b828204905092915050565b600061209382612126565b915061209e83612126565b9250828210156120b1576120b061224f565b5b828203905092915050565b60006120c782612106565b9050919050565b60008115159050919050565b60007fffffffff0000000000000000000000000000000000000000000000000000000082169050919050565b600073ffffffffffffffffffffffffffffffffffffffff82169050919050565b6000819050919050565b82818337600083830152505050565b60005b8381101561215d578082015181840152602081019050612142565b8381111561216c576000848401525b50505050565b6000600282049050600182168061218a57607f821691505b6020821081141561219e5761219d6122ad565b5b50919050565b6121ad8261230b565b810181811067ffffffffffffffff821117156121cc576121cb6122dc565b5b80604052505050565b60006121e082612126565b91507fffffffffffffffffffffffffffffffffffffffffffffffffffffffffffffffff8214156122135761221261224f565b5b600182019050919050565b600061222982612126565b915061223483612126565b9250826122445761224361227e565b5b828206905092915050565b7f4e487b7100000000000000000000000000000000000000000000000000000000600052601160045260246000fd5b7f4e487b7100000000000000000000000000000000000000000000000000000000600052601260045260246000fd5b7f4e487b7100000000000000000000000000000000000000000000000000000000600052602260045260246000fd5b7f4e487b7100000000000000000000000000000000000000000000000000000000600052604160045260246000fd5b6000601f19601f8301169050919050565b7f4552433732313a207472616e7366657220746f206e6f6e20455243373231526560008201527f63656976657220696d706c656d656e7465720000000000000000000000000000602082015250565b7f4552433732313a207472616e736665722066726f6d20696e636f72726563742060008201527f6f776e6572000000000000000000000000000000000000000000000000000000602082015250565b7f4552433732313a20746f6b656e20616c7265616479206d696e74656400000000600082015250565b7f4552433732313a207472616e7366657220746f20746865207a65726f2061646460008201527f7265737300000000000000000000000000000000000000000000000000000000602082015250565b7f4552433732313a20617070726f766520746f2063616c6c657200000000000000600082015250565b7f4552433732313a206f70657261746f7220717565727920666f72206e6f6e657860008201527f697374656e7420746f6b656e0000000000000000000000000000000000000000602082015250565b7f4552433732313a20617070726f76652063616c6c6572206973206e6f74206f7760008201527f6e6572206e6f7220617070726f76656420666f7220616c6c0000000000000000602082015250565b7f4552433732313a2062616c616e636520717565727920666f7220746865207a6560008201527f726f206164647265737300000000000000000000000000000000000000000000602082015250565b7f4552433732313a206f776e657220717565727920666f72206e6f6e657869737460008201527f656e7420746f6b656e0000000000000000000000000000000000000000000000602082015250565b7f4552433732313a206d696e7420746f20746865207a65726f2061646472657373600082015250565b7f4552433732313a20617070726f76656420717565727920666f72206e6f6e657860008201527f697374656e7420746f6b656e0000000000000000000000000000000000000000602082015250565b7f4552433732314d657461646174613a2055524920717565727920666f72206e6f60008201527f6e6578697374656e7420746f6b656e0000000000000000000000000000000000602082015250565b7f4552433732313a20617070726f76616c20746f2063757272656e74206f776e6560008201527f7200000000000000000000000000000000000000000000000000000000000000602082015250565b7f4552433732313a207472616e736665722063616c6c6572206973206e6f74206f60008201527f776e6572206e6f7220617070726f766564000000000000000000000000000000602082015250565b612705816120bc565b811461271057600080fd5b50565b61271c816120ce565b811461272757600080fd5b50565b612733816120da565b811461273e57600080fd5b50565b61274a81612126565b811461275557600080fd5b5056fea2646970667358221220c24cdce4aa7469443a9a22e76da776d7d478506ab8fadc406c920e20f105517c64736f6c63430008010033",
  "linkReferences": {},
  "deployedLinkReferences": {}
}