{
  "_format": "hh-sol-artifact-1",
  "contractName": "NFT",
  "sourceName": "contracts/NFT.sol",
  "abi": [
    {
      "inputs": [],
      "stateMutability": "nonpayable",
      "type": "constructor"
    },
    {
      "anonymous": false,
      "inputs": [
        {
          "indexed": true,
          "internalType": "address",
          "name": "owner",
          "type": "address"
        },
        {
          "indexed": true,
          "internalType": "address",
          "name": "approved",
          "type": "address"
        },
        {
          "indexed": true,
          "internalType": "uint256",
          "name": "tokenId",
          "type": "uint256"
        }
      ],
      "name": "Approval",
      "type": "event"
    },
    {
      "anonymous": false,
      "inputs": [
        {
          "indexed": true,
          "internalType": "address",
          "name": "owner",
          "type": "address"
        },
        {
          "indexed": true,
          "internalType": "address",
          "name": "operator",
          "type": "address"
        },
        {
          "indexed": false,
          "internalType": "bool",
          "name": "approved",
          "type": "bool"
        }
      ],
      "name": "ApprovalForAll",
      "type": "event"
    },
    {
      "anonymous": false,
      "inputs": [
        {
          "indexed": true,
          "internalType": "address",
          "name": "from",
          "type": "address"
        },
        {
          "indexed": true,
          "internalType": "address",
          "name": "to",
          "type": "address"
        },
        {
          "indexed": true,
          "internalType": "uint256",
          "name": "tokenId",
          "type": "uint256"
        }
      ],
      "name": "Transfer",
      "type": "event"
    },
    {
      "inputs": [
        {
          "internalType": "address",
          "name": "to",
          "type": "address"
        },
        {
          "internalType": "uint256",
          "name": "tokenId",
          "type": "uint256"
        }
      ],
      "name": "approve",
      "outputs": [],
      "stateMutability": "nonpayable",
      "type": "function"
    },
    {
      "inputs": [
        {
          "internalType": "address",
          "name": "owner",
          "type": "address"
        }
      ],
      "name": "balanceOf",
      "outputs": [
        {
          "internalType": "uint256",
          "name": "",
          "type": "uint256"
        }
      ],
      "stateMutability": "view",
      "type": "function"
    },
    {
      "inputs": [],
      "name": "baseTokenURI",
      "outputs": [
        {
          "internalType": "string",
          "name": "",
          "type": "string"
        }
      ],
      "stateMutability": "view",
      "type": "function"
    },
    {
      "inputs": [
        {
          "internalType": "uint256",
          "name": "tokenId",
          "type": "uint256"
        }
      ],
      "name": "getApproved",
      "outputs": [
        {
          "internalType": "address",
          "name": "",
          "type": "address"
        }
      ],
      "stateMutability": "view",
      "type": "function"
    },
    {
      "inputs": [
        {
          "internalType": "address",
          "name": "owner",
          "type": "address"
        },
        {
          "internalType": "address",
          "name": "operator",
          "type": "address"
        }
      ],
      "name": "isApprovedForAll",
      "outputs": [
        {
          "internalType": "bool",
          "name": "",
          "type": "bool"
        }
      ],
      "stateMutability": "view",
      "type": "function"
    },
    {
      "inputs": [
        {
          "internalType": "address",
          "name": "recipientAddress",
          "type": "address"
        },
        {
          "internalType": "string",
          "name": "tokenURI",
          "type": "string"
        }
      ],
      "name": "mint",
      "outputs": [
        {
          "internalType": "uint256",
          "name": "",
          "type": "uint256"
        }
      ],
      "stateMutability": "nonpayable",
      "type": "function"
    },
    {
      "inputs": [],
      "name": "name",
      "outputs": [
        {
          "internalType": "string",
          "name": "",
          "type": "string"
        }
      ],
      "stateMutability": "view",
      "type": "function"
    },
    {
      "inputs": [
        {
          "internalType": "uint256",
          "name": "tokenId",
          "type": "uint256"
        }
      ],
      "name": "ownerOf",
      "outputs": [
        {
          "internalType": "address",
          "name": "",
          "type": "address"
        }
      ],
      "stateMutability": "view",
      "type": "function"
    },
    {
      "inputs": [
        {
          "internalType": "address",
          "name": "from",
          "type": "address"
        },
        {
          "internalType": "address",
          "name": "to",
          "type": "address"
        },
        {
          "internalType": "uint256",
          "name": "tokenId",
          "type": "uint256"
        }
      ],
      "name": "safeTransferFrom",
      "outputs": [],
      "stateMutability": "nonpayable",
      "type": "function"
    },
    {
      "inputs": [
        {
          "internalType": "address",
          "name": "from",
          "type": "address"
        },
        {
          "internalType": "address",
          "name": "to",
          "type": "address"
        },
        {
          "internalType": "uint256",
          "name": "tokenId",
          "type": "uint256"
        },
        {
          "internalType": "bytes",
          "name": "_data",
          "type": "bytes"
        }
      ],
      "name": "safeTransferFrom",
      "outputs": [],
      "stateMutability": "nonpayable",
      "type": "function"
    },
    {
      "inputs": [
        {
          "internalType": "address",
          "name": "operator",
          "type": "address"
        },
        {
          "internalType": "bool",
          "name": "approved",
          "type": "bool"
        }
      ],
      "name": "setApprovalForAll",
      "outputs": [],
      "stateMutability": "nonpayable",
      "type": "function"
    },
    {
      "inputs": [
        {
          "internalType": "bytes4",
          "name": "interfaceId",
          "type": "bytes4"
        }
      ],
      "name": "supportsInterface",
      "outputs": [
        {
          "internalType": "bool",
          "name": "",
          "type": "bool"
        }
      ],
      "stateMutability": "view",
      "type": "function"
    },
    {
      "inputs": [],
      "name": "symbol",
      "outputs": [
        {
          "internalType": "string",
          "name": "",
          "type": "string"
        }
      ],
      "stateMutability": "view",
      "type": "function"
    },
    {
      "inputs": [
        {
          "internalType": "uint256",
          "name": "tokenId",
          "type": "uint256"
        }
      ],
      "name": "tokenURI",
      "outputs": [
        {
          "internalType": "string",
          "name": "",
          "type": "string"
        }
      ],
      "stateMutability": "view",
      "type": "function"
    },
    {
      "inputs": [
        {
          "internalType": "address",
          "name": "from",
          "type": "address"
        },
        {
          "internalType": "address",
          "name": "to",
          "type": "address"
        },
        {
          "internalType": "uint256",
          "name": "tokenId",
          "type": "uint256"
        }
      ],
      "name": "transferFrom",
      "outputs": [],
      "stateMutability": "nonpayable",
      "type": "function"
    }
  ],
  "bytecode": "0x60806040523480156200001157600080fd5b506040518060400160405280600681526020017f55564c61627300000000000000000000000000000000000000000000000000008152506040518060400160405280600381526020017f55564c0000000000000000000000000000000000000000000000000000000000815250816000908051906020019062000096929190620000b8565b508060019080519060200190620000af929190620000b8565b505050620001cd565b828054620000c69062000168565b90600052602060002090601f016020900481019282620000ea576000855562000136565b82601f106200010557805160ff191683800117855562000136565b8280016001018555821562000136579182015b828111156200013557825182559160200191906001019062000118565b5b50905062000145919062000149565b5090565b5b80821115620001645760008160009055506001016200014a565b5090565b600060028204905060018216806200018157607f821691505b602082108114156200019857620001976200019e565b5b50919050565b7f4e487b7100000000000000000000000000000000000000000000000000000000600052602260045260246000fd5b61293380620001dd6000396000f3fe608060405234801561001057600080fd5b50600436106100f55760003560e01c806370a0823111610097578063c87b56dd11610066578063c87b56dd14610282578063d0def521146102b2578063d547cfb7146102e2578063e985e9c514610300576100f5565b806370a08231146101fc57806395d89b411461022c578063a22cb4651461024a578063b88d4fde14610266576100f5565b8063095ea7b3116100d3578063095ea7b31461017857806323b872dd1461019457806342842e0e146101b05780636352211e146101cc576100f5565b806301ffc9a7146100fa57806306fdde031461012a578063081812fc14610148575b600080fd5b610114600480360381019061010f9190611b04565b610330565b6040516101219190611ec4565b60405180910390f35b610132610412565b60405161013f9190611edf565b60405180910390f35b610162600480360381019061015d9190611b56565b6104a4565b60405161016f9190611e5d565b60405180910390f35b610192600480360381019061018d9190611ac8565b610529565b005b6101ae60048036038101906101a9919061196e565b610641565b005b6101ca60048036038101906101c5919061196e565b6106a1565b005b6101e660048036038101906101e19190611b56565b6106c1565b6040516101f39190611e5d565b60405180910390f35b61021660048036038101906102119190611909565b610773565b60405161022391906120c1565b60405180910390f35b61023461082b565b6040516102419190611edf565b60405180910390f35b610264600480360381019061025f9190611a38565b6108bd565b005b610280600480360381019061027b91906119bd565b6108d3565b005b61029c60048036038101906102979190611b56565b610935565b6040516102a99190611edf565b60405180910390f35b6102cc60048036038101906102c79190611a74565b6109dc565b6040516102d991906120c1565b60405180910390f35b6102ea610a0a565b6040516102f79190611edf565b60405180910390f35b61031a60048036038101906103159190611932565b610a98565b6040516103279190611ec4565b60405180910390f35b60007f80ac58cd000000000000000000000000000000000000000000000000000000007bffffffffffffffffffffffffffffffffffffffffffffffffffffffff1916827bffffffffffffffffffffffffffffffffffffffffffffffffffffffff191614806103fb57507f5b5e139f000000000000000000000000000000000000000000000000000000007bffffffffffffffffffffffffffffffffffffffffffffffffffffffff1916827bffffffffffffffffffffffffffffffffffffffffffffffffffffffff1916145b8061040b575061040a82610b2c565b5b9050919050565b60606000805461042190612317565b80601f016020809104026020016040519081016040528092919081815260200182805461044d90612317565b801561049a5780601f1061046f5761010080835404028352916020019161049a565b820191906000526020600020905b81548152906001019060200180831161047d57829003601f168201915b5050505050905090565b60006104af82610b96565b6104ee576040517f08c379a00000000000000000000000000000000000000000000000000000000081526004016104e590612041565b60405180910390fd5b6004600083815260200190815260200160002060009054906101000a900473ffffffffffffffffffffffffffffffffffffffff169050919050565b6000610534826106c1565b90508073ffffffffffffffffffffffffffffffffffffffff168373ffffffffffffffffffffffffffffffffffffffff1614156105a5576040517f08c379a000000000000000000000000000000000000000000000000000000000815260040161059c90612081565b60405180910390fd5b8073ffffffffffffffffffffffffffffffffffffffff166105c4610c02565b73ffffffffffffffffffffffffffffffffffffffff1614806105f357506105f2816105ed610c02565b610a98565b5b610632576040517f08c379a000000000000000000000000000000000000000000000000000000000815260040161062990611fc1565b60405180910390fd5b61063c8383610c0a565b505050565b61065261064c610c02565b82610cc3565b610691576040517f08c379a0000000000000000000000000000000000000000000000000000000008152600401610688906120a1565b60405180910390fd5b61069c838383610da1565b505050565b6106bc838383604051806020016040528060008152506108d3565b505050565b6000806002600084815260200190815260200160002060009054906101000a900473ffffffffffffffffffffffffffffffffffffffff169050600073ffffffffffffffffffffffffffffffffffffffff168173ffffffffffffffffffffffffffffffffffffffff16141561076a576040517f08c379a000000000000000000000000000000000000000000000000000000000815260040161076190612001565b60405180910390fd5b80915050919050565b60008073ffffffffffffffffffffffffffffffffffffffff168273ffffffffffffffffffffffffffffffffffffffff1614156107e4576040517f08c379a00000000000000000000000000000000000000000000000000000000081526004016107db90611fe1565b60405180910390fd5b600360008373ffffffffffffffffffffffffffffffffffffffff1673ffffffffffffffffffffffffffffffffffffffff168152602001908152602001600020549050919050565b60606001805461083a90612317565b80601f016020809104026020016040519081016040528092919081815260200182805461086690612317565b80156108b35780601f10610888576101008083540402835291602001916108b3565b820191906000526020600020905b81548152906001019060200180831161089657829003601f168201915b5050505050905090565b6108cf6108c8610c02565b8383611008565b5050565b6108e46108de610c02565b83610cc3565b610923576040517f08c379a000000000000000000000000000000000000000000000000000000000815260040161091a906120a1565b60405180910390fd5b61092f84848484611175565b50505050565b606061094082610b96565b61097f576040517f08c379a000000000000000000000000000000000000000000000000000000000815260040161097690612061565b60405180910390fd5b60006109896111d1565b905060008151116109a957604051806020016040528060008152506109d4565b806109b3846111e8565b6040516020016109c4929190611e39565b6040516020818303038152906040525b915050919050565b60006109e86006611395565b60006109f460066113ab565b9050610a0084826113b9565b8091505092915050565b60078054610a1790612317565b80601f0160208091040260200160405190810160405280929190818152602001828054610a4390612317565b8015610a905780601f10610a6557610100808354040283529160200191610a90565b820191906000526020600020905b815481529060010190602001808311610a7357829003601f168201915b505050505081565b6000600560008473ffffffffffffffffffffffffffffffffffffffff1673ffffffffffffffffffffffffffffffffffffffff16815260200190815260200160002060008373ffffffffffffffffffffffffffffffffffffffff1673ffffffffffffffffffffffffffffffffffffffff16815260200190815260200160002060009054906101000a900460ff16905092915050565b60007f01ffc9a7000000000000000000000000000000000000000000000000000000007bffffffffffffffffffffffffffffffffffffffffffffffffffffffff1916827bffffffffffffffffffffffffffffffffffffffffffffffffffffffff1916149050919050565b60008073ffffffffffffffffffffffffffffffffffffffff166002600084815260200190815260200160002060009054906101000a900473ffffffffffffffffffffffffffffffffffffffff1673ffffffffffffffffffffffffffffffffffffffff1614159050919050565b600033905090565b816004600083815260200190815260200160002060006101000a81548173ffffffffffffffffffffffffffffffffffffffff021916908373ffffffffffffffffffffffffffffffffffffffff160217905550808273ffffffffffffffffffffffffffffffffffffffff16610c7d836106c1565b73ffffffffffffffffffffffffffffffffffffffff167f8c5be1e5ebec7d5bd14f71427d1e84f3dd0314c0f7b2291e5b200ac8c7c3b92560405160405180910390a45050565b6000610cce82610b96565b610d0d576040517f08c379a0000000000000000000000000000000000000000000000000000000008152600401610d0490611fa1565b60405180910390fd5b6000610d18836106c1565b90508073ffffffffffffffffffffffffffffffffffffffff168473ffffffffffffffffffffffffffffffffffffffff161480610d8757508373ffffffffffffffffffffffffffffffffffffffff16610d6f846104a4565b73ffffffffffffffffffffffffffffffffffffffff16145b80610d985750610d978185610a98565b5b91505092915050565b8273ffffffffffffffffffffffffffffffffffffffff16610dc1826106c1565b73ffffffffffffffffffffffffffffffffffffffff1614610e17576040517f08c379a0000000000000000000000000000000000000000000000000000000008152600401610e0e90611f21565b60405180910390fd5b600073ffffffffffffffffffffffffffffffffffffffff168273ffffffffffffffffffffffffffffffffffffffff161415610e87576040517f08c379a0000000000000000000000000000000000000000000000000000000008152600401610e7e90611f61565b60405180910390fd5b610e928383836113d7565b610e9d600082610c0a565b6001600360008573ffffffffffffffffffffffffffffffffffffffff1673ffffffffffffffffffffffffffffffffffffffff1681526020019081526020016000206000828254610eed919061222d565b925050819055506001600360008473ffffffffffffffffffffffffffffffffffffffff1673ffffffffffffffffffffffffffffffffffffffff1681526020019081526020016000206000828254610f4491906121a6565b92505081905550816002600083815260200190815260200160002060006101000a81548173ffffffffffffffffffffffffffffffffffffffff021916908373ffffffffffffffffffffffffffffffffffffffff160217905550808273ffffffffffffffffffffffffffffffffffffffff168473ffffffffffffffffffffffffffffffffffffffff167fddf252ad1be2c89b69c2b068fc378daa952ba7f163c4a11628f55a4df523b3ef60405160405180910390a46110038383836113dc565b505050565b8173ffffffffffffffffffffffffffffffffffffffff168373ffffffffffffffffffffffffffffffffffffffff161415611077576040517f08c379a000000000000000000000000000000000000000000000000000000000815260040161106e90611f81565b60405180910390fd5b80600560008573ffffffffffffffffffffffffffffffffffffffff1673ffffffffffffffffffffffffffffffffffffffff16815260200190815260200160002060008473ffffffffffffffffffffffffffffffffffffffff1673ffffffffffffffffffffffffffffffffffffffff16815260200190815260200160002060006101000a81548160ff0219169083151502179055508173ffffffffffffffffffffffffffffffffffffffff168373ffffffffffffffffffffffffffffffffffffffff167f17307eab39ab6107e8899845ad3d59bd9653f200f220920489ca2b5937696c31836040516111689190611ec4565b60405180910390a3505050565b611180848484610da1565b61118c848484846113e1565b6111cb576040517f08c379a00000000000000000000000000000000000000000000000000000000081526004016111c290611f01565b60405180910390fd5b50505050565b606060405180602001604052806000815250905090565b60606000821415611230576040518060400160405280600181526020017f30000000000000000000000000000000000000000000000000000000000000008152509050611390565b600082905060005b6000821461126257808061124b9061237a565b915050600a8261125b91906121fc565b9150611238565b60008167ffffffffffffffff8111156112a4577f4e487b7100000000000000000000000000000000000000000000000000000000600052604160045260246000fd5b6040519080825280601f01601f1916602001820160405280156112d65781602001600182028036833780820191505090505b5090505b60008514611389576001826112ef919061222d565b9150600a856112fe91906123c3565b603061130a91906121a6565b60f81b818381518110611346577f4e487b7100000000000000000000000000000000000000000000000000000000600052603260045260246000fd5b60200101907effffffffffffffffffffffffffffffffffffffffffffffffffffffffffffff1916908160001a905350600a8561138291906121fc565b94506112da565b8093505050505b919050565b6001816000016000828254019250508190555050565b600081600001549050919050565b6113d3828260405180602001604052806000815250611578565b5050565b505050565b505050565b60006114028473ffffffffffffffffffffffffffffffffffffffff166115d3565b1561156b578373ffffffffffffffffffffffffffffffffffffffff1663150b7a0261142b610c02565b8786866040518563ffffffff1660e01b815260040161144d9493929190611e78565b602060405180830381600087803b15801561146757600080fd5b505af192505050801561149857506040513d601f19601f820116820180604052508101906114959190611b2d565b60015b61151b573d80600081146114c8576040519150601f19603f3d011682016040523d82523d6000602084013e6114cd565b606091505b50600081511415611513576040517f08c379a000000000000000000000000000000000000000000000000000000000815260040161150a90611f01565b60405180910390fd5b805181602001fd5b63150b7a0260e01b7bffffffffffffffffffffffffffffffffffffffffffffffffffffffff1916817bffffffffffffffffffffffffffffffffffffffffffffffffffffffff191614915050611570565b600190505b949350505050565b61158283836115f6565b61158f60008484846113e1565b6115ce576040517f08c379a00000000000000000000000000000000000000000000000000000000081526004016115c590611f01565b60405180910390fd5b505050565b6000808273ffffffffffffffffffffffffffffffffffffffff163b119050919050565b600073ffffffffffffffffffffffffffffffffffffffff168273ffffffffffffffffffffffffffffffffffffffff161415611666576040517f08c379a000000000000000000000000000000000000000000000000000000000815260040161165d90612021565b60405180910390fd5b61166f81610b96565b156116af576040517f08c379a00000000000000000000000000000000000000000000000000000000081526004016116a690611f41565b60405180910390fd5b6116bb600083836113d7565b6001600360008473ffffffffffffffffffffffffffffffffffffffff1673ffffffffffffffffffffffffffffffffffffffff168152602001908152602001600020600082825461170b91906121a6565b92505081905550816002600083815260200190815260200160002060006101000a81548173ffffffffffffffffffffffffffffffffffffffff021916908373ffffffffffffffffffffffffffffffffffffffff160217905550808273ffffffffffffffffffffffffffffffffffffffff16600073ffffffffffffffffffffffffffffffffffffffff167fddf252ad1be2c89b69c2b068fc378daa952ba7f163c4a11628f55a4df523b3ef60405160405180910390a46117cc600083836113dc565b5050565b60006117e36117de84612101565b6120dc565b9050828152602081018484840111156117fb57600080fd5b6118068482856122d5565b509392505050565b600061182161181c84612132565b6120dc565b90508281526020810184848401111561183957600080fd5b6118448482856122d5565b509392505050565b60008135905061185b816128a1565b92915050565b600081359050611870816128b8565b92915050565b600081359050611885816128cf565b92915050565b60008151905061189a816128cf565b92915050565b600082601f8301126118b157600080fd5b81356118c18482602086016117d0565b91505092915050565b600082601f8301126118db57600080fd5b81356118eb84826020860161180e565b91505092915050565b600081359050611903816128e6565b92915050565b60006020828403121561191b57600080fd5b60006119298482850161184c565b91505092915050565b6000806040838503121561194557600080fd5b60006119538582860161184c565b92505060206119648582860161184c565b9150509250929050565b60008060006060848603121561198357600080fd5b60006119918682870161184c565b93505060206119a28682870161184c565b92505060406119b3868287016118f4565b9150509250925092565b600080600080608085870312156119d357600080fd5b60006119e18782880161184c565b94505060206119f28782880161184c565b9350506040611a03878288016118f4565b925050606085013567ffffffffffffffff811115611a2057600080fd5b611a2c878288016118a0565b91505092959194509250565b60008060408385031215611a4b57600080fd5b6000611a598582860161184c565b9250506020611a6a85828601611861565b9150509250929050565b60008060408385031215611a8757600080fd5b6000611a958582860161184c565b925050602083013567ffffffffffffffff811115611ab257600080fd5b611abe858286016118ca565b9150509250929050565b60008060408385031215611adb57600080fd5b6000611ae98582860161184c565b9250506020611afa858286016118f4565b9150509250929050565b600060208284031215611b1657600080fd5b6000611b2484828501611876565b91505092915050565b600060208284031215611b3f57600080fd5b6000611b4d8482850161188b565b91505092915050565b600060208284031215611b6857600080fd5b6000611b76848285016118f4565b91505092915050565b611b8881612261565b82525050565b611b9781612273565b82525050565b6000611ba882612163565b611bb28185612179565b9350611bc28185602086016122e4565b611bcb816124b0565b840191505092915050565b6000611be18261216e565b611beb818561218a565b9350611bfb8185602086016122e4565b611c04816124b0565b840191505092915050565b6000611c1a8261216e565b611c24818561219b565b9350611c348185602086016122e4565b80840191505092915050565b6000611c4d60328361218a565b9150611c58826124c1565b604082019050919050565b6000611c7060258361218a565b9150611c7b82612510565b604082019050919050565b6000611c93601c8361218a565b9150611c9e8261255f565b602082019050919050565b6000611cb660248361218a565b9150611cc182612588565b604082019050919050565b6000611cd960198361218a565b9150611ce4826125d7565b602082019050919050565b6000611cfc602c8361218a565b9150611d0782612600565b604082019050919050565b6000611d1f60388361218a565b9150611d2a8261264f565b604082019050919050565b6000611d42602a8361218a565b9150611d4d8261269e565b604082019050919050565b6000611d6560298361218a565b9150611d70826126ed565b604082019050919050565b6000611d8860208361218a565b9150611d938261273c565b602082019050919050565b6000611dab602c8361218a565b9150611db682612765565b604082019050919050565b6000611dce602f8361218a565b9150611dd9826127b4565b604082019050919050565b6000611df160218361218a565b9150611dfc82612803565b604082019050919050565b6000611e1460318361218a565b9150611e1f82612852565b604082019050919050565b611e33816122cb565b82525050565b6000611e458285611c0f565b9150611e518284611c0f565b91508190509392505050565b6000602082019050611e726000830184611b7f565b92915050565b6000608082019050611e8d6000830187611b7f565b611e9a6020830186611b7f565b611ea76040830185611e2a565b8181036060830152611eb98184611b9d565b905095945050505050565b6000602082019050611ed96000830184611b8e565b92915050565b60006020820190508181036000830152611ef98184611bd6565b905092915050565b60006020820190508181036000830152611f1a81611c40565b9050919050565b60006020820190508181036000830152611f3a81611c63565b9050919050565b60006020820190508181036000830152611f5a81611c86565b9050919050565b60006020820190508181036000830152611f7a81611ca9565b9050919050565b60006020820190508181036000830152611f9a81611ccc565b9050919050565b60006020820190508181036000830152611fba81611cef565b9050919050565b60006020820190508181036000830152611fda81611d12565b9050919050565b60006020820190508181036000830152611ffa81611d35565b9050919050565b6000602082019050818103600083015261201a81611d58565b9050919050565b6000602082019050818103600083015261203a81611d7b565b9050919050565b6000602082019050818103600083015261205a81611d9e565b9050919050565b6000602082019050818103600083015261207a81611dc1565b9050919050565b6000602082019050818103600083015261209a81611de4565b9050919050565b600060208201905081810360008301526120ba81611e07565b9050919050565b60006020820190506120d66000830184611e2a565b92915050565b60006120e66120f7565b90506120f28282612349565b919050565b6000604051905090565b600067ffffffffffffffff82111561211c5761211b612481565b5b612125826124b0565b9050602081019050919050565b600067ffffffffffffffff82111561214d5761214c612481565b5b612156826124b0565b9050602081019050919050565b600081519050919050565b600081519050919050565b600082825260208201905092915050565b600082825260208201905092915050565b600081905092915050565b60006121b1826122cb565b91506121bc836122cb565b9250827fffffffffffffffffffffffffffffffffffffffffffffffffffffffffffffffff038211156121f1576121f06123f4565b5b828201905092915050565b6000612207826122cb565b9150612212836122cb565b92508261222257612221612423565b5b828204905092915050565b6000612238826122cb565b9150612243836122cb565b925082821015612256576122556123f4565b5b828203905092915050565b600061226c826122ab565b9050919050565b60008115159050919050565b60007fffffffff0000000000000000000000000000000000000000000000000000000082169050919050565b600073ffffffffffffffffffffffffffffffffffffffff82169050919050565b6000819050919050565b82818337600083830152505050565b60005b838110156123025780820151818401526020810190506122e7565b83811115612311576000848401525b50505050565b6000600282049050600182168061232f57607f821691505b6020821081141561234357612342612452565b5b50919050565b612352826124b0565b810181811067ffffffffffffffff8211171561237157612370612481565b5b80604052505050565b6000612385826122cb565b91507fffffffffffffffffffffffffffffffffffffffffffffffffffffffffffffffff8214156123b8576123b76123f4565b5b600182019050919050565b60006123ce826122cb565b91506123d9836122cb565b9250826123e9576123e8612423565b5b828206905092915050565b7f4e487b7100000000000000000000000000000000000000000000000000000000600052601160045260246000fd5b7f4e487b7100000000000000000000000000000000000000000000000000000000600052601260045260246000fd5b7f4e487b7100000000000000000000000000000000000000000000000000000000600052602260045260246000fd5b7f4e487b7100000000000000000000000000000000000000000000000000000000600052604160045260246000fd5b6000601f19601f8301169050919050565b7f4552433732313a207472616e7366657220746f206e6f6e20455243373231526560008201527f63656976657220696d706c656d656e7465720000000000000000000000000000602082015250565b7f4552433732313a207472616e736665722066726f6d20696e636f72726563742060008201527f6f776e6572000000000000000000000000000000000000000000000000000000602082015250565b7f4552433732313a20746f6b656e20616c7265616479206d696e74656400000000600082015250565b7f4552433732313a207472616e7366657220746f20746865207a65726f2061646460008201527f7265737300000000000000000000000000000000000000000000000000000000602082015250565b7f4552433732313a20617070726f766520746f2063616c6c657200000000000000600082015250565b7f4552433732313a206f70657261746f7220717565727920666f72206e6f6e657860008201527f697374656e7420746f6b656e0000000000000000000000000000000000000000602082015250565b7f4552433732313a20617070726f76652063616c6c6572206973206e6f74206f7760008201527f6e6572206e6f7220617070726f76656420666f7220616c6c0000000000000000602082015250565b7f4552433732313a2062616c616e636520717565727920666f7220746865207a6560008201527f726f206164647265737300000000000000000000000000000000000000000000602082015250565b7f4552433732313a206f776e657220717565727920666f72206e6f6e657869737460008201527f656e7420746f6b656e0000000000000000000000000000000000000000000000602082015250565b7f4552433732313a206d696e7420746f20746865207a65726f2061646472657373600082015250565b7f4552433732313a20617070726f76656420717565727920666f72206e6f6e657860008201527f697374656e7420746f6b656e0000000000000000000000000000000000000000602082015250565b7f4552433732314d657461646174613a2055524920717565727920666f72206e6f60008201527f6e6578697374656e7420746f6b656e0000000000000000000000000000000000602082015250565b7f4552433732313a20617070726f76616c20746f2063757272656e74206f776e6560008201527f7200000000000000000000000000000000000000000000000000000000000000602082015250565b7f4552433732313a207472616e736665722063616c6c6572206973206e6f74206f60008201527f776e6572206e6f7220617070726f766564000000000000000000000000000000602082015250565b6128aa81612261565b81146128b557600080fd5b50565b6128c181612273565b81146128cc57600080fd5b50565b6128d88161227f565b81146128e357600080fd5b50565b6128ef816122cb565b81146128fa57600080fd5b5056fea26469706673582212202750af577bad2fdd10fe26836a373888d09b5dbdb77e6c333f0b6418e8cb383464736f6c63430008010033",
  "linkReferences": {},
  "deployedLinkReferences": {}
}