{
  "_format": "hh-sol-artifact-1",
  "contractName": "NFT",
  "sourceName": "contracts/NFT.sol",
  "abi": [
    {
      "inputs": [],
      "stateMutability": "nonpayable",
      "type": "constructor"
    },
    {
      "anonymous": false,
      "inputs": [
        {
          "indexed": true,
          "internalType": "address",
          "name": "owner",
          "type": "address"
        },
        {
          "indexed": true,
          "internalType": "address",
          "name": "approved",
          "type": "address"
        },
        {
          "indexed": true,
          "internalType": "uint256",
          "name": "tokenId",
          "type": "uint256"
        }
      ],
      "name": "Approval",
      "type": "event"
    },
    {
      "anonymous": false,
      "inputs": [
        {
          "indexed": true,
          "internalType": "address",
          "name": "owner",
          "type": "address"
        },
        {
          "indexed": true,
          "internalType": "address",
          "name": "operator",
          "type": "address"
        },
        {
          "indexed": false,
          "internalType": "bool",
          "name": "approved",
          "type": "bool"
        }
      ],
      "name": "ApprovalForAll",
      "type": "event"
    },
    {
      "anonymous": false,
      "inputs": [
        {
          "indexed": true,
          "internalType": "address",
          "name": "from",
          "type": "address"
        },
        {
          "indexed": true,
          "internalType": "address",
          "name": "to",
          "type": "address"
        },
        {
          "indexed": true,
          "internalType": "uint256",
          "name": "tokenId",
          "type": "uint256"
        }
      ],
      "name": "Transfer",
      "type": "event"
    },
    {
      "inputs": [
        {
          "internalType": "address",
          "name": "to",
          "type": "address"
        },
        {
          "internalType": "uint256",
          "name": "tokenId",
          "type": "uint256"
        }
      ],
      "name": "approve",
      "outputs": [],
      "stateMutability": "nonpayable",
      "type": "function"
    },
    {
      "inputs": [
        {
          "internalType": "address",
          "name": "owner",
          "type": "address"
        }
      ],
      "name": "balanceOf",
      "outputs": [
        {
          "internalType": "uint256",
          "name": "",
          "type": "uint256"
        }
      ],
      "stateMutability": "view",
      "type": "function"
    },
    {
      "inputs": [],
      "name": "baseTokenURI",
      "outputs": [
        {
          "internalType": "string",
          "name": "",
          "type": "string"
        }
      ],
      "stateMutability": "view",
      "type": "function"
    },
    {
      "inputs": [
        {
          "internalType": "uint256",
          "name": "tokenId",
          "type": "uint256"
        }
      ],
      "name": "getApproved",
      "outputs": [
        {
          "internalType": "address",
          "name": "",
          "type": "address"
        }
      ],
      "stateMutability": "view",
      "type": "function"
    },
    {
      "inputs": [
        {
          "internalType": "address",
          "name": "owner",
          "type": "address"
        },
        {
          "internalType": "address",
          "name": "operator",
          "type": "address"
        }
      ],
      "name": "isApprovedForAll",
      "outputs": [
        {
          "internalType": "bool",
          "name": "",
          "type": "bool"
        }
      ],
      "stateMutability": "view",
      "type": "function"
    },
    {
      "inputs": [
        {
          "internalType": "address",
          "name": "recipientAddress",
          "type": "address"
        },
        {
          "internalType": "string",
          "name": "tokenURI",
          "type": "string"
        }
      ],
      "name": "mint",
      "outputs": [
        {
          "internalType": "uint256",
          "name": "",
          "type": "uint256"
        }
      ],
      "stateMutability": "nonpayable",
      "type": "function"
    },
    {
      "inputs": [],
      "name": "name",
      "outputs": [
        {
          "internalType": "string",
          "name": "",
          "type": "string"
        }
      ],
      "stateMutability": "view",
      "type": "function"
    },
    {
      "inputs": [
        {
          "internalType": "uint256",
          "name": "tokenId",
          "type": "uint256"
        }
      ],
      "name": "ownerOf",
      "outputs": [
        {
          "internalType": "address",
          "name": "",
          "type": "address"
        }
      ],
      "stateMutability": "view",
      "type": "function"
    },
    {
      "inputs": [
        {
          "internalType": "address",
          "name": "from",
          "type": "address"
        },
        {
          "internalType": "address",
          "name": "to",
          "type": "address"
        },
        {
          "internalType": "uint256",
          "name": "tokenId",
          "type": "uint256"
        }
      ],
      "name": "safeTransferFrom",
      "outputs": [],
      "stateMutability": "nonpayable",
      "type": "function"
    },
    {
      "inputs": [
        {
          "internalType": "address",
          "name": "from",
          "type": "address"
        },
        {
          "internalType": "address",
          "name": "to",
          "type": "address"
        },
        {
          "internalType": "uint256",
          "name": "tokenId",
          "type": "uint256"
        },
        {
          "internalType": "bytes",
          "name": "_data",
          "type": "bytes"
        }
      ],
      "name": "safeTransferFrom",
      "outputs": [],
      "stateMutability": "nonpayable",
      "type": "function"
    },
    {
      "inputs": [
        {
          "internalType": "address",
          "name": "operator",
          "type": "address"
        },
        {
          "internalType": "bool",
          "name": "approved",
          "type": "bool"
        }
      ],
      "name": "setApprovalForAll",
      "outputs": [],
      "stateMutability": "nonpayable",
      "type": "function"
    },
    {
      "inputs": [
        {
          "internalType": "string",
          "name": "_baseTokenURI",
          "type": "string"
        }
      ],
      "name": "setBaseTokenURI",
      "outputs": [],
      "stateMutability": "nonpayable",
      "type": "function"
    },
    {
      "inputs": [
        {
          "internalType": "bytes4",
          "name": "interfaceId",
          "type": "bytes4"
        }
      ],
      "name": "supportsInterface",
      "outputs": [
        {
          "internalType": "bool",
          "name": "",
          "type": "bool"
        }
      ],
      "stateMutability": "view",
      "type": "function"
    },
    {
      "inputs": [],
      "name": "symbol",
      "outputs": [
        {
          "internalType": "string",
          "name": "",
          "type": "string"
        }
      ],
      "stateMutability": "view",
      "type": "function"
    },
    {
      "inputs": [
        {
          "internalType": "uint256",
          "name": "tokenId",
          "type": "uint256"
        }
      ],
      "name": "tokenURI",
      "outputs": [
        {
          "internalType": "string",
          "name": "",
          "type": "string"
        }
      ],
      "stateMutability": "view",
      "type": "function"
    },
    {
      "inputs": [
        {
          "internalType": "address",
          "name": "from",
          "type": "address"
        },
        {
          "internalType": "address",
          "name": "to",
          "type": "address"
        },
        {
          "internalType": "uint256",
          "name": "tokenId",
          "type": "uint256"
        }
      ],
      "name": "transferFrom",
      "outputs": [],
      "stateMutability": "nonpayable",
      "type": "function"
    }
  ],
  "bytecode": "0x60806040523480156200001157600080fd5b506040518060400160405280600681526020017f55564c61627300000000000000000000000000000000000000000000000000008152506040518060400160405280600381526020017f55564c0000000000000000000000000000000000000000000000000000000000815250816000908051906020019062000096929190620000b8565b508060019080519060200190620000af929190620000b8565b505050620001cd565b828054620000c69062000168565b90600052602060002090601f016020900481019282620000ea576000855562000136565b82601f106200010557805160ff191683800117855562000136565b8280016001018555821562000136579182015b828111156200013557825182559160200191906001019062000118565b5b50905062000145919062000149565b5090565b5b80821115620001645760008160009055506001016200014a565b5090565b600060028204905060018216806200018157607f821691505b602082108114156200019857620001976200019e565b5b50919050565b7f4e487b7100000000000000000000000000000000000000000000000000000000600052602260045260246000fd5b612ad380620001dd6000396000f3fe608060405234801561001057600080fd5b50600436106101005760003560e01c806370a0823111610097578063c87b56dd11610066578063c87b56dd146102a9578063d0def521146102d9578063d547cfb714610309578063e985e9c51461032757610100565b806370a082311461022357806395d89b4114610253578063a22cb46514610271578063b88d4fde1461028d57610100565b806323b872dd116100d357806323b872dd1461019f57806330176e13146101bb57806342842e0e146101d75780636352211e146101f357610100565b806301ffc9a71461010557806306fdde0314610135578063081812fc14610153578063095ea7b314610183575b600080fd5b61011f600480360381019061011a9190611c63565b610357565b60405161012c9190612064565b60405180910390f35b61013d610439565b60405161014a919061207f565b60405180910390f35b61016d60048036038101906101689190611cf6565b6104cb565b60405161017a9190611ffd565b60405180910390f35b61019d60048036038101906101989190611c27565b610550565b005b6101b960048036038101906101b49190611acd565b610668565b005b6101d560048036038101906101d09190611cb5565b6106c8565b005b6101f160048036038101906101ec9190611acd565b6106e2565b005b61020d60048036038101906102089190611cf6565b610702565b60405161021a9190611ffd565b60405180910390f35b61023d60048036038101906102389190611a68565b6107b4565b60405161024a9190612261565b60405180910390f35b61025b61086c565b604051610268919061207f565b60405180910390f35b61028b60048036038101906102869190611b97565b6108fe565b005b6102a760048036038101906102a29190611b1c565b610914565b005b6102c360048036038101906102be9190611cf6565b610976565b6040516102d0919061207f565b60405180910390f35b6102f360048036038101906102ee9190611bd3565b610a1d565b6040516103009190612261565b60405180910390f35b610311610a4b565b60405161031e919061207f565b60405180910390f35b610341600480360381019061033c9190611a91565b610ad9565b60405161034e9190612064565b60405180910390f35b60007f80ac58cd000000000000000000000000000000000000000000000000000000007bffffffffffffffffffffffffffffffffffffffffffffffffffffffff1916827bffffffffffffffffffffffffffffffffffffffffffffffffffffffff1916148061042257507f5b5e139f000000000000000000000000000000000000000000000000000000007bffffffffffffffffffffffffffffffffffffffffffffffffffffffff1916827bffffffffffffffffffffffffffffffffffffffffffffffffffffffff1916145b80610432575061043182610b6d565b5b9050919050565b606060008054610448906124b7565b80601f0160208091040260200160405190810160405280929190818152602001828054610474906124b7565b80156104c15780601f10610496576101008083540402835291602001916104c1565b820191906000526020600020905b8154815290600101906020018083116104a457829003601f168201915b5050505050905090565b60006104d682610bd7565b610515576040517f08c379a000000000000000000000000000000000000000000000000000000000815260040161050c906121e1565b60405180910390fd5b6004600083815260200190815260200160002060009054906101000a900473ffffffffffffffffffffffffffffffffffffffff169050919050565b600061055b82610702565b90508073ffffffffffffffffffffffffffffffffffffffff168373ffffffffffffffffffffffffffffffffffffffff1614156105cc576040517f08c379a00000000000000000000000000000000000000000000000000000000081526004016105c390612221565b60405180910390fd5b8073ffffffffffffffffffffffffffffffffffffffff166105eb610c43565b73ffffffffffffffffffffffffffffffffffffffff16148061061a575061061981610614610c43565b610ad9565b5b610659576040517f08c379a000000000000000000000000000000000000000000000000000000000815260040161065090612161565b60405180910390fd5b6106638383610c4b565b505050565b610679610673610c43565b82610d04565b6106b8576040517f08c379a00000000000000000000000000000000000000000000000000000000081526004016106af90612241565b60405180910390fd5b6106c3838383610de2565b505050565b80600790805190602001906106de92919061188c565b5050565b6106fd83838360405180602001604052806000815250610914565b505050565b6000806002600084815260200190815260200160002060009054906101000a900473ffffffffffffffffffffffffffffffffffffffff169050600073ffffffffffffffffffffffffffffffffffffffff168173ffffffffffffffffffffffffffffffffffffffff1614156107ab576040517f08c379a00000000000000000000000000000000000000000000000000000000081526004016107a2906121a1565b60405180910390fd5b80915050919050565b60008073ffffffffffffffffffffffffffffffffffffffff168273ffffffffffffffffffffffffffffffffffffffff161415610825576040517f08c379a000000000000000000000000000000000000000000000000000000000815260040161081c90612181565b60405180910390fd5b600360008373ffffffffffffffffffffffffffffffffffffffff1673ffffffffffffffffffffffffffffffffffffffff168152602001908152602001600020549050919050565b60606001805461087b906124b7565b80601f01602080910402602001604051908101604052809291908181526020018280546108a7906124b7565b80156108f45780601f106108c9576101008083540402835291602001916108f4565b820191906000526020600020905b8154815290600101906020018083116108d757829003601f168201915b5050505050905090565b610910610909610c43565b8383611049565b5050565b61092561091f610c43565b83610d04565b610964576040517f08c379a000000000000000000000000000000000000000000000000000000000815260040161095b90612241565b60405180910390fd5b610970848484846111b6565b50505050565b606061098182610bd7565b6109c0576040517f08c379a00000000000000000000000000000000000000000000000000000000081526004016109b790612201565b60405180910390fd5b60006109ca611212565b905060008151116109ea5760405180602001604052806000815250610a15565b806109f4846112a4565b604051602001610a05929190611fd9565b6040516020818303038152906040525b915050919050565b6000610a296006611451565b6000610a356006611467565b9050610a418482611475565b8091505092915050565b60078054610a58906124b7565b80601f0160208091040260200160405190810160405280929190818152602001828054610a84906124b7565b8015610ad15780601f10610aa657610100808354040283529160200191610ad1565b820191906000526020600020905b815481529060010190602001808311610ab457829003601f168201915b505050505081565b6000600560008473ffffffffffffffffffffffffffffffffffffffff1673ffffffffffffffffffffffffffffffffffffffff16815260200190815260200160002060008373ffffffffffffffffffffffffffffffffffffffff1673ffffffffffffffffffffffffffffffffffffffff16815260200190815260200160002060009054906101000a900460ff16905092915050565b60007f01ffc9a7000000000000000000000000000000000000000000000000000000007bffffffffffffffffffffffffffffffffffffffffffffffffffffffff1916827bffffffffffffffffffffffffffffffffffffffffffffffffffffffff1916149050919050565b60008073ffffffffffffffffffffffffffffffffffffffff166002600084815260200190815260200160002060009054906101000a900473ffffffffffffffffffffffffffffffffffffffff1673ffffffffffffffffffffffffffffffffffffffff1614159050919050565b600033905090565b816004600083815260200190815260200160002060006101000a81548173ffffffffffffffffffffffffffffffffffffffff021916908373ffffffffffffffffffffffffffffffffffffffff160217905550808273ffffffffffffffffffffffffffffffffffffffff16610cbe83610702565b73ffffffffffffffffffffffffffffffffffffffff167f8c5be1e5ebec7d5bd14f71427d1e84f3dd0314c0f7b2291e5b200ac8c7c3b92560405160405180910390a45050565b6000610d0f82610bd7565b610d4e576040517f08c379a0000000000000000000000000000000000000000000000000000000008152600401610d4590612141565b60405180910390fd5b6000610d5983610702565b90508073ffffffffffffffffffffffffffffffffffffffff168473ffffffffffffffffffffffffffffffffffffffff161480610dc857508373ffffffffffffffffffffffffffffffffffffffff16610db0846104cb565b73ffffffffffffffffffffffffffffffffffffffff16145b80610dd95750610dd88185610ad9565b5b91505092915050565b8273ffffffffffffffffffffffffffffffffffffffff16610e0282610702565b73ffffffffffffffffffffffffffffffffffffffff1614610e58576040517f08c379a0000000000000000000000000000000000000000000000000000000008152600401610e4f906120c1565b60405180910390fd5b600073ffffffffffffffffffffffffffffffffffffffff168273ffffffffffffffffffffffffffffffffffffffff161415610ec8576040517f08c379a0000000000000000000000000000000000000000000000000000000008152600401610ebf90612101565b60405180910390fd5b610ed3838383611493565b610ede600082610c4b565b6001600360008573ffffffffffffffffffffffffffffffffffffffff1673ffffffffffffffffffffffffffffffffffffffff1681526020019081526020016000206000828254610f2e91906123cd565b925050819055506001600360008473ffffffffffffffffffffffffffffffffffffffff1673ffffffffffffffffffffffffffffffffffffffff1681526020019081526020016000206000828254610f859190612346565b92505081905550816002600083815260200190815260200160002060006101000a81548173ffffffffffffffffffffffffffffffffffffffff021916908373ffffffffffffffffffffffffffffffffffffffff160217905550808273ffffffffffffffffffffffffffffffffffffffff168473ffffffffffffffffffffffffffffffffffffffff167fddf252ad1be2c89b69c2b068fc378daa952ba7f163c4a11628f55a4df523b3ef60405160405180910390a4611044838383611498565b505050565b8173ffffffffffffffffffffffffffffffffffffffff168373ffffffffffffffffffffffffffffffffffffffff1614156110b8576040517f08c379a00000000000000000000000000000000000000000000000000000000081526004016110af90612121565b60405180910390fd5b80600560008573ffffffffffffffffffffffffffffffffffffffff1673ffffffffffffffffffffffffffffffffffffffff16815260200190815260200160002060008473ffffffffffffffffffffffffffffffffffffffff1673ffffffffffffffffffffffffffffffffffffffff16815260200190815260200160002060006101000a81548160ff0219169083151502179055508173ffffffffffffffffffffffffffffffffffffffff168373ffffffffffffffffffffffffffffffffffffffff167f17307eab39ab6107e8899845ad3d59bd9653f200f220920489ca2b5937696c31836040516111a99190612064565b60405180910390a3505050565b6111c1848484610de2565b6111cd8484848461149d565b61120c576040517f08c379a0000000000000000000000000000000000000000000000000000000008152600401611203906120a1565b60405180910390fd5b50505050565b606060078054611221906124b7565b80601f016020809104026020016040519081016040528092919081815260200182805461124d906124b7565b801561129a5780601f1061126f5761010080835404028352916020019161129a565b820191906000526020600020905b81548152906001019060200180831161127d57829003601f168201915b5050505050905090565b606060008214156112ec576040518060400160405280600181526020017f3000000000000000000000000000000000000000000000000000000000000000815250905061144c565b600082905060005b6000821461131e5780806113079061251a565b915050600a82611317919061239c565b91506112f4565b60008167ffffffffffffffff811115611360577f4e487b7100000000000000000000000000000000000000000000000000000000600052604160045260246000fd5b6040519080825280601f01601f1916602001820160405280156113925781602001600182028036833780820191505090505b5090505b60008514611445576001826113ab91906123cd565b9150600a856113ba9190612563565b60306113c69190612346565b60f81b818381518110611402577f4e487b7100000000000000000000000000000000000000000000000000000000600052603260045260246000fd5b60200101907effffffffffffffffffffffffffffffffffffffffffffffffffffffffffffff1916908160001a905350600a8561143e919061239c565b9450611396565b8093505050505b919050565b6001816000016000828254019250508190555050565b600081600001549050919050565b61148f828260405180602001604052806000815250611634565b5050565b505050565b505050565b60006114be8473ffffffffffffffffffffffffffffffffffffffff1661168f565b15611627578373ffffffffffffffffffffffffffffffffffffffff1663150b7a026114e7610c43565b8786866040518563ffffffff1660e01b81526004016115099493929190612018565b602060405180830381600087803b15801561152357600080fd5b505af192505050801561155457506040513d601f19601f820116820180604052508101906115519190611c8c565b60015b6115d7573d8060008114611584576040519150601f19603f3d011682016040523d82523d6000602084013e611589565b606091505b506000815114156115cf576040517f08c379a00000000000000000000000000000000000000000000000000000000081526004016115c6906120a1565b60405180910390fd5b805181602001fd5b63150b7a0260e01b7bffffffffffffffffffffffffffffffffffffffffffffffffffffffff1916817bffffffffffffffffffffffffffffffffffffffffffffffffffffffff19161491505061162c565b600190505b949350505050565b61163e83836116b2565b61164b600084848461149d565b61168a576040517f08c379a0000000000000000000000000000000000000000000000000000000008152600401611681906120a1565b60405180910390fd5b505050565b6000808273ffffffffffffffffffffffffffffffffffffffff163b119050919050565b600073ffffffffffffffffffffffffffffffffffffffff168273ffffffffffffffffffffffffffffffffffffffff161415611722576040517f08c379a0000000000000000000000000000000000000000000000000000000008152600401611719906121c1565b60405180910390fd5b61172b81610bd7565b1561176b576040517f08c379a0000000000000000000000000000000000000000000000000000000008152600401611762906120e1565b60405180910390fd5b61177760008383611493565b6001600360008473ffffffffffffffffffffffffffffffffffffffff1673ffffffffffffffffffffffffffffffffffffffff16815260200190815260200160002060008282546117c79190612346565b92505081905550816002600083815260200190815260200160002060006101000a81548173ffffffffffffffffffffffffffffffffffffffff021916908373ffffffffffffffffffffffffffffffffffffffff160217905550808273ffffffffffffffffffffffffffffffffffffffff16600073ffffffffffffffffffffffffffffffffffffffff167fddf252ad1be2c89b69c2b068fc378daa952ba7f163c4a11628f55a4df523b3ef60405160405180910390a461188860008383611498565b5050565b828054611898906124b7565b90600052602060002090601f0160209004810192826118ba5760008555611901565b82601f106118d357805160ff1916838001178555611901565b82800160010185558215611901579182015b828111156119005782518255916020019190600101906118e5565b5b50905061190e9190611912565b5090565b5b8082111561192b576000816000905550600101611913565b5090565b600061194261193d846122a1565b61227c565b90508281526020810184848401111561195a57600080fd5b611965848285612475565b509392505050565b600061198061197b846122d2565b61227c565b90508281526020810184848401111561199857600080fd5b6119a3848285612475565b509392505050565b6000813590506119ba81612a41565b92915050565b6000813590506119cf81612a58565b92915050565b6000813590506119e481612a6f565b92915050565b6000815190506119f981612a6f565b92915050565b600082601f830112611a1057600080fd5b8135611a2084826020860161192f565b91505092915050565b600082601f830112611a3a57600080fd5b8135611a4a84826020860161196d565b91505092915050565b600081359050611a6281612a86565b92915050565b600060208284031215611a7a57600080fd5b6000611a88848285016119ab565b91505092915050565b60008060408385031215611aa457600080fd5b6000611ab2858286016119ab565b9250506020611ac3858286016119ab565b9150509250929050565b600080600060608486031215611ae257600080fd5b6000611af0868287016119ab565b9350506020611b01868287016119ab565b9250506040611b1286828701611a53565b9150509250925092565b60008060008060808587031215611b3257600080fd5b6000611b40878288016119ab565b9450506020611b51878288016119ab565b9350506040611b6287828801611a53565b925050606085013567ffffffffffffffff811115611b7f57600080fd5b611b8b878288016119ff565b91505092959194509250565b60008060408385031215611baa57600080fd5b6000611bb8858286016119ab565b9250506020611bc9858286016119c0565b9150509250929050565b60008060408385031215611be657600080fd5b6000611bf4858286016119ab565b925050602083013567ffffffffffffffff811115611c1157600080fd5b611c1d85828601611a29565b9150509250929050565b60008060408385031215611c3a57600080fd5b6000611c48858286016119ab565b9250506020611c5985828601611a53565b9150509250929050565b600060208284031215611c7557600080fd5b6000611c83848285016119d5565b91505092915050565b600060208284031215611c9e57600080fd5b6000611cac848285016119ea565b91505092915050565b600060208284031215611cc757600080fd5b600082013567ffffffffffffffff811115611ce157600080fd5b611ced84828501611a29565b91505092915050565b600060208284031215611d0857600080fd5b6000611d1684828501611a53565b91505092915050565b611d2881612401565b82525050565b611d3781612413565b82525050565b6000611d4882612303565b611d528185612319565b9350611d62818560208601612484565b611d6b81612650565b840191505092915050565b6000611d818261230e565b611d8b818561232a565b9350611d9b818560208601612484565b611da481612650565b840191505092915050565b6000611dba8261230e565b611dc4818561233b565b9350611dd4818560208601612484565b80840191505092915050565b6000611ded60328361232a565b9150611df882612661565b604082019050919050565b6000611e1060258361232a565b9150611e1b826126b0565b604082019050919050565b6000611e33601c8361232a565b9150611e3e826126ff565b602082019050919050565b6000611e5660248361232a565b9150611e6182612728565b604082019050919050565b6000611e7960198361232a565b9150611e8482612777565b602082019050919050565b6000611e9c602c8361232a565b9150611ea7826127a0565b604082019050919050565b6000611ebf60388361232a565b9150611eca826127ef565b604082019050919050565b6000611ee2602a8361232a565b9150611eed8261283e565b604082019050919050565b6000611f0560298361232a565b9150611f108261288d565b604082019050919050565b6000611f2860208361232a565b9150611f33826128dc565b602082019050919050565b6000611f4b602c8361232a565b9150611f5682612905565b604082019050919050565b6000611f6e602f8361232a565b9150611f7982612954565b604082019050919050565b6000611f9160218361232a565b9150611f9c826129a3565b604082019050919050565b6000611fb460318361232a565b9150611fbf826129f2565b604082019050919050565b611fd38161246b565b82525050565b6000611fe58285611daf565b9150611ff18284611daf565b91508190509392505050565b60006020820190506120126000830184611d1f565b92915050565b600060808201905061202d6000830187611d1f565b61203a6020830186611d1f565b6120476040830185611fca565b81810360608301526120598184611d3d565b905095945050505050565b60006020820190506120796000830184611d2e565b92915050565b600060208201905081810360008301526120998184611d76565b905092915050565b600060208201905081810360008301526120ba81611de0565b9050919050565b600060208201905081810360008301526120da81611e03565b9050919050565b600060208201905081810360008301526120fa81611e26565b9050919050565b6000602082019050818103600083015261211a81611e49565b9050919050565b6000602082019050818103600083015261213a81611e6c565b9050919050565b6000602082019050818103600083015261215a81611e8f565b9050919050565b6000602082019050818103600083015261217a81611eb2565b9050919050565b6000602082019050818103600083015261219a81611ed5565b9050919050565b600060208201905081810360008301526121ba81611ef8565b9050919050565b600060208201905081810360008301526121da81611f1b565b9050919050565b600060208201905081810360008301526121fa81611f3e565b9050919050565b6000602082019050818103600083015261221a81611f61565b9050919050565b6000602082019050818103600083015261223a81611f84565b9050919050565b6000602082019050818103600083015261225a81611fa7565b9050919050565b60006020820190506122766000830184611fca565b92915050565b6000612286612297565b905061229282826124e9565b919050565b6000604051905090565b600067ffffffffffffffff8211156122bc576122bb612621565b5b6122c582612650565b9050602081019050919050565b600067ffffffffffffffff8211156122ed576122ec612621565b5b6122f682612650565b9050602081019050919050565b600081519050919050565b600081519050919050565b600082825260208201905092915050565b600082825260208201905092915050565b600081905092915050565b60006123518261246b565b915061235c8361246b565b9250827fffffffffffffffffffffffffffffffffffffffffffffffffffffffffffffffff0382111561239157612390612594565b5b828201905092915050565b60006123a78261246b565b91506123b28361246b565b9250826123c2576123c16125c3565b5b828204905092915050565b60006123d88261246b565b91506123e38361246b565b9250828210156123f6576123f5612594565b5b828203905092915050565b600061240c8261244b565b9050919050565b60008115159050919050565b60007fffffffff0000000000000000000000000000000000000000000000000000000082169050919050565b600073ffffffffffffffffffffffffffffffffffffffff82169050919050565b6000819050919050565b82818337600083830152505050565b60005b838110156124a2578082015181840152602081019050612487565b838111156124b1576000848401525b50505050565b600060028204905060018216806124cf57607f821691505b602082108114156124e3576124e26125f2565b5b50919050565b6124f282612650565b810181811067ffffffffffffffff8211171561251157612510612621565b5b80604052505050565b60006125258261246b565b91507fffffffffffffffffffffffffffffffffffffffffffffffffffffffffffffffff82141561255857612557612594565b5b600182019050919050565b600061256e8261246b565b91506125798361246b565b925082612589576125886125c3565b5b828206905092915050565b7f4e487b7100000000000000000000000000000000000000000000000000000000600052601160045260246000fd5b7f4e487b7100000000000000000000000000000000000000000000000000000000600052601260045260246000fd5b7f4e487b7100000000000000000000000000000000000000000000000000000000600052602260045260246000fd5b7f4e487b7100000000000000000000000000000000000000000000000000000000600052604160045260246000fd5b6000601f19601f8301169050919050565b7f4552433732313a207472616e7366657220746f206e6f6e20455243373231526560008201527f63656976657220696d706c656d656e7465720000000000000000000000000000602082015250565b7f4552433732313a207472616e736665722066726f6d20696e636f72726563742060008201527f6f776e6572000000000000000000000000000000000000000000000000000000602082015250565b7f4552433732313a20746f6b656e20616c7265616479206d696e74656400000000600082015250565b7f4552433732313a207472616e7366657220746f20746865207a65726f2061646460008201527f7265737300000000000000000000000000000000000000000000000000000000602082015250565b7f4552433732313a20617070726f766520746f2063616c6c657200000000000000600082015250565b7f4552433732313a206f70657261746f7220717565727920666f72206e6f6e657860008201527f697374656e7420746f6b656e0000000000000000000000000000000000000000602082015250565b7f4552433732313a20617070726f76652063616c6c6572206973206e6f74206f7760008201527f6e6572206e6f7220617070726f76656420666f7220616c6c0000000000000000602082015250565b7f4552433732313a2062616c616e636520717565727920666f7220746865207a6560008201527f726f206164647265737300000000000000000000000000000000000000000000602082015250565b7f4552433732313a206f776e657220717565727920666f72206e6f6e657869737460008201527f656e7420746f6b656e0000000000000000000000000000000000000000000000602082015250565b7f4552433732313a206d696e7420746f20746865207a65726f2061646472657373600082015250565b7f4552433732313a20617070726f76656420717565727920666f72206e6f6e657860008201527f697374656e7420746f6b656e0000000000000000000000000000000000000000602082015250565b7f4552433732314d657461646174613a2055524920717565727920666f72206e6f60008201527f6e6578697374656e7420746f6b656e0000000000000000000000000000000000602082015250565b7f4552433732313a20617070726f76616c20746f2063757272656e74206f776e6560008201527f7200000000000000000000000000000000000000000000000000000000000000602082015250565b7f4552433732313a207472616e736665722063616c6c6572206973206e6f74206f60008201527f776e6572206e6f7220617070726f766564000000000000000000000000000000602082015250565b612a4a81612401565b8114612a5557600080fd5b50565b612a6181612413565b8114612a6c57600080fd5b50565b612a788161241f565b8114612a8357600080fd5b50565b612a8f8161246b565b8114612a9a57600080fd5b5056fea2646970667358221220b5804069cc15a015e5c63d9d3f9d8f5a560ac4d1b289f71338e1a3a6eb78555264736f6c63430008010033",
  "linkReferences": {},
  "deployedLinkReferences": {}
}