{
  "_format": "hh-sol-artifact-1",
  "contractName": "NFT",
  "sourceName": "contracts/NFT.sol",
  "abi": [
    {
      "inputs": [],
      "stateMutability": "nonpayable",
      "type": "constructor"
    },
    {
      "anonymous": false,
      "inputs": [
        {
          "indexed": true,
          "internalType": "address",
          "name": "owner",
          "type": "address"
        },
        {
          "indexed": true,
          "internalType": "address",
          "name": "approved",
          "type": "address"
        },
        {
          "indexed": true,
          "internalType": "uint256",
          "name": "tokenId",
          "type": "uint256"
        }
      ],
      "name": "Approval",
      "type": "event"
    },
    {
      "anonymous": false,
      "inputs": [
        {
          "indexed": true,
          "internalType": "address",
          "name": "owner",
          "type": "address"
        },
        {
          "indexed": true,
          "internalType": "address",
          "name": "operator",
          "type": "address"
        },
        {
          "indexed": false,
          "internalType": "bool",
          "name": "approved",
          "type": "bool"
        }
      ],
      "name": "ApprovalForAll",
      "type": "event"
    },
    {
      "anonymous": false,
      "inputs": [
        {
          "indexed": true,
          "internalType": "address",
          "name": "from",
          "type": "address"
        },
        {
          "indexed": true,
          "internalType": "address",
          "name": "to",
          "type": "address"
        },
        {
          "indexed": true,
          "internalType": "uint256",
          "name": "tokenId",
          "type": "uint256"
        }
      ],
      "name": "Transfer",
      "type": "event"
    },
    {
      "inputs": [
        {
          "internalType": "address",
          "name": "to",
          "type": "address"
        },
        {
          "internalType": "uint256",
          "name": "tokenId",
          "type": "uint256"
        }
      ],
      "name": "approve",
      "outputs": [],
      "stateMutability": "nonpayable",
      "type": "function"
    },
    {
      "inputs": [
        {
          "internalType": "address",
          "name": "owner",
          "type": "address"
        }
      ],
      "name": "balanceOf",
      "outputs": [
        {
          "internalType": "uint256",
          "name": "",
          "type": "uint256"
        }
      ],
      "stateMutability": "view",
      "type": "function"
    },
    {
      "inputs": [
        {
          "internalType": "uint256",
          "name": "tokenId",
          "type": "uint256"
        }
      ],
      "name": "getApproved",
      "outputs": [
        {
          "internalType": "address",
          "name": "",
          "type": "address"
        }
      ],
      "stateMutability": "view",
      "type": "function"
    },
    {
      "inputs": [
        {
          "internalType": "address",
          "name": "owner",
          "type": "address"
        },
        {
          "internalType": "address",
          "name": "operator",
          "type": "address"
        }
      ],
      "name": "isApprovedForAll",
      "outputs": [
        {
          "internalType": "bool",
          "name": "",
          "type": "bool"
        }
      ],
      "stateMutability": "view",
      "type": "function"
    },
    {
      "inputs": [
        {
          "internalType": "address",
          "name": "recipientAddress",
          "type": "address"
        },
        {
          "internalType": "string",
          "name": "tokenURI_",
          "type": "string"
        }
      ],
      "name": "mint",
      "outputs": [
        {
          "internalType": "uint256",
          "name": "newItemId",
          "type": "uint256"
        }
      ],
      "stateMutability": "nonpayable",
      "type": "function"
    },
    {
      "inputs": [],
      "name": "name",
      "outputs": [
        {
          "internalType": "string",
          "name": "",
          "type": "string"
        }
      ],
      "stateMutability": "view",
      "type": "function"
    },
    {
      "inputs": [
        {
          "internalType": "uint256",
          "name": "tokenId",
          "type": "uint256"
        }
      ],
      "name": "ownerOf",
      "outputs": [
        {
          "internalType": "address",
          "name": "",
          "type": "address"
        }
      ],
      "stateMutability": "view",
      "type": "function"
    },
    {
      "inputs": [
        {
          "internalType": "address",
          "name": "from",
          "type": "address"
        },
        {
          "internalType": "address",
          "name": "to",
          "type": "address"
        },
        {
          "internalType": "uint256",
          "name": "tokenId",
          "type": "uint256"
        }
      ],
      "name": "safeTransferFrom",
      "outputs": [],
      "stateMutability": "nonpayable",
      "type": "function"
    },
    {
      "inputs": [
        {
          "internalType": "address",
          "name": "from",
          "type": "address"
        },
        {
          "internalType": "address",
          "name": "to",
          "type": "address"
        },
        {
          "internalType": "uint256",
          "name": "tokenId",
          "type": "uint256"
        },
        {
          "internalType": "bytes",
          "name": "_data",
          "type": "bytes"
        }
      ],
      "name": "safeTransferFrom",
      "outputs": [],
      "stateMutability": "nonpayable",
      "type": "function"
    },
    {
      "inputs": [
        {
          "internalType": "address",
          "name": "operator",
          "type": "address"
        },
        {
          "internalType": "bool",
          "name": "approved",
          "type": "bool"
        }
      ],
      "name": "setApprovalForAll",
      "outputs": [],
      "stateMutability": "nonpayable",
      "type": "function"
    },
    {
      "inputs": [
        {
          "internalType": "bytes4",
          "name": "interfaceId",
          "type": "bytes4"
        }
      ],
      "name": "supportsInterface",
      "outputs": [
        {
          "internalType": "bool",
          "name": "",
          "type": "bool"
        }
      ],
      "stateMutability": "view",
      "type": "function"
    },
    {
      "inputs": [],
      "name": "symbol",
      "outputs": [
        {
          "internalType": "string",
          "name": "",
          "type": "string"
        }
      ],
      "stateMutability": "view",
      "type": "function"
    },
    {
      "inputs": [
        {
          "internalType": "uint256",
          "name": "tokenId",
          "type": "uint256"
        }
      ],
      "name": "tokenURI",
      "outputs": [
        {
          "internalType": "string",
          "name": "",
          "type": "string"
        }
      ],
      "stateMutability": "view",
      "type": "function"
    },
    {
      "inputs": [
        {
          "internalType": "address",
          "name": "from",
          "type": "address"
        },
        {
          "internalType": "address",
          "name": "to",
          "type": "address"
        },
        {
          "internalType": "uint256",
          "name": "tokenId",
          "type": "uint256"
        }
      ],
      "name": "transferFrom",
      "outputs": [],
      "stateMutability": "nonpayable",
      "type": "function"
    }
  ],
  "bytecode": "0x60806040523480156200001157600080fd5b506040518060400160405280600681526020017f55564c61627300000000000000000000000000000000000000000000000000008152506040518060400160405280600381526020017f55564c0000000000000000000000000000000000000000000000000000000000815250816000908051906020019062000096929190620000b8565b508060019080519060200190620000af929190620000b8565b505050620001cd565b828054620000c69062000168565b90600052602060002090601f016020900481019282620000ea576000855562000136565b82601f106200010557805160ff191683800117855562000136565b8280016001018555821562000136579182015b828111156200013557825182559160200191906001019062000118565b5b50905062000145919062000149565b5090565b5b80821115620001645760008160009055506001016200014a565b5090565b600060028204905060018216806200018157607f821691505b602082108114156200019857620001976200019e565b5b50919050565b7f4e487b7100000000000000000000000000000000000000000000000000000000600052602260045260246000fd5b612c0d80620001dd6000396000f3fe608060405234801561001057600080fd5b50600436106100ea5760003560e01c806370a082311161008c578063b88d4fde11610066578063b88d4fde1461025b578063c87b56dd14610277578063d0def521146102a7578063e985e9c5146102d7576100ea565b806370a08231146101f157806395d89b4114610221578063a22cb4651461023f576100ea565b8063095ea7b3116100c8578063095ea7b31461016d57806323b872dd1461018957806342842e0e146101a55780636352211e146101c1576100ea565b806301ffc9a7146100ef57806306fdde031461011f578063081812fc1461013d575b600080fd5b61010960048036038101906101049190611cba565b610307565b60405161011691906120c0565b60405180910390f35b6101276103e9565b60405161013491906120db565b60405180910390f35b61015760048036038101906101529190611d0c565b61047b565b6040516101649190612059565b60405180910390f35b61018760048036038101906101829190611c7e565b610500565b005b6101a3600480360381019061019e9190611b24565b610618565b005b6101bf60048036038101906101ba9190611b24565b610678565b005b6101db60048036038101906101d69190611d0c565b610698565b6040516101e89190612059565b60405180910390f35b61020b60048036038101906102069190611abf565b61074a565b60405161021891906122fd565b60405180910390f35b610229610802565b60405161023691906120db565b60405180910390f35b61025960048036038101906102549190611bee565b610894565b005b61027560048036038101906102709190611b73565b6108aa565b005b610291600480360381019061028c9190611d0c565b61090c565b60405161029e91906120db565b60405180910390f35b6102c160048036038101906102bc9190611c2a565b610a5e565b6040516102ce91906122fd565b60405180910390f35b6102f160048036038101906102ec9190611ae8565b610a90565b6040516102fe91906120c0565b60405180910390f35b60007f80ac58cd000000000000000000000000000000000000000000000000000000007bffffffffffffffffffffffffffffffffffffffffffffffffffffffff1916827bffffffffffffffffffffffffffffffffffffffffffffffffffffffff191614806103d257507f5b5e139f000000000000000000000000000000000000000000000000000000007bffffffffffffffffffffffffffffffffffffffffffffffffffffffff1916827bffffffffffffffffffffffffffffffffffffffffffffffffffffffff1916145b806103e257506103e182610b24565b5b9050919050565b6060600080546103f890612553565b80601f016020809104026020016040519081016040528092919081815260200182805461042490612553565b80156104715780601f1061044657610100808354040283529160200191610471565b820191906000526020600020905b81548152906001019060200180831161045457829003601f168201915b5050505050905090565b600061048682610b8e565b6104c5576040517f08c379a00000000000000000000000000000000000000000000000000000000081526004016104bc9061227d565b60405180910390fd5b6004600083815260200190815260200160002060009054906101000a900473ffffffffffffffffffffffffffffffffffffffff169050919050565b600061050b82610698565b90508073ffffffffffffffffffffffffffffffffffffffff168373ffffffffffffffffffffffffffffffffffffffff16141561057c576040517f08c379a0000000000000000000000000000000000000000000000000000000008152600401610573906122bd565b60405180910390fd5b8073ffffffffffffffffffffffffffffffffffffffff1661059b610bfa565b73ffffffffffffffffffffffffffffffffffffffff1614806105ca57506105c9816105c4610bfa565b610a90565b5b610609576040517f08c379a0000000000000000000000000000000000000000000000000000000008152600401610600906121bd565b60405180910390fd5b6106138383610c02565b505050565b610629610623610bfa565b82610cbb565b610668576040517f08c379a000000000000000000000000000000000000000000000000000000000815260040161065f906122dd565b60405180910390fd5b610673838383610d99565b505050565b610693838383604051806020016040528060008152506108aa565b505050565b6000806002600084815260200190815260200160002060009054906101000a900473ffffffffffffffffffffffffffffffffffffffff169050600073ffffffffffffffffffffffffffffffffffffffff168173ffffffffffffffffffffffffffffffffffffffff161415610741576040517f08c379a0000000000000000000000000000000000000000000000000000000008152600401610738906121fd565b60405180910390fd5b80915050919050565b60008073ffffffffffffffffffffffffffffffffffffffff168273ffffffffffffffffffffffffffffffffffffffff1614156107bb576040517f08c379a00000000000000000000000000000000000000000000000000000000081526004016107b2906121dd565b60405180910390fd5b600360008373ffffffffffffffffffffffffffffffffffffffff1673ffffffffffffffffffffffffffffffffffffffff168152602001908152602001600020549050919050565b60606001805461081190612553565b80601f016020809104026020016040519081016040528092919081815260200182805461083d90612553565b801561088a5780601f1061085f5761010080835404028352916020019161088a565b820191906000526020600020905b81548152906001019060200180831161086d57829003601f168201915b5050505050905090565b6108a661089f610bfa565b8383611000565b5050565b6108bb6108b5610bfa565b83610cbb565b6108fa576040517f08c379a00000000000000000000000000000000000000000000000000000000081526004016108f1906122dd565b60405180910390fd5b6109068484848461116d565b50505050565b606061091782610b8e565b610956576040517f08c379a000000000000000000000000000000000000000000000000000000000815260040161094d9061225d565b60405180910390fd5b600060066000848152602001908152602001600020805461097690612553565b80601f01602080910402602001604051908101604052809291908181526020018280546109a290612553565b80156109ef5780601f106109c4576101008083540402835291602001916109ef565b820191906000526020600020905b8154815290600101906020018083116109d257829003601f168201915b505050505090506000610a006111c9565b9050600081511415610a16578192505050610a59565b600082511115610a4b578082604051602001610a33929190612035565b60405160208183030381529060405292505050610a59565b610a54846111e0565b925050505b919050565b6000610a6a6007611287565b610a74600761129d565b9050610a8083826112ab565b610a8a81836112c9565b92915050565b6000600560008473ffffffffffffffffffffffffffffffffffffffff1673ffffffffffffffffffffffffffffffffffffffff16815260200190815260200160002060008373ffffffffffffffffffffffffffffffffffffffff1673ffffffffffffffffffffffffffffffffffffffff16815260200190815260200160002060009054906101000a900460ff16905092915050565b60007f01ffc9a7000000000000000000000000000000000000000000000000000000007bffffffffffffffffffffffffffffffffffffffffffffffffffffffff1916827bffffffffffffffffffffffffffffffffffffffffffffffffffffffff1916149050919050565b60008073ffffffffffffffffffffffffffffffffffffffff166002600084815260200190815260200160002060009054906101000a900473ffffffffffffffffffffffffffffffffffffffff1673ffffffffffffffffffffffffffffffffffffffff1614159050919050565b600033905090565b816004600083815260200190815260200160002060006101000a81548173ffffffffffffffffffffffffffffffffffffffff021916908373ffffffffffffffffffffffffffffffffffffffff160217905550808273ffffffffffffffffffffffffffffffffffffffff16610c7583610698565b73ffffffffffffffffffffffffffffffffffffffff167f8c5be1e5ebec7d5bd14f71427d1e84f3dd0314c0f7b2291e5b200ac8c7c3b92560405160405180910390a45050565b6000610cc682610b8e565b610d05576040517f08c379a0000000000000000000000000000000000000000000000000000000008152600401610cfc9061219d565b60405180910390fd5b6000610d1083610698565b90508073ffffffffffffffffffffffffffffffffffffffff168473ffffffffffffffffffffffffffffffffffffffff161480610d7f57508373ffffffffffffffffffffffffffffffffffffffff16610d678461047b565b73ffffffffffffffffffffffffffffffffffffffff16145b80610d905750610d8f8185610a90565b5b91505092915050565b8273ffffffffffffffffffffffffffffffffffffffff16610db982610698565b73ffffffffffffffffffffffffffffffffffffffff1614610e0f576040517f08c379a0000000000000000000000000000000000000000000000000000000008152600401610e069061211d565b60405180910390fd5b600073ffffffffffffffffffffffffffffffffffffffff168273ffffffffffffffffffffffffffffffffffffffff161415610e7f576040517f08c379a0000000000000000000000000000000000000000000000000000000008152600401610e769061215d565b60405180910390fd5b610e8a83838361133d565b610e95600082610c02565b6001600360008573ffffffffffffffffffffffffffffffffffffffff1673ffffffffffffffffffffffffffffffffffffffff1681526020019081526020016000206000828254610ee59190612469565b925050819055506001600360008473ffffffffffffffffffffffffffffffffffffffff1673ffffffffffffffffffffffffffffffffffffffff1681526020019081526020016000206000828254610f3c91906123e2565b92505081905550816002600083815260200190815260200160002060006101000a81548173ffffffffffffffffffffffffffffffffffffffff021916908373ffffffffffffffffffffffffffffffffffffffff160217905550808273ffffffffffffffffffffffffffffffffffffffff168473ffffffffffffffffffffffffffffffffffffffff167fddf252ad1be2c89b69c2b068fc378daa952ba7f163c4a11628f55a4df523b3ef60405160405180910390a4610ffb838383611342565b505050565b8173ffffffffffffffffffffffffffffffffffffffff168373ffffffffffffffffffffffffffffffffffffffff16141561106f576040517f08c379a00000000000000000000000000000000000000000000000000000000081526004016110669061217d565b60405180910390fd5b80600560008573ffffffffffffffffffffffffffffffffffffffff1673ffffffffffffffffffffffffffffffffffffffff16815260200190815260200160002060008473ffffffffffffffffffffffffffffffffffffffff1673ffffffffffffffffffffffffffffffffffffffff16815260200190815260200160002060006101000a81548160ff0219169083151502179055508173ffffffffffffffffffffffffffffffffffffffff168373ffffffffffffffffffffffffffffffffffffffff167f17307eab39ab6107e8899845ad3d59bd9653f200f220920489ca2b5937696c318360405161116091906120c0565b60405180910390a3505050565b611178848484610d99565b61118484848484611347565b6111c3576040517f08c379a00000000000000000000000000000000000000000000000000000000081526004016111ba906120fd565b60405180910390fd5b50505050565b606060405180602001604052806000815250905090565b60606111eb82610b8e565b61122a576040517f08c379a00000000000000000000000000000000000000000000000000000000081526004016112219061229d565b60405180910390fd5b60006112346111c9565b90506000815111611254576040518060200160405280600081525061127f565b8061125e846114de565b60405160200161126f929190612035565b6040516020818303038152906040525b915050919050565b6001816000016000828254019250508190555050565b600081600001549050919050565b6112c582826040518060200160405280600081525061168b565b5050565b6112d282610b8e565b611311576040517f08c379a00000000000000000000000000000000000000000000000000000000081526004016113089061221d565b60405180910390fd5b806006600084815260200190815260200160002090805190602001906113389291906118e3565b505050565b505050565b505050565b60006113688473ffffffffffffffffffffffffffffffffffffffff166116e6565b156114d1578373ffffffffffffffffffffffffffffffffffffffff1663150b7a02611391610bfa565b8786866040518563ffffffff1660e01b81526004016113b39493929190612074565b602060405180830381600087803b1580156113cd57600080fd5b505af19250505080156113fe57506040513d601f19601f820116820180604052508101906113fb9190611ce3565b60015b611481573d806000811461142e576040519150601f19603f3d011682016040523d82523d6000602084013e611433565b606091505b50600081511415611479576040517f08c379a0000000000000000000000000000000000000000000000000000000008152600401611470906120fd565b60405180910390fd5b805181602001fd5b63150b7a0260e01b7bffffffffffffffffffffffffffffffffffffffffffffffffffffffff1916817bffffffffffffffffffffffffffffffffffffffffffffffffffffffff1916149150506114d6565b600190505b949350505050565b60606000821415611526576040518060400160405280600181526020017f30000000000000000000000000000000000000000000000000000000000000008152509050611686565b600082905060005b60008214611558578080611541906125b6565b915050600a826115519190612438565b915061152e565b60008167ffffffffffffffff81111561159a577f4e487b7100000000000000000000000000000000000000000000000000000000600052604160045260246000fd5b6040519080825280601f01601f1916602001820160405280156115cc5781602001600182028036833780820191505090505b5090505b6000851461167f576001826115e59190612469565b9150600a856115f491906125ff565b603061160091906123e2565b60f81b81838151811061163c577f4e487b7100000000000000000000000000000000000000000000000000000000600052603260045260246000fd5b60200101907effffffffffffffffffffffffffffffffffffffffffffffffffffffffffffff1916908160001a905350600a856116789190612438565b94506115d0565b8093505050505b919050565b6116958383611709565b6116a26000848484611347565b6116e1576040517f08c379a00000000000000000000000000000000000000000000000000000000081526004016116d8906120fd565b60405180910390fd5b505050565b6000808273ffffffffffffffffffffffffffffffffffffffff163b119050919050565b600073ffffffffffffffffffffffffffffffffffffffff168273ffffffffffffffffffffffffffffffffffffffff161415611779576040517f08c379a00000000000000000000000000000000000000000000000000000000081526004016117709061223d565b60405180910390fd5b61178281610b8e565b156117c2576040517f08c379a00000000000000000000000000000000000000000000000000000000081526004016117b99061213d565b60405180910390fd5b6117ce6000838361133d565b6001600360008473ffffffffffffffffffffffffffffffffffffffff1673ffffffffffffffffffffffffffffffffffffffff168152602001908152602001600020600082825461181e91906123e2565b92505081905550816002600083815260200190815260200160002060006101000a81548173ffffffffffffffffffffffffffffffffffffffff021916908373ffffffffffffffffffffffffffffffffffffffff160217905550808273ffffffffffffffffffffffffffffffffffffffff16600073ffffffffffffffffffffffffffffffffffffffff167fddf252ad1be2c89b69c2b068fc378daa952ba7f163c4a11628f55a4df523b3ef60405160405180910390a46118df60008383611342565b5050565b8280546118ef90612553565b90600052602060002090601f0160209004810192826119115760008555611958565b82601f1061192a57805160ff1916838001178555611958565b82800160010185558215611958579182015b8281111561195757825182559160200191906001019061193c565b5b5090506119659190611969565b5090565b5b8082111561198257600081600090555060010161196a565b5090565b60006119996119948461233d565b612318565b9050828152602081018484840111156119b157600080fd5b6119bc848285612511565b509392505050565b60006119d76119d28461236e565b612318565b9050828152602081018484840111156119ef57600080fd5b6119fa848285612511565b509392505050565b600081359050611a1181612b7b565b92915050565b600081359050611a2681612b92565b92915050565b600081359050611a3b81612ba9565b92915050565b600081519050611a5081612ba9565b92915050565b600082601f830112611a6757600080fd5b8135611a77848260208601611986565b91505092915050565b600082601f830112611a9157600080fd5b8135611aa18482602086016119c4565b91505092915050565b600081359050611ab981612bc0565b92915050565b600060208284031215611ad157600080fd5b6000611adf84828501611a02565b91505092915050565b60008060408385031215611afb57600080fd5b6000611b0985828601611a02565b9250506020611b1a85828601611a02565b9150509250929050565b600080600060608486031215611b3957600080fd5b6000611b4786828701611a02565b9350506020611b5886828701611a02565b9250506040611b6986828701611aaa565b9150509250925092565b60008060008060808587031215611b8957600080fd5b6000611b9787828801611a02565b9450506020611ba887828801611a02565b9350506040611bb987828801611aaa565b925050606085013567ffffffffffffffff811115611bd657600080fd5b611be287828801611a56565b91505092959194509250565b60008060408385031215611c0157600080fd5b6000611c0f85828601611a02565b9250506020611c2085828601611a17565b9150509250929050565b60008060408385031215611c3d57600080fd5b6000611c4b85828601611a02565b925050602083013567ffffffffffffffff811115611c6857600080fd5b611c7485828601611a80565b9150509250929050565b60008060408385031215611c9157600080fd5b6000611c9f85828601611a02565b9250506020611cb085828601611aaa565b9150509250929050565b600060208284031215611ccc57600080fd5b6000611cda84828501611a2c565b91505092915050565b600060208284031215611cf557600080fd5b6000611d0384828501611a41565b91505092915050565b600060208284031215611d1e57600080fd5b6000611d2c84828501611aaa565b91505092915050565b611d3e8161249d565b82525050565b611d4d816124af565b82525050565b6000611d5e8261239f565b611d6881856123b5565b9350611d78818560208601612520565b611d81816126ec565b840191505092915050565b6000611d97826123aa565b611da181856123c6565b9350611db1818560208601612520565b611dba816126ec565b840191505092915050565b6000611dd0826123aa565b611dda81856123d7565b9350611dea818560208601612520565b80840191505092915050565b6000611e036032836123c6565b9150611e0e826126fd565b604082019050919050565b6000611e266025836123c6565b9150611e318261274c565b604082019050919050565b6000611e49601c836123c6565b9150611e548261279b565b602082019050919050565b6000611e6c6024836123c6565b9150611e77826127c4565b604082019050919050565b6000611e8f6019836123c6565b9150611e9a82612813565b602082019050919050565b6000611eb2602c836123c6565b9150611ebd8261283c565b604082019050919050565b6000611ed56038836123c6565b9150611ee08261288b565b604082019050919050565b6000611ef8602a836123c6565b9150611f03826128da565b604082019050919050565b6000611f1b6029836123c6565b9150611f2682612929565b604082019050919050565b6000611f3e602e836123c6565b9150611f4982612978565b604082019050919050565b6000611f616020836123c6565b9150611f6c826129c7565b602082019050919050565b6000611f846031836123c6565b9150611f8f826129f0565b604082019050919050565b6000611fa7602c836123c6565b9150611fb282612a3f565b604082019050919050565b6000611fca602f836123c6565b9150611fd582612a8e565b604082019050919050565b6000611fed6021836123c6565b9150611ff882612add565b604082019050919050565b60006120106031836123c6565b915061201b82612b2c565b604082019050919050565b61202f81612507565b82525050565b60006120418285611dc5565b915061204d8284611dc5565b91508190509392505050565b600060208201905061206e6000830184611d35565b92915050565b60006080820190506120896000830187611d35565b6120966020830186611d35565b6120a36040830185612026565b81810360608301526120b58184611d53565b905095945050505050565b60006020820190506120d56000830184611d44565b92915050565b600060208201905081810360008301526120f58184611d8c565b905092915050565b6000602082019050818103600083015261211681611df6565b9050919050565b6000602082019050818103600083015261213681611e19565b9050919050565b6000602082019050818103600083015261215681611e3c565b9050919050565b6000602082019050818103600083015261217681611e5f565b9050919050565b6000602082019050818103600083015261219681611e82565b9050919050565b600060208201905081810360008301526121b681611ea5565b9050919050565b600060208201905081810360008301526121d681611ec8565b9050919050565b600060208201905081810360008301526121f681611eeb565b9050919050565b6000602082019050818103600083015261221681611f0e565b9050919050565b6000602082019050818103600083015261223681611f31565b9050919050565b6000602082019050818103600083015261225681611f54565b9050919050565b6000602082019050818103600083015261227681611f77565b9050919050565b6000602082019050818103600083015261229681611f9a565b9050919050565b600060208201905081810360008301526122b681611fbd565b9050919050565b600060208201905081810360008301526122d681611fe0565b9050919050565b600060208201905081810360008301526122f681612003565b9050919050565b60006020820190506123126000830184612026565b92915050565b6000612322612333565b905061232e8282612585565b919050565b6000604051905090565b600067ffffffffffffffff821115612358576123576126bd565b5b612361826126ec565b9050602081019050919050565b600067ffffffffffffffff821115612389576123886126bd565b5b612392826126ec565b9050602081019050919050565b600081519050919050565b600081519050919050565b600082825260208201905092915050565b600082825260208201905092915050565b600081905092915050565b60006123ed82612507565b91506123f883612507565b9250827fffffffffffffffffffffffffffffffffffffffffffffffffffffffffffffffff0382111561242d5761242c612630565b5b828201905092915050565b600061244382612507565b915061244e83612507565b92508261245e5761245d61265f565b5b828204905092915050565b600061247482612507565b915061247f83612507565b92508282101561249257612491612630565b5b828203905092915050565b60006124a8826124e7565b9050919050565b60008115159050919050565b60007fffffffff0000000000000000000000000000000000000000000000000000000082169050919050565b600073ffffffffffffffffffffffffffffffffffffffff82169050919050565b6000819050919050565b82818337600083830152505050565b60005b8381101561253e578082015181840152602081019050612523565b8381111561254d576000848401525b50505050565b6000600282049050600182168061256b57607f821691505b6020821081141561257f5761257e61268e565b5b50919050565b61258e826126ec565b810181811067ffffffffffffffff821117156125ad576125ac6126bd565b5b80604052505050565b60006125c182612507565b91507fffffffffffffffffffffffffffffffffffffffffffffffffffffffffffffffff8214156125f4576125f3612630565b5b600182019050919050565b600061260a82612507565b915061261583612507565b9250826126255761262461265f565b5b828206905092915050565b7f4e487b7100000000000000000000000000000000000000000000000000000000600052601160045260246000fd5b7f4e487b7100000000000000000000000000000000000000000000000000000000600052601260045260246000fd5b7f4e487b7100000000000000000000000000000000000000000000000000000000600052602260045260246000fd5b7f4e487b7100000000000000000000000000000000000000000000000000000000600052604160045260246000fd5b6000601f19601f8301169050919050565b7f4552433732313a207472616e7366657220746f206e6f6e20455243373231526560008201527f63656976657220696d706c656d656e7465720000000000000000000000000000602082015250565b7f4552433732313a207472616e736665722066726f6d20696e636f72726563742060008201527f6f776e6572000000000000000000000000000000000000000000000000000000602082015250565b7f4552433732313a20746f6b656e20616c7265616479206d696e74656400000000600082015250565b7f4552433732313a207472616e7366657220746f20746865207a65726f2061646460008201527f7265737300000000000000000000000000000000000000000000000000000000602082015250565b7f4552433732313a20617070726f766520746f2063616c6c657200000000000000600082015250565b7f4552433732313a206f70657261746f7220717565727920666f72206e6f6e657860008201527f697374656e7420746f6b656e0000000000000000000000000000000000000000602082015250565b7f4552433732313a20617070726f76652063616c6c6572206973206e6f74206f7760008201527f6e6572206e6f7220617070726f76656420666f7220616c6c0000000000000000602082015250565b7f4552433732313a2062616c616e636520717565727920666f7220746865207a6560008201527f726f206164647265737300000000000000000000000000000000000000000000602082015250565b7f4552433732313a206f776e657220717565727920666f72206e6f6e657869737460008201527f656e7420746f6b656e0000000000000000000000000000000000000000000000602082015250565b7f45524337323155524953746f726167653a2055524920736574206f66206e6f6e60008201527f6578697374656e7420746f6b656e000000000000000000000000000000000000602082015250565b7f4552433732313a206d696e7420746f20746865207a65726f2061646472657373600082015250565b7f45524337323155524953746f726167653a2055524920717565727920666f722060008201527f6e6f6e6578697374656e7420746f6b656e000000000000000000000000000000602082015250565b7f4552433732313a20617070726f76656420717565727920666f72206e6f6e657860008201527f697374656e7420746f6b656e0000000000000000000000000000000000000000602082015250565b7f4552433732314d657461646174613a2055524920717565727920666f72206e6f60008201527f6e6578697374656e7420746f6b656e0000000000000000000000000000000000602082015250565b7f4552433732313a20617070726f76616c20746f2063757272656e74206f776e6560008201527f7200000000000000000000000000000000000000000000000000000000000000602082015250565b7f4552433732313a207472616e736665722063616c6c6572206973206e6f74206f60008201527f776e6572206e6f7220617070726f766564000000000000000000000000000000602082015250565b612b848161249d565b8114612b8f57600080fd5b50565b612b9b816124af565b8114612ba657600080fd5b50565b612bb2816124bb565b8114612bbd57600080fd5b50565b612bc981612507565b8114612bd457600080fd5b5056fea26469706673582212204632cdf17e2ef189a14e2abb7ea0bcca8db98a5aec51b4e41782f2cc1a33a76964736f6c63430008010033",
  "linkReferences": {},
  "deployedLinkReferences": {}
}