{
  "address": "0x7fB1CA0738053Aa8cd4d5bfA8e3FEA03756cF367",
  "abi": [
    {
      "inputs": [],
      "stateMutability": "nonpayable",
      "type": "constructor"
    },
    {
      "anonymous": false,
      "inputs": [
        {
          "indexed": true,
          "internalType": "address",
          "name": "owner",
          "type": "address"
        },
        {
          "indexed": true,
          "internalType": "address",
          "name": "approved",
          "type": "address"
        },
        {
          "indexed": true,
          "internalType": "uint256",
          "name": "tokenId",
          "type": "uint256"
        }
      ],
      "name": "Approval",
      "type": "event"
    },
    {
      "anonymous": false,
      "inputs": [
        {
          "indexed": true,
          "internalType": "address",
          "name": "owner",
          "type": "address"
        },
        {
          "indexed": true,
          "internalType": "address",
          "name": "operator",
          "type": "address"
        },
        {
          "indexed": false,
          "internalType": "bool",
          "name": "approved",
          "type": "bool"
        }
      ],
      "name": "ApprovalForAll",
      "type": "event"
    },
    {
      "anonymous": false,
      "inputs": [
        {
          "indexed": true,
          "internalType": "address",
          "name": "user",
          "type": "address"
        },
        {
          "indexed": true,
          "internalType": "uint256",
          "name": "tokenId",
          "type": "uint256"
        }
      ],
      "name": "NFTMinted",
      "type": "event"
    },
    {
      "anonymous": false,
      "inputs": [
        {
          "indexed": true,
          "internalType": "address",
          "name": "from",
          "type": "address"
        },
        {
          "indexed": true,
          "internalType": "address",
          "name": "to",
          "type": "address"
        },
        {
          "indexed": true,
          "internalType": "uint256",
          "name": "tokenId",
          "type": "uint256"
        }
      ],
      "name": "Transfer",
      "type": "event"
    },
    {
      "anonymous": false,
      "inputs": [
        {
          "indexed": true,
          "internalType": "uint256",
          "name": "tokenId",
          "type": "uint256"
        },
        {
          "indexed": true,
          "internalType": "address",
          "name": "user",
          "type": "address"
        },
        {
          "indexed": false,
          "internalType": "uint64",
          "name": "expires",
          "type": "uint64"
        }
      ],
      "name": "UpdateUser",
      "type": "event"
    },
    {
      "inputs": [
        {
          "internalType": "address",
          "name": "to",
          "type": "address"
        },
        {
          "internalType": "uint256",
          "name": "tokenId",
          "type": "uint256"
        }
      ],
      "name": "approve",
      "outputs": [],
      "stateMutability": "nonpayable",
      "type": "function"
    },
    {
      "inputs": [
        {
          "internalType": "address",
          "name": "owner",
          "type": "address"
        }
      ],
      "name": "balanceOf",
      "outputs": [
        {
          "internalType": "uint256",
          "name": "",
          "type": "uint256"
        }
      ],
      "stateMutability": "view",
      "type": "function"
    },
    {
      "inputs": [
        {
          "internalType": "uint256",
          "name": "tokenId",
          "type": "uint256"
        }
      ],
      "name": "getApproved",
      "outputs": [
        {
          "internalType": "address",
          "name": "",
          "type": "address"
        }
      ],
      "stateMutability": "view",
      "type": "function"
    },
    {
      "inputs": [
        {
          "internalType": "address",
          "name": "owner",
          "type": "address"
        },
        {
          "internalType": "address",
          "name": "operator",
          "type": "address"
        }
      ],
      "name": "isApprovedForAll",
      "outputs": [
        {
          "internalType": "bool",
          "name": "",
          "type": "bool"
        }
      ],
      "stateMutability": "view",
      "type": "function"
    },
    {
      "inputs": [],
      "name": "name",
      "outputs": [
        {
          "internalType": "string",
          "name": "",
          "type": "string"
        }
      ],
      "stateMutability": "view",
      "type": "function"
    },
    {
      "inputs": [],
      "name": "nftMint",
      "outputs": [
        {
          "internalType": "uint256",
          "name": "",
          "type": "uint256"
        }
      ],
      "stateMutability": "nonpayable",
      "type": "function"
    },
    {
      "inputs": [
        {
          "internalType": "uint256",
          "name": "tokenId",
          "type": "uint256"
        }
      ],
      "name": "ownerOf",
      "outputs": [
        {
          "internalType": "address",
          "name": "",
          "type": "address"
        }
      ],
      "stateMutability": "view",
      "type": "function"
    },
    {
      "inputs": [
        {
          "internalType": "address",
          "name": "from",
          "type": "address"
        },
        {
          "internalType": "address",
          "name": "to",
          "type": "address"
        },
        {
          "internalType": "uint256",
          "name": "tokenId",
          "type": "uint256"
        }
      ],
      "name": "safeTransferFrom",
      "outputs": [],
      "stateMutability": "nonpayable",
      "type": "function"
    },
    {
      "inputs": [
        {
          "internalType": "address",
          "name": "from",
          "type": "address"
        },
        {
          "internalType": "address",
          "name": "to",
          "type": "address"
        },
        {
          "internalType": "uint256",
          "name": "tokenId",
          "type": "uint256"
        },
        {
          "internalType": "bytes",
          "name": "data",
          "type": "bytes"
        }
      ],
      "name": "safeTransferFrom",
      "outputs": [],
      "stateMutability": "nonpayable",
      "type": "function"
    },
    {
      "inputs": [
        {
          "internalType": "address",
          "name": "operator",
          "type": "address"
        },
        {
          "internalType": "bool",
          "name": "approved",
          "type": "bool"
        }
      ],
      "name": "setApprovalForAll",
      "outputs": [],
      "stateMutability": "nonpayable",
      "type": "function"
    },
    {
      "inputs": [
        {
          "internalType": "uint256",
          "name": "tokenId",
          "type": "uint256"
        },
        {
          "internalType": "address",
          "name": "user",
          "type": "address"
        },
        {
          "internalType": "uint64",
          "name": "expires",
          "type": "uint64"
        }
      ],
      "name": "setUser",
      "outputs": [],
      "stateMutability": "nonpayable",
      "type": "function"
    },
    {
      "inputs": [
        {
          "internalType": "bytes4",
          "name": "interfaceId",
          "type": "bytes4"
        }
      ],
      "name": "supportsInterface",
      "outputs": [
        {
          "internalType": "bool",
          "name": "",
          "type": "bool"
        }
      ],
      "stateMutability": "view",
      "type": "function"
    },
    {
      "inputs": [],
      "name": "symbol",
      "outputs": [
        {
          "internalType": "string",
          "name": "",
          "type": "string"
        }
      ],
      "stateMutability": "view",
      "type": "function"
    },
    {
      "inputs": [
        {
          "internalType": "uint256",
          "name": "tokenId",
          "type": "uint256"
        }
      ],
      "name": "tokenURI",
      "outputs": [
        {
          "internalType": "string",
          "name": "",
          "type": "string"
        }
      ],
      "stateMutability": "view",
      "type": "function"
    },
    {
      "inputs": [],
      "name": "totalSupply",
      "outputs": [
        {
          "internalType": "uint256",
          "name": "",
          "type": "uint256"
        }
      ],
      "stateMutability": "view",
      "type": "function"
    },
    {
      "inputs": [
        {
          "internalType": "address",
          "name": "from",
          "type": "address"
        },
        {
          "internalType": "address",
          "name": "to",
          "type": "address"
        },
        {
          "internalType": "uint256",
          "name": "tokenId",
          "type": "uint256"
        }
      ],
      "name": "transferFrom",
      "outputs": [],
      "stateMutability": "nonpayable",
      "type": "function"
    },
    {
      "inputs": [
        {
          "internalType": "uint256",
          "name": "tokenId",
          "type": "uint256"
        }
      ],
      "name": "userExpires",
      "outputs": [
        {
          "internalType": "uint256",
          "name": "",
          "type": "uint256"
        }
      ],
      "stateMutability": "view",
      "type": "function"
    },
    {
      "inputs": [
        {
          "internalType": "uint256",
          "name": "tokenId",
          "type": "uint256"
        }
      ],
      "name": "userOf",
      "outputs": [
        {
          "internalType": "address",
          "name": "",
          "type": "address"
        }
      ],
      "stateMutability": "view",
      "type": "function"
    }
  ],
  "transactionHash": "0xca14ac368d12cfa43d41b5cea7158969e6ba5e6831e2cf4ad1cdcbdfd264c1bf",
  "args": [],
  "numDeployments": 1,
  "solcInputHash": "d4daa5b5159e24ab75c08804c5ee6ab3",
  "bytecode": "0x60806040523480156200001157600080fd5b506040518060400160405280600b81526020016a14995b9d18589b1953919560aa1b815250604051806040016040528060048152602001631493919560e21b815250816000908162000064919062000121565b50600162000073828262000121565b505050620001ed565b634e487b7160e01b600052604160045260246000fd5b600181811c90821680620000a757607f821691505b602082108103620000c857634e487b7160e01b600052602260045260246000fd5b50919050565b601f8211156200011c57600081815260208120601f850160051c81016020861015620000f75750805b601f850160051c820191505b81811015620001185782815560010162000103565b5050505b505050565b81516001600160401b038111156200013d576200013d6200007c565b62000155816200014e845462000092565b84620000ce565b602080601f8311600181146200018d5760008415620001745750858301515b600019600386901b1c1916600185901b17855562000118565b600085815260208120601f198616915b82811015620001be578886015182559484019460019091019084016200019d565b5085821015620001dd5787850151600019600388901b60f8161c191681555b5050505050600190811b01905550565b61171780620001fd6000396000f3fe608060405234801561001057600080fd5b50600436106101165760003560e01c8063719414b4116100a2578063b88d4fde11610071578063b88d4fde1461024e578063c2f1f14a14610261578063c87b56dd14610274578063e030565e14610287578063e985e9c51461029a57600080fd5b8063719414b4146101fa5780638fc88c481461020257806395d89b4114610233578063a22cb4651461023b57600080fd5b806318160ddd116100e957806318160ddd1461019857806323b872dd146101ae57806342842e0e146101c15780636352211e146101d457806370a08231146101e757600080fd5b806301ffc9a71461011b57806306fdde0314610143578063081812fc14610158578063095ea7b314610183575b600080fd5b61012e610129366004611256565b6102d6565b60405190151581526020015b60405180910390f35b61014b610301565b60405161013a91906112c3565b61016b6101663660046112d6565b610393565b6040516001600160a01b03909116815260200161013a565b61019661019136600461130b565b6103ba565b005b6101a06104d4565b60405190815260200161013a565b6101966101bc366004611335565b6104e4565b6101966101cf366004611335565b610515565b61016b6101e23660046112d6565b610530565b6101a06101f5366004611371565b610590565b6101a0610616565b6101a06102103660046112d6565b600090815260076020526040902054600160a01b900467ffffffffffffffff1690565b61014b61066f565b61019661024936600461138c565b61067e565b61019661025c3660046113de565b61068d565b61016b61026f3660046112d6565b6106c5565b61014b6102823660046112d6565b610710565b6101966102953660046114ba565b610784565b61012e6102a8366004611507565b6001600160a01b03918216600090815260056020908152604080832093909416825291909152205460ff1690565b60006001600160e01b03198216632b424ad760e21b14806102fb57506102fb82610928565b92915050565b6060600080546103109061153a565b80601f016020809104026020016040519081016040528092919081815260200182805461033c9061153a565b80156103895780601f1061035e57610100808354040283529160200191610389565b820191906000526020600020905b81548152906001019060200180831161036c57829003601f168201915b5050505050905090565b600061039e82610978565b506000908152600460205260409020546001600160a01b031690565b60006103c582610530565b9050806001600160a01b0316836001600160a01b0316036104375760405162461bcd60e51b815260206004820152602160248201527f4552433732313a20617070726f76616c20746f2063757272656e74206f776e656044820152603960f91b60648201526084015b60405180910390fd5b336001600160a01b0382161480610453575061045381336102a8565b6104c55760405162461bcd60e51b815260206004820152603d60248201527f4552433732313a20617070726f76652063616c6c6572206973206e6f7420746f60448201527f6b656e206f776e6572206f7220617070726f76656420666f7220616c6c000000606482015260840161042e565b6104cf83836109da565b505050565b60006104df60065490565b905090565b6104ee3382610a48565b61050a5760405162461bcd60e51b815260040161042e90611574565b6104cf838383610ac7565b6104cf8383836040518060200160405280600081525061068d565b6000818152600260205260408120546001600160a01b0316806102fb5760405162461bcd60e51b8152602060048201526018602482015277115490cdcc8c4e881a5b9d985b1a59081d1bdad95b88125160421b604482015260640161042e565b60006001600160a01b0382166105fa5760405162461bcd60e51b815260206004820152602960248201527f4552433732313a2061646472657373207a65726f206973206e6f7420612076616044820152683634b21037bbb732b960b91b606482015260840161042e565b506001600160a01b031660009081526003602052604090205490565b6000610626600680546001019055565b600061063160065490565b905061063d3382610c38565b604051819033907f4cc0a9c4a99ddc700de1af2c9f916a7cbfdb71f14801ccff94061ad1ef8a804090600090a3919050565b6060600180546103109061153a565b610689338383610c52565b5050565b6106973383610a48565b6106b35760405162461bcd60e51b815260040161042e90611574565b6106bf84848484610d20565b50505050565b60008181526007602052604081205442600160a01b90910467ffffffffffffffff161061070857506000908152600760205260409020546001600160a01b031690565b506000919050565b606061071b82610978565b600061073260408051602081019091526000815290565b90506000815111610752576040518060200160405280600081525061077d565b8061075c84610d53565b60405160200161076d9291906115c1565b6040516020818303038152906040525b9392505050565b61078e3384610a48565b6107f45760405162461bcd60e51b815260206004820152603160248201527f4552433732313a207472616e736665722063616c6c6572206973206e6f74206f6044820152701ddb995c881b9bdc88185c1c1c9bdd9959607a1b606482015260840161042e565b60006107ff846106c5565b6001600160a01b03161461084d5760405162461bcd60e51b8152602060048201526015602482015274155cd95c88185b1c9958591e48185cdcda59db9959605a1b604482015260640161042e565b428167ffffffffffffffff16116108a65760405162461bcd60e51b815260206004820152601b60248201527f657870697265732073686f756c6420626520696e206675747572650000000000604482015260640161042e565b60008381526007602090815260409182902080546001600160a01b0386166001600160e01b03199091168117600160a01b67ffffffffffffffff871690810291909117835593519384529092909186917f4e06b4e7000e659094299b3533b47b6aa8ad048e95e872d23d1f4ee55af89cfe91015b60405180910390a350505050565b60006001600160e01b031982166380ac58cd60e01b148061095957506001600160e01b03198216635b5e139f60e01b145b806102fb57506301ffc9a760e01b6001600160e01b03198316146102fb565b6000818152600260205260409020546001600160a01b03166109d75760405162461bcd60e51b8152602060048201526018602482015277115490cdcc8c4e881a5b9d985b1a59081d1bdad95b88125160421b604482015260640161042e565b50565b600081815260046020526040902080546001600160a01b0319166001600160a01b0384169081179091558190610a0f82610530565b6001600160a01b03167f8c5be1e5ebec7d5bd14f71427d1e84f3dd0314c0f7b2291e5b200ac8c7c3b92560405160405180910390a45050565b600080610a5483610530565b9050806001600160a01b0316846001600160a01b03161480610a9b57506001600160a01b0380821660009081526005602090815260408083209388168352929052205460ff165b80610abf5750836001600160a01b0316610ab484610393565b6001600160a01b0316145b949350505050565b826001600160a01b0316610ada82610530565b6001600160a01b031614610b005760405162461bcd60e51b815260040161042e906115f0565b6001600160a01b038216610b625760405162461bcd60e51b8152602060048201526024808201527f4552433732313a207472616e7366657220746f20746865207a65726f206164646044820152637265737360e01b606482015260840161042e565b610b6f8383836001610de6565b826001600160a01b0316610b8282610530565b6001600160a01b031614610ba85760405162461bcd60e51b815260040161042e906115f0565b600081815260046020908152604080832080546001600160a01b03199081169091556001600160a01b0387811680865260038552838620805460001901905590871680865283862080546001019055868652600290945282852080549092168417909155905184937fddf252ad1be2c89b69c2b068fc378daa952ba7f163c4a11628f55a4df523b3ef91a4505050565b610689828260405180602001604052806000815250610e9b565b816001600160a01b0316836001600160a01b031603610cb35760405162461bcd60e51b815260206004820152601960248201527f4552433732313a20617070726f766520746f2063616c6c657200000000000000604482015260640161042e565b6001600160a01b03838116600081815260056020908152604080832094871680845294825291829020805460ff191686151590811790915591519182527f17307eab39ab6107e8899845ad3d59bd9653f200f220920489ca2b5937696c31910160405180910390a3505050565b610d2b848484610ac7565b610d3784848484610ece565b6106bf5760405162461bcd60e51b815260040161042e90611635565b60606000610d6083610fcf565b600101905060008167ffffffffffffffff811115610d8057610d806113c8565b6040519080825280601f01601f191660200182016040528015610daa576020820181803683370190505b5090508181016020015b600019016f181899199a1a9b1b9c1cb0b131b232b360811b600a86061a8153600a8504945084610db457509392505050565b826001600160a01b0316846001600160a01b031614158015610e1e57506000828152600760205260409020546001600160a01b031615155b8015610e495750600082815260076020526040902054600160a01b900467ffffffffffffffff164210155b156106bf57600082815260076020908152604080832080546001600160e01b03191690555182815284917f4e06b4e7000e659094299b3533b47b6aa8ad048e95e872d23d1f4ee55af89cfe910161091a565b610ea583836110a7565b610eb26000848484610ece565b6104cf5760405162461bcd60e51b815260040161042e90611635565b60006001600160a01b0384163b15610fc457604051630a85bd0160e11b81526001600160a01b0385169063150b7a0290610f12903390899088908890600401611687565b6020604051808303816000875af1925050508015610f4d575060408051601f3d908101601f19168201909252610f4a918101906116c4565b60015b610faa573d808015610f7b576040519150601f19603f3d011682016040523d82523d6000602084013e610f80565b606091505b508051600003610fa25760405162461bcd60e51b815260040161042e90611635565b805181602001fd5b6001600160e01b031916630a85bd0160e11b149050610abf565b506001949350505050565b60008072184f03e93ff9f4daa797ed6e38ed64bf6a1f0160401b831061100e5772184f03e93ff9f4daa797ed6e38ed64bf6a1f0160401b830492506040015b6d04ee2d6d415b85acef8100000000831061103a576d04ee2d6d415b85acef8100000000830492506020015b662386f26fc10000831061105857662386f26fc10000830492506010015b6305f5e1008310611070576305f5e100830492506008015b612710831061108457612710830492506004015b60648310611096576064830492506002015b600a83106102fb5760010192915050565b6001600160a01b0382166110fd5760405162461bcd60e51b815260206004820181905260248201527f4552433732313a206d696e7420746f20746865207a65726f2061646472657373604482015260640161042e565b6000818152600260205260409020546001600160a01b0316156111625760405162461bcd60e51b815260206004820152601c60248201527f4552433732313a20746f6b656e20616c7265616479206d696e74656400000000604482015260640161042e565b611170600083836001610de6565b6000818152600260205260409020546001600160a01b0316156111d55760405162461bcd60e51b815260206004820152601c60248201527f4552433732313a20746f6b656e20616c7265616479206d696e74656400000000604482015260640161042e565b6001600160a01b038216600081815260036020908152604080832080546001019055848352600290915280822080546001600160a01b0319168417905551839291907fddf252ad1be2c89b69c2b068fc378daa952ba7f163c4a11628f55a4df523b3ef908290a45050565b6001600160e01b0319811681146109d757600080fd5b60006020828403121561126857600080fd5b813561077d81611240565b60005b8381101561128e578181015183820152602001611276565b50506000910152565b600081518084526112af816020860160208601611273565b601f01601f19169290920160200192915050565b60208152600061077d6020830184611297565b6000602082840312156112e857600080fd5b5035919050565b80356001600160a01b038116811461130657600080fd5b919050565b6000806040838503121561131e57600080fd5b611327836112ef565b946020939093013593505050565b60008060006060848603121561134a57600080fd5b611353846112ef565b9250611361602085016112ef565b9150604084013590509250925092565b60006020828403121561138357600080fd5b61077d826112ef565b6000806040838503121561139f57600080fd5b6113a8836112ef565b9150602083013580151581146113bd57600080fd5b809150509250929050565b634e487b7160e01b600052604160045260246000fd5b600080600080608085870312156113f457600080fd5b6113fd856112ef565b935061140b602086016112ef565b925060408501359150606085013567ffffffffffffffff8082111561142f57600080fd5b818701915087601f83011261144357600080fd5b813581811115611455576114556113c8565b604051601f8201601f19908116603f0116810190838211818310171561147d5761147d6113c8565b816040528281528a602084870101111561149657600080fd5b82602086016020830137600060208483010152809550505050505092959194509250565b6000806000606084860312156114cf57600080fd5b833592506114df602085016112ef565b9150604084013567ffffffffffffffff811681146114fc57600080fd5b809150509250925092565b6000806040838503121561151a57600080fd5b611523836112ef565b9150611531602084016112ef565b90509250929050565b600181811c9082168061154e57607f821691505b60208210810361156e57634e487b7160e01b600052602260045260246000fd5b50919050565b6020808252602d908201527f4552433732313a2063616c6c6572206973206e6f7420746f6b656e206f776e6560408201526c1c881bdc88185c1c1c9bdd9959609a1b606082015260800190565b600083516115d3818460208801611273565b8351908301906115e7818360208801611273565b01949350505050565b60208082526025908201527f4552433732313a207472616e736665722066726f6d20696e636f72726563742060408201526437bbb732b960d91b606082015260800190565b60208082526032908201527f4552433732313a207472616e7366657220746f206e6f6e20455243373231526560408201527131b2b4bb32b91034b6b83632b6b2b73a32b960711b606082015260800190565b6001600160a01b03858116825284166020820152604081018390526080606082018190526000906116ba90830184611297565b9695505050505050565b6000602082840312156116d657600080fd5b815161077d8161124056fea264697066735822122053a205c8f9b72acfc550e8caae1a794e0c09f7d7aca98f44be25cda42cd9762164736f6c63430008100033",
  "devdoc": {
    "kind": "dev",
    "methods": {
      "approve(address,uint256)": {
        "details": "See {IERC721-approve}."
      },
      "balanceOf(address)": {
        "details": "See {IERC721-balanceOf}."
      },
      "getApproved(uint256)": {
        "details": "See {IERC721-getApproved}."
      },
      "isApprovedForAll(address,address)": {
        "details": "See {IERC721-isApprovedForAll}."
      },
      "name()": {
        "details": "See {IERC721Metadata-name}."
      },
      "nftMint()": {
        "returns": {
          "_0": "The tokenId of the minted NFT"
        }
      },
      "ownerOf(uint256)": {
        "details": "See {IERC721-ownerOf}."
      },
      "safeTransferFrom(address,address,uint256)": {
        "details": "See {IERC721-safeTransferFrom}."
      },
      "safeTransferFrom(address,address,uint256,bytes)": {
        "details": "See {IERC721-safeTransferFrom}."
      },
      "setApprovalForAll(address,bool)": {
        "details": "See {IERC721-setApprovalForAll}."
      },
      "setUser(uint256,address,uint64)": {
        "details": "The zero address indicates there is no user Throws if `tokenId` is not valid NFT",
        "params": {
          "expires": "UNIX timestamp, The new user could use the NFT before expires",
          "user": "The new user of the NFT"
        }
      },
      "supportsInterface(bytes4)": {
        "details": "See {IERC165-supportsInterface}."
      },
      "symbol()": {
        "details": "See {IERC721Metadata-symbol}."
      },
      "tokenURI(uint256)": {
        "details": "See {IERC721Metadata-tokenURI}."
      },
      "totalSupply()": {
        "returns": {
          "_0": "The total supply of NFTs"
        }
      },
      "transferFrom(address,address,uint256)": {
        "details": "See {IERC721-transferFrom}."
      },
      "userExpires(uint256)": {
        "details": "The zero value indicates that there is no user",
        "params": {
          "tokenId": "The NFT to get the user expires for"
        },
        "returns": {
          "_0": "The user expires for this NFT"
        }
      },
      "userOf(uint256)": {
        "details": "The zero address indicates that there is no user or the user is expired",
        "params": {
          "tokenId": "The NFT to get the user address for"
        },
        "returns": {
          "_0": "The user address for this NFT"
        }
      }
    },
    "version": 1
  },
  "userdoc": {
    "events": {
      "UpdateUser(uint256,address,uint64)": {
        "notice": "Emitted when the `user` of an NFT or the `expires` of the `user` is changed The zero address for user indicates that there is no user address"
      }
    },
    "kind": "user",
    "methods": {
      "nftMint()": {
        "notice": "Mints a new NFT and assigns it to the caller"
      },
      "setUser(uint256,address,uint64)": {
        "notice": "set the user and expires of a NFT"
      },
      "totalSupply()": {
        "notice": "Returns the total number of NFTs in existence"
      },
      "userExpires(uint256)": {
        "notice": "Get the user expires of an NFT"
      },
      "userOf(uint256)": {
        "notice": "Get the user address of an NFT"
      }
    },
    "version": 1
  },
  "storageLayout": {
    "storage": [
      {
        "astId": 25,
        "contract": "contracts/RentableNFT.sol:RentableNFT",
        "label": "_name",
        "offset": 0,
        "slot": "0",
        "type": "t_string_storage"
      },
      {
        "astId": 27,
        "contract": "contracts/RentableNFT.sol:RentableNFT",
        "label": "_symbol",
        "offset": 0,
        "slot": "1",
        "type": "t_string_storage"
      },
      {
        "astId": 31,
        "contract": "contracts/RentableNFT.sol:RentableNFT",
        "label": "_owners",
        "offset": 0,
        "slot": "2",
        "type": "t_mapping(t_uint256,t_address)"
      },
      {
        "astId": 35,
        "contract": "contracts/RentableNFT.sol:RentableNFT",
        "label": "_balances",
        "offset": 0,
        "slot": "3",
        "type": "t_mapping(t_address,t_uint256)"
      },
      {
        "astId": 39,
        "contract": "contracts/RentableNFT.sol:RentableNFT",
        "label": "_tokenApprovals",
        "offset": 0,
        "slot": "4",
        "type": "t_mapping(t_uint256,t_address)"
      },
      {
        "astId": 45,
        "contract": "contracts/RentableNFT.sol:RentableNFT",
        "label": "_operatorApprovals",
        "offset": 0,
        "slot": "5",
        "type": "t_mapping(t_address,t_mapping(t_address,t_bool))"
      },
      {
        "astId": 2654,
        "contract": "contracts/RentableNFT.sol:RentableNFT",
        "label": "_tokenIdCounter",
        "offset": 0,
        "slot": "6",
        "type": "t_struct(Counter)1445_storage"
      },
      {
        "astId": 2659,
        "contract": "contracts/RentableNFT.sol:RentableNFT",
        "label": "_users",
        "offset": 0,
        "slot": "7",
        "type": "t_mapping(t_uint256,t_struct(UserInfo)2641_storage)"
      }
    ],
    "types": {
      "t_address": {
        "encoding": "inplace",
        "label": "address",
        "numberOfBytes": "20"
      },
      "t_bool": {
        "encoding": "inplace",
        "label": "bool",
        "numberOfBytes": "1"
      },
      "t_mapping(t_address,t_bool)": {
        "encoding": "mapping",
        "key": "t_address",
        "label": "mapping(address => bool)",
        "numberOfBytes": "32",
        "value": "t_bool"
      },
      "t_mapping(t_address,t_mapping(t_address,t_bool))": {
        "encoding": "mapping",
        "key": "t_address",
        "label": "mapping(address => mapping(address => bool))",
        "numberOfBytes": "32",
        "value": "t_mapping(t_address,t_bool)"
      },
      "t_mapping(t_address,t_uint256)": {
        "encoding": "mapping",
        "key": "t_address",
        "label": "mapping(address => uint256)",
        "numberOfBytes": "32",
        "value": "t_uint256"
      },
      "t_mapping(t_uint256,t_address)": {
        "encoding": "mapping",
        "key": "t_uint256",
        "label": "mapping(uint256 => address)",
        "numberOfBytes": "32",
        "value": "t_address"
      },
      "t_mapping(t_uint256,t_struct(UserInfo)2641_storage)": {
        "encoding": "mapping",
        "key": "t_uint256",
        "label": "mapping(uint256 => struct RentableNFT.UserInfo)",
        "numberOfBytes": "32",
        "value": "t_struct(UserInfo)2641_storage"
      },
      "t_string_storage": {
        "encoding": "bytes",
        "label": "string",
        "numberOfBytes": "32"
      },
      "t_struct(Counter)1445_storage": {
        "encoding": "inplace",
        "label": "struct Counters.Counter",
        "members": [
          {
            "astId": 1444,
            "contract": "contracts/RentableNFT.sol:RentableNFT",
            "label": "_value",
            "offset": 0,
            "slot": "0",
            "type": "t_uint256"
          }
        ],
        "numberOfBytes": "32"
      },
      "t_struct(UserInfo)2641_storage": {
        "encoding": "inplace",
        "label": "struct RentableNFT.UserInfo",
        "members": [
          {
            "astId": 2638,
            "contract": "contracts/RentableNFT.sol:RentableNFT",
            "label": "user",
            "offset": 0,
            "slot": "0",
            "type": "t_address"
          },
          {
            "astId": 2640,
            "contract": "contracts/RentableNFT.sol:RentableNFT",
            "label": "expires",
            "offset": 20,
            "slot": "0",
            "type": "t_uint64"
          }
        ],
        "numberOfBytes": "32"
      },
      "t_uint256": {
        "encoding": "inplace",
        "label": "uint256",
        "numberOfBytes": "32"
      },
      "t_uint64": {
        "encoding": "inplace",
        "label": "uint64",
        "numberOfBytes": "8"
      }
    }
  }
}