{
  "address": "0x6Bdf3CC47aB609801A8B865fee06D42099138A2d",
  "abi": [
    {
      "inputs": [
        {
          "internalType": "uint256",
          "name": "",
          "type": "uint256"
        }
      ],
      "name": "Elections",
      "outputs": [
        {
          "internalType": "address",
          "name": "",
          "type": "address"
        }
      ],
      "stateMutability": "view",
      "type": "function"
    },
    {
      "inputs": [
        {
          "internalType": "string[]",
          "name": "_nda",
          "type": "string[]"
        },
        {
          "internalType": "string[]",
          "name": "_candidates",
          "type": "string[]"
        }
      ],
      "name": "createElection",
      "outputs": [],
      "stateMutability": "nonpayable",
      "type": "function"
    },
    {
      "inputs": [],
      "name": "electionId",
      "outputs": [
        {
          "internalType": "uint256",
          "name": "",
          "type": "uint256"
        }
      ],
      "stateMutability": "view",
      "type": "function"
    }
  ],
  "transactionHash": "0x5ec68532bbd2f8d251cb3f8bad325dcdbd34e113ac64ec35373569a904284b78",
  "args": [],
  "numDeployments": 1,
  "solcInputHash": "b462285945b987fe2f27f52351035b7f",
  "bytecode": "0x60806040526000805534801561001457600080fd5b5061183d806100246000396000f3fe60806040523480156200001157600080fd5b5060043610620000465760003560e01c8063051364d4146200004b5780631e9598e2146200006d5780633b26ad7f14620000a3575b600080fd5b62000055620000c3565b604051620000649190620001d5565b60405180910390f35b6200008b600480360381019062000085919062000237565b620000c9565b6040516200009a9190620002ae565b60405180910390f35b620000c16004803603810190620000bb919062000529565b620000fc565b005b60005481565b60016020528060005260406000206000915054906101000a900473ffffffffffffffffffffffffffffffffffffffff1681565b600082826040516200010e90620001ac565b6200011b92919062000711565b604051809103906000f08015801562000138573d6000803e3d6000fd5b50905080600160008054815260200190815260200160002060006101000a81548173ffffffffffffffffffffffffffffffffffffffff021916908373ffffffffffffffffffffffffffffffffffffffff160217905550600080815480929190620001a2906200077b565b9190505550505050565b61103e80620007ca83390190565b6000819050919050565b620001cf81620001ba565b82525050565b6000602082019050620001ec6000830184620001c4565b92915050565b6000604051905090565b600080fd5b600080fd5b6200021181620001ba565b81146200021d57600080fd5b50565b600081359050620002318162000206565b92915050565b60006020828403121562000250576200024f620001fc565b5b6000620002608482850162000220565b91505092915050565b600073ffffffffffffffffffffffffffffffffffffffff82169050919050565b6000620002968262000269565b9050919050565b620002a88162000289565b82525050565b6000602082019050620002c560008301846200029d565b92915050565b600080fd5b6000601f19601f8301169050919050565b7f4e487b7100000000000000000000000000000000000000000000000000000000600052604160045260246000fd5b6200031b82620002d0565b810181811067ffffffffffffffff821117156200033d576200033c620002e1565b5b80604052505050565b600062000352620001f2565b905062000360828262000310565b919050565b600067ffffffffffffffff821115620003835762000382620002e1565b5b602082029050602081019050919050565b600080fd5b600080fd5b600067ffffffffffffffff821115620003bc57620003bb620002e1565b5b620003c782620002d0565b9050602081019050919050565b82818337600083830152505050565b6000620003fa620003f4846200039e565b62000346565b90508281526020810184848401111562000419576200041862000399565b5b62000426848285620003d4565b509392505050565b600082601f830112620004465762000445620002cb565b5b813562000458848260208601620003e3565b91505092915050565b600062000478620004728462000365565b62000346565b905080838252602082019050602084028301858111156200049e576200049d62000394565b5b835b81811015620004ec57803567ffffffffffffffff811115620004c757620004c6620002cb565b5b808601620004d689826200042e565b85526020850194505050602081019050620004a0565b5050509392505050565b600082601f8301126200050e576200050d620002cb565b5b81356200052084826020860162000461565b91505092915050565b60008060408385031215620005435762000542620001fc565b5b600083013567ffffffffffffffff81111562000564576200056362000201565b5b6200057285828601620004f6565b925050602083013567ffffffffffffffff81111562000596576200059562000201565b5b620005a485828601620004f6565b9150509250929050565b600081519050919050565b600082825260208201905092915050565b6000819050602082019050919050565b600081519050919050565b600082825260208201905092915050565b60005b8381101562000616578082015181840152602081019050620005f9565b8381111562000626576000848401525b50505050565b60006200063982620005da565b620006458185620005e5565b935062000657818560208601620005f6565b6200066281620002d0565b840191505092915050565b60006200067b83836200062c565b905092915050565b6000602082019050919050565b60006200069d82620005ae565b620006a98185620005b9565b935083602082028501620006bd85620005ca565b8060005b85811015620006ff5784840389528151620006dd85826200066d565b9450620006ea8362000683565b925060208a01995050600181019050620006c1565b50829750879550505050505092915050565b600060408201905081810360008301526200072d818562000690565b9050818103602083015262000743818462000690565b90509392505050565b7f4e487b7100000000000000000000000000000000000000000000000000000000600052601160045260246000fd5b60006200078882620001ba565b91507fffffffffffffffffffffffffffffffffffffffffffffffffffffffffffffffff821415620007be57620007bd6200074c565b5b60018201905091905056fe608060405260006004553480156200001657600080fd5b506040516200103e3803806200103e83398181016040528101906200003c91906200051a565b600081511162000083576040517f08c379a00000000000000000000000000000000000000000000000000000000081526004016200007a9062000626565b60405180910390fd5b816000815181106200009a576200009962000648565b5b602002602001015160009080519060200190620000b9929190620001d1565b5081600181518110620000d157620000d062000648565b5b602002602001015160019080519060200190620000f0929190620001d1565b5060005b815181101562000142576200012c82828151811062000118576200011762000648565b5b60200260200101516200014b60201b60201c565b80806200013990620006b0565b915050620000f4565b50505062000763565b604051806060016040528060045481526020018281526020016000815250600260006004548152602001908152602001600020600082015181600001556020820151816001019080519060200190620001a6929190620001d1565b506040820151816002015590505060046000815480929190620001c990620006b0565b919050555050565b828054620001df906200072d565b90600052602060002090601f0160209004810192826200020357600085556200024f565b82601f106200021e57805160ff19168380011785556200024f565b828001600101855582156200024f579182015b828111156200024e57825182559160200191906001019062000231565b5b5090506200025e919062000262565b5090565b5b808211156200027d57600081600090555060010162000263565b5090565b6000604051905090565b600080fd5b600080fd5b600080fd5b6000601f19601f8301169050919050565b7f4e487b7100000000000000000000000000000000000000000000000000000000600052604160045260246000fd5b620002e5826200029a565b810181811067ffffffffffffffff82111715620003075762000306620002ab565b5b80604052505050565b60006200031c62000281565b90506200032a8282620002da565b919050565b600067ffffffffffffffff8211156200034d576200034c620002ab565b5b602082029050602081019050919050565b600080fd5b600080fd5b600067ffffffffffffffff821115620003865762000385620002ab565b5b62000391826200029a565b9050602081019050919050565b60005b83811015620003be578082015181840152602081019050620003a1565b83811115620003ce576000848401525b50505050565b6000620003eb620003e58462000368565b62000310565b9050828152602081018484840111156200040a576200040962000363565b5b620004178482856200039e565b509392505050565b600082601f83011262000437576200043662000295565b5b815162000449848260208601620003d4565b91505092915050565b60006200046962000463846200032f565b62000310565b905080838252602082019050602084028301858111156200048f576200048e6200035e565b5b835b81811015620004dd57805167ffffffffffffffff811115620004b857620004b762000295565b5b808601620004c789826200041f565b8552602085019450505060208101905062000491565b5050509392505050565b600082601f830112620004ff57620004fe62000295565b5b81516200051184826020860162000452565b91505092915050565b600080604083850312156200053457620005336200028b565b5b600083015167ffffffffffffffff81111562000555576200055462000290565b5b6200056385828601620004e7565b925050602083015167ffffffffffffffff81111562000587576200058662000290565b5b6200059585828601620004e7565b9150509250929050565b600082825260208201905092915050565b7f54686572652073686f756c642062652061746c6561737420312063616e64696460008201527f6174652e00000000000000000000000000000000000000000000000000000000602082015250565b60006200060e6024836200059f565b91506200061b82620005b0565b604082019050919050565b600060208201905081810360008301526200064181620005ff565b9050919050565b7f4e487b7100000000000000000000000000000000000000000000000000000000600052603260045260246000fd5b7f4e487b7100000000000000000000000000000000000000000000000000000000600052601160045260246000fd5b6000819050919050565b6000620006bd82620006a6565b91507fffffffffffffffffffffffffffffffffffffffffffffffffffffffffffffffff821415620006f357620006f262000677565b5b600182019050919050565b7f4e487b7100000000000000000000000000000000000000000000000000000000600052602260045260246000fd5b600060028204905060018216806200074657607f821691505b602082108114156200075d576200075c620006fe565b5b50919050565b6108cb80620007736000396000f3fe608060405234801561001057600080fd5b50600436106100625760003560e01c80630121b93f1461006757806306fdde03146100835780632d35a8a2146100a15780633477ee2e146100bf5780637284e416146100f1578063a3ec138d1461010f575b600080fd5b610081600480360381019061007c91906104d3565b61013f565b005b61008b6102a4565b6040516100989190610599565b60405180910390f35b6100a9610332565b6040516100b691906105ca565b60405180910390f35b6100d960048036038101906100d491906104d3565b610338565b6040516100e8939291906105e5565b60405180910390f35b6100f96103ea565b6040516101069190610599565b60405180910390f35b61012960048036038101906101249190610681565b610478565b60405161013691906106c9565b60405180910390f35b600360003373ffffffffffffffffffffffffffffffffffffffff1673ffffffffffffffffffffffffffffffffffffffff16815260200190815260200160002060009054906101000a900460ff16156101cc576040517f08c379a00000000000000000000000000000000000000000000000000000000081526004016101c390610730565b60405180910390fd5b600454811080156101de575060008110155b61021d576040517f08c379a00000000000000000000000000000000000000000000000000000000081526004016102149061079c565b60405180910390fd5b6001600360003373ffffffffffffffffffffffffffffffffffffffff1673ffffffffffffffffffffffffffffffffffffffff16815260200190815260200160002060006101000a81548160ff02191690831515021790555060026000828152602001908152602001600020600201600081548092919061029c906107eb565b919050555050565b600080546102b190610863565b80601f01602080910402602001604051908101604052809291908181526020018280546102dd90610863565b801561032a5780601f106102ff5761010080835404028352916020019161032a565b820191906000526020600020905b81548152906001019060200180831161030d57829003601f168201915b505050505081565b60045481565b600260205280600052604060002060009150905080600001549080600101805461036190610863565b80601f016020809104026020016040519081016040528092919081815260200182805461038d90610863565b80156103da5780601f106103af576101008083540402835291602001916103da565b820191906000526020600020905b8154815290600101906020018083116103bd57829003601f168201915b5050505050908060020154905083565b600180546103f790610863565b80601f016020809104026020016040519081016040528092919081815260200182805461042390610863565b80156104705780601f1061044557610100808354040283529160200191610470565b820191906000526020600020905b81548152906001019060200180831161045357829003601f168201915b505050505081565b60036020528060005260406000206000915054906101000a900460ff1681565b600080fd5b6000819050919050565b6104b08161049d565b81146104bb57600080fd5b50565b6000813590506104cd816104a7565b92915050565b6000602082840312156104e9576104e8610498565b5b60006104f7848285016104be565b91505092915050565b600081519050919050565b600082825260208201905092915050565b60005b8381101561053a57808201518184015260208101905061051f565b83811115610549576000848401525b50505050565b6000601f19601f8301169050919050565b600061056b82610500565b610575818561050b565b935061058581856020860161051c565b61058e8161054f565b840191505092915050565b600060208201905081810360008301526105b38184610560565b905092915050565b6105c48161049d565b82525050565b60006020820190506105df60008301846105bb565b92915050565b60006060820190506105fa60008301866105bb565b818103602083015261060c8185610560565b905061061b60408301846105bb565b949350505050565b600073ffffffffffffffffffffffffffffffffffffffff82169050919050565b600061064e82610623565b9050919050565b61065e81610643565b811461066957600080fd5b50565b60008135905061067b81610655565b92915050565b60006020828403121561069757610696610498565b5b60006106a58482850161066c565b91505092915050565b60008115159050919050565b6106c3816106ae565b82525050565b60006020820190506106de60008301846106ba565b92915050565b7f566f7465722068617320616c726561647920566f746564210000000000000000600082015250565b600061071a60188361050b565b9150610725826106e4565b602082019050919050565b600060208201905081810360008301526107498161070d565b9050919050565b7f496e76616c69642063616e64696461746520746f20566f746521000000000000600082015250565b6000610786601a8361050b565b915061079182610750565b602082019050919050565b600060208201905081810360008301526107b581610779565b9050919050565b7f4e487b7100000000000000000000000000000000000000000000000000000000600052601160045260246000fd5b60006107f68261049d565b91507fffffffffffffffffffffffffffffffffffffffffffffffffffffffffffffffff821415610829576108286107bc565b5b600182019050919050565b7f4e487b7100000000000000000000000000000000000000000000000000000000600052602260045260246000fd5b6000600282049050600182168061087b57607f821691505b6020821081141561088f5761088e610834565b5b5091905056fea2646970667358221220dd51ddc6cc0673577e4d38d9448a016f7dc8f6f7e6ba755b165b439cc0e3aabc64736f6c63430008090033a264697066735822122018d935fe5655f75831c94f1f2b67186fb7d70c05427479f5d6801f177ceb6abe64736f6c63430008090033",
  "devdoc": {
    "kind": "dev",
    "methods": {},
    "version": 1
  },
  "userdoc": {
    "kind": "user",
    "methods": {},
    "version": 1
  },
  "storageLayout": {
    "storage": [
      {
        "astId": 164,
        "contract": "contracts/MainContract.sol:MainContract",
        "label": "electionId",
        "offset": 0,
        "slot": "0",
        "type": "t_uint256"
      },
      {
        "astId": 168,
        "contract": "contracts/MainContract.sol:MainContract",
        "label": "Elections",
        "offset": 0,
        "slot": "1",
        "type": "t_mapping(t_uint256,t_address)"
      }
    ],
    "types": {
      "t_address": {
        "encoding": "inplace",
        "label": "address",
        "numberOfBytes": "20"
      },
      "t_mapping(t_uint256,t_address)": {
        "encoding": "mapping",
        "key": "t_uint256",
        "label": "mapping(uint256 => address)",
        "numberOfBytes": "32",
        "value": "t_address"
      },
      "t_uint256": {
        "encoding": "inplace",
        "label": "uint256",
        "numberOfBytes": "32"
      }
    }
  }
}