{
  "address": "0x089Db170AD59a07FfDFB8cD9F28B6dbFE10e35C3",
  "abi": [
    {
      "anonymous": false,
      "inputs": [
        {
          "indexed": false,
          "internalType": "uint256",
          "name": "id",
          "type": "uint256"
        }
      ],
      "name": "ElectionCreated",
      "type": "event"
    },
    {
      "inputs": [
        {
          "internalType": "uint256",
          "name": "",
          "type": "uint256"
        }
      ],
      "name": "Elections",
      "outputs": [
        {
          "internalType": "address",
          "name": "",
          "type": "address"
        }
      ],
      "stateMutability": "view",
      "type": "function"
    },
    {
      "inputs": [
        {
          "internalType": "string[]",
          "name": "_nda",
          "type": "string[]"
        },
        {
          "internalType": "string[]",
          "name": "_candidates",
          "type": "string[]"
        }
      ],
      "name": "createElection",
      "outputs": [
        {
          "internalType": "uint256",
          "name": "id",
          "type": "uint256"
        }
      ],
      "stateMutability": "nonpayable",
      "type": "function"
    },
    {
      "inputs": [],
      "name": "electionId",
      "outputs": [
        {
          "internalType": "uint256",
          "name": "",
          "type": "uint256"
        }
      ],
      "stateMutability": "view",
      "type": "function"
    }
  ],
  "transactionHash": "0x22c78861968e57ec620f54e41167d2deb9c68e34bd19fce9498d71933101b626",
  "args": [],
  "numDeployments": 2,
  "solcInputHash": "d89ea81b08d11aabf5237b7244874fa7",
  "bytecode": "0x60806040526000805534801561001457600080fd5b50611890806100246000396000f3fe60806040523480156200001157600080fd5b5060043610620000465760003560e01c8063051364d4146200004b5780631e9598e2146200006d5780633b26ad7f14620000a3575b600080fd5b62000055620000d9565b60405162000064919062000228565b60405180910390f35b6200008b60048036038101906200008591906200028a565b620000df565b6040516200009a919062000301565b60405180910390f35b620000c16004803603810190620000bb91906200057c565b62000112565b604051620000d0919062000228565b60405180910390f35b60005481565b60016020528060005260406000206000915054906101000a900473ffffffffffffffffffffffffffffffffffffffff1681565b60008083836040516200012590620001ff565b6200013292919062000764565b604051809103906000f0801580156200014f573d6000803e3d6000fd5b50905080600160008054815260200190815260200160002060006101000a81548173ffffffffffffffffffffffffffffffffffffffff021916908373ffffffffffffffffffffffffffffffffffffffff160217905550600080815480929190620001b990620007ce565b9190505591507fe5ada6048ea7c2d62f0279b6b2e956a1d24f57eb887465b33a580e916257a6e782604051620001f0919062000228565b60405180910390a15092915050565b61103e806200081d83390190565b6000819050919050565b62000222816200020d565b82525050565b60006020820190506200023f600083018462000217565b92915050565b6000604051905090565b600080fd5b600080fd5b62000264816200020d565b81146200027057600080fd5b50565b600081359050620002848162000259565b92915050565b600060208284031215620002a357620002a26200024f565b5b6000620002b38482850162000273565b91505092915050565b600073ffffffffffffffffffffffffffffffffffffffff82169050919050565b6000620002e982620002bc565b9050919050565b620002fb81620002dc565b82525050565b6000602082019050620003186000830184620002f0565b92915050565b600080fd5b6000601f19601f8301169050919050565b7f4e487b7100000000000000000000000000000000000000000000000000000000600052604160045260246000fd5b6200036e8262000323565b810181811067ffffffffffffffff8211171562000390576200038f62000334565b5b80604052505050565b6000620003a562000245565b9050620003b3828262000363565b919050565b600067ffffffffffffffff821115620003d657620003d562000334565b5b602082029050602081019050919050565b600080fd5b600080fd5b600067ffffffffffffffff8211156200040f576200040e62000334565b5b6200041a8262000323565b9050602081019050919050565b82818337600083830152505050565b60006200044d6200044784620003f1565b62000399565b9050828152602081018484840111156200046c576200046b620003ec565b5b6200047984828562000427565b509392505050565b600082601f8301126200049957620004986200031e565b5b8135620004ab84826020860162000436565b91505092915050565b6000620004cb620004c584620003b8565b62000399565b90508083825260208201905060208402830185811115620004f157620004f0620003e7565b5b835b818110156200053f57803567ffffffffffffffff8111156200051a57620005196200031e565b5b80860162000529898262000481565b85526020850194505050602081019050620004f3565b5050509392505050565b600082601f8301126200056157620005606200031e565b5b813562000573848260208601620004b4565b91505092915050565b600080604083850312156200059657620005956200024f565b5b600083013567ffffffffffffffff811115620005b757620005b662000254565b5b620005c58582860162000549565b925050602083013567ffffffffffffffff811115620005e957620005e862000254565b5b620005f78582860162000549565b9150509250929050565b600081519050919050565b600082825260208201905092915050565b6000819050602082019050919050565b600081519050919050565b600082825260208201905092915050565b60005b83811015620006695780820151818401526020810190506200064c565b8381111562000679576000848401525b50505050565b60006200068c826200062d565b62000698818562000638565b9350620006aa81856020860162000649565b620006b58162000323565b840191505092915050565b6000620006ce83836200067f565b905092915050565b6000602082019050919050565b6000620006f08262000601565b620006fc81856200060c565b93508360208202850162000710856200061d565b8060005b85811015620007525784840389528151620007308582620006c0565b94506200073d83620006d6565b925060208a0199505060018101905062000714565b50829750879550505050505092915050565b60006040820190508181036000830152620007808185620006e3565b90508181036020830152620007968184620006e3565b90509392505050565b7f4e487b7100000000000000000000000000000000000000000000000000000000600052601160045260246000fd5b6000620007db826200020d565b91507fffffffffffffffffffffffffffffffffffffffffffffffffffffffffffffffff8214156200081157620008106200079f565b5b60018201905091905056fe608060405260006004553480156200001657600080fd5b506040516200103e3803806200103e83398181016040528101906200003c91906200051a565b600081511162000083576040517f08c379a00000000000000000000000000000000000000000000000000000000081526004016200007a9062000626565b60405180910390fd5b816000815181106200009a576200009962000648565b5b602002602001015160009080519060200190620000b9929190620001d1565b5081600181518110620000d157620000d062000648565b5b602002602001015160019080519060200190620000f0929190620001d1565b5060005b815181101562000142576200012c82828151811062000118576200011762000648565b5b60200260200101516200014b60201b60201c565b80806200013990620006b0565b915050620000f4565b50505062000763565b604051806060016040528060045481526020018281526020016000815250600260006004548152602001908152602001600020600082015181600001556020820151816001019080519060200190620001a6929190620001d1565b506040820151816002015590505060046000815480929190620001c990620006b0565b919050555050565b828054620001df906200072d565b90600052602060002090601f0160209004810192826200020357600085556200024f565b82601f106200021e57805160ff19168380011785556200024f565b828001600101855582156200024f579182015b828111156200024e57825182559160200191906001019062000231565b5b5090506200025e919062000262565b5090565b5b808211156200027d57600081600090555060010162000263565b5090565b6000604051905090565b600080fd5b600080fd5b600080fd5b6000601f19601f8301169050919050565b7f4e487b7100000000000000000000000000000000000000000000000000000000600052604160045260246000fd5b620002e5826200029a565b810181811067ffffffffffffffff82111715620003075762000306620002ab565b5b80604052505050565b60006200031c62000281565b90506200032a8282620002da565b919050565b600067ffffffffffffffff8211156200034d576200034c620002ab565b5b602082029050602081019050919050565b600080fd5b600080fd5b600067ffffffffffffffff821115620003865762000385620002ab565b5b62000391826200029a565b9050602081019050919050565b60005b83811015620003be578082015181840152602081019050620003a1565b83811115620003ce576000848401525b50505050565b6000620003eb620003e58462000368565b62000310565b9050828152602081018484840111156200040a576200040962000363565b5b620004178482856200039e565b509392505050565b600082601f83011262000437576200043662000295565b5b815162000449848260208601620003d4565b91505092915050565b60006200046962000463846200032f565b62000310565b905080838252602082019050602084028301858111156200048f576200048e6200035e565b5b835b81811015620004dd57805167ffffffffffffffff811115620004b857620004b762000295565b5b808601620004c789826200041f565b8552602085019450505060208101905062000491565b5050509392505050565b600082601f830112620004ff57620004fe62000295565b5b81516200051184826020860162000452565b91505092915050565b600080604083850312156200053457620005336200028b565b5b600083015167ffffffffffffffff81111562000555576200055462000290565b5b6200056385828601620004e7565b925050602083015167ffffffffffffffff81111562000587576200058662000290565b5b6200059585828601620004e7565b9150509250929050565b600082825260208201905092915050565b7f54686572652073686f756c642062652061746c6561737420312063616e64696460008201527f6174652e00000000000000000000000000000000000000000000000000000000602082015250565b60006200060e6024836200059f565b91506200061b82620005b0565b604082019050919050565b600060208201905081810360008301526200064181620005ff565b9050919050565b7f4e487b7100000000000000000000000000000000000000000000000000000000600052603260045260246000fd5b7f4e487b7100000000000000000000000000000000000000000000000000000000600052601160045260246000fd5b6000819050919050565b6000620006bd82620006a6565b91507fffffffffffffffffffffffffffffffffffffffffffffffffffffffffffffffff821415620006f357620006f262000677565b5b600182019050919050565b7f4e487b7100000000000000000000000000000000000000000000000000000000600052602260045260246000fd5b600060028204905060018216806200074657607f821691505b602082108114156200075d576200075c620006fe565b5b50919050565b6108cb80620007736000396000f3fe608060405234801561001057600080fd5b50600436106100625760003560e01c80630121b93f1461006757806306fdde03146100835780632d35a8a2146100a15780633477ee2e146100bf5780637284e416146100f1578063a3ec138d1461010f575b600080fd5b610081600480360381019061007c91906104d3565b61013f565b005b61008b6102a4565b6040516100989190610599565b60405180910390f35b6100a9610332565b6040516100b691906105ca565b60405180910390f35b6100d960048036038101906100d491906104d3565b610338565b6040516100e8939291906105e5565b60405180910390f35b6100f96103ea565b6040516101069190610599565b60405180910390f35b61012960048036038101906101249190610681565b610478565b60405161013691906106c9565b60405180910390f35b600360003373ffffffffffffffffffffffffffffffffffffffff1673ffffffffffffffffffffffffffffffffffffffff16815260200190815260200160002060009054906101000a900460ff16156101cc576040517f08c379a00000000000000000000000000000000000000000000000000000000081526004016101c390610730565b60405180910390fd5b600454811080156101de575060008110155b61021d576040517f08c379a00000000000000000000000000000000000000000000000000000000081526004016102149061079c565b60405180910390fd5b6001600360003373ffffffffffffffffffffffffffffffffffffffff1673ffffffffffffffffffffffffffffffffffffffff16815260200190815260200160002060006101000a81548160ff02191690831515021790555060026000828152602001908152602001600020600201600081548092919061029c906107eb565b919050555050565b600080546102b190610863565b80601f01602080910402602001604051908101604052809291908181526020018280546102dd90610863565b801561032a5780601f106102ff5761010080835404028352916020019161032a565b820191906000526020600020905b81548152906001019060200180831161030d57829003601f168201915b505050505081565b60045481565b600260205280600052604060002060009150905080600001549080600101805461036190610863565b80601f016020809104026020016040519081016040528092919081815260200182805461038d90610863565b80156103da5780601f106103af576101008083540402835291602001916103da565b820191906000526020600020905b8154815290600101906020018083116103bd57829003601f168201915b5050505050908060020154905083565b600180546103f790610863565b80601f016020809104026020016040519081016040528092919081815260200182805461042390610863565b80156104705780601f1061044557610100808354040283529160200191610470565b820191906000526020600020905b81548152906001019060200180831161045357829003601f168201915b505050505081565b60036020528060005260406000206000915054906101000a900460ff1681565b600080fd5b6000819050919050565b6104b08161049d565b81146104bb57600080fd5b50565b6000813590506104cd816104a7565b92915050565b6000602082840312156104e9576104e8610498565b5b60006104f7848285016104be565b91505092915050565b600081519050919050565b600082825260208201905092915050565b60005b8381101561053a57808201518184015260208101905061051f565b83811115610549576000848401525b50505050565b6000601f19601f8301169050919050565b600061056b82610500565b610575818561050b565b935061058581856020860161051c565b61058e8161054f565b840191505092915050565b600060208201905081810360008301526105b38184610560565b905092915050565b6105c48161049d565b82525050565b60006020820190506105df60008301846105bb565b92915050565b60006060820190506105fa60008301866105bb565b818103602083015261060c8185610560565b905061061b60408301846105bb565b949350505050565b600073ffffffffffffffffffffffffffffffffffffffff82169050919050565b600061064e82610623565b9050919050565b61065e81610643565b811461066957600080fd5b50565b60008135905061067b81610655565b92915050565b60006020828403121561069757610696610498565b5b60006106a58482850161066c565b91505092915050565b60008115159050919050565b6106c3816106ae565b82525050565b60006020820190506106de60008301846106ba565b92915050565b7f566f7465722068617320616c726561647920566f746564210000000000000000600082015250565b600061071a60188361050b565b9150610725826106e4565b602082019050919050565b600060208201905081810360008301526107498161070d565b9050919050565b7f496e76616c69642063616e64696461746520746f20566f746521000000000000600082015250565b6000610786601a8361050b565b915061079182610750565b602082019050919050565b600060208201905081810360008301526107b581610779565b9050919050565b7f4e487b7100000000000000000000000000000000000000000000000000000000600052601160045260246000fd5b60006107f68261049d565b91507fffffffffffffffffffffffffffffffffffffffffffffffffffffffffffffffff821415610829576108286107bc565b5b600182019050919050565b7f4e487b7100000000000000000000000000000000000000000000000000000000600052602260045260246000fd5b6000600282049050600182168061087b57607f821691505b6020821081141561088f5761088e610834565b5b5091905056fea2646970667358221220dd51ddc6cc0673577e4d38d9448a016f7dc8f6f7e6ba755b165b439cc0e3aabc64736f6c63430008090033a26469706673582212204fc5b0f229f8c6712bbca952309acbfd33d1b60f462640961e05bf950066fdaf64736f6c63430008090033",
  "devdoc": {
    "kind": "dev",
    "methods": {},
    "version": 1
  },
  "userdoc": {
    "kind": "user",
    "methods": {},
    "version": 1
  },
  "storageLayout": {
    "storage": [
      {
        "astId": 138,
        "contract": "contracts/MainContract.sol:MainContract",
        "label": "electionId",
        "offset": 0,
        "slot": "0",
        "type": "t_uint256"
      },
      {
        "astId": 142,
        "contract": "contracts/MainContract.sol:MainContract",
        "label": "Elections",
        "offset": 0,
        "slot": "1",
        "type": "t_mapping(t_uint256,t_address)"
      }
    ],
    "types": {
      "t_address": {
        "encoding": "inplace",
        "label": "address",
        "numberOfBytes": "20"
      },
      "t_mapping(t_uint256,t_address)": {
        "encoding": "mapping",
        "key": "t_uint256",
        "label": "mapping(uint256 => address)",
        "numberOfBytes": "32",
        "value": "t_address"
      },
      "t_uint256": {
        "encoding": "inplace",
        "label": "uint256",
        "numberOfBytes": "32"
      }
    }
  }
}