{
	"contracts/token.sol": {
		"token": {
			"abi": [
				{
					"inputs": [],
					"stateMutability": "nonpayable",
					"type": "constructor"
				},
				{
					"anonymous": false,
					"inputs": [
						{
							"indexed": true,
							"internalType": "address",
							"name": "owner",
							"type": "address"
						},
						{
							"indexed": true,
							"internalType": "address",
							"name": "spender",
							"type": "address"
						},
						{
							"indexed": false,
							"internalType": "uint256",
							"name": "value",
							"type": "uint256"
						}
					],
					"name": "Approval",
					"type": "event"
				},
				{
					"anonymous": false,
					"inputs": [
						{
							"indexed": true,
							"internalType": "address",
							"name": "from",
							"type": "address"
						},
						{
							"indexed": true,
							"internalType": "address",
							"name": "to",
							"type": "address"
						},
						{
							"indexed": false,
							"internalType": "uint256",
							"name": "value",
							"type": "uint256"
						}
					],
					"name": "Transfer",
					"type": "event"
				},
				{
					"inputs": [],
					"name": "DOMAIN_SEPARATOR",
					"outputs": [
						{
							"internalType": "bytes32",
							"name": "",
							"type": "bytes32"
						}
					],
					"stateMutability": "view",
					"type": "function"
				},
				{
					"inputs": [
						{
							"internalType": "address",
							"name": "owner",
							"type": "address"
						},
						{
							"internalType": "address",
							"name": "spender",
							"type": "address"
						}
					],
					"name": "allowance",
					"outputs": [
						{
							"internalType": "uint256",
							"name": "",
							"type": "uint256"
						}
					],
					"stateMutability": "view",
					"type": "function"
				},
				{
					"inputs": [
						{
							"internalType": "address",
							"name": "spender",
							"type": "address"
						},
						{
							"internalType": "uint256",
							"name": "amount",
							"type": "uint256"
						}
					],
					"name": "approve",
					"outputs": [
						{
							"internalType": "bool",
							"name": "",
							"type": "bool"
						}
					],
					"stateMutability": "nonpayable",
					"type": "function"
				},
				{
					"inputs": [
						{
							"internalType": "address",
							"name": "account",
							"type": "address"
						}
					],
					"name": "balanceOf",
					"outputs": [
						{
							"internalType": "uint256",
							"name": "",
							"type": "uint256"
						}
					],
					"stateMutability": "view",
					"type": "function"
				},
				{
					"inputs": [],
					"name": "decimals",
					"outputs": [
						{
							"internalType": "uint8",
							"name": "",
							"type": "uint8"
						}
					],
					"stateMutability": "view",
					"type": "function"
				},
				{
					"inputs": [
						{
							"internalType": "address",
							"name": "spender",
							"type": "address"
						},
						{
							"internalType": "uint256",
							"name": "subtractedValue",
							"type": "uint256"
						}
					],
					"name": "decreaseAllowance",
					"outputs": [
						{
							"internalType": "bool",
							"name": "",
							"type": "bool"
						}
					],
					"stateMutability": "nonpayable",
					"type": "function"
				},
				{
					"inputs": [
						{
							"internalType": "address",
							"name": "spender",
							"type": "address"
						},
						{
							"internalType": "uint256",
							"name": "addedValue",
							"type": "uint256"
						}
					],
					"name": "increaseAllowance",
					"outputs": [
						{
							"internalType": "bool",
							"name": "",
							"type": "bool"
						}
					],
					"stateMutability": "nonpayable",
					"type": "function"
				},
				{
					"inputs": [
						{
							"internalType": "address",
							"name": "to",
							"type": "address"
						},
						{
							"internalType": "uint256",
							"name": "value",
							"type": "uint256"
						}
					],
					"name": "mint",
					"outputs": [],
					"stateMutability": "nonpayable",
					"type": "function"
				},
				{
					"inputs": [],
					"name": "name",
					"outputs": [
						{
							"internalType": "string",
							"name": "",
							"type": "string"
						}
					],
					"stateMutability": "view",
					"type": "function"
				},
				{
					"inputs": [
						{
							"internalType": "address",
							"name": "owner",
							"type": "address"
						}
					],
					"name": "nonces",
					"outputs": [
						{
							"internalType": "uint256",
							"name": "",
							"type": "uint256"
						}
					],
					"stateMutability": "view",
					"type": "function"
				},
				{
					"inputs": [
						{
							"internalType": "address",
							"name": "owner",
							"type": "address"
						},
						{
							"internalType": "address",
							"name": "spender",
							"type": "address"
						},
						{
							"internalType": "uint256",
							"name": "value",
							"type": "uint256"
						},
						{
							"internalType": "uint256",
							"name": "deadline",
							"type": "uint256"
						},
						{
							"internalType": "uint8",
							"name": "v",
							"type": "uint8"
						},
						{
							"internalType": "bytes32",
							"name": "r",
							"type": "bytes32"
						},
						{
							"internalType": "bytes32",
							"name": "s",
							"type": "bytes32"
						}
					],
					"name": "permit",
					"outputs": [],
					"stateMutability": "nonpayable",
					"type": "function"
				},
				{
					"inputs": [],
					"name": "symbol",
					"outputs": [
						{
							"internalType": "string",
							"name": "",
							"type": "string"
						}
					],
					"stateMutability": "view",
					"type": "function"
				},
				{
					"inputs": [],
					"name": "totalSupply",
					"outputs": [
						{
							"internalType": "uint256",
							"name": "",
							"type": "uint256"
						}
					],
					"stateMutability": "view",
					"type": "function"
				},
				{
					"inputs": [
						{
							"internalType": "address",
							"name": "to",
							"type": "address"
						},
						{
							"internalType": "uint256",
							"name": "amount",
							"type": "uint256"
						}
					],
					"name": "transfer",
					"outputs": [
						{
							"internalType": "bool",
							"name": "",
							"type": "bool"
						}
					],
					"stateMutability": "nonpayable",
					"type": "function"
				},
				{
					"inputs": [
						{
							"internalType": "address",
							"name": "from",
							"type": "address"
						},
						{
							"internalType": "address",
							"name": "to",
							"type": "address"
						},
						{
							"internalType": "uint256",
							"name": "amount",
							"type": "uint256"
						}
					],
					"name": "transferFrom",
					"outputs": [
						{
							"internalType": "bool",
							"name": "",
							"type": "bool"
						}
					],
					"stateMutability": "nonpayable",
					"type": "function"
				}
			],
			"devdoc": {
				"kind": "dev",
				"methods": {
					"DOMAIN_SEPARATOR()": {
						"details": "See {IERC20Permit-DOMAIN_SEPARATOR}."
					},
					"allowance(address,address)": {
						"details": "See {IERC20-allowance}."
					},
					"approve(address,uint256)": {
						"details": "See {IERC20-approve}. NOTE: If `amount` is the maximum `uint256`, the allowance is not updated on `transferFrom`. This is semantically equivalent to an infinite approval. Requirements: - `spender` cannot be the zero address."
					},
					"balanceOf(address)": {
						"details": "See {IERC20-balanceOf}."
					},
					"decimals()": {
						"details": "Returns the number of decimals used to get its user representation. For example, if `decimals` equals `2`, a balance of `505` tokens should be displayed to a user as `5.05` (`505 / 10 ** 2`). Tokens usually opt for a value of 18, imitating the relationship between Ether and Wei. This is the value {ERC20} uses, unless this function is overridden; NOTE: This information is only used for _display_ purposes: it in no way affects any of the arithmetic of the contract, including {IERC20-balanceOf} and {IERC20-transfer}."
					},
					"decreaseAllowance(address,uint256)": {
						"details": "Atomically decreases the allowance granted to `spender` by the caller. This is an alternative to {approve} that can be used as a mitigation for problems described in {IERC20-approve}. Emits an {Approval} event indicating the updated allowance. Requirements: - `spender` cannot be the zero address. - `spender` must have allowance for the caller of at least `subtractedValue`."
					},
					"increaseAllowance(address,uint256)": {
						"details": "Atomically increases the allowance granted to `spender` by the caller. This is an alternative to {approve} that can be used as a mitigation for problems described in {IERC20-approve}. Emits an {Approval} event indicating the updated allowance. Requirements: - `spender` cannot be the zero address."
					},
					"name()": {
						"details": "Returns the name of the token."
					},
					"nonces(address)": {
						"details": "See {IERC20Permit-nonces}."
					},
					"permit(address,address,uint256,uint256,uint8,bytes32,bytes32)": {
						"details": "See {IERC20Permit-permit}."
					},
					"symbol()": {
						"details": "Returns the symbol of the token, usually a shorter version of the name."
					},
					"totalSupply()": {
						"details": "See {IERC20-totalSupply}."
					},
					"transfer(address,uint256)": {
						"details": "See {IERC20-transfer}. Requirements: - `to` cannot be the zero address. - the caller must have a balance of at least `amount`."
					},
					"transferFrom(address,address,uint256)": {
						"details": "See {IERC20-transferFrom}. Emits an {Approval} event indicating the updated allowance. This is not required by the EIP. See the note at the beginning of {ERC20}. NOTE: Does not update the allowance if the current allowance is the maximum `uint256`. Requirements: - `from` and `to` cannot be the zero address. - `from` must have a balance of at least `amount`. - the caller must have allowance for ``from``'s tokens of at least `amount`."
					}
				},
				"version": 1
			},
			"evm": {
				"assembly": "    /* \"contracts/token.sol\":225:425  contract token is ERC20, ERC20Permit {... */\n  mstore(0x40, 0x0140)\n    /* \"contracts/token.sol\":268:334  constructor() ERC20(\"BuildBear\", \"BB\") ERC20Permit(\"BuildBear\") {} */\n  callvalue\n  dup1\n  iszero\n  tag_1\n  jumpi\n  0x00\n  dup1\n  revert\ntag_1:\n  pop\n    /* \"node_modules/@openzeppelin/contracts/token/ERC20/extensions/draft-ERC20Permit.sol\":1829:1881  constructor(string memory name) EIP712(name, \"1\") {} */\n  mload(0x40)\n  dup1\n  0x40\n  add\n  0x40\n  mstore\n  dup1\n  0x09\n  dup2\n  mstore\n  0x20\n  add\n  0x4275696c64426561720000000000000000000000000000000000000000000000\n  dup2\n  mstore\n  pop\n    /* \"node_modules/@openzeppelin/contracts/token/ERC20/extensions/draft-ERC20Permit.sol\":1868:1872  name */\n  dup1\n    /* \"node_modules/@openzeppelin/contracts/utils/cryptography/EIP712.sol\":2464:3066  constructor(string memory name, string memory version) {... */\n  mload(0x40)\n  dup1\n  0x40\n  add\n  0x40\n  mstore\n  dup1\n  0x01\n  dup2\n  mstore\n  0x20\n  add\n  0x3100000000000000000000000000000000000000000000000000000000000000\n  dup2\n  mstore\n  pop\n    /* \"node_modules/@openzeppelin/contracts/token/ERC20/ERC20.sol\":1976:2089  constructor(string memory name_, string memory symbol_) {... */\n  mload(0x40)\n  dup1\n  0x40\n  add\n  0x40\n  mstore\n  dup1\n  0x09\n  dup2\n  mstore\n  0x20\n  add\n  0x4275696c64426561720000000000000000000000000000000000000000000000\n  dup2\n  mstore\n  pop\n  mload(0x40)\n  dup1\n  0x40\n  add\n  0x40\n  mstore\n  dup1\n  0x02\n  dup2\n  mstore\n  0x20\n  add\n  0x4242000000000000000000000000000000000000000000000000000000000000\n  dup2\n  mstore\n  pop\n    /* \"node_modules/@openzeppelin/contracts/token/ERC20/ERC20.sol\":2050:2055  name_ */\n  dup2\n    /* \"node_modules/@openzeppelin/contracts/token/ERC20/ERC20.sol\":2042:2047  _name */\n  0x03\n    /* \"node_modules/@openzeppelin/contracts/token/ERC20/ERC20.sol\":2042:2055  _name = name_ */\n  swap1\n  dup1\n  mload\n  swap1\n  0x20\n  add\n  swap1\n  tag_7\n  swap3\n  swap2\n  swap1\n  tag_8\n  jump\t// in\ntag_7:\n  pop\n    /* \"node_modules/@openzeppelin/contracts/token/ERC20/ERC20.sol\":2075:2082  symbol_ */\n  dup1\n    /* \"node_modules/@openzeppelin/contracts/token/ERC20/ERC20.sol\":2065:2072  _symbol */\n  0x04\n    /* \"node_modules/@openzeppelin/contracts/token/ERC20/ERC20.sol\":2065:2082  _symbol = symbol_ */\n  swap1\n  dup1\n  mload\n  swap1\n  0x20\n  add\n  swap1\n  tag_9\n  swap3\n  swap2\n  swap1\n  tag_8\n  jump\t// in\ntag_9:\n  pop\n    /* \"node_modules/@openzeppelin/contracts/token/ERC20/ERC20.sol\":1976:2089  constructor(string memory name_, string memory symbol_) {... */\n  pop\n  pop\n    /* \"node_modules/@openzeppelin/contracts/utils/cryptography/EIP712.sol\":2529:2547  bytes32 hashedName */\n  0x00\n    /* \"node_modules/@openzeppelin/contracts/utils/cryptography/EIP712.sol\":2566:2570  name */\n  dup3\n    /* \"node_modules/@openzeppelin/contracts/utils/cryptography/EIP712.sol\":2550:2572  keccak256(bytes(name)) */\n  dup1\n  mload\n  swap1\n  0x20\n  add\n  keccak256\n    /* \"node_modules/@openzeppelin/contracts/utils/cryptography/EIP712.sol\":2529:2572  bytes32 hashedName = keccak256(bytes(name)) */\n  swap1\n  pop\n    /* \"node_modules/@openzeppelin/contracts/utils/cryptography/EIP712.sol\":2582:2603  bytes32 hashedVersion */\n  0x00\n    /* \"node_modules/@openzeppelin/contracts/utils/cryptography/EIP712.sol\":2622:2629  version */\n  dup3\n    /* \"node_modules/@openzeppelin/contracts/utils/cryptography/EIP712.sol\":2606:2631  keccak256(bytes(version)) */\n  dup1\n  mload\n  swap1\n  0x20\n  add\n  keccak256\n    /* \"node_modules/@openzeppelin/contracts/utils/cryptography/EIP712.sol\":2582:2631  bytes32 hashedVersion = keccak256(bytes(version)) */\n  swap1\n  pop\n    /* \"node_modules/@openzeppelin/contracts/utils/cryptography/EIP712.sol\":2641:2657  bytes32 typeHash */\n  0x00\n    /* \"node_modules/@openzeppelin/contracts/utils/cryptography/EIP712.sol\":2660:2777  keccak256(... */\n  0x8b73c3c69bb8fe3d512ecc4cf759cc79239f7b179b0ffacaa9a75d522b39400f\n    /* \"node_modules/@openzeppelin/contracts/utils/cryptography/EIP712.sol\":2641:2777  bytes32 typeHash = keccak256(... */\n  swap1\n  pop\n    /* \"node_modules/@openzeppelin/contracts/utils/cryptography/EIP712.sol\":2802:2812  hashedName */\n  dup3\n    /* \"node_modules/@openzeppelin/contracts/utils/cryptography/EIP712.sol\":2787:2812  _HASHED_NAME = hashedName */\n  0xe0\n  dup2\n  dup2\n  mstore\n  pop\n  pop\n    /* \"node_modules/@openzeppelin/contracts/utils/cryptography/EIP712.sol\":2840:2853  hashedVersion */\n  dup2\n    /* \"node_modules/@openzeppelin/contracts/utils/cryptography/EIP712.sol\":2822:2853  _HASHED_VERSION = hashedVersion */\n  0x0100\n  dup2\n  dup2\n  mstore\n  pop\n  pop\n    /* \"node_modules/@openzeppelin/contracts/utils/cryptography/EIP712.sol\":2882:2895  block.chainid */\n  chainid\n    /* \"node_modules/@openzeppelin/contracts/utils/cryptography/EIP712.sol\":2863:2895  _CACHED_CHAIN_ID = block.chainid */\n  0xa0\n  dup2\n  dup2\n  mstore\n  pop\n  pop\n    /* \"node_modules/@openzeppelin/contracts/utils/cryptography/EIP712.sol\":2932:2990  _buildDomainSeparator(typeHash, hashedName, hashedVersion) */\n  tag_11\n    /* \"node_modules/@openzeppelin/contracts/utils/cryptography/EIP712.sol\":2954:2962  typeHash */\n  dup2\n    /* \"node_modules/@openzeppelin/contracts/utils/cryptography/EIP712.sol\":2964:2974  hashedName */\n  dup5\n    /* \"node_modules/@openzeppelin/contracts/utils/cryptography/EIP712.sol\":2976:2989  hashedVersion */\n  dup5\n    /* \"node_modules/@openzeppelin/contracts/utils/cryptography/EIP712.sol\":2932:2953  _buildDomainSeparator */\n  shl(0x20, tag_12)\n    /* \"node_modules/@openzeppelin/contracts/utils/cryptography/EIP712.sol\":2932:2990  _buildDomainSeparator(typeHash, hashedName, hashedVersion) */\n  0x20\n  shr\n  jump\t// in\ntag_11:\n    /* \"node_modules/@openzeppelin/contracts/utils/cryptography/EIP712.sol\":2905:2990  _CACHED_DOMAIN_SEPARATOR = _buildDomainSeparator(typeHash, hashedName, hashedVersion) */\n  0x80\n  dup2\n  dup2\n  mstore\n  pop\n  pop\n    /* \"node_modules/@openzeppelin/contracts/utils/cryptography/EIP712.sol\":3023:3027  this */\n  address\n    /* \"node_modules/@openzeppelin/contracts/utils/cryptography/EIP712.sol\":3000:3028  _CACHED_THIS = address(this) */\n  0xffffffffffffffffffffffffffffffffffffffff\n  and\n  0xc0\n  dup2\n  0xffffffffffffffffffffffffffffffffffffffff\n  and\n  0x60\n  shl\n  dup2\n  mstore\n  pop\n  pop\n    /* \"node_modules/@openzeppelin/contracts/utils/cryptography/EIP712.sol\":3051:3059  typeHash */\n  dup1\n    /* \"node_modules/@openzeppelin/contracts/utils/cryptography/EIP712.sol\":3038:3059  _TYPE_HASH = typeHash */\n  0x0120\n  dup2\n  dup2\n  mstore\n  pop\n  pop\n    /* \"node_modules/@openzeppelin/contracts/utils/cryptography/EIP712.sol\":2519:3066  {... */\n  pop\n  pop\n  pop\n    /* \"node_modules/@openzeppelin/contracts/utils/cryptography/EIP712.sol\":2464:3066  constructor(string memory name, string memory version) {... */\n  pop\n  pop\n    /* \"node_modules/@openzeppelin/contracts/token/ERC20/extensions/draft-ERC20Permit.sol\":1829:1881  constructor(string memory name) EIP712(name, \"1\") {} */\n  pop\n    /* \"contracts/token.sol\":225:425  contract token is ERC20, ERC20Permit {... */\n  jump(tag_15)\n    /* \"node_modules/@openzeppelin/contracts/utils/cryptography/EIP712.sol\":3466:3723  function _buildDomainSeparator(... */\ntag_12:\n    /* \"node_modules/@openzeppelin/contracts/utils/cryptography/EIP712.sol\":3606:3613  bytes32 */\n  0x00\n    /* \"node_modules/@openzeppelin/contracts/utils/cryptography/EIP712.sol\":3653:3661  typeHash */\n  dup4\n    /* \"node_modules/@openzeppelin/contracts/utils/cryptography/EIP712.sol\":3663:3671  nameHash */\n  dup4\n    /* \"node_modules/@openzeppelin/contracts/utils/cryptography/EIP712.sol\":3673:3684  versionHash */\n  dup4\n    /* \"node_modules/@openzeppelin/contracts/utils/cryptography/EIP712.sol\":3686:3699  block.chainid */\n  chainid\n    /* \"node_modules/@openzeppelin/contracts/utils/cryptography/EIP712.sol\":3709:3713  this */\n  address\n    /* \"node_modules/@openzeppelin/contracts/utils/cryptography/EIP712.sol\":3642:3715  abi.encode(typeHash, nameHash, versionHash, block.chainid, address(this)) */\n  add(0x20, mload(0x40))\n  tag_17\n  swap6\n  swap5\n  swap4\n  swap3\n  swap2\n  swap1\n  tag_18\n  jump\t// in\ntag_17:\n  mload(0x40)\n  0x20\n  dup2\n  dup4\n  sub\n  sub\n  dup2\n  mstore\n  swap1\n  0x40\n  mstore\n    /* \"node_modules/@openzeppelin/contracts/utils/cryptography/EIP712.sol\":3632:3716  keccak256(abi.encode(typeHash, nameHash, versionHash, block.chainid, address(this))) */\n  dup1\n  mload\n  swap1\n  0x20\n  add\n  keccak256\n    /* \"node_modules/@openzeppelin/contracts/utils/cryptography/EIP712.sol\":3625:3716  return keccak256(abi.encode(typeHash, nameHash, versionHash, block.chainid, address(this))) */\n  swap1\n  pop\n    /* \"node_modules/@openzeppelin/contracts/utils/cryptography/EIP712.sol\":3466:3723  function _buildDomainSeparator(... */\n  swap4\n  swap3\n  pop\n  pop\n  pop\n  jump\t// out\n    /* \"contracts/token.sol\":225:425  contract token is ERC20, ERC20Permit {... */\ntag_8:\n  dup3\n  dup1\n  sload\n  tag_19\n  swap1\n  tag_20\n  jump\t// in\ntag_19:\n  swap1\n  0x00\n  mstore\n  keccak256(0x00, 0x20)\n  swap1\n  0x1f\n  add\n  0x20\n  swap1\n  div\n  dup2\n  add\n  swap3\n  dup3\n  tag_22\n  jumpi\n  0x00\n  dup6\n  sstore\n  jump(tag_21)\ntag_22:\n  dup3\n  0x1f\n  lt\n  tag_23\n  jumpi\n  dup1\n  mload\n  not(0xff)\n  and\n  dup4\n  dup1\n  add\n  or\n  dup6\n  sstore\n  jump(tag_21)\ntag_23:\n  dup3\n  dup1\n  add\n  0x01\n  add\n  dup6\n  sstore\n  dup3\n  iszero\n  tag_21\n  jumpi\n  swap2\n  dup3\n  add\ntag_24:\n  dup3\n  dup2\n  gt\n  iszero\n  tag_25\n  jumpi\n  dup3\n  mload\n  dup3\n  sstore\n  swap2\n  0x20\n  add\n  swap2\n  swap1\n  0x01\n  add\n  swap1\n  jump(tag_24)\ntag_25:\ntag_21:\n  pop\n  swap1\n  pop\n  tag_26\n  swap2\n  swap1\n  tag_27\n  jump\t// in\ntag_26:\n  pop\n  swap1\n  jump\t// out\ntag_27:\ntag_28:\n  dup1\n  dup3\n  gt\n  iszero\n  tag_29\n  jumpi\n  0x00\n  dup2\n  0x00\n  swap1\n  sstore\n  pop\n  0x01\n  add\n  jump(tag_28)\ntag_29:\n  pop\n  swap1\n  jump\t// out\n    /* \"#utility.yul\":7:125   */\ntag_31:\n    /* \"#utility.yul\":94:118   */\n  tag_33\n    /* \"#utility.yul\":112:117   */\n  dup2\n    /* \"#utility.yul\":94:118   */\n  tag_34\n  jump\t// in\ntag_33:\n    /* \"#utility.yul\":89:92   */\n  dup3\n    /* \"#utility.yul\":82:119   */\n  mstore\n    /* \"#utility.yul\":7:125   */\n  pop\n  pop\n  jump\t// out\n    /* \"#utility.yul\":131:249   */\ntag_35:\n    /* \"#utility.yul\":218:242   */\n  tag_37\n    /* \"#utility.yul\":236:241   */\n  dup2\n    /* \"#utility.yul\":218:242   */\n  tag_38\n  jump\t// in\ntag_37:\n    /* \"#utility.yul\":213:216   */\n  dup3\n    /* \"#utility.yul\":206:243   */\n  mstore\n    /* \"#utility.yul\":131:249   */\n  pop\n  pop\n  jump\t// out\n    /* \"#utility.yul\":255:373   */\ntag_39:\n    /* \"#utility.yul\":342:366   */\n  tag_41\n    /* \"#utility.yul\":360:365   */\n  dup2\n    /* \"#utility.yul\":342:366   */\n  tag_42\n  jump\t// in\ntag_41:\n    /* \"#utility.yul\":337:340   */\n  dup3\n    /* \"#utility.yul\":330:367   */\n  mstore\n    /* \"#utility.yul\":255:373   */\n  pop\n  pop\n  jump\t// out\n    /* \"#utility.yul\":379:1043   */\ntag_18:\n    /* \"#utility.yul\":584:588   */\n  0x00\n    /* \"#utility.yul\":622:625   */\n  0xa0\n    /* \"#utility.yul\":611:620   */\n  dup3\n    /* \"#utility.yul\":607:626   */\n  add\n    /* \"#utility.yul\":599:626   */\n  swap1\n  pop\n    /* \"#utility.yul\":636:707   */\n  tag_44\n    /* \"#utility.yul\":704:705   */\n  0x00\n    /* \"#utility.yul\":693:702   */\n  dup4\n    /* \"#utility.yul\":689:706   */\n  add\n    /* \"#utility.yul\":680:686   */\n  dup9\n    /* \"#utility.yul\":636:707   */\n  tag_35\n  jump\t// in\ntag_44:\n    /* \"#utility.yul\":717:789   */\n  tag_45\n    /* \"#utility.yul\":785:787   */\n  0x20\n    /* \"#utility.yul\":774:783   */\n  dup4\n    /* \"#utility.yul\":770:788   */\n  add\n    /* \"#utility.yul\":761:767   */\n  dup8\n    /* \"#utility.yul\":717:789   */\n  tag_35\n  jump\t// in\ntag_45:\n    /* \"#utility.yul\":799:871   */\n  tag_46\n    /* \"#utility.yul\":867:869   */\n  0x40\n    /* \"#utility.yul\":856:865   */\n  dup4\n    /* \"#utility.yul\":852:870   */\n  add\n    /* \"#utility.yul\":843:849   */\n  dup7\n    /* \"#utility.yul\":799:871   */\n  tag_35\n  jump\t// in\ntag_46:\n    /* \"#utility.yul\":881:953   */\n  tag_47\n    /* \"#utility.yul\":949:951   */\n  0x60\n    /* \"#utility.yul\":938:947   */\n  dup4\n    /* \"#utility.yul\":934:952   */\n  add\n    /* \"#utility.yul\":925:931   */\n  dup6\n    /* \"#utility.yul\":881:953   */\n  tag_39\n  jump\t// in\ntag_47:\n    /* \"#utility.yul\":963:1036   */\n  tag_48\n    /* \"#utility.yul\":1031:1034   */\n  0x80\n    /* \"#utility.yul\":1020:1029   */\n  dup4\n    /* \"#utility.yul\":1016:1035   */\n  add\n    /* \"#utility.yul\":1007:1013   */\n  dup5\n    /* \"#utility.yul\":963:1036   */\n  tag_31\n  jump\t// in\ntag_48:\n    /* \"#utility.yul\":379:1043   */\n  swap7\n  swap6\n  pop\n  pop\n  pop\n  pop\n  pop\n  pop\n  jump\t// out\n    /* \"#utility.yul\":1049:1145   */\ntag_34:\n    /* \"#utility.yul\":1086:1093   */\n  0x00\n    /* \"#utility.yul\":1115:1139   */\n  tag_50\n    /* \"#utility.yul\":1133:1138   */\n  dup3\n    /* \"#utility.yul\":1115:1139   */\n  tag_51\n  jump\t// in\ntag_50:\n    /* \"#utility.yul\":1104:1139   */\n  swap1\n  pop\n    /* \"#utility.yul\":1049:1145   */\n  swap2\n  swap1\n  pop\n  jump\t// out\n    /* \"#utility.yul\":1151:1228   */\ntag_38:\n    /* \"#utility.yul\":1188:1195   */\n  0x00\n    /* \"#utility.yul\":1217:1222   */\n  dup2\n    /* \"#utility.yul\":1206:1222   */\n  swap1\n  pop\n    /* \"#utility.yul\":1151:1228   */\n  swap2\n  swap1\n  pop\n  jump\t// out\n    /* \"#utility.yul\":1234:1360   */\ntag_51:\n    /* \"#utility.yul\":1271:1278   */\n  0x00\n    /* \"#utility.yul\":1311:1353   */\n  0xffffffffffffffffffffffffffffffffffffffff\n    /* \"#utility.yul\":1304:1309   */\n  dup3\n    /* \"#utility.yul\":1300:1354   */\n  and\n    /* \"#utility.yul\":1289:1354   */\n  swap1\n  pop\n    /* \"#utility.yul\":1234:1360   */\n  swap2\n  swap1\n  pop\n  jump\t// out\n    /* \"#utility.yul\":1366:1443   */\ntag_42:\n    /* \"#utility.yul\":1403:1410   */\n  0x00\n    /* \"#utility.yul\":1432:1437   */\n  dup2\n    /* \"#utility.yul\":1421:1437   */\n  swap1\n  pop\n    /* \"#utility.yul\":1366:1443   */\n  swap2\n  swap1\n  pop\n  jump\t// out\n    /* \"#utility.yul\":1449:1769   */\ntag_20:\n    /* \"#utility.yul\":1493:1499   */\n  0x00\n    /* \"#utility.yul\":1530:1531   */\n  0x02\n    /* \"#utility.yul\":1524:1528   */\n  dup3\n    /* \"#utility.yul\":1520:1532   */\n  div\n    /* \"#utility.yul\":1510:1532   */\n  swap1\n  pop\n    /* \"#utility.yul\":1577:1578   */\n  0x01\n    /* \"#utility.yul\":1571:1575   */\n  dup3\n    /* \"#utility.yul\":1567:1579   */\n  and\n    /* \"#utility.yul\":1598:1616   */\n  dup1\n    /* \"#utility.yul\":1588:1669   */\n  tag_56\n  jumpi\n    /* \"#utility.yul\":1654:1658   */\n  0x7f\n    /* \"#utility.yul\":1646:1652   */\n  dup3\n    /* \"#utility.yul\":1642:1659   */\n  and\n    /* \"#utility.yul\":1632:1659   */\n  swap2\n  pop\n    /* \"#utility.yul\":1588:1669   */\ntag_56:\n    /* \"#utility.yul\":1716:1718   */\n  0x20\n    /* \"#utility.yul\":1708:1714   */\n  dup3\n    /* \"#utility.yul\":1705:1719   */\n  lt\n    /* \"#utility.yul\":1685:1703   */\n  dup2\n    /* \"#utility.yul\":1682:1720   */\n  eq\n    /* \"#utility.yul\":1679:1763   */\n  iszero\n  tag_57\n  jumpi\n    /* \"#utility.yul\":1735:1753   */\n  tag_58\n  tag_59\n  jump\t// in\ntag_58:\n    /* \"#utility.yul\":1679:1763   */\ntag_57:\n    /* \"#utility.yul\":1500:1769   */\n  pop\n    /* \"#utility.yul\":1449:1769   */\n  swap2\n  swap1\n  pop\n  jump\t// out\n    /* \"#utility.yul\":1775:1955   */\ntag_59:\n    /* \"#utility.yul\":1823:1900   */\n  0x4e487b7100000000000000000000000000000000000000000000000000000000\n    /* \"#utility.yul\":1820:1821   */\n  0x00\n    /* \"#utility.yul\":1813:1901   */\n  mstore\n    /* \"#utility.yul\":1920:1924   */\n  0x22\n    /* \"#utility.yul\":1917:1918   */\n  0x04\n    /* \"#utility.yul\":1910:1925   */\n  mstore\n    /* \"#utility.yul\":1944:1948   */\n  0x24\n    /* \"#utility.yul\":1941:1942   */\n  0x00\n    /* \"#utility.yul\":1934:1949   */\n  revert\n    /* \"contracts/token.sol\":225:425  contract token is ERC20, ERC20Permit {... */\ntag_15:\n  mload(0x80)\n  mload(0xa0)\n  shr(0x60, mload(0xc0))\n  mload(0xe0)\n  mload(0x0100)\n  mload(0x0120)\n  codecopy(0x00, dataOffset(sub_0), dataSize(sub_0))\n  0x00\n  assignImmutable(\"0xa82249f80b25318107382a241cac309fed38bc8e723af174135467e14983def6\")\n  0x00\n  assignImmutable(\"0x2ce3ecd06a484e73a7b0de018152bb80594498b1548f93390244d2c18dc22dee\")\n  0x00\n  assignImmutable(\"0x1996d75c3293c514adf4f927ded87239cd9c92782207ad62e388fa00b14ff8ab\")\n  0x00\n  assignImmutable(\"0x392c50ca5507384bea71aeaaad0c3da80670680e4a8116ffc86d5c553597399c\")\n  0x00\n  assignImmutable(\"0xee40864b8683e20b04d0b6126a8365f0f5cd718ad2e5a06d0e88dee87fb15ac7\")\n  0x00\n  assignImmutable(\"0xcc88f761b64ae4932e7d856f13d6c8fef1c6253b5fac9773db73d58615cd96f4\")\n  return(0x00, dataSize(sub_0))\nstop\n\nsub_0: assembly {\n        /* \"contracts/token.sol\":225:425  contract token is ERC20, ERC20Permit {... */\n      mstore(0x40, 0x80)\n      callvalue\n      dup1\n      iszero\n      tag_1\n      jumpi\n      0x00\n      dup1\n      revert\n    tag_1:\n      pop\n      jumpi(tag_2, lt(calldatasize, 0x04))\n      shr(0xe0, calldataload(0x00))\n      dup1\n      0x40c10f19\n      gt\n      tag_18\n      jumpi\n      dup1\n      0xa457c2d7\n      gt\n      tag_19\n      jumpi\n      dup1\n      0xa457c2d7\n      eq\n      tag_14\n      jumpi\n      dup1\n      0xa9059cbb\n      eq\n      tag_15\n      jumpi\n      dup1\n      0xd505accf\n      eq\n      tag_16\n      jumpi\n      dup1\n      0xdd62ed3e\n      eq\n      tag_17\n      jumpi\n      jump(tag_2)\n    tag_19:\n      dup1\n      0x40c10f19\n      eq\n      tag_10\n      jumpi\n      dup1\n      0x70a08231\n      eq\n      tag_11\n      jumpi\n      dup1\n      0x7ecebe00\n      eq\n      tag_12\n      jumpi\n      dup1\n      0x95d89b41\n      eq\n      tag_13\n      jumpi\n      jump(tag_2)\n    tag_18:\n      dup1\n      0x23b872dd\n      gt\n      tag_20\n      jumpi\n      dup1\n      0x23b872dd\n      eq\n      tag_6\n      jumpi\n      dup1\n      0x313ce567\n      eq\n      tag_7\n      jumpi\n      dup1\n      0x3644e515\n      eq\n      tag_8\n      jumpi\n      dup1\n      0x39509351\n      eq\n      tag_9\n      jumpi\n      jump(tag_2)\n    tag_20:\n      dup1\n      0x06fdde03\n      eq\n      tag_3\n      jumpi\n      dup1\n      0x095ea7b3\n      eq\n      tag_4\n      jumpi\n      dup1\n      0x18160ddd\n      eq\n      tag_5\n      jumpi\n    tag_2:\n      0x00\n      dup1\n      revert\n        /* \"node_modules/@openzeppelin/contracts/token/ERC20/ERC20.sol\":2154:2252  function name() public view virtual override returns (string memory) {... */\n    tag_3:\n      tag_21\n      tag_22\n      jump\t// in\n    tag_21:\n      mload(0x40)\n      tag_23\n      swap2\n      swap1\n      tag_24\n      jump\t// in\n    tag_23:\n      mload(0x40)\n      dup1\n      swap2\n      sub\n      swap1\n      return\n        /* \"node_modules/@openzeppelin/contracts/token/ERC20/ERC20.sol\":4431:4628  function approve(address spender, uint256 amount) public virtual override returns (bool) {... */\n    tag_4:\n      tag_25\n      0x04\n      dup1\n      calldatasize\n      sub\n      dup2\n      add\n      swap1\n      tag_26\n      swap2\n      swap1\n      tag_27\n      jump\t// in\n    tag_26:\n      tag_28\n      jump\t// in\n    tag_25:\n      mload(0x40)\n      tag_29\n      swap2\n      swap1\n      tag_30\n      jump\t// in\n    tag_29:\n      mload(0x40)\n      dup1\n      swap2\n      sub\n      swap1\n      return\n        /* \"node_modules/@openzeppelin/contracts/token/ERC20/ERC20.sol\":3242:3348  function totalSupply() public view virtual override returns (uint256) {... */\n    tag_5:\n      tag_31\n      tag_32\n      jump\t// in\n    tag_31:\n      mload(0x40)\n      tag_33\n      swap2\n      swap1\n      tag_34\n      jump\t// in\n    tag_33:\n      mload(0x40)\n      dup1\n      swap2\n      sub\n      swap1\n      return\n        /* \"node_modules/@openzeppelin/contracts/token/ERC20/ERC20.sol\":5190:5476  function transferFrom(... */\n    tag_6:\n      tag_35\n      0x04\n      dup1\n      calldatasize\n      sub\n      dup2\n      add\n      swap1\n      tag_36\n      swap2\n      swap1\n      tag_37\n      jump\t// in\n    tag_36:\n      tag_38\n      jump\t// in\n    tag_35:\n      mload(0x40)\n      tag_39\n      swap2\n      swap1\n      tag_30\n      jump\t// in\n    tag_39:\n      mload(0x40)\n      dup1\n      swap2\n      sub\n      swap1\n      return\n        /* \"node_modules/@openzeppelin/contracts/token/ERC20/ERC20.sol\":3091:3182  function decimals() public view virtual override returns (uint8) {... */\n    tag_7:\n      tag_40\n      tag_41\n      jump\t// in\n    tag_40:\n      mload(0x40)\n      tag_42\n      swap2\n      swap1\n      tag_43\n      jump\t// in\n    tag_42:\n      mload(0x40)\n      dup1\n      swap2\n      sub\n      swap1\n      return\n        /* \"node_modules/@openzeppelin/contracts/token/ERC20/extensions/draft-ERC20Permit.sol\":2879:2992  function DOMAIN_SEPARATOR() external view override returns (bytes32) {... */\n    tag_8:\n      tag_44\n      tag_45\n      jump\t// in\n    tag_44:\n      mload(0x40)\n      tag_46\n      swap2\n      swap1\n      tag_47\n      jump\t// in\n    tag_46:\n      mload(0x40)\n      dup1\n      swap2\n      sub\n      swap1\n      return\n        /* \"node_modules/@openzeppelin/contracts/token/ERC20/ERC20.sol\":5871:6105  function increaseAllowance(address spender, uint256 addedValue) public virtual returns (bool) {... */\n    tag_9:\n      tag_48\n      0x04\n      dup1\n      calldatasize\n      sub\n      dup2\n      add\n      swap1\n      tag_49\n      swap2\n      swap1\n      tag_27\n      jump\t// in\n    tag_49:\n      tag_50\n      jump\t// in\n    tag_48:\n      mload(0x40)\n      tag_51\n      swap2\n      swap1\n      tag_30\n      jump\t// in\n    tag_51:\n      mload(0x40)\n      dup1\n      swap2\n      sub\n      swap1\n      return\n        /* \"contracts/token.sol\":340:423  function mint(address to, uint256 value) external {... */\n    tag_10:\n      tag_52\n      0x04\n      dup1\n      calldatasize\n      sub\n      dup2\n      add\n      swap1\n      tag_53\n      swap2\n      swap1\n      tag_27\n      jump\t// in\n    tag_53:\n      tag_54\n      jump\t// in\n    tag_52:\n      stop\n        /* \"node_modules/@openzeppelin/contracts/token/ERC20/ERC20.sol\":3406:3531  function balanceOf(address account) public view virtual override returns (uint256) {... */\n    tag_11:\n      tag_55\n      0x04\n      dup1\n      calldatasize\n      sub\n      dup2\n      add\n      swap1\n      tag_56\n      swap2\n      swap1\n      tag_57\n      jump\t// in\n    tag_56:\n      tag_58\n      jump\t// in\n    tag_55:\n      mload(0x40)\n      tag_59\n      swap2\n      swap1\n      tag_34\n      jump\t// in\n    tag_59:\n      mload(0x40)\n      dup1\n      swap2\n      sub\n      swap1\n      return\n        /* \"node_modules/@openzeppelin/contracts/token/ERC20/extensions/draft-ERC20Permit.sol\":2629:2755  function nonces(address owner) public view virtual override returns (uint256) {... */\n    tag_12:\n      tag_60\n      0x04\n      dup1\n      calldatasize\n      sub\n      dup2\n      add\n      swap1\n      tag_61\n      swap2\n      swap1\n      tag_57\n      jump\t// in\n    tag_61:\n      tag_62\n      jump\t// in\n    tag_60:\n      mload(0x40)\n      tag_63\n      swap2\n      swap1\n      tag_34\n      jump\t// in\n    tag_63:\n      mload(0x40)\n      dup1\n      swap2\n      sub\n      swap1\n      return\n        /* \"node_modules/@openzeppelin/contracts/token/ERC20/ERC20.sol\":2365:2467  function symbol() public view virtual override returns (string memory) {... */\n    tag_13:\n      tag_64\n      tag_65\n      jump\t// in\n    tag_64:\n      mload(0x40)\n      tag_66\n      swap2\n      swap1\n      tag_24\n      jump\t// in\n    tag_66:\n      mload(0x40)\n      dup1\n      swap2\n      sub\n      swap1\n      return\n        /* \"node_modules/@openzeppelin/contracts/token/ERC20/ERC20.sol\":6592:7019  function decreaseAllowance(address spender, uint256 subtractedValue) public virtual returns (bool) {... */\n    tag_14:\n      tag_67\n      0x04\n      dup1\n      calldatasize\n      sub\n      dup2\n      add\n      swap1\n      tag_68\n      swap2\n      swap1\n      tag_27\n      jump\t// in\n    tag_68:\n      tag_69\n      jump\t// in\n    tag_67:\n      mload(0x40)\n      tag_70\n      swap2\n      swap1\n      tag_30\n      jump\t// in\n    tag_70:\n      mload(0x40)\n      dup1\n      swap2\n      sub\n      swap1\n      return\n        /* \"node_modules/@openzeppelin/contracts/token/ERC20/ERC20.sol\":3727:3916  function transfer(address to, uint256 amount) public virtual override returns (bool) {... */\n    tag_15:\n      tag_71\n      0x04\n      dup1\n      calldatasize\n      sub\n      dup2\n      add\n      swap1\n      tag_72\n      swap2\n      swap1\n      tag_27\n      jump\t// in\n    tag_72:\n      tag_73\n      jump\t// in\n    tag_71:\n      mload(0x40)\n      tag_74\n      swap2\n      swap1\n      tag_30\n      jump\t// in\n    tag_74:\n      mload(0x40)\n      dup1\n      swap2\n      sub\n      swap1\n      return\n        /* \"node_modules/@openzeppelin/contracts/token/ERC20/extensions/draft-ERC20Permit.sol\":1942:2568  function permit(... */\n    tag_16:\n      tag_75\n      0x04\n      dup1\n      calldatasize\n      sub\n      dup2\n      add\n      swap1\n      tag_76\n      swap2\n      swap1\n      tag_77\n      jump\t// in\n    tag_76:\n      tag_78\n      jump\t// in\n    tag_75:\n      stop\n        /* \"node_modules/@openzeppelin/contracts/token/ERC20/ERC20.sol\":3974:4123  function allowance(address owner, address spender) public view virtual override returns (uint256) {... */\n    tag_17:\n      tag_79\n      0x04\n      dup1\n      calldatasize\n      sub\n      dup2\n      add\n      swap1\n      tag_80\n      swap2\n      swap1\n      tag_81\n      jump\t// in\n    tag_80:\n      tag_82\n      jump\t// in\n    tag_79:\n      mload(0x40)\n      tag_83\n      swap2\n      swap1\n      tag_34\n      jump\t// in\n    tag_83:\n      mload(0x40)\n      dup1\n      swap2\n      sub\n      swap1\n      return\n        /* \"node_modules/@openzeppelin/contracts/token/ERC20/ERC20.sol\":2154:2252  function name() public view virtual override returns (string memory) {... */\n    tag_22:\n        /* \"node_modules/@openzeppelin/contracts/token/ERC20/ERC20.sol\":2208:2221  string memory */\n      0x60\n        /* \"node_modules/@openzeppelin/contracts/token/ERC20/ERC20.sol\":2240:2245  _name */\n      0x03\n        /* \"node_modules/@openzeppelin/contracts/token/ERC20/ERC20.sol\":2233:2245  return _name */\n      dup1\n      sload\n      tag_85\n      swap1\n      tag_86\n      jump\t// in\n    tag_85:\n      dup1\n      0x1f\n      add\n      0x20\n      dup1\n      swap2\n      div\n      mul\n      0x20\n      add\n      mload(0x40)\n      swap1\n      dup2\n      add\n      0x40\n      mstore\n      dup1\n      swap3\n      swap2\n      swap1\n      dup2\n      dup2\n      mstore\n      0x20\n      add\n      dup3\n      dup1\n      sload\n      tag_87\n      swap1\n      tag_86\n      jump\t// in\n    tag_87:\n      dup1\n      iszero\n      tag_88\n      jumpi\n      dup1\n      0x1f\n      lt\n      tag_89\n      jumpi\n      0x0100\n      dup1\n      dup4\n      sload\n      div\n      mul\n      dup4\n      mstore\n      swap2\n      0x20\n      add\n      swap2\n      jump(tag_88)\n    tag_89:\n      dup3\n      add\n      swap2\n      swap1\n      0x00\n      mstore\n      keccak256(0x00, 0x20)\n      swap1\n    tag_90:\n      dup2\n      sload\n      dup2\n      mstore\n      swap1\n      0x01\n      add\n      swap1\n      0x20\n      add\n      dup1\n      dup4\n      gt\n      tag_90\n      jumpi\n      dup3\n      swap1\n      sub\n      0x1f\n      and\n      dup3\n      add\n      swap2\n    tag_88:\n      pop\n      pop\n      pop\n      pop\n      pop\n      swap1\n      pop\n        /* \"node_modules/@openzeppelin/contracts/token/ERC20/ERC20.sol\":2154:2252  function name() public view virtual override returns (string memory) {... */\n      swap1\n      jump\t// out\n        /* \"node_modules/@openzeppelin/contracts/token/ERC20/ERC20.sol\":4431:4628  function approve(address spender, uint256 amount) public virtual override returns (bool) {... */\n    tag_28:\n        /* \"node_modules/@openzeppelin/contracts/token/ERC20/ERC20.sol\":4514:4518  bool */\n      0x00\n        /* \"node_modules/@openzeppelin/contracts/token/ERC20/ERC20.sol\":4530:4543  address owner */\n      dup1\n        /* \"node_modules/@openzeppelin/contracts/token/ERC20/ERC20.sol\":4546:4558  _msgSender() */\n      tag_92\n        /* \"node_modules/@openzeppelin/contracts/token/ERC20/ERC20.sol\":4546:4556  _msgSender */\n      tag_93\n        /* \"node_modules/@openzeppelin/contracts/token/ERC20/ERC20.sol\":4546:4558  _msgSender() */\n      jump\t// in\n    tag_92:\n        /* \"node_modules/@openzeppelin/contracts/token/ERC20/ERC20.sol\":4530:4558  address owner = _msgSender() */\n      swap1\n      pop\n        /* \"node_modules/@openzeppelin/contracts/token/ERC20/ERC20.sol\":4568:4600  _approve(owner, spender, amount) */\n      tag_94\n        /* \"node_modules/@openzeppelin/contracts/token/ERC20/ERC20.sol\":4577:4582  owner */\n      dup2\n        /* \"node_modules/@openzeppelin/contracts/token/ERC20/ERC20.sol\":4584:4591  spender */\n      dup6\n        /* \"node_modules/@openzeppelin/contracts/token/ERC20/ERC20.sol\":4593:4599  amount */\n      dup6\n        /* \"node_modules/@openzeppelin/contracts/token/ERC20/ERC20.sol\":4568:4576  _approve */\n      tag_95\n        /* \"node_modules/@openzeppelin/contracts/token/ERC20/ERC20.sol\":4568:4600  _approve(owner, spender, amount) */\n      jump\t// in\n    tag_94:\n        /* \"node_modules/@openzeppelin/contracts/token/ERC20/ERC20.sol\":4617:4621  true */\n      0x01\n        /* \"node_modules/@openzeppelin/contracts/token/ERC20/ERC20.sol\":4610:4621  return true */\n      swap2\n      pop\n      pop\n        /* \"node_modules/@openzeppelin/contracts/token/ERC20/ERC20.sol\":4431:4628  function approve(address spender, uint256 amount) public virtual override returns (bool) {... */\n      swap3\n      swap2\n      pop\n      pop\n      jump\t// out\n        /* \"node_modules/@openzeppelin/contracts/token/ERC20/ERC20.sol\":3242:3348  function totalSupply() public view virtual override returns (uint256) {... */\n    tag_32:\n        /* \"node_modules/@openzeppelin/contracts/token/ERC20/ERC20.sol\":3303:3310  uint256 */\n      0x00\n        /* \"node_modules/@openzeppelin/contracts/token/ERC20/ERC20.sol\":3329:3341  _totalSupply */\n      sload(0x02)\n        /* \"node_modules/@openzeppelin/contracts/token/ERC20/ERC20.sol\":3322:3341  return _totalSupply */\n      swap1\n      pop\n        /* \"node_modules/@openzeppelin/contracts/token/ERC20/ERC20.sol\":3242:3348  function totalSupply() public view virtual override returns (uint256) {... */\n      swap1\n      jump\t// out\n        /* \"node_modules/@openzeppelin/contracts/token/ERC20/ERC20.sol\":5190:5476  function transferFrom(... */\n    tag_38:\n        /* \"node_modules/@openzeppelin/contracts/token/ERC20/ERC20.sol\":5317:5321  bool */\n      0x00\n        /* \"node_modules/@openzeppelin/contracts/token/ERC20/ERC20.sol\":5333:5348  address spender */\n      dup1\n        /* \"node_modules/@openzeppelin/contracts/token/ERC20/ERC20.sol\":5351:5363  _msgSender() */\n      tag_98\n        /* \"node_modules/@openzeppelin/contracts/token/ERC20/ERC20.sol\":5351:5361  _msgSender */\n      tag_93\n        /* \"node_modules/@openzeppelin/contracts/token/ERC20/ERC20.sol\":5351:5363  _msgSender() */\n      jump\t// in\n    tag_98:\n        /* \"node_modules/@openzeppelin/contracts/token/ERC20/ERC20.sol\":5333:5363  address spender = _msgSender() */\n      swap1\n      pop\n        /* \"node_modules/@openzeppelin/contracts/token/ERC20/ERC20.sol\":5373:5411  _spendAllowance(from, spender, amount) */\n      tag_99\n        /* \"node_modules/@openzeppelin/contracts/token/ERC20/ERC20.sol\":5389:5393  from */\n      dup6\n        /* \"node_modules/@openzeppelin/contracts/token/ERC20/ERC20.sol\":5395:5402  spender */\n      dup3\n        /* \"node_modules/@openzeppelin/contracts/token/ERC20/ERC20.sol\":5404:5410  amount */\n      dup6\n        /* \"node_modules/@openzeppelin/contracts/token/ERC20/ERC20.sol\":5373:5388  _spendAllowance */\n      tag_100\n        /* \"node_modules/@openzeppelin/contracts/token/ERC20/ERC20.sol\":5373:5411  _spendAllowance(from, spender, amount) */\n      jump\t// in\n    tag_99:\n        /* \"node_modules/@openzeppelin/contracts/token/ERC20/ERC20.sol\":5421:5448  _transfer(from, to, amount) */\n      tag_101\n        /* \"node_modules/@openzeppelin/contracts/token/ERC20/ERC20.sol\":5431:5435  from */\n      dup6\n        /* \"node_modules/@openzeppelin/contracts/token/ERC20/ERC20.sol\":5437:5439  to */\n      dup6\n        /* \"node_modules/@openzeppelin/contracts/token/ERC20/ERC20.sol\":5441:5447  amount */\n      dup6\n        /* \"node_modules/@openzeppelin/contracts/token/ERC20/ERC20.sol\":5421:5430  _transfer */\n      tag_102\n        /* \"node_modules/@openzeppelin/contracts/token/ERC20/ERC20.sol\":5421:5448  _transfer(from, to, amount) */\n      jump\t// in\n    tag_101:\n        /* \"node_modules/@openzeppelin/contracts/token/ERC20/ERC20.sol\":5465:5469  true */\n      0x01\n        /* \"node_modules/@openzeppelin/contracts/token/ERC20/ERC20.sol\":5458:5469  return true */\n      swap2\n      pop\n      pop\n        /* \"node_modules/@openzeppelin/contracts/token/ERC20/ERC20.sol\":5190:5476  function transferFrom(... */\n      swap4\n      swap3\n      pop\n      pop\n      pop\n      jump\t// out\n        /* \"node_modules/@openzeppelin/contracts/token/ERC20/ERC20.sol\":3091:3182  function decimals() public view virtual override returns (uint8) {... */\n    tag_41:\n        /* \"node_modules/@openzeppelin/contracts/token/ERC20/ERC20.sol\":3149:3154  uint8 */\n      0x00\n        /* \"node_modules/@openzeppelin/contracts/token/ERC20/ERC20.sol\":3173:3175  18 */\n      0x12\n        /* \"node_modules/@openzeppelin/contracts/token/ERC20/ERC20.sol\":3166:3175  return 18 */\n      swap1\n      pop\n        /* \"node_modules/@openzeppelin/contracts/token/ERC20/ERC20.sol\":3091:3182  function decimals() public view virtual override returns (uint8) {... */\n      swap1\n      jump\t// out\n        /* \"node_modules/@openzeppelin/contracts/token/ERC20/extensions/draft-ERC20Permit.sol\":2879:2992  function DOMAIN_SEPARATOR() external view override returns (bytes32) {... */\n    tag_45:\n        /* \"node_modules/@openzeppelin/contracts/token/ERC20/extensions/draft-ERC20Permit.sol\":2939:2946  bytes32 */\n      0x00\n        /* \"node_modules/@openzeppelin/contracts/token/ERC20/extensions/draft-ERC20Permit.sol\":2965:2985  _domainSeparatorV4() */\n      tag_105\n        /* \"node_modules/@openzeppelin/contracts/token/ERC20/extensions/draft-ERC20Permit.sol\":2965:2983  _domainSeparatorV4 */\n      tag_106\n        /* \"node_modules/@openzeppelin/contracts/token/ERC20/extensions/draft-ERC20Permit.sol\":2965:2985  _domainSeparatorV4() */\n      jump\t// in\n    tag_105:\n        /* \"node_modules/@openzeppelin/contracts/token/ERC20/extensions/draft-ERC20Permit.sol\":2958:2985  return _domainSeparatorV4() */\n      swap1\n      pop\n        /* \"node_modules/@openzeppelin/contracts/token/ERC20/extensions/draft-ERC20Permit.sol\":2879:2992  function DOMAIN_SEPARATOR() external view override returns (bytes32) {... */\n      swap1\n      jump\t// out\n        /* \"node_modules/@openzeppelin/contracts/token/ERC20/ERC20.sol\":5871:6105  function increaseAllowance(address spender, uint256 addedValue) public virtual returns (bool) {... */\n    tag_50:\n        /* \"node_modules/@openzeppelin/contracts/token/ERC20/ERC20.sol\":5959:5963  bool */\n      0x00\n        /* \"node_modules/@openzeppelin/contracts/token/ERC20/ERC20.sol\":5975:5988  address owner */\n      dup1\n        /* \"node_modules/@openzeppelin/contracts/token/ERC20/ERC20.sol\":5991:6003  _msgSender() */\n      tag_108\n        /* \"node_modules/@openzeppelin/contracts/token/ERC20/ERC20.sol\":5991:6001  _msgSender */\n      tag_93\n        /* \"node_modules/@openzeppelin/contracts/token/ERC20/ERC20.sol\":5991:6003  _msgSender() */\n      jump\t// in\n    tag_108:\n        /* \"node_modules/@openzeppelin/contracts/token/ERC20/ERC20.sol\":5975:6003  address owner = _msgSender() */\n      swap1\n      pop\n        /* \"node_modules/@openzeppelin/contracts/token/ERC20/ERC20.sol\":6013:6077  _approve(owner, spender, allowance(owner, spender) + addedValue) */\n      tag_109\n        /* \"node_modules/@openzeppelin/contracts/token/ERC20/ERC20.sol\":6022:6027  owner */\n      dup2\n        /* \"node_modules/@openzeppelin/contracts/token/ERC20/ERC20.sol\":6029:6036  spender */\n      dup6\n        /* \"node_modules/@openzeppelin/contracts/token/ERC20/ERC20.sol\":6066:6076  addedValue */\n      dup6\n        /* \"node_modules/@openzeppelin/contracts/token/ERC20/ERC20.sol\":6038:6063  allowance(owner, spender) */\n      tag_110\n        /* \"node_modules/@openzeppelin/contracts/token/ERC20/ERC20.sol\":6048:6053  owner */\n      dup6\n        /* \"node_modules/@openzeppelin/contracts/token/ERC20/ERC20.sol\":6055:6062  spender */\n      dup10\n        /* \"node_modules/@openzeppelin/contracts/token/ERC20/ERC20.sol\":6038:6047  allowance */\n      tag_82\n        /* \"node_modules/@openzeppelin/contracts/token/ERC20/ERC20.sol\":6038:6063  allowance(owner, spender) */\n      jump\t// in\n    tag_110:\n        /* \"node_modules/@openzeppelin/contracts/token/ERC20/ERC20.sol\":6038:6076  allowance(owner, spender) + addedValue */\n      tag_111\n      swap2\n      swap1\n      tag_112\n      jump\t// in\n    tag_111:\n        /* \"node_modules/@openzeppelin/contracts/token/ERC20/ERC20.sol\":6013:6021  _approve */\n      tag_95\n        /* \"node_modules/@openzeppelin/contracts/token/ERC20/ERC20.sol\":6013:6077  _approve(owner, spender, allowance(owner, spender) + addedValue) */\n      jump\t// in\n    tag_109:\n        /* \"node_modules/@openzeppelin/contracts/token/ERC20/ERC20.sol\":6094:6098  true */\n      0x01\n        /* \"node_modules/@openzeppelin/contracts/token/ERC20/ERC20.sol\":6087:6098  return true */\n      swap2\n      pop\n      pop\n        /* \"node_modules/@openzeppelin/contracts/token/ERC20/ERC20.sol\":5871:6105  function increaseAllowance(address spender, uint256 addedValue) public virtual returns (bool) {... */\n      swap3\n      swap2\n      pop\n      pop\n      jump\t// out\n        /* \"contracts/token.sol\":340:423  function mint(address to, uint256 value) external {... */\n    tag_54:\n        /* \"contracts/token.sol\":400:416  _mint(to, value) */\n      tag_114\n        /* \"contracts/token.sol\":406:408  to */\n      dup3\n        /* \"contracts/token.sol\":410:415  value */\n      dup3\n        /* \"contracts/token.sol\":400:405  _mint */\n      tag_115\n        /* \"contracts/token.sol\":400:416  _mint(to, value) */\n      jump\t// in\n    tag_114:\n        /* \"contracts/token.sol\":340:423  function mint(address to, uint256 value) external {... */\n      pop\n      pop\n      jump\t// out\n        /* \"node_modules/@openzeppelin/contracts/token/ERC20/ERC20.sol\":3406:3531  function balanceOf(address account) public view virtual override returns (uint256) {... */\n    tag_58:\n        /* \"node_modules/@openzeppelin/contracts/token/ERC20/ERC20.sol\":3480:3487  uint256 */\n      0x00\n        /* \"node_modules/@openzeppelin/contracts/token/ERC20/ERC20.sol\":3506:3515  _balances */\n      dup1\n        /* \"node_modules/@openzeppelin/contracts/token/ERC20/ERC20.sol\":3506:3524  _balances[account] */\n      0x00\n        /* \"node_modules/@openzeppelin/contracts/token/ERC20/ERC20.sol\":3516:3523  account */\n      dup4\n        /* \"node_modules/@openzeppelin/contracts/token/ERC20/ERC20.sol\":3506:3524  _balances[account] */\n      0xffffffffffffffffffffffffffffffffffffffff\n      and\n      0xffffffffffffffffffffffffffffffffffffffff\n      and\n      dup2\n      mstore\n      0x20\n      add\n      swap1\n      dup2\n      mstore\n      0x20\n      add\n      0x00\n      keccak256\n      sload\n        /* \"node_modules/@openzeppelin/contracts/token/ERC20/ERC20.sol\":3499:3524  return _balances[account] */\n      swap1\n      pop\n        /* \"node_modules/@openzeppelin/contracts/token/ERC20/ERC20.sol\":3406:3531  function balanceOf(address account) public view virtual override returns (uint256) {... */\n      swap2\n      swap1\n      pop\n      jump\t// out\n        /* \"node_modules/@openzeppelin/contracts/token/ERC20/extensions/draft-ERC20Permit.sol\":2629:2755  function nonces(address owner) public view virtual override returns (uint256) {... */\n    tag_62:\n        /* \"node_modules/@openzeppelin/contracts/token/ERC20/extensions/draft-ERC20Permit.sol\":2698:2705  uint256 */\n      0x00\n        /* \"node_modules/@openzeppelin/contracts/token/ERC20/extensions/draft-ERC20Permit.sol\":2724:2748  _nonces[owner].current() */\n      tag_118\n        /* \"node_modules/@openzeppelin/contracts/token/ERC20/extensions/draft-ERC20Permit.sol\":2724:2731  _nonces */\n      0x05\n        /* \"node_modules/@openzeppelin/contracts/token/ERC20/extensions/draft-ERC20Permit.sol\":2724:2738  _nonces[owner] */\n      0x00\n        /* \"node_modules/@openzeppelin/contracts/token/ERC20/extensions/draft-ERC20Permit.sol\":2732:2737  owner */\n      dup5\n        /* \"node_modules/@openzeppelin/contracts/token/ERC20/extensions/draft-ERC20Permit.sol\":2724:2738  _nonces[owner] */\n      0xffffffffffffffffffffffffffffffffffffffff\n      and\n      0xffffffffffffffffffffffffffffffffffffffff\n      and\n      dup2\n      mstore\n      0x20\n      add\n      swap1\n      dup2\n      mstore\n      0x20\n      add\n      0x00\n      keccak256\n        /* \"node_modules/@openzeppelin/contracts/token/ERC20/extensions/draft-ERC20Permit.sol\":2724:2746  _nonces[owner].current */\n      tag_119\n        /* \"node_modules/@openzeppelin/contracts/token/ERC20/extensions/draft-ERC20Permit.sol\":2724:2748  _nonces[owner].current() */\n      jump\t// in\n    tag_118:\n        /* \"node_modules/@openzeppelin/contracts/token/ERC20/extensions/draft-ERC20Permit.sol\":2717:2748  return _nonces[owner].current() */\n      swap1\n      pop\n        /* \"node_modules/@openzeppelin/contracts/token/ERC20/extensions/draft-ERC20Permit.sol\":2629:2755  function nonces(address owner) public view virtual override returns (uint256) {... */\n      swap2\n      swap1\n      pop\n      jump\t// out\n        /* \"node_modules/@openzeppelin/contracts/token/ERC20/ERC20.sol\":2365:2467  function symbol() public view virtual override returns (string memory) {... */\n    tag_65:\n        /* \"node_modules/@openzeppelin/contracts/token/ERC20/ERC20.sol\":2421:2434  string memory */\n      0x60\n        /* \"node_modules/@openzeppelin/contracts/token/ERC20/ERC20.sol\":2453:2460  _symbol */\n      0x04\n        /* \"node_modules/@openzeppelin/contracts/token/ERC20/ERC20.sol\":2446:2460  return _symbol */\n      dup1\n      sload\n      tag_121\n      swap1\n      tag_86\n      jump\t// in\n    tag_121:\n      dup1\n      0x1f\n      add\n      0x20\n      dup1\n      swap2\n      div\n      mul\n      0x20\n      add\n      mload(0x40)\n      swap1\n      dup2\n      add\n      0x40\n      mstore\n      dup1\n      swap3\n      swap2\n      swap1\n      dup2\n      dup2\n      mstore\n      0x20\n      add\n      dup3\n      dup1\n      sload\n      tag_122\n      swap1\n      tag_86\n      jump\t// in\n    tag_122:\n      dup1\n      iszero\n      tag_123\n      jumpi\n      dup1\n      0x1f\n      lt\n      tag_124\n      jumpi\n      0x0100\n      dup1\n      dup4\n      sload\n      div\n      mul\n      dup4\n      mstore\n      swap2\n      0x20\n      add\n      swap2\n      jump(tag_123)\n    tag_124:\n      dup3\n      add\n      swap2\n      swap1\n      0x00\n      mstore\n      keccak256(0x00, 0x20)\n      swap1\n    tag_125:\n      dup2\n      sload\n      dup2\n      mstore\n      swap1\n      0x01\n      add\n      swap1\n      0x20\n      add\n      dup1\n      dup4\n      gt\n      tag_125\n      jumpi\n      dup3\n      swap1\n      sub\n      0x1f\n      and\n      dup3\n      add\n      swap2\n    tag_123:\n      pop\n      pop\n      pop\n      pop\n      pop\n      swap1\n      pop\n        /* \"node_modules/@openzeppelin/contracts/token/ERC20/ERC20.sol\":2365:2467  function symbol() public view virtual override returns (string memory) {... */\n      swap1\n      jump\t// out\n        /* \"node_modules/@openzeppelin/contracts/token/ERC20/ERC20.sol\":6592:7019  function decreaseAllowance(address spender, uint256 subtractedValue) public virtual returns (bool) {... */\n    tag_69:\n        /* \"node_modules/@openzeppelin/contracts/token/ERC20/ERC20.sol\":6685:6689  bool */\n      0x00\n        /* \"node_modules/@openzeppelin/contracts/token/ERC20/ERC20.sol\":6701:6714  address owner */\n      dup1\n        /* \"node_modules/@openzeppelin/contracts/token/ERC20/ERC20.sol\":6717:6729  _msgSender() */\n      tag_127\n        /* \"node_modules/@openzeppelin/contracts/token/ERC20/ERC20.sol\":6717:6727  _msgSender */\n      tag_93\n        /* \"node_modules/@openzeppelin/contracts/token/ERC20/ERC20.sol\":6717:6729  _msgSender() */\n      jump\t// in\n    tag_127:\n        /* \"node_modules/@openzeppelin/contracts/token/ERC20/ERC20.sol\":6701:6729  address owner = _msgSender() */\n      swap1\n      pop\n        /* \"node_modules/@openzeppelin/contracts/token/ERC20/ERC20.sol\":6739:6763  uint256 currentAllowance */\n      0x00\n        /* \"node_modules/@openzeppelin/contracts/token/ERC20/ERC20.sol\":6766:6791  allowance(owner, spender) */\n      tag_128\n        /* \"node_modules/@openzeppelin/contracts/token/ERC20/ERC20.sol\":6776:6781  owner */\n      dup3\n        /* \"node_modules/@openzeppelin/contracts/token/ERC20/ERC20.sol\":6783:6790  spender */\n      dup7\n        /* \"node_modules/@openzeppelin/contracts/token/ERC20/ERC20.sol\":6766:6775  allowance */\n      tag_82\n        /* \"node_modules/@openzeppelin/contracts/token/ERC20/ERC20.sol\":6766:6791  allowance(owner, spender) */\n      jump\t// in\n    tag_128:\n        /* \"node_modules/@openzeppelin/contracts/token/ERC20/ERC20.sol\":6739:6791  uint256 currentAllowance = allowance(owner, spender) */\n      swap1\n      pop\n        /* \"node_modules/@openzeppelin/contracts/token/ERC20/ERC20.sol\":6829:6844  subtractedValue */\n      dup4\n        /* \"node_modules/@openzeppelin/contracts/token/ERC20/ERC20.sol\":6809:6825  currentAllowance */\n      dup2\n        /* \"node_modules/@openzeppelin/contracts/token/ERC20/ERC20.sol\":6809:6844  currentAllowance >= subtractedValue */\n      lt\n      iszero\n        /* \"node_modules/@openzeppelin/contracts/token/ERC20/ERC20.sol\":6801:6886  require(currentAllowance >= subtractedValue, \"ERC20: decreased allowance below zero\") */\n      tag_129\n      jumpi\n      mload(0x40)\n      0x08c379a000000000000000000000000000000000000000000000000000000000\n      dup2\n      mstore\n      0x04\n      add\n      tag_130\n      swap1\n      tag_131\n      jump\t// in\n    tag_130:\n      mload(0x40)\n      dup1\n      swap2\n      sub\n      swap1\n      revert\n    tag_129:\n        /* \"node_modules/@openzeppelin/contracts/token/ERC20/ERC20.sol\":6920:6980  _approve(owner, spender, currentAllowance - subtractedValue) */\n      tag_132\n        /* \"node_modules/@openzeppelin/contracts/token/ERC20/ERC20.sol\":6929:6934  owner */\n      dup3\n        /* \"node_modules/@openzeppelin/contracts/token/ERC20/ERC20.sol\":6936:6943  spender */\n      dup7\n        /* \"node_modules/@openzeppelin/contracts/token/ERC20/ERC20.sol\":6964:6979  subtractedValue */\n      dup7\n        /* \"node_modules/@openzeppelin/contracts/token/ERC20/ERC20.sol\":6945:6961  currentAllowance */\n      dup5\n        /* \"node_modules/@openzeppelin/contracts/token/ERC20/ERC20.sol\":6945:6979  currentAllowance - subtractedValue */\n      sub\n        /* \"node_modules/@openzeppelin/contracts/token/ERC20/ERC20.sol\":6920:6928  _approve */\n      tag_95\n        /* \"node_modules/@openzeppelin/contracts/token/ERC20/ERC20.sol\":6920:6980  _approve(owner, spender, currentAllowance - subtractedValue) */\n      jump\t// in\n    tag_132:\n        /* \"node_modules/@openzeppelin/contracts/token/ERC20/ERC20.sol\":7008:7012  true */\n      0x01\n        /* \"node_modules/@openzeppelin/contracts/token/ERC20/ERC20.sol\":7001:7012  return true */\n      swap3\n      pop\n      pop\n      pop\n        /* \"node_modules/@openzeppelin/contracts/token/ERC20/ERC20.sol\":6592:7019  function decreaseAllowance(address spender, uint256 subtractedValue) public virtual returns (bool) {... */\n      swap3\n      swap2\n      pop\n      pop\n      jump\t// out\n        /* \"node_modules/@openzeppelin/contracts/token/ERC20/ERC20.sol\":3727:3916  function transfer(address to, uint256 amount) public virtual override returns (bool) {... */\n    tag_73:\n        /* \"node_modules/@openzeppelin/contracts/token/ERC20/ERC20.sol\":3806:3810  bool */\n      0x00\n        /* \"node_modules/@openzeppelin/contracts/token/ERC20/ERC20.sol\":3822:3835  address owner */\n      dup1\n        /* \"node_modules/@openzeppelin/contracts/token/ERC20/ERC20.sol\":3838:3850  _msgSender() */\n      tag_134\n        /* \"node_modules/@openzeppelin/contracts/token/ERC20/ERC20.sol\":3838:3848  _msgSender */\n      tag_93\n        /* \"node_modules/@openzeppelin/contracts/token/ERC20/ERC20.sol\":3838:3850  _msgSender() */\n      jump\t// in\n    tag_134:\n        /* \"node_modules/@openzeppelin/contracts/token/ERC20/ERC20.sol\":3822:3850  address owner = _msgSender() */\n      swap1\n      pop\n        /* \"node_modules/@openzeppelin/contracts/token/ERC20/ERC20.sol\":3860:3888  _transfer(owner, to, amount) */\n      tag_135\n        /* \"node_modules/@openzeppelin/contracts/token/ERC20/ERC20.sol\":3870:3875  owner */\n      dup2\n        /* \"node_modules/@openzeppelin/contracts/token/ERC20/ERC20.sol\":3877:3879  to */\n      dup6\n        /* \"node_modules/@openzeppelin/contracts/token/ERC20/ERC20.sol\":3881:3887  amount */\n      dup6\n        /* \"node_modules/@openzeppelin/contracts/token/ERC20/ERC20.sol\":3860:3869  _transfer */\n      tag_102\n        /* \"node_modules/@openzeppelin/contracts/token/ERC20/ERC20.sol\":3860:3888  _transfer(owner, to, amount) */\n      jump\t// in\n    tag_135:\n        /* \"node_modules/@openzeppelin/contracts/token/ERC20/ERC20.sol\":3905:3909  true */\n      0x01\n        /* \"node_modules/@openzeppelin/contracts/token/ERC20/ERC20.sol\":3898:3909  return true */\n      swap2\n      pop\n      pop\n        /* \"node_modules/@openzeppelin/contracts/token/ERC20/ERC20.sol\":3727:3916  function transfer(address to, uint256 amount) public virtual override returns (bool) {... */\n      swap3\n      swap2\n      pop\n      pop\n      jump\t// out\n        /* \"node_modules/@openzeppelin/contracts/token/ERC20/extensions/draft-ERC20Permit.sol\":1942:2568  function permit(... */\n    tag_78:\n        /* \"node_modules/@openzeppelin/contracts/token/ERC20/extensions/draft-ERC20Permit.sol\":2177:2185  deadline */\n      dup4\n        /* \"node_modules/@openzeppelin/contracts/token/ERC20/extensions/draft-ERC20Permit.sol\":2158:2173  block.timestamp */\n      timestamp\n        /* \"node_modules/@openzeppelin/contracts/token/ERC20/extensions/draft-ERC20Permit.sol\":2158:2185  block.timestamp <= deadline */\n      gt\n      iszero\n        /* \"node_modules/@openzeppelin/contracts/token/ERC20/extensions/draft-ERC20Permit.sol\":2150:2219  require(block.timestamp <= deadline, \"ERC20Permit: expired deadline\") */\n      tag_137\n      jumpi\n      mload(0x40)\n      0x08c379a000000000000000000000000000000000000000000000000000000000\n      dup2\n      mstore\n      0x04\n      add\n      tag_138\n      swap1\n      tag_139\n      jump\t// in\n    tag_138:\n      mload(0x40)\n      dup1\n      swap2\n      sub\n      swap1\n      revert\n    tag_137:\n        /* \"node_modules/@openzeppelin/contracts/token/ERC20/extensions/draft-ERC20Permit.sol\":2230:2248  bytes32 structHash */\n      0x00\n        /* \"node_modules/@openzeppelin/contracts/token/ERC20/extensions/draft-ERC20Permit.sol\":1137:1232  keccak256(\"Permit(address owner,address spender,uint256 value,uint256 nonce,uint256 deadline)\") */\n      0x6e71edae12b1b97f4d1f60370fef10105fa2faae0126114a169c64845d6126c9\n        /* \"node_modules/@openzeppelin/contracts/token/ERC20/extensions/draft-ERC20Permit.sol\":2290:2295  owner */\n      dup9\n        /* \"node_modules/@openzeppelin/contracts/token/ERC20/extensions/draft-ERC20Permit.sol\":2297:2304  spender */\n      dup9\n        /* \"node_modules/@openzeppelin/contracts/token/ERC20/extensions/draft-ERC20Permit.sol\":2306:2311  value */\n      dup9\n        /* \"node_modules/@openzeppelin/contracts/token/ERC20/extensions/draft-ERC20Permit.sol\":2313:2329  _useNonce(owner) */\n      tag_140\n        /* \"node_modules/@openzeppelin/contracts/token/ERC20/extensions/draft-ERC20Permit.sol\":2323:2328  owner */\n      dup13\n        /* \"node_modules/@openzeppelin/contracts/token/ERC20/extensions/draft-ERC20Permit.sol\":2313:2322  _useNonce */\n      tag_141\n        /* \"node_modules/@openzeppelin/contracts/token/ERC20/extensions/draft-ERC20Permit.sol\":2313:2329  _useNonce(owner) */\n      jump\t// in\n    tag_140:\n        /* \"node_modules/@openzeppelin/contracts/token/ERC20/extensions/draft-ERC20Permit.sol\":2331:2339  deadline */\n      dup10\n        /* \"node_modules/@openzeppelin/contracts/token/ERC20/extensions/draft-ERC20Permit.sol\":2261:2340  abi.encode(_PERMIT_TYPEHASH, owner, spender, value, _useNonce(owner), deadline) */\n      add(0x20, mload(0x40))\n      tag_142\n      swap7\n      swap6\n      swap5\n      swap4\n      swap3\n      swap2\n      swap1\n      tag_143\n      jump\t// in\n    tag_142:\n      mload(0x40)\n      0x20\n      dup2\n      dup4\n      sub\n      sub\n      dup2\n      mstore\n      swap1\n      0x40\n      mstore\n        /* \"node_modules/@openzeppelin/contracts/token/ERC20/extensions/draft-ERC20Permit.sol\":2251:2341  keccak256(abi.encode(_PERMIT_TYPEHASH, owner, spender, value, _useNonce(owner), deadline)) */\n      dup1\n      mload\n      swap1\n      0x20\n      add\n      keccak256\n        /* \"node_modules/@openzeppelin/contracts/token/ERC20/extensions/draft-ERC20Permit.sol\":2230:2341  bytes32 structHash = keccak256(abi.encode(_PERMIT_TYPEHASH, owner, spender, value, _useNonce(owner), deadline)) */\n      swap1\n      pop\n        /* \"node_modules/@openzeppelin/contracts/token/ERC20/extensions/draft-ERC20Permit.sol\":2352:2364  bytes32 hash */\n      0x00\n        /* \"node_modules/@openzeppelin/contracts/token/ERC20/extensions/draft-ERC20Permit.sol\":2367:2395  _hashTypedDataV4(structHash) */\n      tag_144\n        /* \"node_modules/@openzeppelin/contracts/token/ERC20/extensions/draft-ERC20Permit.sol\":2384:2394  structHash */\n      dup3\n        /* \"node_modules/@openzeppelin/contracts/token/ERC20/extensions/draft-ERC20Permit.sol\":2367:2383  _hashTypedDataV4 */\n      tag_145\n        /* \"node_modules/@openzeppelin/contracts/token/ERC20/extensions/draft-ERC20Permit.sol\":2367:2395  _hashTypedDataV4(structHash) */\n      jump\t// in\n    tag_144:\n        /* \"node_modules/@openzeppelin/contracts/token/ERC20/extensions/draft-ERC20Permit.sol\":2352:2395  bytes32 hash = _hashTypedDataV4(structHash) */\n      swap1\n      pop\n        /* \"node_modules/@openzeppelin/contracts/token/ERC20/extensions/draft-ERC20Permit.sol\":2406:2420  address signer */\n      0x00\n        /* \"node_modules/@openzeppelin/contracts/token/ERC20/extensions/draft-ERC20Permit.sol\":2423:2451  ECDSA.recover(hash, v, r, s) */\n      tag_146\n        /* \"node_modules/@openzeppelin/contracts/token/ERC20/extensions/draft-ERC20Permit.sol\":2437:2441  hash */\n      dup3\n        /* \"node_modules/@openzeppelin/contracts/token/ERC20/extensions/draft-ERC20Permit.sol\":2443:2444  v */\n      dup8\n        /* \"node_modules/@openzeppelin/contracts/token/ERC20/extensions/draft-ERC20Permit.sol\":2446:2447  r */\n      dup8\n        /* \"node_modules/@openzeppelin/contracts/token/ERC20/extensions/draft-ERC20Permit.sol\":2449:2450  s */\n      dup8\n        /* \"node_modules/@openzeppelin/contracts/token/ERC20/extensions/draft-ERC20Permit.sol\":2423:2436  ECDSA.recover */\n      tag_147\n        /* \"node_modules/@openzeppelin/contracts/token/ERC20/extensions/draft-ERC20Permit.sol\":2423:2451  ECDSA.recover(hash, v, r, s) */\n      jump\t// in\n    tag_146:\n        /* \"node_modules/@openzeppelin/contracts/token/ERC20/extensions/draft-ERC20Permit.sol\":2406:2451  address signer = ECDSA.recover(hash, v, r, s) */\n      swap1\n      pop\n        /* \"node_modules/@openzeppelin/contracts/token/ERC20/extensions/draft-ERC20Permit.sol\":2479:2484  owner */\n      dup10\n        /* \"node_modules/@openzeppelin/contracts/token/ERC20/extensions/draft-ERC20Permit.sol\":2469:2484  signer == owner */\n      0xffffffffffffffffffffffffffffffffffffffff\n      and\n        /* \"node_modules/@openzeppelin/contracts/token/ERC20/extensions/draft-ERC20Permit.sol\":2469:2475  signer */\n      dup2\n        /* \"node_modules/@openzeppelin/contracts/token/ERC20/extensions/draft-ERC20Permit.sol\":2469:2484  signer == owner */\n      0xffffffffffffffffffffffffffffffffffffffff\n      and\n      eq\n        /* \"node_modules/@openzeppelin/contracts/token/ERC20/extensions/draft-ERC20Permit.sol\":2461:2519  require(signer == owner, \"ERC20Permit: invalid signature\") */\n      tag_148\n      jumpi\n      mload(0x40)\n      0x08c379a000000000000000000000000000000000000000000000000000000000\n      dup2\n      mstore\n      0x04\n      add\n      tag_149\n      swap1\n      tag_150\n      jump\t// in\n    tag_149:\n      mload(0x40)\n      dup1\n      swap2\n      sub\n      swap1\n      revert\n    tag_148:\n        /* \"node_modules/@openzeppelin/contracts/token/ERC20/extensions/draft-ERC20Permit.sol\":2530:2561  _approve(owner, spender, value) */\n      tag_151\n        /* \"node_modules/@openzeppelin/contracts/token/ERC20/extensions/draft-ERC20Permit.sol\":2539:2544  owner */\n      dup11\n        /* \"node_modules/@openzeppelin/contracts/token/ERC20/extensions/draft-ERC20Permit.sol\":2546:2553  spender */\n      dup11\n        /* \"node_modules/@openzeppelin/contracts/token/ERC20/extensions/draft-ERC20Permit.sol\":2555:2560  value */\n      dup11\n        /* \"node_modules/@openzeppelin/contracts/token/ERC20/extensions/draft-ERC20Permit.sol\":2530:2538  _approve */\n      tag_95\n        /* \"node_modules/@openzeppelin/contracts/token/ERC20/extensions/draft-ERC20Permit.sol\":2530:2561  _approve(owner, spender, value) */\n      jump\t// in\n    tag_151:\n        /* \"node_modules/@openzeppelin/contracts/token/ERC20/extensions/draft-ERC20Permit.sol\":2140:2568  {... */\n      pop\n      pop\n      pop\n        /* \"node_modules/@openzeppelin/contracts/token/ERC20/extensions/draft-ERC20Permit.sol\":1942:2568  function permit(... */\n      pop\n      pop\n      pop\n      pop\n      pop\n      pop\n      pop\n      jump\t// out\n        /* \"node_modules/@openzeppelin/contracts/token/ERC20/ERC20.sol\":3974:4123  function allowance(address owner, address spender) public view virtual override returns (uint256) {... */\n    tag_82:\n        /* \"node_modules/@openzeppelin/contracts/token/ERC20/ERC20.sol\":4063:4070  uint256 */\n      0x00\n        /* \"node_modules/@openzeppelin/contracts/token/ERC20/ERC20.sol\":4089:4100  _allowances */\n      0x01\n        /* \"node_modules/@openzeppelin/contracts/token/ERC20/ERC20.sol\":4089:4107  _allowances[owner] */\n      0x00\n        /* \"node_modules/@openzeppelin/contracts/token/ERC20/ERC20.sol\":4101:4106  owner */\n      dup5\n        /* \"node_modules/@openzeppelin/contracts/token/ERC20/ERC20.sol\":4089:4107  _allowances[owner] */\n      0xffffffffffffffffffffffffffffffffffffffff\n      and\n      0xffffffffffffffffffffffffffffffffffffffff\n      and\n      dup2\n      mstore\n      0x20\n      add\n      swap1\n      dup2\n      mstore\n      0x20\n      add\n      0x00\n      keccak256\n        /* \"node_modules/@openzeppelin/contracts/token/ERC20/ERC20.sol\":4089:4116  _allowances[owner][spender] */\n      0x00\n        /* \"node_modules/@openzeppelin/contracts/token/ERC20/ERC20.sol\":4108:4115  spender */\n      dup4\n        /* \"node_modules/@openzeppelin/contracts/token/ERC20/ERC20.sol\":4089:4116  _allowances[owner][spender] */\n      0xffffffffffffffffffffffffffffffffffffffff\n      and\n      0xffffffffffffffffffffffffffffffffffffffff\n      and\n      dup2\n      mstore\n      0x20\n      add\n      swap1\n      dup2\n      mstore\n      0x20\n      add\n      0x00\n      keccak256\n      sload\n        /* \"node_modules/@openzeppelin/contracts/token/ERC20/ERC20.sol\":4082:4116  return _allowances[owner][spender] */\n      swap1\n      pop\n        /* \"node_modules/@openzeppelin/contracts/token/ERC20/ERC20.sol\":3974:4123  function allowance(address owner, address spender) public view virtual override returns (uint256) {... */\n      swap3\n      swap2\n      pop\n      pop\n      jump\t// out\n        /* \"node_modules/@openzeppelin/contracts/utils/Context.sol\":640:736  function _msgSender() internal view virtual returns (address) {... */\n    tag_93:\n        /* \"node_modules/@openzeppelin/contracts/utils/Context.sol\":693:700  address */\n      0x00\n        /* \"node_modules/@openzeppelin/contracts/utils/Context.sol\":719:729  msg.sender */\n      caller\n        /* \"node_modules/@openzeppelin/contracts/utils/Context.sol\":712:729  return msg.sender */\n      swap1\n      pop\n        /* \"node_modules/@openzeppelin/contracts/utils/Context.sol\":640:736  function _msgSender() internal view virtual returns (address) {... */\n      swap1\n      jump\t// out\n        /* \"node_modules/@openzeppelin/contracts/token/ERC20/ERC20.sol\":10504:10874  function _approve(... */\n    tag_95:\n        /* \"node_modules/@openzeppelin/contracts/token/ERC20/ERC20.sol\":10652:10653  0 */\n      0x00\n        /* \"node_modules/@openzeppelin/contracts/token/ERC20/ERC20.sol\":10635:10654  owner != address(0) */\n      0xffffffffffffffffffffffffffffffffffffffff\n      and\n        /* \"node_modules/@openzeppelin/contracts/token/ERC20/ERC20.sol\":10635:10640  owner */\n      dup4\n        /* \"node_modules/@openzeppelin/contracts/token/ERC20/ERC20.sol\":10635:10654  owner != address(0) */\n      0xffffffffffffffffffffffffffffffffffffffff\n      and\n      eq\n      iszero\n        /* \"node_modules/@openzeppelin/contracts/token/ERC20/ERC20.sol\":10627:10695  require(owner != address(0), \"ERC20: approve from the zero address\") */\n      tag_155\n      jumpi\n      mload(0x40)\n      0x08c379a000000000000000000000000000000000000000000000000000000000\n      dup2\n      mstore\n      0x04\n      add\n      tag_156\n      swap1\n      tag_157\n      jump\t// in\n    tag_156:\n      mload(0x40)\n      dup1\n      swap2\n      sub\n      swap1\n      revert\n    tag_155:\n        /* \"node_modules/@openzeppelin/contracts/token/ERC20/ERC20.sol\":10732:10733  0 */\n      0x00\n        /* \"node_modules/@openzeppelin/contracts/token/ERC20/ERC20.sol\":10713:10734  spender != address(0) */\n      0xffffffffffffffffffffffffffffffffffffffff\n      and\n        /* \"node_modules/@openzeppelin/contracts/token/ERC20/ERC20.sol\":10713:10720  spender */\n      dup3\n        /* \"node_modules/@openzeppelin/contracts/token/ERC20/ERC20.sol\":10713:10734  spender != address(0) */\n      0xffffffffffffffffffffffffffffffffffffffff\n      and\n      eq\n      iszero\n        /* \"node_modules/@openzeppelin/contracts/token/ERC20/ERC20.sol\":10705:10773  require(spender != address(0), \"ERC20: approve to the zero address\") */\n      tag_158\n      jumpi\n      mload(0x40)\n      0x08c379a000000000000000000000000000000000000000000000000000000000\n      dup2\n      mstore\n      0x04\n      add\n      tag_159\n      swap1\n      tag_160\n      jump\t// in\n    tag_159:\n      mload(0x40)\n      dup1\n      swap2\n      sub\n      swap1\n      revert\n    tag_158:\n        /* \"node_modules/@openzeppelin/contracts/token/ERC20/ERC20.sol\":10814:10820  amount */\n      dup1\n        /* \"node_modules/@openzeppelin/contracts/token/ERC20/ERC20.sol\":10784:10795  _allowances */\n      0x01\n        /* \"node_modules/@openzeppelin/contracts/token/ERC20/ERC20.sol\":10784:10802  _allowances[owner] */\n      0x00\n        /* \"node_modules/@openzeppelin/contracts/token/ERC20/ERC20.sol\":10796:10801  owner */\n      dup6\n        /* \"node_modules/@openzeppelin/contracts/token/ERC20/ERC20.sol\":10784:10802  _allowances[owner] */\n      0xffffffffffffffffffffffffffffffffffffffff\n      and\n      0xffffffffffffffffffffffffffffffffffffffff\n      and\n      dup2\n      mstore\n      0x20\n      add\n      swap1\n      dup2\n      mstore\n      0x20\n      add\n      0x00\n      keccak256\n        /* \"node_modules/@openzeppelin/contracts/token/ERC20/ERC20.sol\":10784:10811  _allowances[owner][spender] */\n      0x00\n        /* \"node_modules/@openzeppelin/contracts/token/ERC20/ERC20.sol\":10803:10810  spender */\n      dup5\n        /* \"node_modules/@openzeppelin/contracts/token/ERC20/ERC20.sol\":10784:10811  _allowances[owner][spender] */\n      0xffffffffffffffffffffffffffffffffffffffff\n      and\n      0xffffffffffffffffffffffffffffffffffffffff\n      and\n      dup2\n      mstore\n      0x20\n      add\n      swap1\n      dup2\n      mstore\n      0x20\n      add\n      0x00\n      keccak256\n        /* \"node_modules/@openzeppelin/contracts/token/ERC20/ERC20.sol\":10784:10820  _allowances[owner][spender] = amount */\n      dup2\n      swap1\n      sstore\n      pop\n        /* \"node_modules/@openzeppelin/contracts/token/ERC20/ERC20.sol\":10851:10858  spender */\n      dup2\n        /* \"node_modules/@openzeppelin/contracts/token/ERC20/ERC20.sol\":10835:10867  Approval(owner, spender, amount) */\n      0xffffffffffffffffffffffffffffffffffffffff\n      and\n        /* \"node_modules/@openzeppelin/contracts/token/ERC20/ERC20.sol\":10844:10849  owner */\n      dup4\n        /* \"node_modules/@openzeppelin/contracts/token/ERC20/ERC20.sol\":10835:10867  Approval(owner, spender, amount) */\n      0xffffffffffffffffffffffffffffffffffffffff\n      and\n      0x8c5be1e5ebec7d5bd14f71427d1e84f3dd0314c0f7b2291e5b200ac8c7c3b925\n        /* \"node_modules/@openzeppelin/contracts/token/ERC20/ERC20.sol\":10860:10866  amount */\n      dup4\n        /* \"node_modules/@openzeppelin/contracts/token/ERC20/ERC20.sol\":10835:10867  Approval(owner, spender, amount) */\n      mload(0x40)\n      tag_161\n      swap2\n      swap1\n      tag_34\n      jump\t// in\n    tag_161:\n      mload(0x40)\n      dup1\n      swap2\n      sub\n      swap1\n      log3\n        /* \"node_modules/@openzeppelin/contracts/token/ERC20/ERC20.sol\":10504:10874  function _approve(... */\n      pop\n      pop\n      pop\n      jump\t// out\n        /* \"node_modules/@openzeppelin/contracts/token/ERC20/ERC20.sol\":11155:11596  function _spendAllowance(... */\n    tag_100:\n        /* \"node_modules/@openzeppelin/contracts/token/ERC20/ERC20.sol\":11285:11309  uint256 currentAllowance */\n      0x00\n        /* \"node_modules/@openzeppelin/contracts/token/ERC20/ERC20.sol\":11312:11337  allowance(owner, spender) */\n      tag_163\n        /* \"node_modules/@openzeppelin/contracts/token/ERC20/ERC20.sol\":11322:11327  owner */\n      dup5\n        /* \"node_modules/@openzeppelin/contracts/token/ERC20/ERC20.sol\":11329:11336  spender */\n      dup5\n        /* \"node_modules/@openzeppelin/contracts/token/ERC20/ERC20.sol\":11312:11321  allowance */\n      tag_82\n        /* \"node_modules/@openzeppelin/contracts/token/ERC20/ERC20.sol\":11312:11337  allowance(owner, spender) */\n      jump\t// in\n    tag_163:\n        /* \"node_modules/@openzeppelin/contracts/token/ERC20/ERC20.sol\":11285:11337  uint256 currentAllowance = allowance(owner, spender) */\n      swap1\n      pop\n        /* \"node_modules/@openzeppelin/contracts/token/ERC20/ERC20.sol\":11371:11388  type(uint256).max */\n      0xffffffffffffffffffffffffffffffffffffffffffffffffffffffffffffffff\n        /* \"node_modules/@openzeppelin/contracts/token/ERC20/ERC20.sol\":11351:11367  currentAllowance */\n      dup2\n        /* \"node_modules/@openzeppelin/contracts/token/ERC20/ERC20.sol\":11351:11388  currentAllowance != type(uint256).max */\n      eq\n        /* \"node_modules/@openzeppelin/contracts/token/ERC20/ERC20.sol\":11347:11590  if (currentAllowance != type(uint256).max) {... */\n      tag_164\n      jumpi\n        /* \"node_modules/@openzeppelin/contracts/token/ERC20/ERC20.sol\":11432:11438  amount */\n      dup2\n        /* \"node_modules/@openzeppelin/contracts/token/ERC20/ERC20.sol\":11412:11428  currentAllowance */\n      dup2\n        /* \"node_modules/@openzeppelin/contracts/token/ERC20/ERC20.sol\":11412:11438  currentAllowance >= amount */\n      lt\n      iszero\n        /* \"node_modules/@openzeppelin/contracts/token/ERC20/ERC20.sol\":11404:11472  require(currentAllowance >= amount, \"ERC20: insufficient allowance\") */\n      tag_165\n      jumpi\n      mload(0x40)\n      0x08c379a000000000000000000000000000000000000000000000000000000000\n      dup2\n      mstore\n      0x04\n      add\n      tag_166\n      swap1\n      tag_167\n      jump\t// in\n    tag_166:\n      mload(0x40)\n      dup1\n      swap2\n      sub\n      swap1\n      revert\n    tag_165:\n        /* \"node_modules/@openzeppelin/contracts/token/ERC20/ERC20.sol\":11514:11565  _approve(owner, spender, currentAllowance - amount) */\n      tag_168\n        /* \"node_modules/@openzeppelin/contracts/token/ERC20/ERC20.sol\":11523:11528  owner */\n      dup5\n        /* \"node_modules/@openzeppelin/contracts/token/ERC20/ERC20.sol\":11530:11537  spender */\n      dup5\n        /* \"node_modules/@openzeppelin/contracts/token/ERC20/ERC20.sol\":11558:11564  amount */\n      dup5\n        /* \"node_modules/@openzeppelin/contracts/token/ERC20/ERC20.sol\":11539:11555  currentAllowance */\n      dup5\n        /* \"node_modules/@openzeppelin/contracts/token/ERC20/ERC20.sol\":11539:11564  currentAllowance - amount */\n      sub\n        /* \"node_modules/@openzeppelin/contracts/token/ERC20/ERC20.sol\":11514:11522  _approve */\n      tag_95\n        /* \"node_modules/@openzeppelin/contracts/token/ERC20/ERC20.sol\":11514:11565  _approve(owner, spender, currentAllowance - amount) */\n      jump\t// in\n    tag_168:\n        /* \"node_modules/@openzeppelin/contracts/token/ERC20/ERC20.sol\":11347:11590  if (currentAllowance != type(uint256).max) {... */\n    tag_164:\n        /* \"node_modules/@openzeppelin/contracts/token/ERC20/ERC20.sol\":11275:11596  {... */\n      pop\n        /* \"node_modules/@openzeppelin/contracts/token/ERC20/ERC20.sol\":11155:11596  function _spendAllowance(... */\n      pop\n      pop\n      pop\n      jump\t// out\n        /* \"node_modules/@openzeppelin/contracts/token/ERC20/ERC20.sol\":7473:8291  function _transfer(... */\n    tag_102:\n        /* \"node_modules/@openzeppelin/contracts/token/ERC20/ERC20.sol\":7615:7616  0 */\n      0x00\n        /* \"node_modules/@openzeppelin/contracts/token/ERC20/ERC20.sol\":7599:7617  from != address(0) */\n      0xffffffffffffffffffffffffffffffffffffffff\n      and\n        /* \"node_modules/@openzeppelin/contracts/token/ERC20/ERC20.sol\":7599:7603  from */\n      dup4\n        /* \"node_modules/@openzeppelin/contracts/token/ERC20/ERC20.sol\":7599:7617  from != address(0) */\n      0xffffffffffffffffffffffffffffffffffffffff\n      and\n      eq\n      iszero\n        /* \"node_modules/@openzeppelin/contracts/token/ERC20/ERC20.sol\":7591:7659  require(from != address(0), \"ERC20: transfer from the zero address\") */\n      tag_170\n      jumpi\n      mload(0x40)\n      0x08c379a000000000000000000000000000000000000000000000000000000000\n      dup2\n      mstore\n      0x04\n      add\n      tag_171\n      swap1\n      tag_172\n      jump\t// in\n    tag_171:\n      mload(0x40)\n      dup1\n      swap2\n      sub\n      swap1\n      revert\n    tag_170:\n        /* \"node_modules/@openzeppelin/contracts/token/ERC20/ERC20.sol\":7691:7692  0 */\n      0x00\n        /* \"node_modules/@openzeppelin/contracts/token/ERC20/ERC20.sol\":7677:7693  to != address(0) */\n      0xffffffffffffffffffffffffffffffffffffffff\n      and\n        /* \"node_modules/@openzeppelin/contracts/token/ERC20/ERC20.sol\":7677:7679  to */\n      dup3\n        /* \"node_modules/@openzeppelin/contracts/token/ERC20/ERC20.sol\":7677:7693  to != address(0) */\n      0xffffffffffffffffffffffffffffffffffffffff\n      and\n      eq\n      iszero\n        /* \"node_modules/@openzeppelin/contracts/token/ERC20/ERC20.sol\":7669:7733  require(to != address(0), \"ERC20: transfer to the zero address\") */\n      tag_173\n      jumpi\n      mload(0x40)\n      0x08c379a000000000000000000000000000000000000000000000000000000000\n      dup2\n      mstore\n      0x04\n      add\n      tag_174\n      swap1\n      tag_175\n      jump\t// in\n    tag_174:\n      mload(0x40)\n      dup1\n      swap2\n      sub\n      swap1\n      revert\n    tag_173:\n        /* \"node_modules/@openzeppelin/contracts/token/ERC20/ERC20.sol\":7744:7782  _beforeTokenTransfer(from, to, amount) */\n      tag_176\n        /* \"node_modules/@openzeppelin/contracts/token/ERC20/ERC20.sol\":7765:7769  from */\n      dup4\n        /* \"node_modules/@openzeppelin/contracts/token/ERC20/ERC20.sol\":7771:7773  to */\n      dup4\n        /* \"node_modules/@openzeppelin/contracts/token/ERC20/ERC20.sol\":7775:7781  amount */\n      dup4\n        /* \"node_modules/@openzeppelin/contracts/token/ERC20/ERC20.sol\":7744:7764  _beforeTokenTransfer */\n      tag_177\n        /* \"node_modules/@openzeppelin/contracts/token/ERC20/ERC20.sol\":7744:7782  _beforeTokenTransfer(from, to, amount) */\n      jump\t// in\n    tag_176:\n        /* \"node_modules/@openzeppelin/contracts/token/ERC20/ERC20.sol\":7793:7812  uint256 fromBalance */\n      0x00\n        /* \"node_modules/@openzeppelin/contracts/token/ERC20/ERC20.sol\":7815:7824  _balances */\n      dup1\n        /* \"node_modules/@openzeppelin/contracts/token/ERC20/ERC20.sol\":7815:7830  _balances[from] */\n      0x00\n        /* \"node_modules/@openzeppelin/contracts/token/ERC20/ERC20.sol\":7825:7829  from */\n      dup6\n        /* \"node_modules/@openzeppelin/contracts/token/ERC20/ERC20.sol\":7815:7830  _balances[from] */\n      0xffffffffffffffffffffffffffffffffffffffff\n      and\n      0xffffffffffffffffffffffffffffffffffffffff\n      and\n      dup2\n      mstore\n      0x20\n      add\n      swap1\n      dup2\n      mstore\n      0x20\n      add\n      0x00\n      keccak256\n      sload\n        /* \"node_modules/@openzeppelin/contracts/token/ERC20/ERC20.sol\":7793:7830  uint256 fromBalance = _balances[from] */\n      swap1\n      pop\n        /* \"node_modules/@openzeppelin/contracts/token/ERC20/ERC20.sol\":7863:7869  amount */\n      dup2\n        /* \"node_modules/@openzeppelin/contracts/token/ERC20/ERC20.sol\":7848:7859  fromBalance */\n      dup2\n        /* \"node_modules/@openzeppelin/contracts/token/ERC20/ERC20.sol\":7848:7869  fromBalance >= amount */\n      lt\n      iszero\n        /* \"node_modules/@openzeppelin/contracts/token/ERC20/ERC20.sol\":7840:7912  require(fromBalance >= amount, \"ERC20: transfer amount exceeds balance\") */\n      tag_178\n      jumpi\n      mload(0x40)\n      0x08c379a000000000000000000000000000000000000000000000000000000000\n      dup2\n      mstore\n      0x04\n      add\n      tag_179\n      swap1\n      tag_180\n      jump\t// in\n    tag_179:\n      mload(0x40)\n      dup1\n      swap2\n      sub\n      swap1\n      revert\n    tag_178:\n        /* \"node_modules/@openzeppelin/contracts/token/ERC20/ERC20.sol\":7978:7984  amount */\n      dup2\n        /* \"node_modules/@openzeppelin/contracts/token/ERC20/ERC20.sol\":7964:7975  fromBalance */\n      dup2\n        /* \"node_modules/@openzeppelin/contracts/token/ERC20/ERC20.sol\":7964:7984  fromBalance - amount */\n      sub\n        /* \"node_modules/@openzeppelin/contracts/token/ERC20/ERC20.sol\":7946:7955  _balances */\n      0x00\n        /* \"node_modules/@openzeppelin/contracts/token/ERC20/ERC20.sol\":7946:7961  _balances[from] */\n      dup1\n        /* \"node_modules/@openzeppelin/contracts/token/ERC20/ERC20.sol\":7956:7960  from */\n      dup7\n        /* \"node_modules/@openzeppelin/contracts/token/ERC20/ERC20.sol\":7946:7961  _balances[from] */\n      0xffffffffffffffffffffffffffffffffffffffff\n      and\n      0xffffffffffffffffffffffffffffffffffffffff\n      and\n      dup2\n      mstore\n      0x20\n      add\n      swap1\n      dup2\n      mstore\n      0x20\n      add\n      0x00\n      keccak256\n        /* \"node_modules/@openzeppelin/contracts/token/ERC20/ERC20.sol\":7946:7984  _balances[from] = fromBalance - amount */\n      dup2\n      swap1\n      sstore\n      pop\n        /* \"node_modules/@openzeppelin/contracts/token/ERC20/ERC20.sol\":8178:8184  amount */\n      dup2\n        /* \"node_modules/@openzeppelin/contracts/token/ERC20/ERC20.sol\":8161:8170  _balances */\n      0x00\n        /* \"node_modules/@openzeppelin/contracts/token/ERC20/ERC20.sol\":8161:8174  _balances[to] */\n      dup1\n        /* \"node_modules/@openzeppelin/contracts/token/ERC20/ERC20.sol\":8171:8173  to */\n      dup6\n        /* \"node_modules/@openzeppelin/contracts/token/ERC20/ERC20.sol\":8161:8174  _balances[to] */\n      0xffffffffffffffffffffffffffffffffffffffff\n      and\n      0xffffffffffffffffffffffffffffffffffffffff\n      and\n      dup2\n      mstore\n      0x20\n      add\n      swap1\n      dup2\n      mstore\n      0x20\n      add\n      0x00\n      keccak256\n      0x00\n        /* \"node_modules/@openzeppelin/contracts/token/ERC20/ERC20.sol\":8161:8184  _balances[to] += amount */\n      dup3\n      dup3\n      sload\n      add\n      swap3\n      pop\n      pop\n      dup2\n      swap1\n      sstore\n      pop\n        /* \"node_modules/@openzeppelin/contracts/token/ERC20/ERC20.sol\":8225:8227  to */\n      dup3\n        /* \"node_modules/@openzeppelin/contracts/token/ERC20/ERC20.sol\":8210:8236  Transfer(from, to, amount) */\n      0xffffffffffffffffffffffffffffffffffffffff\n      and\n        /* \"node_modules/@openzeppelin/contracts/token/ERC20/ERC20.sol\":8219:8223  from */\n      dup5\n        /* \"node_modules/@openzeppelin/contracts/token/ERC20/ERC20.sol\":8210:8236  Transfer(from, to, amount) */\n      0xffffffffffffffffffffffffffffffffffffffff\n      and\n      0xddf252ad1be2c89b69c2b068fc378daa952ba7f163c4a11628f55a4df523b3ef\n        /* \"node_modules/@openzeppelin/contracts/token/ERC20/ERC20.sol\":8229:8235  amount */\n      dup5\n        /* \"node_modules/@openzeppelin/contracts/token/ERC20/ERC20.sol\":8210:8236  Transfer(from, to, amount) */\n      mload(0x40)\n      tag_181\n      swap2\n      swap1\n      tag_34\n      jump\t// in\n    tag_181:\n      mload(0x40)\n      dup1\n      swap2\n      sub\n      swap1\n      log3\n        /* \"node_modules/@openzeppelin/contracts/token/ERC20/ERC20.sol\":8247:8284  _afterTokenTransfer(from, to, amount) */\n      tag_182\n        /* \"node_modules/@openzeppelin/contracts/token/ERC20/ERC20.sol\":8267:8271  from */\n      dup5\n        /* \"node_modules/@openzeppelin/contracts/token/ERC20/ERC20.sol\":8273:8275  to */\n      dup5\n        /* \"node_modules/@openzeppelin/contracts/token/ERC20/ERC20.sol\":8277:8283  amount */\n      dup5\n        /* \"node_modules/@openzeppelin/contracts/token/ERC20/ERC20.sol\":8247:8266  _afterTokenTransfer */\n      tag_183\n        /* \"node_modules/@openzeppelin/contracts/token/ERC20/ERC20.sol\":8247:8284  _afterTokenTransfer(from, to, amount) */\n      jump\t// in\n    tag_182:\n        /* \"node_modules/@openzeppelin/contracts/token/ERC20/ERC20.sol\":7581:8291  {... */\n      pop\n        /* \"node_modules/@openzeppelin/contracts/token/ERC20/ERC20.sol\":7473:8291  function _transfer(... */\n      pop\n      pop\n      pop\n      jump\t// out\n        /* \"node_modules/@openzeppelin/contracts/utils/cryptography/EIP712.sol\":3152:3460  function _domainSeparatorV4() internal view returns (bytes32) {... */\n    tag_106:\n        /* \"node_modules/@openzeppelin/contracts/utils/cryptography/EIP712.sol\":3205:3212  bytes32 */\n      0x00\n        /* \"node_modules/@openzeppelin/contracts/utils/cryptography/EIP712.sol\":3245:3257  _CACHED_THIS */\n      immutable(\"0x392c50ca5507384bea71aeaaad0c3da80670680e4a8116ffc86d5c553597399c\")\n        /* \"node_modules/@openzeppelin/contracts/utils/cryptography/EIP712.sol\":3228:3257  address(this) == _CACHED_THIS */\n      0xffffffffffffffffffffffffffffffffffffffff\n      and\n        /* \"node_modules/@openzeppelin/contracts/utils/cryptography/EIP712.sol\":3236:3240  this */\n      address\n        /* \"node_modules/@openzeppelin/contracts/utils/cryptography/EIP712.sol\":3228:3257  address(this) == _CACHED_THIS */\n      0xffffffffffffffffffffffffffffffffffffffff\n      and\n      eq\n        /* \"node_modules/@openzeppelin/contracts/utils/cryptography/EIP712.sol\":3228:3294  address(this) == _CACHED_THIS && block.chainid == _CACHED_CHAIN_ID */\n      dup1\n      iszero\n      tag_185\n      jumpi\n      pop\n        /* \"node_modules/@openzeppelin/contracts/utils/cryptography/EIP712.sol\":3278:3294  _CACHED_CHAIN_ID */\n      immutable(\"0xee40864b8683e20b04d0b6126a8365f0f5cd718ad2e5a06d0e88dee87fb15ac7\")\n        /* \"node_modules/@openzeppelin/contracts/utils/cryptography/EIP712.sol\":3261:3274  block.chainid */\n      chainid\n        /* \"node_modules/@openzeppelin/contracts/utils/cryptography/EIP712.sol\":3261:3294  block.chainid == _CACHED_CHAIN_ID */\n      eq\n        /* \"node_modules/@openzeppelin/contracts/utils/cryptography/EIP712.sol\":3228:3294  address(this) == _CACHED_THIS && block.chainid == _CACHED_CHAIN_ID */\n    tag_185:\n        /* \"node_modules/@openzeppelin/contracts/utils/cryptography/EIP712.sol\":3224:3454  if (address(this) == _CACHED_THIS && block.chainid == _CACHED_CHAIN_ID) {... */\n      iszero\n      tag_186\n      jumpi\n        /* \"node_modules/@openzeppelin/contracts/utils/cryptography/EIP712.sol\":3317:3341  _CACHED_DOMAIN_SEPARATOR */\n      immutable(\"0xcc88f761b64ae4932e7d856f13d6c8fef1c6253b5fac9773db73d58615cd96f4\")\n        /* \"node_modules/@openzeppelin/contracts/utils/cryptography/EIP712.sol\":3310:3341  return _CACHED_DOMAIN_SEPARATOR */\n      swap1\n      pop\n      jump(tag_184)\n        /* \"node_modules/@openzeppelin/contracts/utils/cryptography/EIP712.sol\":3224:3454  if (address(this) == _CACHED_THIS && block.chainid == _CACHED_CHAIN_ID) {... */\n    tag_186:\n        /* \"node_modules/@openzeppelin/contracts/utils/cryptography/EIP712.sol\":3379:3443  _buildDomainSeparator(_TYPE_HASH, _HASHED_NAME, _HASHED_VERSION) */\n      tag_188\n        /* \"node_modules/@openzeppelin/contracts/utils/cryptography/EIP712.sol\":3401:3411  _TYPE_HASH */\n      immutable(\"0xa82249f80b25318107382a241cac309fed38bc8e723af174135467e14983def6\")\n        /* \"node_modules/@openzeppelin/contracts/utils/cryptography/EIP712.sol\":3413:3425  _HASHED_NAME */\n      immutable(\"0x1996d75c3293c514adf4f927ded87239cd9c92782207ad62e388fa00b14ff8ab\")\n        /* \"node_modules/@openzeppelin/contracts/utils/cryptography/EIP712.sol\":3427:3442  _HASHED_VERSION */\n      immutable(\"0x2ce3ecd06a484e73a7b0de018152bb80594498b1548f93390244d2c18dc22dee\")\n        /* \"node_modules/@openzeppelin/contracts/utils/cryptography/EIP712.sol\":3379:3400  _buildDomainSeparator */\n      tag_189\n        /* \"node_modules/@openzeppelin/contracts/utils/cryptography/EIP712.sol\":3379:3443  _buildDomainSeparator(_TYPE_HASH, _HASHED_NAME, _HASHED_VERSION) */\n      jump\t// in\n    tag_188:\n        /* \"node_modules/@openzeppelin/contracts/utils/cryptography/EIP712.sol\":3372:3443  return _buildDomainSeparator(_TYPE_HASH, _HASHED_NAME, _HASHED_VERSION) */\n      swap1\n      pop\n        /* \"node_modules/@openzeppelin/contracts/utils/cryptography/EIP712.sol\":3152:3460  function _domainSeparatorV4() internal view returns (bytes32) {... */\n    tag_184:\n      swap1\n      jump\t// out\n        /* \"node_modules/@openzeppelin/contracts/token/ERC20/ERC20.sol\":8567:9102  function _mint(address account, uint256 amount) internal virtual {... */\n    tag_115:\n        /* \"node_modules/@openzeppelin/contracts/token/ERC20/ERC20.sol\":8669:8670  0 */\n      0x00\n        /* \"node_modules/@openzeppelin/contracts/token/ERC20/ERC20.sol\":8650:8671  account != address(0) */\n      0xffffffffffffffffffffffffffffffffffffffff\n      and\n        /* \"node_modules/@openzeppelin/contracts/token/ERC20/ERC20.sol\":8650:8657  account */\n      dup3\n        /* \"node_modules/@openzeppelin/contracts/token/ERC20/ERC20.sol\":8650:8671  account != address(0) */\n      0xffffffffffffffffffffffffffffffffffffffff\n      and\n      eq\n      iszero\n        /* \"node_modules/@openzeppelin/contracts/token/ERC20/ERC20.sol\":8642:8707  require(account != address(0), \"ERC20: mint to the zero address\") */\n      tag_191\n      jumpi\n      mload(0x40)\n      0x08c379a000000000000000000000000000000000000000000000000000000000\n      dup2\n      mstore\n      0x04\n      add\n      tag_192\n      swap1\n      tag_193\n      jump\t// in\n    tag_192:\n      mload(0x40)\n      dup1\n      swap2\n      sub\n      swap1\n      revert\n    tag_191:\n        /* \"node_modules/@openzeppelin/contracts/token/ERC20/ERC20.sol\":8718:8767  _beforeTokenTransfer(address(0), account, amount) */\n      tag_194\n        /* \"node_modules/@openzeppelin/contracts/token/ERC20/ERC20.sol\":8747:8748  0 */\n      0x00\n        /* \"node_modules/@openzeppelin/contracts/token/ERC20/ERC20.sol\":8751:8758  account */\n      dup4\n        /* \"node_modules/@openzeppelin/contracts/token/ERC20/ERC20.sol\":8760:8766  amount */\n      dup4\n        /* \"node_modules/@openzeppelin/contracts/token/ERC20/ERC20.sol\":8718:8738  _beforeTokenTransfer */\n      tag_177\n        /* \"node_modules/@openzeppelin/contracts/token/ERC20/ERC20.sol\":8718:8767  _beforeTokenTransfer(address(0), account, amount) */\n      jump\t// in\n    tag_194:\n        /* \"node_modules/@openzeppelin/contracts/token/ERC20/ERC20.sol\":8794:8800  amount */\n      dup1\n        /* \"node_modules/@openzeppelin/contracts/token/ERC20/ERC20.sol\":8778:8790  _totalSupply */\n      0x02\n      0x00\n        /* \"node_modules/@openzeppelin/contracts/token/ERC20/ERC20.sol\":8778:8800  _totalSupply += amount */\n      dup3\n      dup3\n      sload\n      tag_195\n      swap2\n      swap1\n      tag_112\n      jump\t// in\n    tag_195:\n      swap3\n      pop\n      pop\n      dup2\n      swap1\n      sstore\n      pop\n        /* \"node_modules/@openzeppelin/contracts/token/ERC20/ERC20.sol\":8968:8974  amount */\n      dup1\n        /* \"node_modules/@openzeppelin/contracts/token/ERC20/ERC20.sol\":8946:8955  _balances */\n      0x00\n        /* \"node_modules/@openzeppelin/contracts/token/ERC20/ERC20.sol\":8946:8964  _balances[account] */\n      dup1\n        /* \"node_modules/@openzeppelin/contracts/token/ERC20/ERC20.sol\":8956:8963  account */\n      dup5\n        /* \"node_modules/@openzeppelin/contracts/token/ERC20/ERC20.sol\":8946:8964  _balances[account] */\n      0xffffffffffffffffffffffffffffffffffffffff\n      and\n      0xffffffffffffffffffffffffffffffffffffffff\n      and\n      dup2\n      mstore\n      0x20\n      add\n      swap1\n      dup2\n      mstore\n      0x20\n      add\n      0x00\n      keccak256\n      0x00\n        /* \"node_modules/@openzeppelin/contracts/token/ERC20/ERC20.sol\":8946:8974  _balances[account] += amount */\n      dup3\n      dup3\n      sload\n      add\n      swap3\n      pop\n      pop\n      dup2\n      swap1\n      sstore\n      pop\n        /* \"node_modules/@openzeppelin/contracts/token/ERC20/ERC20.sol\":9020:9027  account */\n      dup2\n        /* \"node_modules/@openzeppelin/contracts/token/ERC20/ERC20.sol\":8999:9036  Transfer(address(0), account, amount) */\n      0xffffffffffffffffffffffffffffffffffffffff\n      and\n        /* \"node_modules/@openzeppelin/contracts/token/ERC20/ERC20.sol\":9016:9017  0 */\n      0x00\n        /* \"node_modules/@openzeppelin/contracts/token/ERC20/ERC20.sol\":8999:9036  Transfer(address(0), account, amount) */\n      0xffffffffffffffffffffffffffffffffffffffff\n      and\n      0xddf252ad1be2c89b69c2b068fc378daa952ba7f163c4a11628f55a4df523b3ef\n        /* \"node_modules/@openzeppelin/contracts/token/ERC20/ERC20.sol\":9029:9035  amount */\n      dup4\n        /* \"node_modules/@openzeppelin/contracts/token/ERC20/ERC20.sol\":8999:9036  Transfer(address(0), account, amount) */\n      mload(0x40)\n      tag_196\n      swap2\n      swap1\n      tag_34\n      jump\t// in\n    tag_196:\n      mload(0x40)\n      dup1\n      swap2\n      sub\n      swap1\n      log3\n        /* \"node_modules/@openzeppelin/contracts/token/ERC20/ERC20.sol\":9047:9095  _afterTokenTransfer(address(0), account, amount) */\n      tag_197\n        /* \"node_modules/@openzeppelin/contracts/token/ERC20/ERC20.sol\":9075:9076  0 */\n      0x00\n        /* \"node_modules/@openzeppelin/contracts/token/ERC20/ERC20.sol\":9079:9086  account */\n      dup4\n        /* \"node_modules/@openzeppelin/contracts/token/ERC20/ERC20.sol\":9088:9094  amount */\n      dup4\n        /* \"node_modules/@openzeppelin/contracts/token/ERC20/ERC20.sol\":9047:9066  _afterTokenTransfer */\n      tag_183\n        /* \"node_modules/@openzeppelin/contracts/token/ERC20/ERC20.sol\":9047:9095  _afterTokenTransfer(address(0), account, amount) */\n      jump\t// in\n    tag_197:\n        /* \"node_modules/@openzeppelin/contracts/token/ERC20/ERC20.sol\":8567:9102  function _mint(address account, uint256 amount) internal virtual {... */\n      pop\n      pop\n      jump\t// out\n        /* \"node_modules/@openzeppelin/contracts/utils/Counters.sol\":827:939  function current(Counter storage counter) internal view returns (uint256) {... */\n    tag_119:\n        /* \"node_modules/@openzeppelin/contracts/utils/Counters.sol\":892:899  uint256 */\n      0x00\n        /* \"node_modules/@openzeppelin/contracts/utils/Counters.sol\":918:925  counter */\n      dup2\n        /* \"node_modules/@openzeppelin/contracts/utils/Counters.sol\":918:932  counter._value */\n      0x00\n      add\n      sload\n        /* \"node_modules/@openzeppelin/contracts/utils/Counters.sol\":911:932  return counter._value */\n      swap1\n      pop\n        /* \"node_modules/@openzeppelin/contracts/utils/Counters.sol\":827:939  function current(Counter storage counter) internal view returns (uint256) {... */\n      swap2\n      swap1\n      pop\n      jump\t// out\n        /* \"node_modules/@openzeppelin/contracts/token/ERC20/extensions/draft-ERC20Permit.sol\":3123:3326  function _useNonce(address owner) internal virtual returns (uint256 current) {... */\n    tag_141:\n        /* \"node_modules/@openzeppelin/contracts/token/ERC20/extensions/draft-ERC20Permit.sol\":3183:3198  uint256 current */\n      0x00\n        /* \"node_modules/@openzeppelin/contracts/token/ERC20/extensions/draft-ERC20Permit.sol\":3210:3240  Counters.Counter storage nonce */\n      dup1\n        /* \"node_modules/@openzeppelin/contracts/token/ERC20/extensions/draft-ERC20Permit.sol\":3243:3250  _nonces */\n      0x05\n        /* \"node_modules/@openzeppelin/contracts/token/ERC20/extensions/draft-ERC20Permit.sol\":3243:3257  _nonces[owner] */\n      0x00\n        /* \"node_modules/@openzeppelin/contracts/token/ERC20/extensions/draft-ERC20Permit.sol\":3251:3256  owner */\n      dup5\n        /* \"node_modules/@openzeppelin/contracts/token/ERC20/extensions/draft-ERC20Permit.sol\":3243:3257  _nonces[owner] */\n      0xffffffffffffffffffffffffffffffffffffffff\n      and\n      0xffffffffffffffffffffffffffffffffffffffff\n      and\n      dup2\n      mstore\n      0x20\n      add\n      swap1\n      dup2\n      mstore\n      0x20\n      add\n      0x00\n      keccak256\n        /* \"node_modules/@openzeppelin/contracts/token/ERC20/extensions/draft-ERC20Permit.sol\":3210:3257  Counters.Counter storage nonce = _nonces[owner] */\n      swap1\n      pop\n        /* \"node_modules/@openzeppelin/contracts/token/ERC20/extensions/draft-ERC20Permit.sol\":3277:3292  nonce.current() */\n      tag_200\n        /* \"node_modules/@openzeppelin/contracts/token/ERC20/extensions/draft-ERC20Permit.sol\":3277:3282  nonce */\n      dup2\n        /* \"node_modules/@openzeppelin/contracts/token/ERC20/extensions/draft-ERC20Permit.sol\":3277:3290  nonce.current */\n      tag_119\n        /* \"node_modules/@openzeppelin/contracts/token/ERC20/extensions/draft-ERC20Permit.sol\":3277:3292  nonce.current() */\n      jump\t// in\n    tag_200:\n        /* \"node_modules/@openzeppelin/contracts/token/ERC20/extensions/draft-ERC20Permit.sol\":3267:3292  current = nonce.current() */\n      swap2\n      pop\n        /* \"node_modules/@openzeppelin/contracts/token/ERC20/extensions/draft-ERC20Permit.sol\":3302:3319  nonce.increment() */\n      tag_201\n        /* \"node_modules/@openzeppelin/contracts/token/ERC20/extensions/draft-ERC20Permit.sol\":3302:3307  nonce */\n      dup2\n        /* \"node_modules/@openzeppelin/contracts/token/ERC20/extensions/draft-ERC20Permit.sol\":3302:3317  nonce.increment */\n      tag_202\n        /* \"node_modules/@openzeppelin/contracts/token/ERC20/extensions/draft-ERC20Permit.sol\":3302:3319  nonce.increment() */\n      jump\t// in\n    tag_201:\n        /* \"node_modules/@openzeppelin/contracts/token/ERC20/extensions/draft-ERC20Permit.sol\":3200:3326  {... */\n      pop\n        /* \"node_modules/@openzeppelin/contracts/token/ERC20/extensions/draft-ERC20Permit.sol\":3123:3326  function _useNonce(address owner) internal virtual returns (uint256 current) {... */\n      swap2\n      swap1\n      pop\n      jump\t// out\n        /* \"node_modules/@openzeppelin/contracts/utils/cryptography/EIP712.sol\":4348:4513  function _hashTypedDataV4(bytes32 structHash) internal view virtual returns (bytes32) {... */\n    tag_145:\n        /* \"node_modules/@openzeppelin/contracts/utils/cryptography/EIP712.sol\":4425:4432  bytes32 */\n      0x00\n        /* \"node_modules/@openzeppelin/contracts/utils/cryptography/EIP712.sol\":4451:4506  ECDSA.toTypedDataHash(_domainSeparatorV4(), structHash) */\n      tag_204\n        /* \"node_modules/@openzeppelin/contracts/utils/cryptography/EIP712.sol\":4473:4493  _domainSeparatorV4() */\n      tag_205\n        /* \"node_modules/@openzeppelin/contracts/utils/cryptography/EIP712.sol\":4473:4491  _domainSeparatorV4 */\n      tag_106\n        /* \"node_modules/@openzeppelin/contracts/utils/cryptography/EIP712.sol\":4473:4493  _domainSeparatorV4() */\n      jump\t// in\n    tag_205:\n        /* \"node_modules/@openzeppelin/contracts/utils/cryptography/EIP712.sol\":4495:4505  structHash */\n      dup4\n        /* \"node_modules/@openzeppelin/contracts/utils/cryptography/EIP712.sol\":4451:4472  ECDSA.toTypedDataHash */\n      tag_206\n        /* \"node_modules/@openzeppelin/contracts/utils/cryptography/EIP712.sol\":4451:4506  ECDSA.toTypedDataHash(_domainSeparatorV4(), structHash) */\n      jump\t// in\n    tag_204:\n        /* \"node_modules/@openzeppelin/contracts/utils/cryptography/EIP712.sol\":4444:4506  return ECDSA.toTypedDataHash(_domainSeparatorV4(), structHash) */\n      swap1\n      pop\n        /* \"node_modules/@openzeppelin/contracts/utils/cryptography/EIP712.sol\":4348:4513  function _hashTypedDataV4(bytes32 structHash) internal view virtual returns (bytes32) {... */\n      swap2\n      swap1\n      pop\n      jump\t// out\n        /* \"node_modules/@openzeppelin/contracts/utils/cryptography/ECDSA.sol\":6696:6966  function recover(... */\n    tag_147:\n        /* \"node_modules/@openzeppelin/contracts/utils/cryptography/ECDSA.sol\":6819:6826  address */\n      0x00\n        /* \"node_modules/@openzeppelin/contracts/utils/cryptography/ECDSA.sol\":6839:6856  address recovered */\n      dup1\n        /* \"node_modules/@openzeppelin/contracts/utils/cryptography/ECDSA.sol\":6858:6876  RecoverError error */\n      0x00\n        /* \"node_modules/@openzeppelin/contracts/utils/cryptography/ECDSA.sol\":6880:6905  tryRecover(hash, v, r, s) */\n      tag_208\n        /* \"node_modules/@openzeppelin/contracts/utils/cryptography/ECDSA.sol\":6891:6895  hash */\n      dup8\n        /* \"node_modules/@openzeppelin/contracts/utils/cryptography/ECDSA.sol\":6897:6898  v */\n      dup8\n        /* \"node_modules/@openzeppelin/contracts/utils/cryptography/ECDSA.sol\":6900:6901  r */\n      dup8\n        /* \"node_modules/@openzeppelin/contracts/utils/cryptography/ECDSA.sol\":6903:6904  s */\n      dup8\n        /* \"node_modules/@openzeppelin/contracts/utils/cryptography/ECDSA.sol\":6880:6890  tryRecover */\n      tag_209\n        /* \"node_modules/@openzeppelin/contracts/utils/cryptography/ECDSA.sol\":6880:6905  tryRecover(hash, v, r, s) */\n      jump\t// in\n    tag_208:\n        /* \"node_modules/@openzeppelin/contracts/utils/cryptography/ECDSA.sol\":6838:6905  (address recovered, RecoverError error) = tryRecover(hash, v, r, s) */\n      swap2\n      pop\n      swap2\n      pop\n        /* \"node_modules/@openzeppelin/contracts/utils/cryptography/ECDSA.sol\":6915:6933  _throwError(error) */\n      tag_210\n        /* \"node_modules/@openzeppelin/contracts/utils/cryptography/ECDSA.sol\":6927:6932  error */\n      dup2\n        /* \"node_modules/@openzeppelin/contracts/utils/cryptography/ECDSA.sol\":6915:6926  _throwError */\n      tag_211\n        /* \"node_modules/@openzeppelin/contracts/utils/cryptography/ECDSA.sol\":6915:6933  _throwError(error) */\n      jump\t// in\n    tag_210:\n        /* \"node_modules/@openzeppelin/contracts/utils/cryptography/ECDSA.sol\":6950:6959  recovered */\n      dup2\n        /* \"node_modules/@openzeppelin/contracts/utils/cryptography/ECDSA.sol\":6943:6959  return recovered */\n      swap3\n      pop\n      pop\n      pop\n        /* \"node_modules/@openzeppelin/contracts/utils/cryptography/ECDSA.sol\":6696:6966  function recover(... */\n      swap5\n      swap4\n      pop\n      pop\n      pop\n      pop\n      jump\t// out\n        /* \"node_modules/@openzeppelin/contracts/token/ERC20/ERC20.sol\":12180:12301  function _beforeTokenTransfer(... */\n    tag_177:\n      pop\n      pop\n      pop\n      jump\t// out\n        /* \"node_modules/@openzeppelin/contracts/token/ERC20/ERC20.sol\":12889:13009  function _afterTokenTransfer(... */\n    tag_183:\n      pop\n      pop\n      pop\n      jump\t// out\n        /* \"node_modules/@openzeppelin/contracts/utils/cryptography/EIP712.sol\":3466:3723  function _buildDomainSeparator(... */\n    tag_189:\n        /* \"node_modules/@openzeppelin/contracts/utils/cryptography/EIP712.sol\":3606:3613  bytes32 */\n      0x00\n        /* \"node_modules/@openzeppelin/contracts/utils/cryptography/EIP712.sol\":3653:3661  typeHash */\n      dup4\n        /* \"node_modules/@openzeppelin/contracts/utils/cryptography/EIP712.sol\":3663:3671  nameHash */\n      dup4\n        /* \"node_modules/@openzeppelin/contracts/utils/cryptography/EIP712.sol\":3673:3684  versionHash */\n      dup4\n        /* \"node_modules/@openzeppelin/contracts/utils/cryptography/EIP712.sol\":3686:3699  block.chainid */\n      chainid\n        /* \"node_modules/@openzeppelin/contracts/utils/cryptography/EIP712.sol\":3709:3713  this */\n      address\n        /* \"node_modules/@openzeppelin/contracts/utils/cryptography/EIP712.sol\":3642:3715  abi.encode(typeHash, nameHash, versionHash, block.chainid, address(this)) */\n      add(0x20, mload(0x40))\n      tag_215\n      swap6\n      swap5\n      swap4\n      swap3\n      swap2\n      swap1\n      tag_216\n      jump\t// in\n    tag_215:\n      mload(0x40)\n      0x20\n      dup2\n      dup4\n      sub\n      sub\n      dup2\n      mstore\n      swap1\n      0x40\n      mstore\n        /* \"node_modules/@openzeppelin/contracts/utils/cryptography/EIP712.sol\":3632:3716  keccak256(abi.encode(typeHash, nameHash, versionHash, block.chainid, address(this))) */\n      dup1\n      mload\n      swap1\n      0x20\n      add\n      keccak256\n        /* \"node_modules/@openzeppelin/contracts/utils/cryptography/EIP712.sol\":3625:3716  return keccak256(abi.encode(typeHash, nameHash, versionHash, block.chainid, address(this))) */\n      swap1\n      pop\n        /* \"node_modules/@openzeppelin/contracts/utils/cryptography/EIP712.sol\":3466:3723  function _buildDomainSeparator(... */\n      swap4\n      swap3\n      pop\n      pop\n      pop\n      jump\t// out\n        /* \"node_modules/@openzeppelin/contracts/utils/Counters.sol\":945:1068  function increment(Counter storage counter) internal {... */\n    tag_202:\n        /* \"node_modules/@openzeppelin/contracts/utils/Counters.sol\":1050:1051  1 */\n      0x01\n        /* \"node_modules/@openzeppelin/contracts/utils/Counters.sol\":1032:1039  counter */\n      dup2\n        /* \"node_modules/@openzeppelin/contracts/utils/Counters.sol\":1032:1046  counter._value */\n      0x00\n      add\n      0x00\n        /* \"node_modules/@openzeppelin/contracts/utils/Counters.sol\":1032:1051  counter._value += 1 */\n      dup3\n      dup3\n      sload\n      add\n      swap3\n      pop\n      pop\n      dup2\n      swap1\n      sstore\n      pop\n        /* \"node_modules/@openzeppelin/contracts/utils/Counters.sol\":945:1068  function increment(Counter storage counter) internal {... */\n      pop\n      jump\t// out\n        /* \"node_modules/@openzeppelin/contracts/utils/cryptography/ECDSA.sol\":8341:8535  function toTypedDataHash(bytes32 domainSeparator, bytes32 structHash) internal pure returns (bytes32) {... */\n    tag_206:\n        /* \"node_modules/@openzeppelin/contracts/utils/cryptography/ECDSA.sol\":8434:8441  bytes32 */\n      0x00\n        /* \"node_modules/@openzeppelin/contracts/utils/cryptography/ECDSA.sol\":8499:8514  domainSeparator */\n      dup3\n        /* \"node_modules/@openzeppelin/contracts/utils/cryptography/ECDSA.sol\":8516:8526  structHash */\n      dup3\n        /* \"node_modules/@openzeppelin/contracts/utils/cryptography/ECDSA.sol\":8470:8527  abi.encodePacked(\"\\x19\\x01\", domainSeparator, structHash) */\n      add(0x20, mload(0x40))\n      tag_219\n      swap3\n      swap2\n      swap1\n      tag_220\n      jump\t// in\n    tag_219:\n      mload(0x40)\n      0x20\n      dup2\n      dup4\n      sub\n      sub\n      dup2\n      mstore\n      swap1\n      0x40\n      mstore\n        /* \"node_modules/@openzeppelin/contracts/utils/cryptography/ECDSA.sol\":8460:8528  keccak256(abi.encodePacked(\"\\x19\\x01\", domainSeparator, structHash)) */\n      dup1\n      mload\n      swap1\n      0x20\n      add\n      keccak256\n        /* \"node_modules/@openzeppelin/contracts/utils/cryptography/ECDSA.sol\":8453:8528  return keccak256(abi.encodePacked(\"\\x19\\x01\", domainSeparator, structHash)) */\n      swap1\n      pop\n        /* \"node_modules/@openzeppelin/contracts/utils/cryptography/ECDSA.sol\":8341:8535  function toTypedDataHash(bytes32 domainSeparator, bytes32 structHash) internal pure returns (bytes32) {... */\n      swap3\n      swap2\n      pop\n      pop\n      jump\t// out\n        /* \"node_modules/@openzeppelin/contracts/utils/cryptography/ECDSA.sol\":5069:6563  function tryRecover(... */\n    tag_209:\n        /* \"node_modules/@openzeppelin/contracts/utils/cryptography/ECDSA.sol\":5195:5202  address */\n      0x00\n        /* \"node_modules/@openzeppelin/contracts/utils/cryptography/ECDSA.sol\":5204:5216  RecoverError */\n      dup1\n        /* \"node_modules/@openzeppelin/contracts/utils/cryptography/ECDSA.sol\":6119:6185  0x7FFFFFFFFFFFFFFFFFFFFFFFFFFFFFFF5D576E7357A4501DDFE92F46681B20A0 */\n      0x7fffffffffffffffffffffffffffffff5d576e7357a4501ddfe92f46681b20a0\n        /* \"node_modules/@openzeppelin/contracts/utils/cryptography/ECDSA.sol\":6114:6115  s */\n      dup4\n        /* \"node_modules/@openzeppelin/contracts/utils/cryptography/ECDSA.sol\":6106:6116  uint256(s) */\n      0x00\n      shr\n        /* \"node_modules/@openzeppelin/contracts/utils/cryptography/ECDSA.sol\":6106:6185  uint256(s) > 0x7FFFFFFFFFFFFFFFFFFFFFFFFFFFFFFF5D576E7357A4501DDFE92F46681B20A0 */\n      gt\n        /* \"node_modules/@openzeppelin/contracts/utils/cryptography/ECDSA.sol\":6102:6263  if (uint256(s) > 0x7FFFFFFFFFFFFFFFFFFFFFFFFFFFFFFF5D576E7357A4501DDFE92F46681B20A0) {... */\n      iszero\n      tag_222\n      jumpi\n        /* \"node_modules/@openzeppelin/contracts/utils/cryptography/ECDSA.sol\":6217:6218  0 */\n      0x00\n        /* \"node_modules/@openzeppelin/contracts/utils/cryptography/ECDSA.sol\":6221:6251  RecoverError.InvalidSignatureS */\n      0x03\n        /* \"node_modules/@openzeppelin/contracts/utils/cryptography/ECDSA.sol\":6201:6252  return (address(0), RecoverError.InvalidSignatureS) */\n      swap2\n      pop\n      swap2\n      pop\n      jump(tag_221)\n        /* \"node_modules/@openzeppelin/contracts/utils/cryptography/ECDSA.sol\":6102:6263  if (uint256(s) > 0x7FFFFFFFFFFFFFFFFFFFFFFFFFFFFFFF5D576E7357A4501DDFE92F46681B20A0) {... */\n    tag_222:\n        /* \"node_modules/@openzeppelin/contracts/utils/cryptography/ECDSA.sol\":6357:6371  address signer */\n      0x00\n        /* \"node_modules/@openzeppelin/contracts/utils/cryptography/ECDSA.sol\":6374:6398  ecrecover(hash, v, r, s) */\n      0x01\n        /* \"node_modules/@openzeppelin/contracts/utils/cryptography/ECDSA.sol\":6384:6388  hash */\n      dup8\n        /* \"node_modules/@openzeppelin/contracts/utils/cryptography/ECDSA.sol\":6390:6391  v */\n      dup8\n        /* \"node_modules/@openzeppelin/contracts/utils/cryptography/ECDSA.sol\":6393:6394  r */\n      dup8\n        /* \"node_modules/@openzeppelin/contracts/utils/cryptography/ECDSA.sol\":6396:6397  s */\n      dup8\n        /* \"node_modules/@openzeppelin/contracts/utils/cryptography/ECDSA.sol\":6374:6398  ecrecover(hash, v, r, s) */\n      mload(0x40)\n      0x00\n      dup2\n      mstore\n      0x20\n      add\n      0x40\n      mstore\n      mload(0x40)\n      tag_223\n      swap5\n      swap4\n      swap3\n      swap2\n      swap1\n      tag_224\n      jump\t// in\n    tag_223:\n      0x20\n      mload(0x40)\n      0x20\n      dup2\n      sub\n      swap1\n      dup1\n      dup5\n      sub\n      swap1\n      dup6\n      gas\n      staticcall\n      iszero\n      dup1\n      iszero\n      tag_226\n      jumpi\n      returndatasize\n      0x00\n      dup1\n      returndatacopy\n      revert(0x00, returndatasize)\n    tag_226:\n      pop\n      pop\n      pop\n      mload(sub(mload(0x40), 0x20))\n        /* \"node_modules/@openzeppelin/contracts/utils/cryptography/ECDSA.sol\":6357:6398  address signer = ecrecover(hash, v, r, s) */\n      swap1\n      pop\n        /* \"node_modules/@openzeppelin/contracts/utils/cryptography/ECDSA.sol\":6430:6431  0 */\n      0x00\n        /* \"node_modules/@openzeppelin/contracts/utils/cryptography/ECDSA.sol\":6412:6432  signer == address(0) */\n      0xffffffffffffffffffffffffffffffffffffffff\n      and\n        /* \"node_modules/@openzeppelin/contracts/utils/cryptography/ECDSA.sol\":6412:6418  signer */\n      dup2\n        /* \"node_modules/@openzeppelin/contracts/utils/cryptography/ECDSA.sol\":6412:6432  signer == address(0) */\n      0xffffffffffffffffffffffffffffffffffffffff\n      and\n      eq\n        /* \"node_modules/@openzeppelin/contracts/utils/cryptography/ECDSA.sol\":6408:6509  if (signer == address(0)) {... */\n      iszero\n      tag_227\n      jumpi\n        /* \"node_modules/@openzeppelin/contracts/utils/cryptography/ECDSA.sol\":6464:6465  0 */\n      0x00\n        /* \"node_modules/@openzeppelin/contracts/utils/cryptography/ECDSA.sol\":6468:6497  RecoverError.InvalidSignature */\n      0x01\n        /* \"node_modules/@openzeppelin/contracts/utils/cryptography/ECDSA.sol\":6448:6498  return (address(0), RecoverError.InvalidSignature) */\n      swap3\n      pop\n      swap3\n      pop\n      pop\n      jump(tag_221)\n        /* \"node_modules/@openzeppelin/contracts/utils/cryptography/ECDSA.sol\":6408:6509  if (signer == address(0)) {... */\n    tag_227:\n        /* \"node_modules/@openzeppelin/contracts/utils/cryptography/ECDSA.sol\":6527:6533  signer */\n      dup1\n        /* \"node_modules/@openzeppelin/contracts/utils/cryptography/ECDSA.sol\":6535:6555  RecoverError.NoError */\n      0x00\n        /* \"node_modules/@openzeppelin/contracts/utils/cryptography/ECDSA.sol\":6519:6556  return (signer, RecoverError.NoError) */\n      swap3\n      pop\n      swap3\n      pop\n      pop\n        /* \"node_modules/@openzeppelin/contracts/utils/cryptography/ECDSA.sol\":5069:6563  function tryRecover(... */\n    tag_221:\n      swap5\n      pop\n      swap5\n      swap3\n      pop\n      pop\n      pop\n      jump\t// out\n        /* \"node_modules/@openzeppelin/contracts/utils/cryptography/ECDSA.sol\":570:1081  function _throwError(RecoverError error) private pure {... */\n    tag_211:\n        /* \"node_modules/@openzeppelin/contracts/utils/cryptography/ECDSA.sol\":647:667  RecoverError.NoError */\n      0x00\n        /* \"node_modules/@openzeppelin/contracts/utils/cryptography/ECDSA.sol\":638:667  error == RecoverError.NoError */\n      0x04\n      dup2\n      gt\n      iszero\n      tag_229\n      jumpi\n      tag_230\n      tag_231\n      jump\t// in\n    tag_230:\n    tag_229:\n        /* \"node_modules/@openzeppelin/contracts/utils/cryptography/ECDSA.sol\":638:643  error */\n      dup2\n        /* \"node_modules/@openzeppelin/contracts/utils/cryptography/ECDSA.sol\":638:667  error == RecoverError.NoError */\n      0x04\n      dup2\n      gt\n      iszero\n      tag_232\n      jumpi\n      tag_233\n      tag_231\n      jump\t// in\n    tag_233:\n    tag_232:\n      eq\n        /* \"node_modules/@openzeppelin/contracts/utils/cryptography/ECDSA.sol\":634:1075  if (error == RecoverError.NoError) {... */\n      iszero\n      tag_234\n      jumpi\n        /* \"node_modules/@openzeppelin/contracts/utils/cryptography/ECDSA.sol\":683:690  return; */\n      jump(tag_228)\n        /* \"node_modules/@openzeppelin/contracts/utils/cryptography/ECDSA.sol\":634:1075  if (error == RecoverError.NoError) {... */\n    tag_234:\n        /* \"node_modules/@openzeppelin/contracts/utils/cryptography/ECDSA.sol\":743:772  RecoverError.InvalidSignature */\n      0x01\n        /* \"node_modules/@openzeppelin/contracts/utils/cryptography/ECDSA.sol\":734:772  error == RecoverError.InvalidSignature */\n      0x04\n      dup2\n      gt\n      iszero\n      tag_236\n      jumpi\n      tag_237\n      tag_231\n      jump\t// in\n    tag_237:\n    tag_236:\n        /* \"node_modules/@openzeppelin/contracts/utils/cryptography/ECDSA.sol\":734:739  error */\n      dup2\n        /* \"node_modules/@openzeppelin/contracts/utils/cryptography/ECDSA.sol\":734:772  error == RecoverError.InvalidSignature */\n      0x04\n      dup2\n      gt\n      iszero\n      tag_238\n      jumpi\n      tag_239\n      tag_231\n      jump\t// in\n    tag_239:\n    tag_238:\n      eq\n        /* \"node_modules/@openzeppelin/contracts/utils/cryptography/ECDSA.sol\":730:1075  if (error == RecoverError.InvalidSignature) {... */\n      iszero\n      tag_240\n      jumpi\n        /* \"node_modules/@openzeppelin/contracts/utils/cryptography/ECDSA.sol\":788:822  revert(\"ECDSA: invalid signature\") */\n      mload(0x40)\n      0x08c379a000000000000000000000000000000000000000000000000000000000\n      dup2\n      mstore\n      0x04\n      add\n      tag_241\n      swap1\n      tag_242\n      jump\t// in\n    tag_241:\n      mload(0x40)\n      dup1\n      swap2\n      sub\n      swap1\n      revert\n        /* \"node_modules/@openzeppelin/contracts/utils/cryptography/ECDSA.sol\":730:1075  if (error == RecoverError.InvalidSignature) {... */\n    tag_240:\n        /* \"node_modules/@openzeppelin/contracts/utils/cryptography/ECDSA.sol\":852:887  RecoverError.InvalidSignatureLength */\n      0x02\n        /* \"node_modules/@openzeppelin/contracts/utils/cryptography/ECDSA.sol\":843:887  error == RecoverError.InvalidSignatureLength */\n      0x04\n      dup2\n      gt\n      iszero\n      tag_244\n      jumpi\n      tag_245\n      tag_231\n      jump\t// in\n    tag_245:\n    tag_244:\n        /* \"node_modules/@openzeppelin/contracts/utils/cryptography/ECDSA.sol\":843:848  error */\n      dup2\n        /* \"node_modules/@openzeppelin/contracts/utils/cryptography/ECDSA.sol\":843:887  error == RecoverError.InvalidSignatureLength */\n      0x04\n      dup2\n      gt\n      iszero\n      tag_246\n      jumpi\n      tag_247\n      tag_231\n      jump\t// in\n    tag_247:\n    tag_246:\n      eq\n        /* \"node_modules/@openzeppelin/contracts/utils/cryptography/ECDSA.sol\":839:1075  if (error == RecoverError.InvalidSignatureLength) {... */\n      iszero\n      tag_248\n      jumpi\n        /* \"node_modules/@openzeppelin/contracts/utils/cryptography/ECDSA.sol\":903:944  revert(\"ECDSA: invalid signature length\") */\n      mload(0x40)\n      0x08c379a000000000000000000000000000000000000000000000000000000000\n      dup2\n      mstore\n      0x04\n      add\n      tag_249\n      swap1\n      tag_250\n      jump\t// in\n    tag_249:\n      mload(0x40)\n      dup1\n      swap2\n      sub\n      swap1\n      revert\n        /* \"node_modules/@openzeppelin/contracts/utils/cryptography/ECDSA.sol\":839:1075  if (error == RecoverError.InvalidSignatureLength) {... */\n    tag_248:\n        /* \"node_modules/@openzeppelin/contracts/utils/cryptography/ECDSA.sol\":974:1004  RecoverError.InvalidSignatureS */\n      0x03\n        /* \"node_modules/@openzeppelin/contracts/utils/cryptography/ECDSA.sol\":965:1004  error == RecoverError.InvalidSignatureS */\n      0x04\n      dup2\n      gt\n      iszero\n      tag_252\n      jumpi\n      tag_253\n      tag_231\n      jump\t// in\n    tag_253:\n    tag_252:\n        /* \"node_modules/@openzeppelin/contracts/utils/cryptography/ECDSA.sol\":965:970  error */\n      dup2\n        /* \"node_modules/@openzeppelin/contracts/utils/cryptography/ECDSA.sol\":965:1004  error == RecoverError.InvalidSignatureS */\n      0x04\n      dup2\n      gt\n      iszero\n      tag_254\n      jumpi\n      tag_255\n      tag_231\n      jump\t// in\n    tag_255:\n    tag_254:\n      eq\n        /* \"node_modules/@openzeppelin/contracts/utils/cryptography/ECDSA.sol\":961:1075  if (error == RecoverError.InvalidSignatureS) {... */\n      iszero\n      tag_256\n      jumpi\n        /* \"node_modules/@openzeppelin/contracts/utils/cryptography/ECDSA.sol\":1020:1064  revert(\"ECDSA: invalid signature 's' value\") */\n      mload(0x40)\n      0x08c379a000000000000000000000000000000000000000000000000000000000\n      dup2\n      mstore\n      0x04\n      add\n      tag_257\n      swap1\n      tag_258\n      jump\t// in\n    tag_257:\n      mload(0x40)\n      dup1\n      swap2\n      sub\n      swap1\n      revert\n        /* \"node_modules/@openzeppelin/contracts/utils/cryptography/ECDSA.sol\":961:1075  if (error == RecoverError.InvalidSignatureS) {... */\n    tag_256:\n        /* \"node_modules/@openzeppelin/contracts/utils/cryptography/ECDSA.sol\":570:1081  function _throwError(RecoverError error) private pure {... */\n    tag_228:\n      pop\n      jump\t// out\n        /* \"#utility.yul\":7:146   */\n    tag_260:\n        /* \"#utility.yul\":53:58   */\n      0x00\n        /* \"#utility.yul\":91:97   */\n      dup2\n        /* \"#utility.yul\":78:98   */\n      calldataload\n        /* \"#utility.yul\":69:98   */\n      swap1\n      pop\n        /* \"#utility.yul\":107:140   */\n      tag_262\n        /* \"#utility.yul\":134:139   */\n      dup2\n        /* \"#utility.yul\":107:140   */\n      tag_263\n      jump\t// in\n    tag_262:\n        /* \"#utility.yul\":7:146   */\n      swap3\n      swap2\n      pop\n      pop\n      jump\t// out\n        /* \"#utility.yul\":152:291   */\n    tag_264:\n        /* \"#utility.yul\":198:203   */\n      0x00\n        /* \"#utility.yul\":236:242   */\n      dup2\n        /* \"#utility.yul\":223:243   */\n      calldataload\n        /* \"#utility.yul\":214:243   */\n      swap1\n      pop\n        /* \"#utility.yul\":252:285   */\n      tag_266\n        /* \"#utility.yul\":279:284   */\n      dup2\n        /* \"#utility.yul\":252:285   */\n      tag_267\n      jump\t// in\n    tag_266:\n        /* \"#utility.yul\":152:291   */\n      swap3\n      swap2\n      pop\n      pop\n      jump\t// out\n        /* \"#utility.yul\":297:436   */\n    tag_268:\n        /* \"#utility.yul\":343:348   */\n      0x00\n        /* \"#utility.yul\":381:387   */\n      dup2\n        /* \"#utility.yul\":368:388   */\n      calldataload\n        /* \"#utility.yul\":359:388   */\n      swap1\n      pop\n        /* \"#utility.yul\":397:430   */\n      tag_270\n        /* \"#utility.yul\":424:429   */\n      dup2\n        /* \"#utility.yul\":397:430   */\n      tag_271\n      jump\t// in\n    tag_270:\n        /* \"#utility.yul\":297:436   */\n      swap3\n      swap2\n      pop\n      pop\n      jump\t// out\n        /* \"#utility.yul\":442:577   */\n    tag_272:\n        /* \"#utility.yul\":486:491   */\n      0x00\n        /* \"#utility.yul\":524:530   */\n      dup2\n        /* \"#utility.yul\":511:531   */\n      calldataload\n        /* \"#utility.yul\":502:531   */\n      swap1\n      pop\n        /* \"#utility.yul\":540:571   */\n      tag_274\n        /* \"#utility.yul\":565:570   */\n      dup2\n        /* \"#utility.yul\":540:571   */\n      tag_275\n      jump\t// in\n    tag_274:\n        /* \"#utility.yul\":442:577   */\n      swap3\n      swap2\n      pop\n      pop\n      jump\t// out\n        /* \"#utility.yul\":583:912   */\n    tag_57:\n        /* \"#utility.yul\":642:648   */\n      0x00\n        /* \"#utility.yul\":691:693   */\n      0x20\n        /* \"#utility.yul\":679:688   */\n      dup3\n        /* \"#utility.yul\":670:677   */\n      dup5\n        /* \"#utility.yul\":666:689   */\n      sub\n        /* \"#utility.yul\":662:694   */\n      slt\n        /* \"#utility.yul\":659:778   */\n      iszero\n      tag_277\n      jumpi\n        /* \"#utility.yul\":697:776   */\n      tag_278\n      tag_279\n      jump\t// in\n    tag_278:\n        /* \"#utility.yul\":659:778   */\n    tag_277:\n        /* \"#utility.yul\":817:818   */\n      0x00\n        /* \"#utility.yul\":842:895   */\n      tag_280\n        /* \"#utility.yul\":887:894   */\n      dup5\n        /* \"#utility.yul\":878:884   */\n      dup3\n        /* \"#utility.yul\":867:876   */\n      dup6\n        /* \"#utility.yul\":863:885   */\n      add\n        /* \"#utility.yul\":842:895   */\n      tag_260\n      jump\t// in\n    tag_280:\n        /* \"#utility.yul\":832:895   */\n      swap2\n      pop\n        /* \"#utility.yul\":788:905   */\n      pop\n        /* \"#utility.yul\":583:912   */\n      swap3\n      swap2\n      pop\n      pop\n      jump\t// out\n        /* \"#utility.yul\":918:1392   */\n    tag_81:\n        /* \"#utility.yul\":986:992   */\n      0x00\n        /* \"#utility.yul\":994:1000   */\n      dup1\n        /* \"#utility.yul\":1043:1045   */\n      0x40\n        /* \"#utility.yul\":1031:1040   */\n      dup4\n        /* \"#utility.yul\":1022:1029   */\n      dup6\n        /* \"#utility.yul\":1018:1041   */\n      sub\n        /* \"#utility.yul\":1014:1046   */\n      slt\n        /* \"#utility.yul\":1011:1130   */\n      iszero\n      tag_282\n      jumpi\n        /* \"#utility.yul\":1049:1128   */\n      tag_283\n      tag_279\n      jump\t// in\n    tag_283:\n        /* \"#utility.yul\":1011:1130   */\n    tag_282:\n        /* \"#utility.yul\":1169:1170   */\n      0x00\n        /* \"#utility.yul\":1194:1247   */\n      tag_284\n        /* \"#utility.yul\":1239:1246   */\n      dup6\n        /* \"#utility.yul\":1230:1236   */\n      dup3\n        /* \"#utility.yul\":1219:1228   */\n      dup7\n        /* \"#utility.yul\":1215:1237   */\n      add\n        /* \"#utility.yul\":1194:1247   */\n      tag_260\n      jump\t// in\n    tag_284:\n        /* \"#utility.yul\":1184:1247   */\n      swap3\n      pop\n        /* \"#utility.yul\":1140:1257   */\n      pop\n        /* \"#utility.yul\":1296:1298   */\n      0x20\n        /* \"#utility.yul\":1322:1375   */\n      tag_285\n        /* \"#utility.yul\":1367:1374   */\n      dup6\n        /* \"#utility.yul\":1358:1364   */\n      dup3\n        /* \"#utility.yul\":1347:1356   */\n      dup7\n        /* \"#utility.yul\":1343:1365   */\n      add\n        /* \"#utility.yul\":1322:1375   */\n      tag_260\n      jump\t// in\n    tag_285:\n        /* \"#utility.yul\":1312:1375   */\n      swap2\n      pop\n        /* \"#utility.yul\":1267:1385   */\n      pop\n        /* \"#utility.yul\":918:1392   */\n      swap3\n      pop\n      swap3\n      swap1\n      pop\n      jump\t// out\n        /* \"#utility.yul\":1398:2017   */\n    tag_37:\n        /* \"#utility.yul\":1475:1481   */\n      0x00\n        /* \"#utility.yul\":1483:1489   */\n      dup1\n        /* \"#utility.yul\":1491:1497   */\n      0x00\n        /* \"#utility.yul\":1540:1542   */\n      0x60\n        /* \"#utility.yul\":1528:1537   */\n      dup5\n        /* \"#utility.yul\":1519:1526   */\n      dup7\n        /* \"#utility.yul\":1515:1538   */\n      sub\n        /* \"#utility.yul\":1511:1543   */\n      slt\n        /* \"#utility.yul\":1508:1627   */\n      iszero\n      tag_287\n      jumpi\n        /* \"#utility.yul\":1546:1625   */\n      tag_288\n      tag_279\n      jump\t// in\n    tag_288:\n        /* \"#utility.yul\":1508:1627   */\n    tag_287:\n        /* \"#utility.yul\":1666:1667   */\n      0x00\n        /* \"#utility.yul\":1691:1744   */\n      tag_289\n        /* \"#utility.yul\":1736:1743   */\n      dup7\n        /* \"#utility.yul\":1727:1733   */\n      dup3\n        /* \"#utility.yul\":1716:1725   */\n      dup8\n        /* \"#utility.yul\":1712:1734   */\n      add\n        /* \"#utility.yul\":1691:1744   */\n      tag_260\n      jump\t// in\n    tag_289:\n        /* \"#utility.yul\":1681:1744   */\n      swap4\n      pop\n        /* \"#utility.yul\":1637:1754   */\n      pop\n        /* \"#utility.yul\":1793:1795   */\n      0x20\n        /* \"#utility.yul\":1819:1872   */\n      tag_290\n        /* \"#utility.yul\":1864:1871   */\n      dup7\n        /* \"#utility.yul\":1855:1861   */\n      dup3\n        /* \"#utility.yul\":1844:1853   */\n      dup8\n        /* \"#utility.yul\":1840:1862   */\n      add\n        /* \"#utility.yul\":1819:1872   */\n      tag_260\n      jump\t// in\n    tag_290:\n        /* \"#utility.yul\":1809:1872   */\n      swap3\n      pop\n        /* \"#utility.yul\":1764:1882   */\n      pop\n        /* \"#utility.yul\":1921:1923   */\n      0x40\n        /* \"#utility.yul\":1947:2000   */\n      tag_291\n        /* \"#utility.yul\":1992:1999   */\n      dup7\n        /* \"#utility.yul\":1983:1989   */\n      dup3\n        /* \"#utility.yul\":1972:1981   */\n      dup8\n        /* \"#utility.yul\":1968:1990   */\n      add\n        /* \"#utility.yul\":1947:2000   */\n      tag_268\n      jump\t// in\n    tag_291:\n        /* \"#utility.yul\":1937:2000   */\n      swap2\n      pop\n        /* \"#utility.yul\":1892:2010   */\n      pop\n        /* \"#utility.yul\":1398:2017   */\n      swap3\n      pop\n      swap3\n      pop\n      swap3\n      jump\t// out\n        /* \"#utility.yul\":2023:3222   */\n    tag_77:\n        /* \"#utility.yul\":2134:2140   */\n      0x00\n        /* \"#utility.yul\":2142:2148   */\n      dup1\n        /* \"#utility.yul\":2150:2156   */\n      0x00\n        /* \"#utility.yul\":2158:2164   */\n      dup1\n        /* \"#utility.yul\":2166:2172   */\n      0x00\n        /* \"#utility.yul\":2174:2180   */\n      dup1\n        /* \"#utility.yul\":2182:2188   */\n      0x00\n        /* \"#utility.yul\":2231:2234   */\n      0xe0\n        /* \"#utility.yul\":2219:2228   */\n      dup9\n        /* \"#utility.yul\":2210:2217   */\n      dup11\n        /* \"#utility.yul\":2206:2229   */\n      sub\n        /* \"#utility.yul\":2202:2235   */\n      slt\n        /* \"#utility.yul\":2199:2319   */\n      iszero\n      tag_293\n      jumpi\n        /* \"#utility.yul\":2238:2317   */\n      tag_294\n      tag_279\n      jump\t// in\n    tag_294:\n        /* \"#utility.yul\":2199:2319   */\n    tag_293:\n        /* \"#utility.yul\":2358:2359   */\n      0x00\n        /* \"#utility.yul\":2383:2436   */\n      tag_295\n        /* \"#utility.yul\":2428:2435   */\n      dup11\n        /* \"#utility.yul\":2419:2425   */\n      dup3\n        /* \"#utility.yul\":2408:2417   */\n      dup12\n        /* \"#utility.yul\":2404:2426   */\n      add\n        /* \"#utility.yul\":2383:2436   */\n      tag_260\n      jump\t// in\n    tag_295:\n        /* \"#utility.yul\":2373:2436   */\n      swap8\n      pop\n        /* \"#utility.yul\":2329:2446   */\n      pop\n        /* \"#utility.yul\":2485:2487   */\n      0x20\n        /* \"#utility.yul\":2511:2564   */\n      tag_296\n        /* \"#utility.yul\":2556:2563   */\n      dup11\n        /* \"#utility.yul\":2547:2553   */\n      dup3\n        /* \"#utility.yul\":2536:2545   */\n      dup12\n        /* \"#utility.yul\":2532:2554   */\n      add\n        /* \"#utility.yul\":2511:2564   */\n      tag_260\n      jump\t// in\n    tag_296:\n        /* \"#utility.yul\":2501:2564   */\n      swap7\n      pop\n        /* \"#utility.yul\":2456:2574   */\n      pop\n        /* \"#utility.yul\":2613:2615   */\n      0x40\n        /* \"#utility.yul\":2639:2692   */\n      tag_297\n        /* \"#utility.yul\":2684:2691   */\n      dup11\n        /* \"#utility.yul\":2675:2681   */\n      dup3\n        /* \"#utility.yul\":2664:2673   */\n      dup12\n        /* \"#utility.yul\":2660:2682   */\n      add\n        /* \"#utility.yul\":2639:2692   */\n      tag_268\n      jump\t// in\n    tag_297:\n        /* \"#utility.yul\":2629:2692   */\n      swap6\n      pop\n        /* \"#utility.yul\":2584:2702   */\n      pop\n        /* \"#utility.yul\":2741:2743   */\n      0x60\n        /* \"#utility.yul\":2767:2820   */\n      tag_298\n        /* \"#utility.yul\":2812:2819   */\n      dup11\n        /* \"#utility.yul\":2803:2809   */\n      dup3\n        /* \"#utility.yul\":2792:2801   */\n      dup12\n        /* \"#utility.yul\":2788:2810   */\n      add\n        /* \"#utility.yul\":2767:2820   */\n      tag_268\n      jump\t// in\n    tag_298:\n        /* \"#utility.yul\":2757:2820   */\n      swap5\n      pop\n        /* \"#utility.yul\":2712:2830   */\n      pop\n        /* \"#utility.yul\":2869:2872   */\n      0x80\n        /* \"#utility.yul\":2896:2947   */\n      tag_299\n        /* \"#utility.yul\":2939:2946   */\n      dup11\n        /* \"#utility.yul\":2930:2936   */\n      dup3\n        /* \"#utility.yul\":2919:2928   */\n      dup12\n        /* \"#utility.yul\":2915:2937   */\n      add\n        /* \"#utility.yul\":2896:2947   */\n      tag_272\n      jump\t// in\n    tag_299:\n        /* \"#utility.yul\":2886:2947   */\n      swap4\n      pop\n        /* \"#utility.yul\":2840:2957   */\n      pop\n        /* \"#utility.yul\":2996:2999   */\n      0xa0\n        /* \"#utility.yul\":3023:3076   */\n      tag_300\n        /* \"#utility.yul\":3068:3075   */\n      dup11\n        /* \"#utility.yul\":3059:3065   */\n      dup3\n        /* \"#utility.yul\":3048:3057   */\n      dup12\n        /* \"#utility.yul\":3044:3066   */\n      add\n        /* \"#utility.yul\":3023:3076   */\n      tag_264\n      jump\t// in\n    tag_300:\n        /* \"#utility.yul\":3013:3076   */\n      swap3\n      pop\n        /* \"#utility.yul\":2967:3086   */\n      pop\n        /* \"#utility.yul\":3125:3128   */\n      0xc0\n        /* \"#utility.yul\":3152:3205   */\n      tag_301\n        /* \"#utility.yul\":3197:3204   */\n      dup11\n        /* \"#utility.yul\":3188:3194   */\n      dup3\n        /* \"#utility.yul\":3177:3186   */\n      dup12\n        /* \"#utility.yul\":3173:3195   */\n      add\n        /* \"#utility.yul\":3152:3205   */\n      tag_264\n      jump\t// in\n    tag_301:\n        /* \"#utility.yul\":3142:3205   */\n      swap2\n      pop\n        /* \"#utility.yul\":3096:3215   */\n      pop\n        /* \"#utility.yul\":2023:3222   */\n      swap3\n      swap6\n      swap9\n      swap2\n      swap5\n      swap8\n      pop\n      swap3\n      swap6\n      pop\n      jump\t// out\n        /* \"#utility.yul\":3228:3702   */\n    tag_27:\n        /* \"#utility.yul\":3296:3302   */\n      0x00\n        /* \"#utility.yul\":3304:3310   */\n      dup1\n        /* \"#utility.yul\":3353:3355   */\n      0x40\n        /* \"#utility.yul\":3341:3350   */\n      dup4\n        /* \"#utility.yul\":3332:3339   */\n      dup6\n        /* \"#utility.yul\":3328:3351   */\n      sub\n        /* \"#utility.yul\":3324:3356   */\n      slt\n        /* \"#utility.yul\":3321:3440   */\n      iszero\n      tag_303\n      jumpi\n        /* \"#utility.yul\":3359:3438   */\n      tag_304\n      tag_279\n      jump\t// in\n    tag_304:\n        /* \"#utility.yul\":3321:3440   */\n    tag_303:\n        /* \"#utility.yul\":3479:3480   */\n      0x00\n        /* \"#utility.yul\":3504:3557   */\n      tag_305\n        /* \"#utility.yul\":3549:3556   */\n      dup6\n        /* \"#utility.yul\":3540:3546   */\n      dup3\n        /* \"#utility.yul\":3529:3538   */\n      dup7\n        /* \"#utility.yul\":3525:3547   */\n      add\n        /* \"#utility.yul\":3504:3557   */\n      tag_260\n      jump\t// in\n    tag_305:\n        /* \"#utility.yul\":3494:3557   */\n      swap3\n      pop\n        /* \"#utility.yul\":3450:3567   */\n      pop\n        /* \"#utility.yul\":3606:3608   */\n      0x20\n        /* \"#utility.yul\":3632:3685   */\n      tag_306\n        /* \"#utility.yul\":3677:3684   */\n      dup6\n        /* \"#utility.yul\":3668:3674   */\n      dup3\n        /* \"#utility.yul\":3657:3666   */\n      dup7\n        /* \"#utility.yul\":3653:3675   */\n      add\n        /* \"#utility.yul\":3632:3685   */\n      tag_268\n      jump\t// in\n    tag_306:\n        /* \"#utility.yul\":3622:3685   */\n      swap2\n      pop\n        /* \"#utility.yul\":3577:3695   */\n      pop\n        /* \"#utility.yul\":3228:3702   */\n      swap3\n      pop\n      swap3\n      swap1\n      pop\n      jump\t// out\n        /* \"#utility.yul\":3708:3826   */\n    tag_307:\n        /* \"#utility.yul\":3795:3819   */\n      tag_309\n        /* \"#utility.yul\":3813:3818   */\n      dup2\n        /* \"#utility.yul\":3795:3819   */\n      tag_310\n      jump\t// in\n    tag_309:\n        /* \"#utility.yul\":3790:3793   */\n      dup3\n        /* \"#utility.yul\":3783:3820   */\n      mstore\n        /* \"#utility.yul\":3708:3826   */\n      pop\n      pop\n      jump\t// out\n        /* \"#utility.yul\":3832:3941   */\n    tag_311:\n        /* \"#utility.yul\":3913:3934   */\n      tag_313\n        /* \"#utility.yul\":3928:3933   */\n      dup2\n        /* \"#utility.yul\":3913:3934   */\n      tag_314\n      jump\t// in\n    tag_313:\n        /* \"#utility.yul\":3908:3911   */\n      dup3\n        /* \"#utility.yul\":3901:3935   */\n      mstore\n        /* \"#utility.yul\":3832:3941   */\n      pop\n      pop\n      jump\t// out\n        /* \"#utility.yul\":3947:4065   */\n    tag_315:\n        /* \"#utility.yul\":4034:4058   */\n      tag_317\n        /* \"#utility.yul\":4052:4057   */\n      dup2\n        /* \"#utility.yul\":4034:4058   */\n      tag_318\n      jump\t// in\n    tag_317:\n        /* \"#utility.yul\":4029:4032   */\n      dup3\n        /* \"#utility.yul\":4022:4059   */\n      mstore\n        /* \"#utility.yul\":3947:4065   */\n      pop\n      pop\n      jump\t// out\n        /* \"#utility.yul\":4071:4228   */\n    tag_319:\n        /* \"#utility.yul\":4176:4221   */\n      tag_321\n        /* \"#utility.yul\":4196:4220   */\n      tag_322\n        /* \"#utility.yul\":4214:4219   */\n      dup3\n        /* \"#utility.yul\":4196:4220   */\n      tag_318\n      jump\t// in\n    tag_322:\n        /* \"#utility.yul\":4176:4221   */\n      tag_323\n      jump\t// in\n    tag_321:\n        /* \"#utility.yul\":4171:4174   */\n      dup3\n        /* \"#utility.yul\":4164:4222   */\n      mstore\n        /* \"#utility.yul\":4071:4228   */\n      pop\n      pop\n      jump\t// out\n        /* \"#utility.yul\":4234:4598   */\n    tag_324:\n        /* \"#utility.yul\":4322:4325   */\n      0x00\n        /* \"#utility.yul\":4350:4389   */\n      tag_326\n        /* \"#utility.yul\":4383:4388   */\n      dup3\n        /* \"#utility.yul\":4350:4389   */\n      tag_327\n      jump\t// in\n    tag_326:\n        /* \"#utility.yul\":4405:4476   */\n      tag_328\n        /* \"#utility.yul\":4469:4475   */\n      dup2\n        /* \"#utility.yul\":4464:4467   */\n      dup6\n        /* \"#utility.yul\":4405:4476   */\n      tag_329\n      jump\t// in\n    tag_328:\n        /* \"#utility.yul\":4398:4476   */\n      swap4\n      pop\n        /* \"#utility.yul\":4485:4537   */\n      tag_330\n        /* \"#utility.yul\":4530:4536   */\n      dup2\n        /* \"#utility.yul\":4525:4528   */\n      dup6\n        /* \"#utility.yul\":4518:4522   */\n      0x20\n        /* \"#utility.yul\":4511:4516   */\n      dup7\n        /* \"#utility.yul\":4507:4523   */\n      add\n        /* \"#utility.yul\":4485:4537   */\n      tag_331\n      jump\t// in\n    tag_330:\n        /* \"#utility.yul\":4562:4591   */\n      tag_332\n        /* \"#utility.yul\":4584:4590   */\n      dup2\n        /* \"#utility.yul\":4562:4591   */\n      tag_333\n      jump\t// in\n    tag_332:\n        /* \"#utility.yul\":4557:4560   */\n      dup5\n        /* \"#utility.yul\":4553:4592   */\n      add\n        /* \"#utility.yul\":4546:4592   */\n      swap2\n      pop\n        /* \"#utility.yul\":4326:4598   */\n      pop\n        /* \"#utility.yul\":4234:4598   */\n      swap3\n      swap2\n      pop\n      pop\n      jump\t// out\n        /* \"#utility.yul\":4604:4970   */\n    tag_334:\n        /* \"#utility.yul\":4746:4749   */\n      0x00\n        /* \"#utility.yul\":4767:4834   */\n      tag_336\n        /* \"#utility.yul\":4831:4833   */\n      0x18\n        /* \"#utility.yul\":4826:4829   */\n      dup4\n        /* \"#utility.yul\":4767:4834   */\n      tag_329\n      jump\t// in\n    tag_336:\n        /* \"#utility.yul\":4760:4834   */\n      swap2\n      pop\n        /* \"#utility.yul\":4843:4936   */\n      tag_337\n        /* \"#utility.yul\":4932:4935   */\n      dup3\n        /* \"#utility.yul\":4843:4936   */\n      tag_338\n      jump\t// in\n    tag_337:\n        /* \"#utility.yul\":4961:4963   */\n      0x20\n        /* \"#utility.yul\":4956:4959   */\n      dup3\n        /* \"#utility.yul\":4952:4964   */\n      add\n        /* \"#utility.yul\":4945:4964   */\n      swap1\n      pop\n        /* \"#utility.yul\":4604:4970   */\n      swap2\n      swap1\n      pop\n      jump\t// out\n        /* \"#utility.yul\":4976:5342   */\n    tag_339:\n        /* \"#utility.yul\":5118:5121   */\n      0x00\n        /* \"#utility.yul\":5139:5206   */\n      tag_341\n        /* \"#utility.yul\":5203:5205   */\n      0x23\n        /* \"#utility.yul\":5198:5201   */\n      dup4\n        /* \"#utility.yul\":5139:5206   */\n      tag_329\n      jump\t// in\n    tag_341:\n        /* \"#utility.yul\":5132:5206   */\n      swap2\n      pop\n        /* \"#utility.yul\":5215:5308   */\n      tag_342\n        /* \"#utility.yul\":5304:5307   */\n      dup3\n        /* \"#utility.yul\":5215:5308   */\n      tag_343\n      jump\t// in\n    tag_342:\n        /* \"#utility.yul\":5333:5335   */\n      0x40\n        /* \"#utility.yul\":5328:5331   */\n      dup3\n        /* \"#utility.yul\":5324:5336   */\n      add\n        /* \"#utility.yul\":5317:5336   */\n      swap1\n      pop\n        /* \"#utility.yul\":4976:5342   */\n      swap2\n      swap1\n      pop\n      jump\t// out\n        /* \"#utility.yul\":5348:5714   */\n    tag_344:\n        /* \"#utility.yul\":5490:5493   */\n      0x00\n        /* \"#utility.yul\":5511:5578   */\n      tag_346\n        /* \"#utility.yul\":5575:5577   */\n      0x1f\n        /* \"#utility.yul\":5570:5573   */\n      dup4\n        /* \"#utility.yul\":5511:5578   */\n      tag_329\n      jump\t// in\n    tag_346:\n        /* \"#utility.yul\":5504:5578   */\n      swap2\n      pop\n        /* \"#utility.yul\":5587:5680   */\n      tag_347\n        /* \"#utility.yul\":5676:5679   */\n      dup3\n        /* \"#utility.yul\":5587:5680   */\n      tag_348\n      jump\t// in\n    tag_347:\n        /* \"#utility.yul\":5705:5707   */\n      0x20\n        /* \"#utility.yul\":5700:5703   */\n      dup3\n        /* \"#utility.yul\":5696:5708   */\n      add\n        /* \"#utility.yul\":5689:5708   */\n      swap1\n      pop\n        /* \"#utility.yul\":5348:5714   */\n      swap2\n      swap1\n      pop\n      jump\t// out\n        /* \"#utility.yul\":5720:6086   */\n    tag_349:\n        /* \"#utility.yul\":5862:5865   */\n      0x00\n        /* \"#utility.yul\":5883:5950   */\n      tag_351\n        /* \"#utility.yul\":5947:5949   */\n      0x22\n        /* \"#utility.yul\":5942:5945   */\n      dup4\n        /* \"#utility.yul\":5883:5950   */\n      tag_329\n      jump\t// in\n    tag_351:\n        /* \"#utility.yul\":5876:5950   */\n      swap2\n      pop\n        /* \"#utility.yul\":5959:6052   */\n      tag_352\n        /* \"#utility.yul\":6048:6051   */\n      dup3\n        /* \"#utility.yul\":5959:6052   */\n      tag_353\n      jump\t// in\n    tag_352:\n        /* \"#utility.yul\":6077:6079   */\n      0x40\n        /* \"#utility.yul\":6072:6075   */\n      dup3\n        /* \"#utility.yul\":6068:6080   */\n      add\n        /* \"#utility.yul\":6061:6080   */\n      swap1\n      pop\n        /* \"#utility.yul\":5720:6086   */\n      swap2\n      swap1\n      pop\n      jump\t// out\n        /* \"#utility.yul\":6092:6492   */\n    tag_354:\n        /* \"#utility.yul\":6252:6255   */\n      0x00\n        /* \"#utility.yul\":6273:6357   */\n      tag_356\n        /* \"#utility.yul\":6355:6356   */\n      0x02\n        /* \"#utility.yul\":6350:6353   */\n      dup4\n        /* \"#utility.yul\":6273:6357   */\n      tag_357\n      jump\t// in\n    tag_356:\n        /* \"#utility.yul\":6266:6357   */\n      swap2\n      pop\n        /* \"#utility.yul\":6366:6459   */\n      tag_358\n        /* \"#utility.yul\":6455:6458   */\n      dup3\n        /* \"#utility.yul\":6366:6459   */\n      tag_359\n      jump\t// in\n    tag_358:\n        /* \"#utility.yul\":6484:6485   */\n      0x02\n        /* \"#utility.yul\":6479:6482   */\n      dup3\n        /* \"#utility.yul\":6475:6486   */\n      add\n        /* \"#utility.yul\":6468:6486   */\n      swap1\n      pop\n        /* \"#utility.yul\":6092:6492   */\n      swap2\n      swap1\n      pop\n      jump\t// out\n        /* \"#utility.yul\":6498:6864   */\n    tag_360:\n        /* \"#utility.yul\":6640:6643   */\n      0x00\n        /* \"#utility.yul\":6661:6728   */\n      tag_362\n        /* \"#utility.yul\":6725:6727   */\n      0x1d\n        /* \"#utility.yul\":6720:6723   */\n      dup4\n        /* \"#utility.yul\":6661:6728   */\n      tag_329\n      jump\t// in\n    tag_362:\n        /* \"#utility.yul\":6654:6728   */\n      swap2\n      pop\n        /* \"#utility.yul\":6737:6830   */\n      tag_363\n        /* \"#utility.yul\":6826:6829   */\n      dup3\n        /* \"#utility.yul\":6737:6830   */\n      tag_364\n      jump\t// in\n    tag_363:\n        /* \"#utility.yul\":6855:6857   */\n      0x20\n        /* \"#utility.yul\":6850:6853   */\n      dup3\n        /* \"#utility.yul\":6846:6858   */\n      add\n        /* \"#utility.yul\":6839:6858   */\n      swap1\n      pop\n        /* \"#utility.yul\":6498:6864   */\n      swap2\n      swap1\n      pop\n      jump\t// out\n        /* \"#utility.yul\":6870:7236   */\n    tag_365:\n        /* \"#utility.yul\":7012:7015   */\n      0x00\n        /* \"#utility.yul\":7033:7100   */\n      tag_367\n        /* \"#utility.yul\":7097:7099   */\n      0x1d\n        /* \"#utility.yul\":7092:7095   */\n      dup4\n        /* \"#utility.yul\":7033:7100   */\n      tag_329\n      jump\t// in\n    tag_367:\n        /* \"#utility.yul\":7026:7100   */\n      swap2\n      pop\n        /* \"#utility.yul\":7109:7202   */\n      tag_368\n        /* \"#utility.yul\":7198:7201   */\n      dup3\n        /* \"#utility.yul\":7109:7202   */\n      tag_369\n      jump\t// in\n    tag_368:\n        /* \"#utility.yul\":7227:7229   */\n      0x20\n        /* \"#utility.yul\":7222:7225   */\n      dup3\n        /* \"#utility.yul\":7218:7230   */\n      add\n        /* \"#utility.yul\":7211:7230   */\n      swap1\n      pop\n        /* \"#utility.yul\":6870:7236   */\n      swap2\n      swap1\n      pop\n      jump\t// out\n        /* \"#utility.yul\":7242:7608   */\n    tag_370:\n        /* \"#utility.yul\":7384:7387   */\n      0x00\n        /* \"#utility.yul\":7405:7472   */\n      tag_372\n        /* \"#utility.yul\":7469:7471   */\n      0x26\n        /* \"#utility.yul\":7464:7467   */\n      dup4\n        /* \"#utility.yul\":7405:7472   */\n      tag_329\n      jump\t// in\n    tag_372:\n        /* \"#utility.yul\":7398:7472   */\n      swap2\n      pop\n        /* \"#utility.yul\":7481:7574   */\n      tag_373\n        /* \"#utility.yul\":7570:7573   */\n      dup3\n        /* \"#utility.yul\":7481:7574   */\n      tag_374\n      jump\t// in\n    tag_373:\n        /* \"#utility.yul\":7599:7601   */\n      0x40\n        /* \"#utility.yul\":7594:7597   */\n      dup3\n        /* \"#utility.yul\":7590:7602   */\n      add\n        /* \"#utility.yul\":7583:7602   */\n      swap1\n      pop\n        /* \"#utility.yul\":7242:7608   */\n      swap2\n      swap1\n      pop\n      jump\t// out\n        /* \"#utility.yul\":7614:7980   */\n    tag_375:\n        /* \"#utility.yul\":7756:7759   */\n      0x00\n        /* \"#utility.yul\":7777:7844   */\n      tag_377\n        /* \"#utility.yul\":7841:7843   */\n      0x22\n        /* \"#utility.yul\":7836:7839   */\n      dup4\n        /* \"#utility.yul\":7777:7844   */\n      tag_329\n      jump\t// in\n    tag_377:\n        /* \"#utility.yul\":7770:7844   */\n      swap2\n      pop\n        /* \"#utility.yul\":7853:7946   */\n      tag_378\n        /* \"#utility.yul\":7942:7945   */\n      dup3\n        /* \"#utility.yul\":7853:7946   */\n      tag_379\n      jump\t// in\n    tag_378:\n        /* \"#utility.yul\":7971:7973   */\n      0x40\n        /* \"#utility.yul\":7966:7969   */\n      dup3\n        /* \"#utility.yul\":7962:7974   */\n      add\n        /* \"#utility.yul\":7955:7974   */\n      swap1\n      pop\n        /* \"#utility.yul\":7614:7980   */\n      swap2\n      swap1\n      pop\n      jump\t// out\n        /* \"#utility.yul\":7986:8352   */\n    tag_380:\n        /* \"#utility.yul\":8128:8131   */\n      0x00\n        /* \"#utility.yul\":8149:8216   */\n      tag_382\n        /* \"#utility.yul\":8213:8215   */\n      0x1e\n        /* \"#utility.yul\":8208:8211   */\n      dup4\n        /* \"#utility.yul\":8149:8216   */\n      tag_329\n      jump\t// in\n    tag_382:\n        /* \"#utility.yul\":8142:8216   */\n      swap2\n      pop\n        /* \"#utility.yul\":8225:8318   */\n      tag_383\n        /* \"#utility.yul\":8314:8317   */\n      dup3\n        /* \"#utility.yul\":8225:8318   */\n      tag_384\n      jump\t// in\n    tag_383:\n        /* \"#utility.yul\":8343:8345   */\n      0x20\n        /* \"#utility.yul\":8338:8341   */\n      dup3\n        /* \"#utility.yul\":8334:8346   */\n      add\n        /* \"#utility.yul\":8327:8346   */\n      swap1\n      pop\n        /* \"#utility.yul\":7986:8352   */\n      swap2\n      swap1\n      pop\n      jump\t// out\n        /* \"#utility.yul\":8358:8724   */\n    tag_385:\n        /* \"#utility.yul\":8500:8503   */\n      0x00\n        /* \"#utility.yul\":8521:8588   */\n      tag_387\n        /* \"#utility.yul\":8585:8587   */\n      0x25\n        /* \"#utility.yul\":8580:8583   */\n      dup4\n        /* \"#utility.yul\":8521:8588   */\n      tag_329\n      jump\t// in\n    tag_387:\n        /* \"#utility.yul\":8514:8588   */\n      swap2\n      pop\n        /* \"#utility.yul\":8597:8690   */\n      tag_388\n        /* \"#utility.yul\":8686:8689   */\n      dup3\n        /* \"#utility.yul\":8597:8690   */\n      tag_389\n      jump\t// in\n    tag_388:\n        /* \"#utility.yul\":8715:8717   */\n      0x40\n        /* \"#utility.yul\":8710:8713   */\n      dup3\n        /* \"#utility.yul\":8706:8718   */\n      add\n        /* \"#utility.yul\":8699:8718   */\n      swap1\n      pop\n        /* \"#utility.yul\":8358:8724   */\n      swap2\n      swap1\n      pop\n      jump\t// out\n        /* \"#utility.yul\":8730:9096   */\n    tag_390:\n        /* \"#utility.yul\":8872:8875   */\n      0x00\n        /* \"#utility.yul\":8893:8960   */\n      tag_392\n        /* \"#utility.yul\":8957:8959   */\n      0x24\n        /* \"#utility.yul\":8952:8955   */\n      dup4\n        /* \"#utility.yul\":8893:8960   */\n      tag_329\n      jump\t// in\n    tag_392:\n        /* \"#utility.yul\":8886:8960   */\n      swap2\n      pop\n        /* \"#utility.yul\":8969:9062   */\n      tag_393\n        /* \"#utility.yul\":9058:9061   */\n      dup3\n        /* \"#utility.yul\":8969:9062   */\n      tag_394\n      jump\t// in\n    tag_393:\n        /* \"#utility.yul\":9087:9089   */\n      0x40\n        /* \"#utility.yul\":9082:9085   */\n      dup3\n        /* \"#utility.yul\":9078:9090   */\n      add\n        /* \"#utility.yul\":9071:9090   */\n      swap1\n      pop\n        /* \"#utility.yul\":8730:9096   */\n      swap2\n      swap1\n      pop\n      jump\t// out\n        /* \"#utility.yul\":9102:9468   */\n    tag_395:\n        /* \"#utility.yul\":9244:9247   */\n      0x00\n        /* \"#utility.yul\":9265:9332   */\n      tag_397\n        /* \"#utility.yul\":9329:9331   */\n      0x25\n        /* \"#utility.yul\":9324:9327   */\n      dup4\n        /* \"#utility.yul\":9265:9332   */\n      tag_329\n      jump\t// in\n    tag_397:\n        /* \"#utility.yul\":9258:9332   */\n      swap2\n      pop\n        /* \"#utility.yul\":9341:9434   */\n      tag_398\n        /* \"#utility.yul\":9430:9433   */\n      dup3\n        /* \"#utility.yul\":9341:9434   */\n      tag_399\n      jump\t// in\n    tag_398:\n        /* \"#utility.yul\":9459:9461   */\n      0x40\n        /* \"#utility.yul\":9454:9457   */\n      dup3\n        /* \"#utility.yul\":9450:9462   */\n      add\n        /* \"#utility.yul\":9443:9462   */\n      swap1\n      pop\n        /* \"#utility.yul\":9102:9468   */\n      swap2\n      swap1\n      pop\n      jump\t// out\n        /* \"#utility.yul\":9474:9840   */\n    tag_400:\n        /* \"#utility.yul\":9616:9619   */\n      0x00\n        /* \"#utility.yul\":9637:9704   */\n      tag_402\n        /* \"#utility.yul\":9701:9703   */\n      0x1f\n        /* \"#utility.yul\":9696:9699   */\n      dup4\n        /* \"#utility.yul\":9637:9704   */\n      tag_329\n      jump\t// in\n    tag_402:\n        /* \"#utility.yul\":9630:9704   */\n      swap2\n      pop\n        /* \"#utility.yul\":9713:9806   */\n      tag_403\n        /* \"#utility.yul\":9802:9805   */\n      dup3\n        /* \"#utility.yul\":9713:9806   */\n      tag_404\n      jump\t// in\n    tag_403:\n        /* \"#utility.yul\":9831:9833   */\n      0x20\n        /* \"#utility.yul\":9826:9829   */\n      dup3\n        /* \"#utility.yul\":9822:9834   */\n      add\n        /* \"#utility.yul\":9815:9834   */\n      swap1\n      pop\n        /* \"#utility.yul\":9474:9840   */\n      swap2\n      swap1\n      pop\n      jump\t// out\n        /* \"#utility.yul\":9846:9964   */\n    tag_405:\n        /* \"#utility.yul\":9933:9957   */\n      tag_407\n        /* \"#utility.yul\":9951:9956   */\n      dup2\n        /* \"#utility.yul\":9933:9957   */\n      tag_408\n      jump\t// in\n    tag_407:\n        /* \"#utility.yul\":9928:9931   */\n      dup3\n        /* \"#utility.yul\":9921:9958   */\n      mstore\n        /* \"#utility.yul\":9846:9964   */\n      pop\n      pop\n      jump\t// out\n        /* \"#utility.yul\":9970:10082   */\n    tag_409:\n        /* \"#utility.yul\":10053:10075   */\n      tag_411\n        /* \"#utility.yul\":10069:10074   */\n      dup2\n        /* \"#utility.yul\":10053:10075   */\n      tag_412\n      jump\t// in\n    tag_411:\n        /* \"#utility.yul\":10048:10051   */\n      dup3\n        /* \"#utility.yul\":10041:10076   */\n      mstore\n        /* \"#utility.yul\":9970:10082   */\n      pop\n      pop\n      jump\t// out\n        /* \"#utility.yul\":10088:10751   */\n    tag_220:\n        /* \"#utility.yul\":10329:10332   */\n      0x00\n        /* \"#utility.yul\":10351:10499   */\n      tag_414\n        /* \"#utility.yul\":10495:10498   */\n      dup3\n        /* \"#utility.yul\":10351:10499   */\n      tag_354\n      jump\t// in\n    tag_414:\n        /* \"#utility.yul\":10344:10499   */\n      swap2\n      pop\n        /* \"#utility.yul\":10509:10584   */\n      tag_415\n        /* \"#utility.yul\":10580:10583   */\n      dup3\n        /* \"#utility.yul\":10571:10577   */\n      dup6\n        /* \"#utility.yul\":10509:10584   */\n      tag_319\n      jump\t// in\n    tag_415:\n        /* \"#utility.yul\":10609:10611   */\n      0x20\n        /* \"#utility.yul\":10604:10607   */\n      dup3\n        /* \"#utility.yul\":10600:10612   */\n      add\n        /* \"#utility.yul\":10593:10612   */\n      swap2\n      pop\n        /* \"#utility.yul\":10622:10697   */\n      tag_416\n        /* \"#utility.yul\":10693:10696   */\n      dup3\n        /* \"#utility.yul\":10684:10690   */\n      dup5\n        /* \"#utility.yul\":10622:10697   */\n      tag_319\n      jump\t// in\n    tag_416:\n        /* \"#utility.yul\":10722:10724   */\n      0x20\n        /* \"#utility.yul\":10717:10720   */\n      dup3\n        /* \"#utility.yul\":10713:10725   */\n      add\n        /* \"#utility.yul\":10706:10725   */\n      swap2\n      pop\n        /* \"#utility.yul\":10742:10745   */\n      dup2\n        /* \"#utility.yul\":10735:10745   */\n      swap1\n      pop\n        /* \"#utility.yul\":10088:10751   */\n      swap4\n      swap3\n      pop\n      pop\n      pop\n      jump\t// out\n        /* \"#utility.yul\":10757:10967   */\n    tag_30:\n        /* \"#utility.yul\":10844:10848   */\n      0x00\n        /* \"#utility.yul\":10882:10884   */\n      0x20\n        /* \"#utility.yul\":10871:10880   */\n      dup3\n        /* \"#utility.yul\":10867:10885   */\n      add\n        /* \"#utility.yul\":10859:10885   */\n      swap1\n      pop\n        /* \"#utility.yul\":10895:10960   */\n      tag_418\n        /* \"#utility.yul\":10957:10958   */\n      0x00\n        /* \"#utility.yul\":10946:10955   */\n      dup4\n        /* \"#utility.yul\":10942:10959   */\n      add\n        /* \"#utility.yul\":10933:10939   */\n      dup5\n        /* \"#utility.yul\":10895:10960   */\n      tag_311\n      jump\t// in\n    tag_418:\n        /* \"#utility.yul\":10757:10967   */\n      swap3\n      swap2\n      pop\n      pop\n      jump\t// out\n        /* \"#utility.yul\":10973:11195   */\n    tag_47:\n        /* \"#utility.yul\":11066:11070   */\n      0x00\n        /* \"#utility.yul\":11104:11106   */\n      0x20\n        /* \"#utility.yul\":11093:11102   */\n      dup3\n        /* \"#utility.yul\":11089:11107   */\n      add\n        /* \"#utility.yul\":11081:11107   */\n      swap1\n      pop\n        /* \"#utility.yul\":11117:11188   */\n      tag_420\n        /* \"#utility.yul\":11185:11186   */\n      0x00\n        /* \"#utility.yul\":11174:11183   */\n      dup4\n        /* \"#utility.yul\":11170:11187   */\n      add\n        /* \"#utility.yul\":11161:11167   */\n      dup5\n        /* \"#utility.yul\":11117:11188   */\n      tag_315\n      jump\t// in\n    tag_420:\n        /* \"#utility.yul\":10973:11195   */\n      swap3\n      swap2\n      pop\n      pop\n      jump\t// out\n        /* \"#utility.yul\":11201:11976   */\n    tag_143:\n        /* \"#utility.yul\":11434:11438   */\n      0x00\n        /* \"#utility.yul\":11472:11475   */\n      0xc0\n        /* \"#utility.yul\":11461:11470   */\n      dup3\n        /* \"#utility.yul\":11457:11476   */\n      add\n        /* \"#utility.yul\":11449:11476   */\n      swap1\n      pop\n        /* \"#utility.yul\":11486:11557   */\n      tag_422\n        /* \"#utility.yul\":11554:11555   */\n      0x00\n        /* \"#utility.yul\":11543:11552   */\n      dup4\n        /* \"#utility.yul\":11539:11556   */\n      add\n        /* \"#utility.yul\":11530:11536   */\n      dup10\n        /* \"#utility.yul\":11486:11557   */\n      tag_315\n      jump\t// in\n    tag_422:\n        /* \"#utility.yul\":11567:11639   */\n      tag_423\n        /* \"#utility.yul\":11635:11637   */\n      0x20\n        /* \"#utility.yul\":11624:11633   */\n      dup4\n        /* \"#utility.yul\":11620:11638   */\n      add\n        /* \"#utility.yul\":11611:11617   */\n      dup9\n        /* \"#utility.yul\":11567:11639   */\n      tag_307\n      jump\t// in\n    tag_423:\n        /* \"#utility.yul\":11649:11721   */\n      tag_424\n        /* \"#utility.yul\":11717:11719   */\n      0x40\n        /* \"#utility.yul\":11706:11715   */\n      dup4\n        /* \"#utility.yul\":11702:11720   */\n      add\n        /* \"#utility.yul\":11693:11699   */\n      dup8\n        /* \"#utility.yul\":11649:11721   */\n      tag_307\n      jump\t// in\n    tag_424:\n        /* \"#utility.yul\":11731:11803   */\n      tag_425\n        /* \"#utility.yul\":11799:11801   */\n      0x60\n        /* \"#utility.yul\":11788:11797   */\n      dup4\n        /* \"#utility.yul\":11784:11802   */\n      add\n        /* \"#utility.yul\":11775:11781   */\n      dup7\n        /* \"#utility.yul\":11731:11803   */\n      tag_405\n      jump\t// in\n    tag_425:\n        /* \"#utility.yul\":11813:11886   */\n      tag_426\n        /* \"#utility.yul\":11881:11884   */\n      0x80\n        /* \"#utility.yul\":11870:11879   */\n      dup4\n        /* \"#utility.yul\":11866:11885   */\n      add\n        /* \"#utility.yul\":11857:11863   */\n      dup6\n        /* \"#utility.yul\":11813:11886   */\n      tag_405\n      jump\t// in\n    tag_426:\n        /* \"#utility.yul\":11896:11969   */\n      tag_427\n        /* \"#utility.yul\":11964:11967   */\n      0xa0\n        /* \"#utility.yul\":11953:11962   */\n      dup4\n        /* \"#utility.yul\":11949:11968   */\n      add\n        /* \"#utility.yul\":11940:11946   */\n      dup5\n        /* \"#utility.yul\":11896:11969   */\n      tag_405\n      jump\t// in\n    tag_427:\n        /* \"#utility.yul\":11201:11976   */\n      swap8\n      swap7\n      pop\n      pop\n      pop\n      pop\n      pop\n      pop\n      pop\n      jump\t// out\n        /* \"#utility.yul\":11982:12646   */\n    tag_216:\n        /* \"#utility.yul\":12187:12191   */\n      0x00\n        /* \"#utility.yul\":12225:12228   */\n      0xa0\n        /* \"#utility.yul\":12214:12223   */\n      dup3\n        /* \"#utility.yul\":12210:12229   */\n      add\n        /* \"#utility.yul\":12202:12229   */\n      swap1\n      pop\n        /* \"#utility.yul\":12239:12310   */\n      tag_429\n        /* \"#utility.yul\":12307:12308   */\n      0x00\n        /* \"#utility.yul\":12296:12305   */\n      dup4\n        /* \"#utility.yul\":12292:12309   */\n      add\n        /* \"#utility.yul\":12283:12289   */\n      dup9\n        /* \"#utility.yul\":12239:12310   */\n      tag_315\n      jump\t// in\n    tag_429:\n        /* \"#utility.yul\":12320:12392   */\n      tag_430\n        /* \"#utility.yul\":12388:12390   */\n      0x20\n        /* \"#utility.yul\":12377:12386   */\n      dup4\n        /* \"#utility.yul\":12373:12391   */\n      add\n        /* \"#utility.yul\":12364:12370   */\n      dup8\n        /* \"#utility.yul\":12320:12392   */\n      tag_315\n      jump\t// in\n    tag_430:\n        /* \"#utility.yul\":12402:12474   */\n      tag_431\n        /* \"#utility.yul\":12470:12472   */\n      0x40\n        /* \"#utility.yul\":12459:12468   */\n      dup4\n        /* \"#utility.yul\":12455:12473   */\n      add\n        /* \"#utility.yul\":12446:12452   */\n      dup7\n        /* \"#utility.yul\":12402:12474   */\n      tag_315\n      jump\t// in\n    tag_431:\n        /* \"#utility.yul\":12484:12556   */\n      tag_432\n        /* \"#utility.yul\":12552:12554   */\n      0x60\n        /* \"#utility.yul\":12541:12550   */\n      dup4\n        /* \"#utility.yul\":12537:12555   */\n      add\n        /* \"#utility.yul\":12528:12534   */\n      dup6\n        /* \"#utility.yul\":12484:12556   */\n      tag_405\n      jump\t// in\n    tag_432:\n        /* \"#utility.yul\":12566:12639   */\n      tag_433\n        /* \"#utility.yul\":12634:12637   */\n      0x80\n        /* \"#utility.yul\":12623:12632   */\n      dup4\n        /* \"#utility.yul\":12619:12638   */\n      add\n        /* \"#utility.yul\":12610:12616   */\n      dup5\n        /* \"#utility.yul\":12566:12639   */\n      tag_307\n      jump\t// in\n    tag_433:\n        /* \"#utility.yul\":11982:12646   */\n      swap7\n      swap6\n      pop\n      pop\n      pop\n      pop\n      pop\n      pop\n      jump\t// out\n        /* \"#utility.yul\":12652:13197   */\n    tag_224:\n        /* \"#utility.yul\":12825:12829   */\n      0x00\n        /* \"#utility.yul\":12863:12866   */\n      0x80\n        /* \"#utility.yul\":12852:12861   */\n      dup3\n        /* \"#utility.yul\":12848:12867   */\n      add\n        /* \"#utility.yul\":12840:12867   */\n      swap1\n      pop\n        /* \"#utility.yul\":12877:12948   */\n      tag_435\n        /* \"#utility.yul\":12945:12946   */\n      0x00\n        /* \"#utility.yul\":12934:12943   */\n      dup4\n        /* \"#utility.yul\":12930:12947   */\n      add\n        /* \"#utility.yul\":12921:12927   */\n      dup8\n        /* \"#utility.yul\":12877:12948   */\n      tag_315\n      jump\t// in\n    tag_435:\n        /* \"#utility.yul\":12958:13026   */\n      tag_436\n        /* \"#utility.yul\":13022:13024   */\n      0x20\n        /* \"#utility.yul\":13011:13020   */\n      dup4\n        /* \"#utility.yul\":13007:13025   */\n      add\n        /* \"#utility.yul\":12998:13004   */\n      dup7\n        /* \"#utility.yul\":12958:13026   */\n      tag_409\n      jump\t// in\n    tag_436:\n        /* \"#utility.yul\":13036:13108   */\n      tag_437\n        /* \"#utility.yul\":13104:13106   */\n      0x40\n        /* \"#utility.yul\":13093:13102   */\n      dup4\n        /* \"#utility.yul\":13089:13107   */\n      add\n        /* \"#utility.yul\":13080:13086   */\n      dup6\n        /* \"#utility.yul\":13036:13108   */\n      tag_315\n      jump\t// in\n    tag_437:\n        /* \"#utility.yul\":13118:13190   */\n      tag_438\n        /* \"#utility.yul\":13186:13188   */\n      0x60\n        /* \"#utility.yul\":13175:13184   */\n      dup4\n        /* \"#utility.yul\":13171:13189   */\n      add\n        /* \"#utility.yul\":13162:13168   */\n      dup5\n        /* \"#utility.yul\":13118:13190   */\n      tag_315\n      jump\t// in\n    tag_438:\n        /* \"#utility.yul\":12652:13197   */\n      swap6\n      swap5\n      pop\n      pop\n      pop\n      pop\n      pop\n      jump\t// out\n        /* \"#utility.yul\":13203:13516   */\n    tag_24:\n        /* \"#utility.yul\":13316:13320   */\n      0x00\n        /* \"#utility.yul\":13354:13356   */\n      0x20\n        /* \"#utility.yul\":13343:13352   */\n      dup3\n        /* \"#utility.yul\":13339:13357   */\n      add\n        /* \"#utility.yul\":13331:13357   */\n      swap1\n      pop\n        /* \"#utility.yul\":13403:13412   */\n      dup2\n        /* \"#utility.yul\":13397:13401   */\n      dup2\n        /* \"#utility.yul\":13393:13413   */\n      sub\n        /* \"#utility.yul\":13389:13390   */\n      0x00\n        /* \"#utility.yul\":13378:13387   */\n      dup4\n        /* \"#utility.yul\":13374:13391   */\n      add\n        /* \"#utility.yul\":13367:13414   */\n      mstore\n        /* \"#utility.yul\":13431:13509   */\n      tag_440\n        /* \"#utility.yul\":13504:13508   */\n      dup2\n        /* \"#utility.yul\":13495:13501   */\n      dup5\n        /* \"#utility.yul\":13431:13509   */\n      tag_324\n      jump\t// in\n    tag_440:\n        /* \"#utility.yul\":13423:13509   */\n      swap1\n      pop\n        /* \"#utility.yul\":13203:13516   */\n      swap3\n      swap2\n      pop\n      pop\n      jump\t// out\n        /* \"#utility.yul\":13522:13941   */\n    tag_242:\n        /* \"#utility.yul\":13688:13692   */\n      0x00\n        /* \"#utility.yul\":13726:13728   */\n      0x20\n        /* \"#utility.yul\":13715:13724   */\n      dup3\n        /* \"#utility.yul\":13711:13729   */\n      add\n        /* \"#utility.yul\":13703:13729   */\n      swap1\n      pop\n        /* \"#utility.yul\":13775:13784   */\n      dup2\n        /* \"#utility.yul\":13769:13773   */\n      dup2\n        /* \"#utility.yul\":13765:13785   */\n      sub\n        /* \"#utility.yul\":13761:13762   */\n      0x00\n        /* \"#utility.yul\":13750:13759   */\n      dup4\n        /* \"#utility.yul\":13746:13763   */\n      add\n        /* \"#utility.yul\":13739:13786   */\n      mstore\n        /* \"#utility.yul\":13803:13934   */\n      tag_442\n        /* \"#utility.yul\":13929:13933   */\n      dup2\n        /* \"#utility.yul\":13803:13934   */\n      tag_334\n      jump\t// in\n    tag_442:\n        /* \"#utility.yul\":13795:13934   */\n      swap1\n      pop\n        /* \"#utility.yul\":13522:13941   */\n      swap2\n      swap1\n      pop\n      jump\t// out\n        /* \"#utility.yul\":13947:14366   */\n    tag_175:\n        /* \"#utility.yul\":14113:14117   */\n      0x00\n        /* \"#utility.yul\":14151:14153   */\n      0x20\n        /* \"#utility.yul\":14140:14149   */\n      dup3\n        /* \"#utility.yul\":14136:14154   */\n      add\n        /* \"#utility.yul\":14128:14154   */\n      swap1\n      pop\n        /* \"#utility.yul\":14200:14209   */\n      dup2\n        /* \"#utility.yul\":14194:14198   */\n      dup2\n        /* \"#utility.yul\":14190:14210   */\n      sub\n        /* \"#utility.yul\":14186:14187   */\n      0x00\n        /* \"#utility.yul\":14175:14184   */\n      dup4\n        /* \"#utility.yul\":14171:14188   */\n      add\n        /* \"#utility.yul\":14164:14211   */\n      mstore\n        /* \"#utility.yul\":14228:14359   */\n      tag_444\n        /* \"#utility.yul\":14354:14358   */\n      dup2\n        /* \"#utility.yul\":14228:14359   */\n      tag_339\n      jump\t// in\n    tag_444:\n        /* \"#utility.yul\":14220:14359   */\n      swap1\n      pop\n        /* \"#utility.yul\":13947:14366   */\n      swap2\n      swap1\n      pop\n      jump\t// out\n        /* \"#utility.yul\":14372:14791   */\n    tag_250:\n        /* \"#utility.yul\":14538:14542   */\n      0x00\n        /* \"#utility.yul\":14576:14578   */\n      0x20\n        /* \"#utility.yul\":14565:14574   */\n      dup3\n        /* \"#utility.yul\":14561:14579   */\n      add\n        /* \"#utility.yul\":14553:14579   */\n      swap1\n      pop\n        /* \"#utility.yul\":14625:14634   */\n      dup2\n        /* \"#utility.yul\":14619:14623   */\n      dup2\n        /* \"#utility.yul\":14615:14635   */\n      sub\n        /* \"#utility.yul\":14611:14612   */\n      0x00\n        /* \"#utility.yul\":14600:14609   */\n      dup4\n        /* \"#utility.yul\":14596:14613   */\n      add\n        /* \"#utility.yul\":14589:14636   */\n      mstore\n        /* \"#utility.yul\":14653:14784   */\n      tag_446\n        /* \"#utility.yul\":14779:14783   */\n      dup2\n        /* \"#utility.yul\":14653:14784   */\n      tag_344\n      jump\t// in\n    tag_446:\n        /* \"#utility.yul\":14645:14784   */\n      swap1\n      pop\n        /* \"#utility.yul\":14372:14791   */\n      swap2\n      swap1\n      pop\n      jump\t// out\n        /* \"#utility.yul\":14797:15216   */\n    tag_160:\n        /* \"#utility.yul\":14963:14967   */\n      0x00\n        /* \"#utility.yul\":15001:15003   */\n      0x20\n        /* \"#utility.yul\":14990:14999   */\n      dup3\n        /* \"#utility.yul\":14986:15004   */\n      add\n        /* \"#utility.yul\":14978:15004   */\n      swap1\n      pop\n        /* \"#utility.yul\":15050:15059   */\n      dup2\n        /* \"#utility.yul\":15044:15048   */\n      dup2\n        /* \"#utility.yul\":15040:15060   */\n      sub\n        /* \"#utility.yul\":15036:15037   */\n      0x00\n        /* \"#utility.yul\":15025:15034   */\n      dup4\n        /* \"#utility.yul\":15021:15038   */\n      add\n        /* \"#utility.yul\":15014:15061   */\n      mstore\n        /* \"#utility.yul\":15078:15209   */\n      tag_448\n        /* \"#utility.yul\":15204:15208   */\n      dup2\n        /* \"#utility.yul\":15078:15209   */\n      tag_349\n      jump\t// in\n    tag_448:\n        /* \"#utility.yul\":15070:15209   */\n      swap1\n      pop\n        /* \"#utility.yul\":14797:15216   */\n      swap2\n      swap1\n      pop\n      jump\t// out\n        /* \"#utility.yul\":15222:15641   */\n    tag_167:\n        /* \"#utility.yul\":15388:15392   */\n      0x00\n        /* \"#utility.yul\":15426:15428   */\n      0x20\n        /* \"#utility.yul\":15415:15424   */\n      dup3\n        /* \"#utility.yul\":15411:15429   */\n      add\n        /* \"#utility.yul\":15403:15429   */\n      swap1\n      pop\n        /* \"#utility.yul\":15475:15484   */\n      dup2\n        /* \"#utility.yul\":15469:15473   */\n      dup2\n        /* \"#utility.yul\":15465:15485   */\n      sub\n        /* \"#utility.yul\":15461:15462   */\n      0x00\n        /* \"#utility.yul\":15450:15459   */\n      dup4\n        /* \"#utility.yul\":15446:15463   */\n      add\n        /* \"#utility.yul\":15439:15486   */\n      mstore\n        /* \"#utility.yul\":15503:15634   */\n      tag_450\n        /* \"#utility.yul\":15629:15633   */\n      dup2\n        /* \"#utility.yul\":15503:15634   */\n      tag_360\n      jump\t// in\n    tag_450:\n        /* \"#utility.yul\":15495:15634   */\n      swap1\n      pop\n        /* \"#utility.yul\":15222:15641   */\n      swap2\n      swap1\n      pop\n      jump\t// out\n        /* \"#utility.yul\":15647:16066   */\n    tag_139:\n        /* \"#utility.yul\":15813:15817   */\n      0x00\n        /* \"#utility.yul\":15851:15853   */\n      0x20\n        /* \"#utility.yul\":15840:15849   */\n      dup3\n        /* \"#utility.yul\":15836:15854   */\n      add\n        /* \"#utility.yul\":15828:15854   */\n      swap1\n      pop\n        /* \"#utility.yul\":15900:15909   */\n      dup2\n        /* \"#utility.yul\":15894:15898   */\n      dup2\n        /* \"#utility.yul\":15890:15910   */\n      sub\n        /* \"#utility.yul\":15886:15887   */\n      0x00\n        /* \"#utility.yul\":15875:15884   */\n      dup4\n        /* \"#utility.yul\":15871:15888   */\n      add\n        /* \"#utility.yul\":15864:15911   */\n      mstore\n        /* \"#utility.yul\":15928:16059   */\n      tag_452\n        /* \"#utility.yul\":16054:16058   */\n      dup2\n        /* \"#utility.yul\":15928:16059   */\n      tag_365\n      jump\t// in\n    tag_452:\n        /* \"#utility.yul\":15920:16059   */\n      swap1\n      pop\n        /* \"#utility.yul\":15647:16066   */\n      swap2\n      swap1\n      pop\n      jump\t// out\n        /* \"#utility.yul\":16072:16491   */\n    tag_180:\n        /* \"#utility.yul\":16238:16242   */\n      0x00\n        /* \"#utility.yul\":16276:16278   */\n      0x20\n        /* \"#utility.yul\":16265:16274   */\n      dup3\n        /* \"#utility.yul\":16261:16279   */\n      add\n        /* \"#utility.yul\":16253:16279   */\n      swap1\n      pop\n        /* \"#utility.yul\":16325:16334   */\n      dup2\n        /* \"#utility.yul\":16319:16323   */\n      dup2\n        /* \"#utility.yul\":16315:16335   */\n      sub\n        /* \"#utility.yul\":16311:16312   */\n      0x00\n        /* \"#utility.yul\":16300:16309   */\n      dup4\n        /* \"#utility.yul\":16296:16313   */\n      add\n        /* \"#utility.yul\":16289:16336   */\n      mstore\n        /* \"#utility.yul\":16353:16484   */\n      tag_454\n        /* \"#utility.yul\":16479:16483   */\n      dup2\n        /* \"#utility.yul\":16353:16484   */\n      tag_370\n      jump\t// in\n    tag_454:\n        /* \"#utility.yul\":16345:16484   */\n      swap1\n      pop\n        /* \"#utility.yul\":16072:16491   */\n      swap2\n      swap1\n      pop\n      jump\t// out\n        /* \"#utility.yul\":16497:16916   */\n    tag_258:\n        /* \"#utility.yul\":16663:16667   */\n      0x00\n        /* \"#utility.yul\":16701:16703   */\n      0x20\n        /* \"#utility.yul\":16690:16699   */\n      dup3\n        /* \"#utility.yul\":16686:16704   */\n      add\n        /* \"#utility.yul\":16678:16704   */\n      swap1\n      pop\n        /* \"#utility.yul\":16750:16759   */\n      dup2\n        /* \"#utility.yul\":16744:16748   */\n      dup2\n        /* \"#utility.yul\":16740:16760   */\n      sub\n        /* \"#utility.yul\":16736:16737   */\n      0x00\n        /* \"#utility.yul\":16725:16734   */\n      dup4\n        /* \"#utility.yul\":16721:16738   */\n      add\n        /* \"#utility.yul\":16714:16761   */\n      mstore\n        /* \"#utility.yul\":16778:16909   */\n      tag_456\n        /* \"#utility.yul\":16904:16908   */\n      dup2\n        /* \"#utility.yul\":16778:16909   */\n      tag_375\n      jump\t// in\n    tag_456:\n        /* \"#utility.yul\":16770:16909   */\n      swap1\n      pop\n        /* \"#utility.yul\":16497:16916   */\n      swap2\n      swap1\n      pop\n      jump\t// out\n        /* \"#utility.yul\":16922:17341   */\n    tag_150:\n        /* \"#utility.yul\":17088:17092   */\n      0x00\n        /* \"#utility.yul\":17126:17128   */\n      0x20\n        /* \"#utility.yul\":17115:17124   */\n      dup3\n        /* \"#utility.yul\":17111:17129   */\n      add\n        /* \"#utility.yul\":17103:17129   */\n      swap1\n      pop\n        /* \"#utility.yul\":17175:17184   */\n      dup2\n        /* \"#utility.yul\":17169:17173   */\n      dup2\n        /* \"#utility.yul\":17165:17185   */\n      sub\n        /* \"#utility.yul\":17161:17162   */\n      0x00\n        /* \"#utility.yul\":17150:17159   */\n      dup4\n        /* \"#utility.yul\":17146:17163   */\n      add\n        /* \"#utility.yul\":17139:17186   */\n      mstore\n        /* \"#utility.yul\":17203:17334   */\n      tag_458\n        /* \"#utility.yul\":17329:17333   */\n      dup2\n        /* \"#utility.yul\":17203:17334   */\n      tag_380\n      jump\t// in\n    tag_458:\n        /* \"#utility.yul\":17195:17334   */\n      swap1\n      pop\n        /* \"#utility.yul\":16922:17341   */\n      swap2\n      swap1\n      pop\n      jump\t// out\n        /* \"#utility.yul\":17347:17766   */\n    tag_172:\n        /* \"#utility.yul\":17513:17517   */\n      0x00\n        /* \"#utility.yul\":17551:17553   */\n      0x20\n        /* \"#utility.yul\":17540:17549   */\n      dup3\n        /* \"#utility.yul\":17536:17554   */\n      add\n        /* \"#utility.yul\":17528:17554   */\n      swap1\n      pop\n        /* \"#utility.yul\":17600:17609   */\n      dup2\n        /* \"#utility.yul\":17594:17598   */\n      dup2\n        /* \"#utility.yul\":17590:17610   */\n      sub\n        /* \"#utility.yul\":17586:17587   */\n      0x00\n        /* \"#utility.yul\":17575:17584   */\n      dup4\n        /* \"#utility.yul\":17571:17588   */\n      add\n        /* \"#utility.yul\":17564:17611   */\n      mstore\n        /* \"#utility.yul\":17628:17759   */\n      tag_460\n        /* \"#utility.yul\":17754:17758   */\n      dup2\n        /* \"#utility.yul\":17628:17759   */\n      tag_385\n      jump\t// in\n    tag_460:\n        /* \"#utility.yul\":17620:17759   */\n      swap1\n      pop\n        /* \"#utility.yul\":17347:17766   */\n      swap2\n      swap1\n      pop\n      jump\t// out\n        /* \"#utility.yul\":17772:18191   */\n    tag_157:\n        /* \"#utility.yul\":17938:17942   */\n      0x00\n        /* \"#utility.yul\":17976:17978   */\n      0x20\n        /* \"#utility.yul\":17965:17974   */\n      dup3\n        /* \"#utility.yul\":17961:17979   */\n      add\n        /* \"#utility.yul\":17953:17979   */\n      swap1\n      pop\n        /* \"#utility.yul\":18025:18034   */\n      dup2\n        /* \"#utility.yul\":18019:18023   */\n      dup2\n        /* \"#utility.yul\":18015:18035   */\n      sub\n        /* \"#utility.yul\":18011:18012   */\n      0x00\n        /* \"#utility.yul\":18000:18009   */\n      dup4\n        /* \"#utility.yul\":17996:18013   */\n      add\n        /* \"#utility.yul\":17989:18036   */\n      mstore\n        /* \"#utility.yul\":18053:18184   */\n      tag_462\n        /* \"#utility.yul\":18179:18183   */\n      dup2\n        /* \"#utility.yul\":18053:18184   */\n      tag_390\n      jump\t// in\n    tag_462:\n        /* \"#utility.yul\":18045:18184   */\n      swap1\n      pop\n        /* \"#utility.yul\":17772:18191   */\n      swap2\n      swap1\n      pop\n      jump\t// out\n        /* \"#utility.yul\":18197:18616   */\n    tag_131:\n        /* \"#utility.yul\":18363:18367   */\n      0x00\n        /* \"#utility.yul\":18401:18403   */\n      0x20\n        /* \"#utility.yul\":18390:18399   */\n      dup3\n        /* \"#utility.yul\":18386:18404   */\n      add\n        /* \"#utility.yul\":18378:18404   */\n      swap1\n      pop\n        /* \"#utility.yul\":18450:18459   */\n      dup2\n        /* \"#utility.yul\":18444:18448   */\n      dup2\n        /* \"#utility.yul\":18440:18460   */\n      sub\n        /* \"#utility.yul\":18436:18437   */\n      0x00\n        /* \"#utility.yul\":18425:18434   */\n      dup4\n        /* \"#utility.yul\":18421:18438   */\n      add\n        /* \"#utility.yul\":18414:18461   */\n      mstore\n        /* \"#utility.yul\":18478:18609   */\n      tag_464\n        /* \"#utility.yul\":18604:18608   */\n      dup2\n        /* \"#utility.yul\":18478:18609   */\n      tag_395\n      jump\t// in\n    tag_464:\n        /* \"#utility.yul\":18470:18609   */\n      swap1\n      pop\n        /* \"#utility.yul\":18197:18616   */\n      swap2\n      swap1\n      pop\n      jump\t// out\n        /* \"#utility.yul\":18622:19041   */\n    tag_193:\n        /* \"#utility.yul\":18788:18792   */\n      0x00\n        /* \"#utility.yul\":18826:18828   */\n      0x20\n        /* \"#utility.yul\":18815:18824   */\n      dup3\n        /* \"#utility.yul\":18811:18829   */\n      add\n        /* \"#utility.yul\":18803:18829   */\n      swap1\n      pop\n        /* \"#utility.yul\":18875:18884   */\n      dup2\n        /* \"#utility.yul\":18869:18873   */\n      dup2\n        /* \"#utility.yul\":18865:18885   */\n      sub\n        /* \"#utility.yul\":18861:18862   */\n      0x00\n        /* \"#utility.yul\":18850:18859   */\n      dup4\n        /* \"#utility.yul\":18846:18863   */\n      add\n        /* \"#utility.yul\":18839:18886   */\n      mstore\n        /* \"#utility.yul\":18903:19034   */\n      tag_466\n        /* \"#utility.yul\":19029:19033   */\n      dup2\n        /* \"#utility.yul\":18903:19034   */\n      tag_400\n      jump\t// in\n    tag_466:\n        /* \"#utility.yul\":18895:19034   */\n      swap1\n      pop\n        /* \"#utility.yul\":18622:19041   */\n      swap2\n      swap1\n      pop\n      jump\t// out\n        /* \"#utility.yul\":19047:19269   */\n    tag_34:\n        /* \"#utility.yul\":19140:19144   */\n      0x00\n        /* \"#utility.yul\":19178:19180   */\n      0x20\n        /* \"#utility.yul\":19167:19176   */\n      dup3\n        /* \"#utility.yul\":19163:19181   */\n      add\n        /* \"#utility.yul\":19155:19181   */\n      swap1\n      pop\n        /* \"#utility.yul\":19191:19262   */\n      tag_468\n        /* \"#utility.yul\":19259:19260   */\n      0x00\n        /* \"#utility.yul\":19248:19257   */\n      dup4\n        /* \"#utility.yul\":19244:19261   */\n      add\n        /* \"#utility.yul\":19235:19241   */\n      dup5\n        /* \"#utility.yul\":19191:19262   */\n      tag_405\n      jump\t// in\n    tag_468:\n        /* \"#utility.yul\":19047:19269   */\n      swap3\n      swap2\n      pop\n      pop\n      jump\t// out\n        /* \"#utility.yul\":19275:19489   */\n    tag_43:\n        /* \"#utility.yul\":19364:19368   */\n      0x00\n        /* \"#utility.yul\":19402:19404   */\n      0x20\n        /* \"#utility.yul\":19391:19400   */\n      dup3\n        /* \"#utility.yul\":19387:19405   */\n      add\n        /* \"#utility.yul\":19379:19405   */\n      swap1\n      pop\n        /* \"#utility.yul\":19415:19482   */\n      tag_470\n        /* \"#utility.yul\":19479:19480   */\n      0x00\n        /* \"#utility.yul\":19468:19477   */\n      dup4\n        /* \"#utility.yul\":19464:19481   */\n      add\n        /* \"#utility.yul\":19455:19461   */\n      dup5\n        /* \"#utility.yul\":19415:19482   */\n      tag_409\n      jump\t// in\n    tag_470:\n        /* \"#utility.yul\":19275:19489   */\n      swap3\n      swap2\n      pop\n      pop\n      jump\t// out\n        /* \"#utility.yul\":19576:19675   */\n    tag_327:\n        /* \"#utility.yul\":19628:19634   */\n      0x00\n        /* \"#utility.yul\":19662:19667   */\n      dup2\n        /* \"#utility.yul\":19656:19668   */\n      mload\n        /* \"#utility.yul\":19646:19668   */\n      swap1\n      pop\n        /* \"#utility.yul\":19576:19675   */\n      swap2\n      swap1\n      pop\n      jump\t// out\n        /* \"#utility.yul\":19681:19850   */\n    tag_329:\n        /* \"#utility.yul\":19765:19776   */\n      0x00\n        /* \"#utility.yul\":19799:19805   */\n      dup3\n        /* \"#utility.yul\":19794:19797   */\n      dup3\n        /* \"#utility.yul\":19787:19806   */\n      mstore\n        /* \"#utility.yul\":19839:19843   */\n      0x20\n        /* \"#utility.yul\":19834:19837   */\n      dup3\n        /* \"#utility.yul\":19830:19844   */\n      add\n        /* \"#utility.yul\":19815:19844   */\n      swap1\n      pop\n        /* \"#utility.yul\":19681:19850   */\n      swap3\n      swap2\n      pop\n      pop\n      jump\t// out\n        /* \"#utility.yul\":19856:20004   */\n    tag_357:\n        /* \"#utility.yul\":19958:19969   */\n      0x00\n        /* \"#utility.yul\":19995:19998   */\n      dup2\n        /* \"#utility.yul\":19980:19998   */\n      swap1\n      pop\n        /* \"#utility.yul\":19856:20004   */\n      swap3\n      swap2\n      pop\n      pop\n      jump\t// out\n        /* \"#utility.yul\":20010:20315   */\n    tag_112:\n        /* \"#utility.yul\":20050:20053   */\n      0x00\n        /* \"#utility.yul\":20069:20089   */\n      tag_477\n        /* \"#utility.yul\":20087:20088   */\n      dup3\n        /* \"#utility.yul\":20069:20089   */\n      tag_408\n      jump\t// in\n    tag_477:\n        /* \"#utility.yul\":20064:20089   */\n      swap2\n      pop\n        /* \"#utility.yul\":20103:20123   */\n      tag_478\n        /* \"#utility.yul\":20121:20122   */\n      dup4\n        /* \"#utility.yul\":20103:20123   */\n      tag_408\n      jump\t// in\n    tag_478:\n        /* \"#utility.yul\":20098:20123   */\n      swap3\n      pop\n        /* \"#utility.yul\":20257:20258   */\n      dup3\n        /* \"#utility.yul\":20189:20255   */\n      0xffffffffffffffffffffffffffffffffffffffffffffffffffffffffffffffff\n        /* \"#utility.yul\":20185:20259   */\n      sub\n        /* \"#utility.yul\":20182:20183   */\n      dup3\n        /* \"#utility.yul\":20179:20260   */\n      gt\n        /* \"#utility.yul\":20176:20283   */\n      iszero\n      tag_479\n      jumpi\n        /* \"#utility.yul\":20263:20281   */\n      tag_480\n      tag_481\n      jump\t// in\n    tag_480:\n        /* \"#utility.yul\":20176:20283   */\n    tag_479:\n        /* \"#utility.yul\":20307:20308   */\n      dup3\n        /* \"#utility.yul\":20304:20305   */\n      dup3\n        /* \"#utility.yul\":20300:20309   */\n      add\n        /* \"#utility.yul\":20293:20309   */\n      swap1\n      pop\n        /* \"#utility.yul\":20010:20315   */\n      swap3\n      swap2\n      pop\n      pop\n      jump\t// out\n        /* \"#utility.yul\":20321:20417   */\n    tag_310:\n        /* \"#utility.yul\":20358:20365   */\n      0x00\n        /* \"#utility.yul\":20387:20411   */\n      tag_483\n        /* \"#utility.yul\":20405:20410   */\n      dup3\n        /* \"#utility.yul\":20387:20411   */\n      tag_484\n      jump\t// in\n    tag_483:\n        /* \"#utility.yul\":20376:20411   */\n      swap1\n      pop\n        /* \"#utility.yul\":20321:20417   */\n      swap2\n      swap1\n      pop\n      jump\t// out\n        /* \"#utility.yul\":20423:20513   */\n    tag_314:\n        /* \"#utility.yul\":20457:20464   */\n      0x00\n        /* \"#utility.yul\":20500:20505   */\n      dup2\n        /* \"#utility.yul\":20493:20506   */\n      iszero\n        /* \"#utility.yul\":20486:20507   */\n      iszero\n        /* \"#utility.yul\":20475:20507   */\n      swap1\n      pop\n        /* \"#utility.yul\":20423:20513   */\n      swap2\n      swap1\n      pop\n      jump\t// out\n        /* \"#utility.yul\":20519:20596   */\n    tag_318:\n        /* \"#utility.yul\":20556:20563   */\n      0x00\n        /* \"#utility.yul\":20585:20590   */\n      dup2\n        /* \"#utility.yul\":20574:20590   */\n      swap1\n      pop\n        /* \"#utility.yul\":20519:20596   */\n      swap2\n      swap1\n      pop\n      jump\t// out\n        /* \"#utility.yul\":20602:20728   */\n    tag_484:\n        /* \"#utility.yul\":20639:20646   */\n      0x00\n        /* \"#utility.yul\":20679:20721   */\n      0xffffffffffffffffffffffffffffffffffffffff\n        /* \"#utility.yul\":20672:20677   */\n      dup3\n        /* \"#utility.yul\":20668:20722   */\n      and\n        /* \"#utility.yul\":20657:20722   */\n      swap1\n      pop\n        /* \"#utility.yul\":20602:20728   */\n      swap2\n      swap1\n      pop\n      jump\t// out\n        /* \"#utility.yul\":20734:20811   */\n    tag_408:\n        /* \"#utility.yul\":20771:20778   */\n      0x00\n        /* \"#utility.yul\":20800:20805   */\n      dup2\n        /* \"#utility.yul\":20789:20805   */\n      swap1\n      pop\n        /* \"#utility.yul\":20734:20811   */\n      swap2\n      swap1\n      pop\n      jump\t// out\n        /* \"#utility.yul\":20817:20903   */\n    tag_412:\n        /* \"#utility.yul\":20852:20859   */\n      0x00\n        /* \"#utility.yul\":20892:20896   */\n      0xff\n        /* \"#utility.yul\":20885:20890   */\n      dup3\n        /* \"#utility.yul\":20881:20897   */\n      and\n        /* \"#utility.yul\":20870:20897   */\n      swap1\n      pop\n        /* \"#utility.yul\":20817:20903   */\n      swap2\n      swap1\n      pop\n      jump\t// out\n        /* \"#utility.yul\":20909:21216   */\n    tag_331:\n        /* \"#utility.yul\":20977:20978   */\n      0x00\n        /* \"#utility.yul\":20987:21100   */\n    tag_491:\n        /* \"#utility.yul\":21001:21007   */\n      dup4\n        /* \"#utility.yul\":20998:20999   */\n      dup2\n        /* \"#utility.yul\":20995:21008   */\n      lt\n        /* \"#utility.yul\":20987:21100   */\n      iszero\n      tag_493\n      jumpi\n        /* \"#utility.yul\":21086:21087   */\n      dup1\n        /* \"#utility.yul\":21081:21084   */\n      dup3\n        /* \"#utility.yul\":21077:21088   */\n      add\n        /* \"#utility.yul\":21071:21089   */\n      mload\n        /* \"#utility.yul\":21067:21068   */\n      dup2\n        /* \"#utility.yul\":21062:21065   */\n      dup5\n        /* \"#utility.yul\":21058:21069   */\n      add\n        /* \"#utility.yul\":21051:21090   */\n      mstore\n        /* \"#utility.yul\":21023:21025   */\n      0x20\n        /* \"#utility.yul\":21020:21021   */\n      dup2\n        /* \"#utility.yul\":21016:21026   */\n      add\n        /* \"#utility.yul\":21011:21026   */\n      swap1\n      pop\n        /* \"#utility.yul\":20987:21100   */\n      jump(tag_491)\n    tag_493:\n        /* \"#utility.yul\":21118:21124   */\n      dup4\n        /* \"#utility.yul\":21115:21116   */\n      dup2\n        /* \"#utility.yul\":21112:21125   */\n      gt\n        /* \"#utility.yul\":21109:21210   */\n      iszero\n      tag_494\n      jumpi\n        /* \"#utility.yul\":21198:21199   */\n      0x00\n        /* \"#utility.yul\":21189:21195   */\n      dup5\n        /* \"#utility.yul\":21184:21187   */\n      dup5\n        /* \"#utility.yul\":21180:21196   */\n      add\n        /* \"#utility.yul\":21173:21200   */\n      mstore\n        /* \"#utility.yul\":21109:21210   */\n    tag_494:\n        /* \"#utility.yul\":20958:21216   */\n      pop\n        /* \"#utility.yul\":20909:21216   */\n      pop\n      pop\n      pop\n      jump\t// out\n        /* \"#utility.yul\":21222:21542   */\n    tag_86:\n        /* \"#utility.yul\":21266:21272   */\n      0x00\n        /* \"#utility.yul\":21303:21304   */\n      0x02\n        /* \"#utility.yul\":21297:21301   */\n      dup3\n        /* \"#utility.yul\":21293:21305   */\n      div\n        /* \"#utility.yul\":21283:21305   */\n      swap1\n      pop\n        /* \"#utility.yul\":21350:21351   */\n      0x01\n        /* \"#utility.yul\":21344:21348   */\n      dup3\n        /* \"#utility.yul\":21340:21352   */\n      and\n        /* \"#utility.yul\":21371:21389   */\n      dup1\n        /* \"#utility.yul\":21361:21442   */\n      tag_496\n      jumpi\n        /* \"#utility.yul\":21427:21431   */\n      0x7f\n        /* \"#utility.yul\":21419:21425   */\n      dup3\n        /* \"#utility.yul\":21415:21432   */\n      and\n        /* \"#utility.yul\":21405:21432   */\n      swap2\n      pop\n        /* \"#utility.yul\":21361:21442   */\n    tag_496:\n        /* \"#utility.yul\":21489:21491   */\n      0x20\n        /* \"#utility.yul\":21481:21487   */\n      dup3\n        /* \"#utility.yul\":21478:21492   */\n      lt\n        /* \"#utility.yul\":21458:21476   */\n      dup2\n        /* \"#utility.yul\":21455:21493   */\n      eq\n        /* \"#utility.yul\":21452:21536   */\n      iszero\n      tag_497\n      jumpi\n        /* \"#utility.yul\":21508:21526   */\n      tag_498\n      tag_499\n      jump\t// in\n    tag_498:\n        /* \"#utility.yul\":21452:21536   */\n    tag_497:\n        /* \"#utility.yul\":21273:21542   */\n      pop\n        /* \"#utility.yul\":21222:21542   */\n      swap2\n      swap1\n      pop\n      jump\t// out\n        /* \"#utility.yul\":21548:21627   */\n    tag_323:\n        /* \"#utility.yul\":21587:21594   */\n      0x00\n        /* \"#utility.yul\":21616:21621   */\n      dup2\n        /* \"#utility.yul\":21605:21621   */\n      swap1\n      pop\n        /* \"#utility.yul\":21548:21627   */\n      swap2\n      swap1\n      pop\n      jump\t// out\n        /* \"#utility.yul\":21633:21813   */\n    tag_481:\n        /* \"#utility.yul\":21681:21758   */\n      0x4e487b7100000000000000000000000000000000000000000000000000000000\n        /* \"#utility.yul\":21678:21679   */\n      0x00\n        /* \"#utility.yul\":21671:21759   */\n      mstore\n        /* \"#utility.yul\":21778:21782   */\n      0x11\n        /* \"#utility.yul\":21775:21776   */\n      0x04\n        /* \"#utility.yul\":21768:21783   */\n      mstore\n        /* \"#utility.yul\":21802:21806   */\n      0x24\n        /* \"#utility.yul\":21799:21800   */\n      0x00\n        /* \"#utility.yul\":21792:21807   */\n      revert\n        /* \"#utility.yul\":21819:21999   */\n    tag_231:\n        /* \"#utility.yul\":21867:21944   */\n      0x4e487b7100000000000000000000000000000000000000000000000000000000\n        /* \"#utility.yul\":21864:21865   */\n      0x00\n        /* \"#utility.yul\":21857:21945   */\n      mstore\n        /* \"#utility.yul\":21964:21968   */\n      0x21\n        /* \"#utility.yul\":21961:21962   */\n      0x04\n        /* \"#utility.yul\":21954:21969   */\n      mstore\n        /* \"#utility.yul\":21988:21992   */\n      0x24\n        /* \"#utility.yul\":21985:21986   */\n      0x00\n        /* \"#utility.yul\":21978:21993   */\n      revert\n        /* \"#utility.yul\":22005:22185   */\n    tag_499:\n        /* \"#utility.yul\":22053:22130   */\n      0x4e487b7100000000000000000000000000000000000000000000000000000000\n        /* \"#utility.yul\":22050:22051   */\n      0x00\n        /* \"#utility.yul\":22043:22131   */\n      mstore\n        /* \"#utility.yul\":22150:22154   */\n      0x22\n        /* \"#utility.yul\":22147:22148   */\n      0x04\n        /* \"#utility.yul\":22140:22155   */\n      mstore\n        /* \"#utility.yul\":22174:22178   */\n      0x24\n        /* \"#utility.yul\":22171:22172   */\n      0x00\n        /* \"#utility.yul\":22164:22179   */\n      revert\n        /* \"#utility.yul\":22314:22431   */\n    tag_279:\n        /* \"#utility.yul\":22423:22424   */\n      0x00\n        /* \"#utility.yul\":22420:22421   */\n      dup1\n        /* \"#utility.yul\":22413:22425   */\n      revert\n        /* \"#utility.yul\":22437:22539   */\n    tag_333:\n        /* \"#utility.yul\":22478:22484   */\n      0x00\n        /* \"#utility.yul\":22529:22531   */\n      0x1f\n        /* \"#utility.yul\":22525:22532   */\n      not\n        /* \"#utility.yul\":22520:22522   */\n      0x1f\n        /* \"#utility.yul\":22513:22518   */\n      dup4\n        /* \"#utility.yul\":22509:22523   */\n      add\n        /* \"#utility.yul\":22505:22533   */\n      and\n        /* \"#utility.yul\":22495:22533   */\n      swap1\n      pop\n        /* \"#utility.yul\":22437:22539   */\n      swap2\n      swap1\n      pop\n      jump\t// out\n        /* \"#utility.yul\":22545:22719   */\n    tag_338:\n        /* \"#utility.yul\":22685:22711   */\n      0x45434453413a20696e76616c6964207369676e61747572650000000000000000\n        /* \"#utility.yul\":22681:22682   */\n      0x00\n        /* \"#utility.yul\":22673:22679   */\n      dup3\n        /* \"#utility.yul\":22669:22683   */\n      add\n        /* \"#utility.yul\":22662:22712   */\n      mstore\n        /* \"#utility.yul\":22545:22719   */\n      pop\n      jump\t// out\n        /* \"#utility.yul\":22725:22947   */\n    tag_343:\n        /* \"#utility.yul\":22865:22899   */\n      0x45524332303a207472616e7366657220746f20746865207a65726f2061646472\n        /* \"#utility.yul\":22861:22862   */\n      0x00\n        /* \"#utility.yul\":22853:22859   */\n      dup3\n        /* \"#utility.yul\":22849:22863   */\n      add\n        /* \"#utility.yul\":22842:22900   */\n      mstore\n        /* \"#utility.yul\":22934:22939   */\n      0x6573730000000000000000000000000000000000000000000000000000000000\n        /* \"#utility.yul\":22929:22931   */\n      0x20\n        /* \"#utility.yul\":22921:22927   */\n      dup3\n        /* \"#utility.yul\":22917:22932   */\n      add\n        /* \"#utility.yul\":22910:22940   */\n      mstore\n        /* \"#utility.yul\":22725:22947   */\n      pop\n      jump\t// out\n        /* \"#utility.yul\":22953:23134   */\n    tag_348:\n        /* \"#utility.yul\":23093:23126   */\n      0x45434453413a20696e76616c6964207369676e6174757265206c656e67746800\n        /* \"#utility.yul\":23089:23090   */\n      0x00\n        /* \"#utility.yul\":23081:23087   */\n      dup3\n        /* \"#utility.yul\":23077:23091   */\n      add\n        /* \"#utility.yul\":23070:23127   */\n      mstore\n        /* \"#utility.yul\":22953:23134   */\n      pop\n      jump\t// out\n        /* \"#utility.yul\":23140:23361   */\n    tag_353:\n        /* \"#utility.yul\":23280:23314   */\n      0x45524332303a20617070726f766520746f20746865207a65726f206164647265\n        /* \"#utility.yul\":23276:23277   */\n      0x00\n        /* \"#utility.yul\":23268:23274   */\n      dup3\n        /* \"#utility.yul\":23264:23278   */\n      add\n        /* \"#utility.yul\":23257:23315   */\n      mstore\n        /* \"#utility.yul\":23349:23353   */\n      0x7373000000000000000000000000000000000000000000000000000000000000\n        /* \"#utility.yul\":23344:23346   */\n      0x20\n        /* \"#utility.yul\":23336:23342   */\n      dup3\n        /* \"#utility.yul\":23332:23347   */\n      add\n        /* \"#utility.yul\":23325:23354   */\n      mstore\n        /* \"#utility.yul\":23140:23361   */\n      pop\n      jump\t// out\n        /* \"#utility.yul\":23367:23581   */\n    tag_359:\n        /* \"#utility.yul\":23507:23573   */\n      0x1901000000000000000000000000000000000000000000000000000000000000\n        /* \"#utility.yul\":23503:23504   */\n      0x00\n        /* \"#utility.yul\":23495:23501   */\n      dup3\n        /* \"#utility.yul\":23491:23505   */\n      add\n        /* \"#utility.yul\":23484:23574   */\n      mstore\n        /* \"#utility.yul\":23367:23581   */\n      pop\n      jump\t// out\n        /* \"#utility.yul\":23587:23766   */\n    tag_364:\n        /* \"#utility.yul\":23727:23758   */\n      0x45524332303a20696e73756666696369656e7420616c6c6f77616e6365000000\n        /* \"#utility.yul\":23723:23724   */\n      0x00\n        /* \"#utility.yul\":23715:23721   */\n      dup3\n        /* \"#utility.yul\":23711:23725   */\n      add\n        /* \"#utility.yul\":23704:23759   */\n      mstore\n        /* \"#utility.yul\":23587:23766   */\n      pop\n      jump\t// out\n        /* \"#utility.yul\":23772:23951   */\n    tag_369:\n        /* \"#utility.yul\":23912:23943   */\n      0x45524332305065726d69743a206578706972656420646561646c696e65000000\n        /* \"#utility.yul\":23908:23909   */\n      0x00\n        /* \"#utility.yul\":23900:23906   */\n      dup3\n        /* \"#utility.yul\":23896:23910   */\n      add\n        /* \"#utility.yul\":23889:23944   */\n      mstore\n        /* \"#utility.yul\":23772:23951   */\n      pop\n      jump\t// out\n        /* \"#utility.yul\":23957:24182   */\n    tag_374:\n        /* \"#utility.yul\":24097:24131   */\n      0x45524332303a207472616e7366657220616d6f756e7420657863656564732062\n        /* \"#utility.yul\":24093:24094   */\n      0x00\n        /* \"#utility.yul\":24085:24091   */\n      dup3\n        /* \"#utility.yul\":24081:24095   */\n      add\n        /* \"#utility.yul\":24074:24132   */\n      mstore\n        /* \"#utility.yul\":24166:24174   */\n      0x616c616e63650000000000000000000000000000000000000000000000000000\n        /* \"#utility.yul\":24161:24163   */\n      0x20\n        /* \"#utility.yul\":24153:24159   */\n      dup3\n        /* \"#utility.yul\":24149:24164   */\n      add\n        /* \"#utility.yul\":24142:24175   */\n      mstore\n        /* \"#utility.yul\":23957:24182   */\n      pop\n      jump\t// out\n        /* \"#utility.yul\":24188:24409   */\n    tag_379:\n        /* \"#utility.yul\":24328:24362   */\n      0x45434453413a20696e76616c6964207369676e6174757265202773272076616c\n        /* \"#utility.yul\":24324:24325   */\n      0x00\n        /* \"#utility.yul\":24316:24322   */\n      dup3\n        /* \"#utility.yul\":24312:24326   */\n      add\n        /* \"#utility.yul\":24305:24363   */\n      mstore\n        /* \"#utility.yul\":24397:24401   */\n      0x7565000000000000000000000000000000000000000000000000000000000000\n        /* \"#utility.yul\":24392:24394   */\n      0x20\n        /* \"#utility.yul\":24384:24390   */\n      dup3\n        /* \"#utility.yul\":24380:24395   */\n      add\n        /* \"#utility.yul\":24373:24402   */\n      mstore\n        /* \"#utility.yul\":24188:24409   */\n      pop\n      jump\t// out\n        /* \"#utility.yul\":24415:24595   */\n    tag_384:\n        /* \"#utility.yul\":24555:24587   */\n      0x45524332305065726d69743a20696e76616c6964207369676e61747572650000\n        /* \"#utility.yul\":24551:24552   */\n      0x00\n        /* \"#utility.yul\":24543:24549   */\n      dup3\n        /* \"#utility.yul\":24539:24553   */\n      add\n        /* \"#utility.yul\":24532:24588   */\n      mstore\n        /* \"#utility.yul\":24415:24595   */\n      pop\n      jump\t// out\n        /* \"#utility.yul\":24601:24825   */\n    tag_389:\n        /* \"#utility.yul\":24741:24775   */\n      0x45524332303a207472616e736665722066726f6d20746865207a65726f206164\n        /* \"#utility.yul\":24737:24738   */\n      0x00\n        /* \"#utility.yul\":24729:24735   */\n      dup3\n        /* \"#utility.yul\":24725:24739   */\n      add\n        /* \"#utility.yul\":24718:24776   */\n      mstore\n        /* \"#utility.yul\":24810:24817   */\n      0x6472657373000000000000000000000000000000000000000000000000000000\n        /* \"#utility.yul\":24805:24807   */\n      0x20\n        /* \"#utility.yul\":24797:24803   */\n      dup3\n        /* \"#utility.yul\":24793:24808   */\n      add\n        /* \"#utility.yul\":24786:24818   */\n      mstore\n        /* \"#utility.yul\":24601:24825   */\n      pop\n      jump\t// out\n        /* \"#utility.yul\":24831:25054   */\n    tag_394:\n        /* \"#utility.yul\":24971:25005   */\n      0x45524332303a20617070726f76652066726f6d20746865207a65726f20616464\n        /* \"#utility.yul\":24967:24968   */\n      0x00\n        /* \"#utility.yul\":24959:24965   */\n      dup3\n        /* \"#utility.yul\":24955:24969   */\n      add\n        /* \"#utility.yul\":24948:25006   */\n      mstore\n        /* \"#utility.yul\":25040:25046   */\n      0x7265737300000000000000000000000000000000000000000000000000000000\n        /* \"#utility.yul\":25035:25037   */\n      0x20\n        /* \"#utility.yul\":25027:25033   */\n      dup3\n        /* \"#utility.yul\":25023:25038   */\n      add\n        /* \"#utility.yul\":25016:25047   */\n      mstore\n        /* \"#utility.yul\":24831:25054   */\n      pop\n      jump\t// out\n        /* \"#utility.yul\":25060:25284   */\n    tag_399:\n        /* \"#utility.yul\":25200:25234   */\n      0x45524332303a2064656372656173656420616c6c6f77616e63652062656c6f77\n        /* \"#utility.yul\":25196:25197   */\n      0x00\n        /* \"#utility.yul\":25188:25194   */\n      dup3\n        /* \"#utility.yul\":25184:25198   */\n      add\n        /* \"#utility.yul\":25177:25235   */\n      mstore\n        /* \"#utility.yul\":25269:25276   */\n      0x207a65726f000000000000000000000000000000000000000000000000000000\n        /* \"#utility.yul\":25264:25266   */\n      0x20\n        /* \"#utility.yul\":25256:25262   */\n      dup3\n        /* \"#utility.yul\":25252:25267   */\n      add\n        /* \"#utility.yul\":25245:25277   */\n      mstore\n        /* \"#utility.yul\":25060:25284   */\n      pop\n      jump\t// out\n        /* \"#utility.yul\":25290:25471   */\n    tag_404:\n        /* \"#utility.yul\":25430:25463   */\n      0x45524332303a206d696e7420746f20746865207a65726f206164647265737300\n        /* \"#utility.yul\":25426:25427   */\n      0x00\n        /* \"#utility.yul\":25418:25424   */\n      dup3\n        /* \"#utility.yul\":25414:25428   */\n      add\n        /* \"#utility.yul\":25407:25464   */\n      mstore\n        /* \"#utility.yul\":25290:25471   */\n      pop\n      jump\t// out\n        /* \"#utility.yul\":25477:25599   */\n    tag_263:\n        /* \"#utility.yul\":25550:25574   */\n      tag_523\n        /* \"#utility.yul\":25568:25573   */\n      dup2\n        /* \"#utility.yul\":25550:25574   */\n      tag_310\n      jump\t// in\n    tag_523:\n        /* \"#utility.yul\":25543:25548   */\n      dup2\n        /* \"#utility.yul\":25540:25575   */\n      eq\n        /* \"#utility.yul\":25530:25593   */\n      tag_524\n      jumpi\n        /* \"#utility.yul\":25589:25590   */\n      0x00\n        /* \"#utility.yul\":25586:25587   */\n      dup1\n        /* \"#utility.yul\":25579:25591   */\n      revert\n        /* \"#utility.yul\":25530:25593   */\n    tag_524:\n        /* \"#utility.yul\":25477:25599   */\n      pop\n      jump\t// out\n        /* \"#utility.yul\":25605:25727   */\n    tag_267:\n        /* \"#utility.yul\":25678:25702   */\n      tag_526\n        /* \"#utility.yul\":25696:25701   */\n      dup2\n        /* \"#utility.yul\":25678:25702   */\n      tag_318\n      jump\t// in\n    tag_526:\n        /* \"#utility.yul\":25671:25676   */\n      dup2\n        /* \"#utility.yul\":25668:25703   */\n      eq\n        /* \"#utility.yul\":25658:25721   */\n      tag_527\n      jumpi\n        /* \"#utility.yul\":25717:25718   */\n      0x00\n        /* \"#utility.yul\":25714:25715   */\n      dup1\n        /* \"#utility.yul\":25707:25719   */\n      revert\n        /* \"#utility.yul\":25658:25721   */\n    tag_527:\n        /* \"#utility.yul\":25605:25727   */\n      pop\n      jump\t// out\n        /* \"#utility.yul\":25733:25855   */\n    tag_271:\n        /* \"#utility.yul\":25806:25830   */\n      tag_529\n        /* \"#utility.yul\":25824:25829   */\n      dup2\n        /* \"#utility.yul\":25806:25830   */\n      tag_408\n      jump\t// in\n    tag_529:\n        /* \"#utility.yul\":25799:25804   */\n      dup2\n        /* \"#utility.yul\":25796:25831   */\n      eq\n        /* \"#utility.yul\":25786:25849   */\n      tag_530\n      jumpi\n        /* \"#utility.yul\":25845:25846   */\n      0x00\n        /* \"#utility.yul\":25842:25843   */\n      dup1\n        /* \"#utility.yul\":25835:25847   */\n      revert\n        /* \"#utility.yul\":25786:25849   */\n    tag_530:\n        /* \"#utility.yul\":25733:25855   */\n      pop\n      jump\t// out\n        /* \"#utility.yul\":25861:25979   */\n    tag_275:\n        /* \"#utility.yul\":25932:25954   */\n      tag_532\n        /* \"#utility.yul\":25948:25953   */\n      dup2\n        /* \"#utility.yul\":25932:25954   */\n      tag_412\n      jump\t// in\n    tag_532:\n        /* \"#utility.yul\":25925:25930   */\n      dup2\n        /* \"#utility.yul\":25922:25955   */\n      eq\n        /* \"#utility.yul\":25912:25973   */\n      tag_533\n      jumpi\n        /* \"#utility.yul\":25969:25970   */\n      0x00\n        /* \"#utility.yul\":25966:25967   */\n      dup1\n        /* \"#utility.yul\":25959:25971   */\n      revert\n        /* \"#utility.yul\":25912:25973   */\n    tag_533:\n        /* \"#utility.yul\":25861:25979   */\n      pop\n      jump\t// out\n\n    auxdata: 0xa2646970667358221220044aa4f804a29e66c25f9fa0127d0e75e613352be6cd1f553c6daca45d927ef364736f6c63430008070033\n}\n",
				"bytecode": {
					"linkReferences": {},
					"object": "6101406040523480156200001257600080fd5b506040518060400160405280600981526020017f4275696c64426561720000000000000000000000000000000000000000000000815250806040518060400160405280600181526020017f31000000000000000000000000000000000000000000000000000000000000008152506040518060400160405280600981526020017f4275696c644265617200000000000000000000000000000000000000000000008152506040518060400160405280600281526020017f424200000000000000000000000000000000000000000000000000000000000081525081600390805190602001906200010492919062000218565b5080600490805190602001906200011d92919062000218565b50505060008280519060200120905060008280519060200120905060007f8b73c3c69bb8fe3d512ecc4cf759cc79239f7b179b0ffacaa9a75d522b39400f90508260e081815250508161010081815250504660a0818152505062000189818484620001dc60201b60201c565b608081815250503073ffffffffffffffffffffffffffffffffffffffff1660c08173ffffffffffffffffffffffffffffffffffffffff1660601b8152505080610120818152505050505050505062000405565b60008383834630604051602001620001f9959493929190620002fb565b6040516020818303038152906040528051906020012090509392505050565b8280546200022690620003a0565b90600052602060002090601f0160209004810192826200024a576000855562000296565b82601f106200026557805160ff191683800117855562000296565b8280016001018555821562000296579182015b828111156200029557825182559160200191906001019062000278565b5b509050620002a59190620002a9565b5090565b5b80821115620002c4576000816000905550600101620002aa565b5090565b620002d38162000358565b82525050565b620002e4816200036c565b82525050565b620002f58162000396565b82525050565b600060a082019050620003126000830188620002d9565b620003216020830187620002d9565b620003306040830186620002d9565b6200033f6060830185620002ea565b6200034e6080830184620002c8565b9695505050505050565b6000620003658262000376565b9050919050565b6000819050919050565b600073ffffffffffffffffffffffffffffffffffffffff82169050919050565b6000819050919050565b60006002820490506001821680620003b957607f821691505b60208210811415620003d057620003cf620003d6565b5b50919050565b7f4e487b7100000000000000000000000000000000000000000000000000000000600052602260045260246000fd5b60805160a05160c05160601c60e0516101005161012051612098620004586000396000610da501526000610de701526000610dc601526000610cfb01526000610d5101526000610d7a01526120986000f3fe608060405234801561001057600080fd5b50600436106100f55760003560e01c806340c10f1911610097578063a457c2d711610066578063a457c2d71461029c578063a9059cbb146102cc578063d505accf146102fc578063dd62ed3e14610318576100f5565b806340c10f191461020257806370a082311461021e5780637ecebe001461024e57806395d89b411461027e576100f5565b806323b872dd116100d357806323b872dd14610166578063313ce567146101965780633644e515146101b457806339509351146101d2576100f5565b806306fdde03146100fa578063095ea7b31461011857806318160ddd14610148575b600080fd5b610102610348565b60405161010f91906118d8565b60405180910390f35b610132600480360381019061012d91906114ad565b6103da565b60405161013f91906117a9565b60405180910390f35b6101506103fd565b60405161015d9190611a9a565b60405180910390f35b610180600480360381019061017b91906113b8565b610407565b60405161018d91906117a9565b60405180910390f35b61019e610436565b6040516101ab9190611ab5565b60405180910390f35b6101bc61043f565b6040516101c991906117c4565b60405180910390f35b6101ec60048036038101906101e791906114ad565b61044e565b6040516101f991906117a9565b60405180910390f35b61021c600480360381019061021791906114ad565b610485565b005b6102386004803603810190610233919061134b565b610493565b6040516102459190611a9a565b60405180910390f35b6102686004803603810190610263919061134b565b6104db565b6040516102759190611a9a565b60405180910390f35b61028661052b565b60405161029391906118d8565b60405180910390f35b6102b660048036038101906102b191906114ad565b6105bd565b6040516102c391906117a9565b60405180910390f35b6102e660048036038101906102e191906114ad565b610634565b6040516102f391906117a9565b60405180910390f35b6103166004803603810190610311919061140b565b610657565b005b610332600480360381019061032d9190611378565b610799565b60405161033f9190611a9a565b60405180910390f35b60606003805461035790611bdf565b80601f016020809104026020016040519081016040528092919081815260200182805461038390611bdf565b80156103d05780601f106103a5576101008083540402835291602001916103d0565b820191906000526020600020905b8154815290600101906020018083116103b357829003601f168201915b5050505050905090565b6000806103e5610820565b90506103f2818585610828565b600191505092915050565b6000600254905090565b600080610412610820565b905061041f8582856109f3565b61042a858585610a7f565b60019150509392505050565b60006012905090565b6000610449610cf7565b905090565b600080610459610820565b905061047a81858561046b8589610799565b6104759190611af7565b610828565b600191505092915050565b61048f8282610e11565b5050565b60008060008373ffffffffffffffffffffffffffffffffffffffff1673ffffffffffffffffffffffffffffffffffffffff168152602001908152602001600020549050919050565b6000610524600560008473ffffffffffffffffffffffffffffffffffffffff1673ffffffffffffffffffffffffffffffffffffffff168152602001908152602001600020610f68565b9050919050565b60606004805461053a90611bdf565b80601f016020809104026020016040519081016040528092919081815260200182805461056690611bdf565b80156105b35780601f10610588576101008083540402835291602001916105b3565b820191906000526020600020905b81548152906001019060200180831161059657829003601f168201915b5050505050905090565b6000806105c8610820565b905060006105d68286610799565b90508381101561061b576040517f08c379a000000000000000000000000000000000000000000000000000000000815260040161061290611a5a565b60405180910390fd5b6106288286868403610828565b60019250505092915050565b60008061063f610820565b905061064c818585610a7f565b600191505092915050565b8342111561069a576040517f08c379a00000000000000000000000000000000000000000000000000000000081526004016106919061199a565b60405180910390fd5b60007f6e71edae12b1b97f4d1f60370fef10105fa2faae0126114a169c64845d6126c98888886106c98c610f76565b896040516020016106df969594939291906117df565b604051602081830303815290604052805190602001209050600061070282610fd4565b9050600061071282878787610fee565b90508973ffffffffffffffffffffffffffffffffffffffff168173ffffffffffffffffffffffffffffffffffffffff1614610782576040517f08c379a0000000000000000000000000000000000000000000000000000000008152600401610779906119fa565b60405180910390fd5b61078d8a8a8a610828565b50505050505050505050565b6000600160008473ffffffffffffffffffffffffffffffffffffffff1673ffffffffffffffffffffffffffffffffffffffff16815260200190815260200160002060008373ffffffffffffffffffffffffffffffffffffffff1673ffffffffffffffffffffffffffffffffffffffff16815260200190815260200160002054905092915050565b600033905090565b600073ffffffffffffffffffffffffffffffffffffffff168373ffffffffffffffffffffffffffffffffffffffff161415610898576040517f08c379a000000000000000000000000000000000000000000000000000000000815260040161088f90611a3a565b60405180910390fd5b600073ffffffffffffffffffffffffffffffffffffffff168273ffffffffffffffffffffffffffffffffffffffff161415610908576040517f08c379a00000000000000000000000000000000000000000000000000000000081526004016108ff9061195a565b60405180910390fd5b80600160008573ffffffffffffffffffffffffffffffffffffffff1673ffffffffffffffffffffffffffffffffffffffff16815260200190815260200160002060008473ffffffffffffffffffffffffffffffffffffffff1673ffffffffffffffffffffffffffffffffffffffff168152602001908152602001600020819055508173ffffffffffffffffffffffffffffffffffffffff168373ffffffffffffffffffffffffffffffffffffffff167f8c5be1e5ebec7d5bd14f71427d1e84f3dd0314c0f7b2291e5b200ac8c7c3b925836040516109e69190611a9a565b60405180910390a3505050565b60006109ff8484610799565b90507fffffffffffffffffffffffffffffffffffffffffffffffffffffffffffffffff8114610a795781811015610a6b576040517f08c379a0000000000000000000000000000000000000000000000000000000008152600401610a629061197a565b60405180910390fd5b610a788484848403610828565b5b50505050565b600073ffffffffffffffffffffffffffffffffffffffff168373ffffffffffffffffffffffffffffffffffffffff161415610aef576040517f08c379a0000000000000000000000000000000000000000000000000000000008152600401610ae690611a1a565b60405180910390fd5b600073ffffffffffffffffffffffffffffffffffffffff168273ffffffffffffffffffffffffffffffffffffffff161415610b5f576040517f08c379a0000000000000000000000000000000000000000000000000000000008152600401610b569061191a565b60405180910390fd5b610b6a838383611019565b60008060008573ffffffffffffffffffffffffffffffffffffffff1673ffffffffffffffffffffffffffffffffffffffff16815260200190815260200160002054905081811015610bf0576040517f08c379a0000000000000000000000000000000000000000000000000000000008152600401610be7906119ba565b60405180910390fd5b8181036000808673ffffffffffffffffffffffffffffffffffffffff1673ffffffffffffffffffffffffffffffffffffffff16815260200190815260200160002081905550816000808573ffffffffffffffffffffffffffffffffffffffff1673ffffffffffffffffffffffffffffffffffffffff168152602001908152602001600020600082825401925050819055508273ffffffffffffffffffffffffffffffffffffffff168473ffffffffffffffffffffffffffffffffffffffff167fddf252ad1be2c89b69c2b068fc378daa952ba7f163c4a11628f55a4df523b3ef84604051610cde9190611a9a565b60405180910390a3610cf184848461101e565b50505050565b60007f000000000000000000000000000000000000000000000000000000000000000073ffffffffffffffffffffffffffffffffffffffff163073ffffffffffffffffffffffffffffffffffffffff16148015610d7357507f000000000000000000000000000000000000000000000000000000000000000046145b15610da0577f00000000000000000000000000000000000000000000000000000000000000009050610e0e565b610e0b7f00000000000000000000000000000000000000000000000000000000000000007f00000000000000000000000000000000000000000000000000000000000000007f0000000000000000000000000000000000000000000000000000000000000000611023565b90505b90565b600073ffffffffffffffffffffffffffffffffffffffff168273ffffffffffffffffffffffffffffffffffffffff161415610e81576040517f08c379a0000000000000000000000000000000000000000000000000000000008152600401610e7890611a7a565b60405180910390fd5b610e8d60008383611019565b8060026000828254610e9f9190611af7565b92505081905550806000808473ffffffffffffffffffffffffffffffffffffffff1673ffffffffffffffffffffffffffffffffffffffff168152602001908152602001600020600082825401925050819055508173ffffffffffffffffffffffffffffffffffffffff16600073ffffffffffffffffffffffffffffffffffffffff167fddf252ad1be2c89b69c2b068fc378daa952ba7f163c4a11628f55a4df523b3ef83604051610f509190611a9a565b60405180910390a3610f646000838361101e565b5050565b600081600001549050919050565b600080600560008473ffffffffffffffffffffffffffffffffffffffff1673ffffffffffffffffffffffffffffffffffffffff1681526020019081526020016000209050610fc381610f68565b9150610fce8161105d565b50919050565b6000610fe7610fe1610cf7565b83611073565b9050919050565b6000806000610fff878787876110a6565b9150915061100c81611189565b8192505050949350505050565b505050565b505050565b6000838383463060405160200161103e959493929190611840565b6040516020818303038152906040528051906020012090509392505050565b6001816000016000828254019250508190555050565b60008282604051602001611088929190611772565b60405160208183030381529060405280519060200120905092915050565b6000807f7fffffffffffffffffffffffffffffff5d576e7357a4501ddfe92f46681b20a08360001c11156110e1576000600391509150611180565b6000600187878787604051600081526020016040526040516111069493929190611893565b6020604051602081039080840390855afa158015611128573d6000803e3d6000fd5b505050602060405103519050600073ffffffffffffffffffffffffffffffffffffffff168173ffffffffffffffffffffffffffffffffffffffff16141561117757600060019250925050611180565b80600092509250505b94509492505050565b6000600481111561119d5761119c611c4a565b5b8160048111156111b0576111af611c4a565b5b14156111bb576112f4565b600160048111156111cf576111ce611c4a565b5b8160048111156111e2576111e1611c4a565b5b1415611223576040517f08c379a000000000000000000000000000000000000000000000000000000000815260040161121a906118fa565b60405180910390fd5b6002600481111561123757611236611c4a565b5b81600481111561124a57611249611c4a565b5b141561128b576040517f08c379a00000000000000000000000000000000000000000000000000000000081526004016112829061193a565b60405180910390fd5b6003600481111561129f5761129e611c4a565b5b8160048111156112b2576112b1611c4a565b5b14156112f3576040517f08c379a00000000000000000000000000000000000000000000000000000000081526004016112ea906119da565b60405180910390fd5b5b50565b60008135905061130681612006565b92915050565b60008135905061131b8161201d565b92915050565b60008135905061133081612034565b92915050565b6000813590506113458161204b565b92915050565b60006020828403121561136157611360611ca8565b5b600061136f848285016112f7565b91505092915050565b6000806040838503121561138f5761138e611ca8565b5b600061139d858286016112f7565b92505060206113ae858286016112f7565b9150509250929050565b6000806000606084860312156113d1576113d0611ca8565b5b60006113df868287016112f7565b93505060206113f0868287016112f7565b925050604061140186828701611321565b9150509250925092565b600080600080600080600060e0888a03121561142a57611429611ca8565b5b60006114388a828b016112f7565b97505060206114498a828b016112f7565b965050604061145a8a828b01611321565b955050606061146b8a828b01611321565b945050608061147c8a828b01611336565b93505060a061148d8a828b0161130c565b92505060c061149e8a828b0161130c565b91505092959891949750929550565b600080604083850312156114c4576114c3611ca8565b5b60006114d2858286016112f7565b92505060206114e385828601611321565b9150509250929050565b6114f681611b4d565b82525050565b61150581611b5f565b82525050565b61151481611b6b565b82525050565b61152b61152682611b6b565b611c11565b82525050565b600061153c82611ad0565b6115468185611adb565b9350611556818560208601611bac565b61155f81611cad565b840191505092915050565b6000611577601883611adb565b915061158282611cbe565b602082019050919050565b600061159a602383611adb565b91506115a582611ce7565b604082019050919050565b60006115bd601f83611adb565b91506115c882611d36565b602082019050919050565b60006115e0602283611adb565b91506115eb82611d5f565b604082019050919050565b6000611603600283611aec565b915061160e82611dae565b600282019050919050565b6000611626601d83611adb565b915061163182611dd7565b602082019050919050565b6000611649601d83611adb565b915061165482611e00565b602082019050919050565b600061166c602683611adb565b915061167782611e29565b604082019050919050565b600061168f602283611adb565b915061169a82611e78565b604082019050919050565b60006116b2601e83611adb565b91506116bd82611ec7565b602082019050919050565b60006116d5602583611adb565b91506116e082611ef0565b604082019050919050565b60006116f8602483611adb565b915061170382611f3f565b604082019050919050565b600061171b602583611adb565b915061172682611f8e565b604082019050919050565b600061173e601f83611adb565b915061174982611fdd565b602082019050919050565b61175d81611b95565b82525050565b61176c81611b9f565b82525050565b600061177d826115f6565b9150611789828561151a565b602082019150611799828461151a565b6020820191508190509392505050565b60006020820190506117be60008301846114fc565b92915050565b60006020820190506117d9600083018461150b565b92915050565b600060c0820190506117f4600083018961150b565b61180160208301886114ed565b61180e60408301876114ed565b61181b6060830186611754565b6118286080830185611754565b61183560a0830184611754565b979650505050505050565b600060a082019050611855600083018861150b565b611862602083018761150b565b61186f604083018661150b565b61187c6060830185611754565b61188960808301846114ed565b9695505050505050565b60006080820190506118a8600083018761150b565b6118b56020830186611763565b6118c2604083018561150b565b6118cf606083018461150b565b95945050505050565b600060208201905081810360008301526118f28184611531565b905092915050565b600060208201905081810360008301526119138161156a565b9050919050565b600060208201905081810360008301526119338161158d565b9050919050565b60006020820190508181036000830152611953816115b0565b9050919050565b60006020820190508181036000830152611973816115d3565b9050919050565b6000602082019050818103600083015261199381611619565b9050919050565b600060208201905081810360008301526119b38161163c565b9050919050565b600060208201905081810360008301526119d38161165f565b9050919050565b600060208201905081810360008301526119f381611682565b9050919050565b60006020820190508181036000830152611a13816116a5565b9050919050565b60006020820190508181036000830152611a33816116c8565b9050919050565b60006020820190508181036000830152611a53816116eb565b9050919050565b60006020820190508181036000830152611a738161170e565b9050919050565b60006020820190508181036000830152611a9381611731565b9050919050565b6000602082019050611aaf6000830184611754565b92915050565b6000602082019050611aca6000830184611763565b92915050565b600081519050919050565b600082825260208201905092915050565b600081905092915050565b6000611b0282611b95565b9150611b0d83611b95565b9250827fffffffffffffffffffffffffffffffffffffffffffffffffffffffffffffffff03821115611b4257611b41611c1b565b5b828201905092915050565b6000611b5882611b75565b9050919050565b60008115159050919050565b6000819050919050565b600073ffffffffffffffffffffffffffffffffffffffff82169050919050565b6000819050919050565b600060ff82169050919050565b60005b83811015611bca578082015181840152602081019050611baf565b83811115611bd9576000848401525b50505050565b60006002820490506001821680611bf757607f821691505b60208210811415611c0b57611c0a611c79565b5b50919050565b6000819050919050565b7f4e487b7100000000000000000000000000000000000000000000000000000000600052601160045260246000fd5b7f4e487b7100000000000000000000000000000000000000000000000000000000600052602160045260246000fd5b7f4e487b7100000000000000000000000000000000000000000000000000000000600052602260045260246000fd5b600080fd5b6000601f19601f8301169050919050565b7f45434453413a20696e76616c6964207369676e61747572650000000000000000600082015250565b7f45524332303a207472616e7366657220746f20746865207a65726f206164647260008201527f6573730000000000000000000000000000000000000000000000000000000000602082015250565b7f45434453413a20696e76616c6964207369676e6174757265206c656e67746800600082015250565b7f45524332303a20617070726f766520746f20746865207a65726f20616464726560008201527f7373000000000000000000000000000000000000000000000000000000000000602082015250565b7f1901000000000000000000000000000000000000000000000000000000000000600082015250565b7f45524332303a20696e73756666696369656e7420616c6c6f77616e6365000000600082015250565b7f45524332305065726d69743a206578706972656420646561646c696e65000000600082015250565b7f45524332303a207472616e7366657220616d6f756e742065786365656473206260008201527f616c616e63650000000000000000000000000000000000000000000000000000602082015250565b7f45434453413a20696e76616c6964207369676e6174757265202773272076616c60008201527f7565000000000000000000000000000000000000000000000000000000000000602082015250565b7f45524332305065726d69743a20696e76616c6964207369676e61747572650000600082015250565b7f45524332303a207472616e736665722066726f6d20746865207a65726f20616460008201527f6472657373000000000000000000000000000000000000000000000000000000602082015250565b7f45524332303a20617070726f76652066726f6d20746865207a65726f2061646460008201527f7265737300000000000000000000000000000000000000000000000000000000602082015250565b7f45524332303a2064656372656173656420616c6c6f77616e63652062656c6f7760008201527f207a65726f000000000000000000000000000000000000000000000000000000602082015250565b7f45524332303a206d696e7420746f20746865207a65726f206164647265737300600082015250565b61200f81611b4d565b811461201a57600080fd5b50565b61202681611b6b565b811461203157600080fd5b50565b61203d81611b95565b811461204857600080fd5b50565b61205481611b9f565b811461205f57600080fd5b5056fea2646970667358221220044aa4f804a29e66c25f9fa0127d0e75e613352be6cd1f553c6daca45d927ef364736f6c63430008070033",
					"opcodes": "PUSH2 0x140 PUSH1 0x40 MSTORE CALLVALUE DUP1 ISZERO PUSH3 0x12 JUMPI PUSH1 0x0 DUP1 REVERT JUMPDEST POP PUSH1 0x40 MLOAD DUP1 PUSH1 0x40 ADD PUSH1 0x40 MSTORE DUP1 PUSH1 0x9 DUP2 MSTORE PUSH1 0x20 ADD PUSH32 0x4275696C64426561720000000000000000000000000000000000000000000000 DUP2 MSTORE POP DUP1 PUSH1 0x40 MLOAD DUP1 PUSH1 0x40 ADD PUSH1 0x40 MSTORE DUP1 PUSH1 0x1 DUP2 MSTORE PUSH1 0x20 ADD PUSH32 0x3100000000000000000000000000000000000000000000000000000000000000 DUP2 MSTORE POP PUSH1 0x40 MLOAD DUP1 PUSH1 0x40 ADD PUSH1 0x40 MSTORE DUP1 PUSH1 0x9 DUP2 MSTORE PUSH1 0x20 ADD PUSH32 0x4275696C64426561720000000000000000000000000000000000000000000000 DUP2 MSTORE POP PUSH1 0x40 MLOAD DUP1 PUSH1 0x40 ADD PUSH1 0x40 MSTORE DUP1 PUSH1 0x2 DUP2 MSTORE PUSH1 0x20 ADD PUSH32 0x4242000000000000000000000000000000000000000000000000000000000000 DUP2 MSTORE POP DUP2 PUSH1 0x3 SWAP1 DUP1 MLOAD SWAP1 PUSH1 0x20 ADD SWAP1 PUSH3 0x104 SWAP3 SWAP2 SWAP1 PUSH3 0x218 JUMP JUMPDEST POP DUP1 PUSH1 0x4 SWAP1 DUP1 MLOAD SWAP1 PUSH1 0x20 ADD SWAP1 PUSH3 0x11D SWAP3 SWAP2 SWAP1 PUSH3 0x218 JUMP JUMPDEST POP POP POP PUSH1 0x0 DUP3 DUP1 MLOAD SWAP1 PUSH1 0x20 ADD KECCAK256 SWAP1 POP PUSH1 0x0 DUP3 DUP1 MLOAD SWAP1 PUSH1 0x20 ADD KECCAK256 SWAP1 POP PUSH1 0x0 PUSH32 0x8B73C3C69BB8FE3D512ECC4CF759CC79239F7B179B0FFACAA9A75D522B39400F SWAP1 POP DUP3 PUSH1 0xE0 DUP2 DUP2 MSTORE POP POP DUP2 PUSH2 0x100 DUP2 DUP2 MSTORE POP POP CHAINID PUSH1 0xA0 DUP2 DUP2 MSTORE POP POP PUSH3 0x189 DUP2 DUP5 DUP5 PUSH3 0x1DC PUSH1 0x20 SHL PUSH1 0x20 SHR JUMP JUMPDEST PUSH1 0x80 DUP2 DUP2 MSTORE POP POP ADDRESS PUSH20 0xFFFFFFFFFFFFFFFFFFFFFFFFFFFFFFFFFFFFFFFF AND PUSH1 0xC0 DUP2 PUSH20 0xFFFFFFFFFFFFFFFFFFFFFFFFFFFFFFFFFFFFFFFF AND PUSH1 0x60 SHL DUP2 MSTORE POP POP DUP1 PUSH2 0x120 DUP2 DUP2 MSTORE POP POP POP POP POP POP POP POP PUSH3 0x405 JUMP JUMPDEST PUSH1 0x0 DUP4 DUP4 DUP4 CHAINID ADDRESS PUSH1 0x40 MLOAD PUSH1 0x20 ADD PUSH3 0x1F9 SWAP6 SWAP5 SWAP4 SWAP3 SWAP2 SWAP1 PUSH3 0x2FB JUMP JUMPDEST PUSH1 0x40 MLOAD PUSH1 0x20 DUP2 DUP4 SUB SUB DUP2 MSTORE SWAP1 PUSH1 0x40 MSTORE DUP1 MLOAD SWAP1 PUSH1 0x20 ADD KECCAK256 SWAP1 POP SWAP4 SWAP3 POP POP POP JUMP JUMPDEST DUP3 DUP1 SLOAD PUSH3 0x226 SWAP1 PUSH3 0x3A0 JUMP JUMPDEST SWAP1 PUSH1 0x0 MSTORE PUSH1 0x20 PUSH1 0x0 KECCAK256 SWAP1 PUSH1 0x1F ADD PUSH1 0x20 SWAP1 DIV DUP2 ADD SWAP3 DUP3 PUSH3 0x24A JUMPI PUSH1 0x0 DUP6 SSTORE PUSH3 0x296 JUMP JUMPDEST DUP3 PUSH1 0x1F LT PUSH3 0x265 JUMPI DUP1 MLOAD PUSH1 0xFF NOT AND DUP4 DUP1 ADD OR DUP6 SSTORE PUSH3 0x296 JUMP JUMPDEST DUP3 DUP1 ADD PUSH1 0x1 ADD DUP6 SSTORE DUP3 ISZERO PUSH3 0x296 JUMPI SWAP2 DUP3 ADD JUMPDEST DUP3 DUP2 GT ISZERO PUSH3 0x295 JUMPI DUP3 MLOAD DUP3 SSTORE SWAP2 PUSH1 0x20 ADD SWAP2 SWAP1 PUSH1 0x1 ADD SWAP1 PUSH3 0x278 JUMP JUMPDEST JUMPDEST POP SWAP1 POP PUSH3 0x2A5 SWAP2 SWAP1 PUSH3 0x2A9 JUMP JUMPDEST POP SWAP1 JUMP JUMPDEST JUMPDEST DUP1 DUP3 GT ISZERO PUSH3 0x2C4 JUMPI PUSH1 0x0 DUP2 PUSH1 0x0 SWAP1 SSTORE POP PUSH1 0x1 ADD PUSH3 0x2AA JUMP JUMPDEST POP SWAP1 JUMP JUMPDEST PUSH3 0x2D3 DUP2 PUSH3 0x358 JUMP JUMPDEST DUP3 MSTORE POP POP JUMP JUMPDEST PUSH3 0x2E4 DUP2 PUSH3 0x36C JUMP JUMPDEST DUP3 MSTORE POP POP JUMP JUMPDEST PUSH3 0x2F5 DUP2 PUSH3 0x396 JUMP JUMPDEST DUP3 MSTORE POP POP JUMP JUMPDEST PUSH1 0x0 PUSH1 0xA0 DUP3 ADD SWAP1 POP PUSH3 0x312 PUSH1 0x0 DUP4 ADD DUP9 PUSH3 0x2D9 JUMP JUMPDEST PUSH3 0x321 PUSH1 0x20 DUP4 ADD DUP8 PUSH3 0x2D9 JUMP JUMPDEST PUSH3 0x330 PUSH1 0x40 DUP4 ADD DUP7 PUSH3 0x2D9 JUMP JUMPDEST PUSH3 0x33F PUSH1 0x60 DUP4 ADD DUP6 PUSH3 0x2EA JUMP JUMPDEST PUSH3 0x34E PUSH1 0x80 DUP4 ADD DUP5 PUSH3 0x2C8 JUMP JUMPDEST SWAP7 SWAP6 POP POP POP POP POP POP JUMP JUMPDEST PUSH1 0x0 PUSH3 0x365 DUP3 PUSH3 0x376 JUMP JUMPDEST SWAP1 POP SWAP2 SWAP1 POP JUMP JUMPDEST PUSH1 0x0 DUP2 SWAP1 POP SWAP2 SWAP1 POP JUMP JUMPDEST PUSH1 0x0 PUSH20 0xFFFFFFFFFFFFFFFFFFFFFFFFFFFFFFFFFFFFFFFF DUP3 AND SWAP1 POP SWAP2 SWAP1 POP JUMP JUMPDEST PUSH1 0x0 DUP2 SWAP1 POP SWAP2 SWAP1 POP JUMP JUMPDEST PUSH1 0x0 PUSH1 0x2 DUP3 DIV SWAP1 POP PUSH1 0x1 DUP3 AND DUP1 PUSH3 0x3B9 JUMPI PUSH1 0x7F DUP3 AND SWAP2 POP JUMPDEST PUSH1 0x20 DUP3 LT DUP2 EQ ISZERO PUSH3 0x3D0 JUMPI PUSH3 0x3CF PUSH3 0x3D6 JUMP JUMPDEST JUMPDEST POP SWAP2 SWAP1 POP JUMP JUMPDEST PUSH32 0x4E487B7100000000000000000000000000000000000000000000000000000000 PUSH1 0x0 MSTORE PUSH1 0x22 PUSH1 0x4 MSTORE PUSH1 0x24 PUSH1 0x0 REVERT JUMPDEST PUSH1 0x80 MLOAD PUSH1 0xA0 MLOAD PUSH1 0xC0 MLOAD PUSH1 0x60 SHR PUSH1 0xE0 MLOAD PUSH2 0x100 MLOAD PUSH2 0x120 MLOAD PUSH2 0x2098 PUSH3 0x458 PUSH1 0x0 CODECOPY PUSH1 0x0 PUSH2 0xDA5 ADD MSTORE PUSH1 0x0 PUSH2 0xDE7 ADD MSTORE PUSH1 0x0 PUSH2 0xDC6 ADD MSTORE PUSH1 0x0 PUSH2 0xCFB ADD MSTORE PUSH1 0x0 PUSH2 0xD51 ADD MSTORE PUSH1 0x0 PUSH2 0xD7A ADD MSTORE PUSH2 0x2098 PUSH1 0x0 RETURN INVALID PUSH1 0x80 PUSH1 0x40 MSTORE CALLVALUE DUP1 ISZERO PUSH2 0x10 JUMPI PUSH1 0x0 DUP1 REVERT JUMPDEST POP PUSH1 0x4 CALLDATASIZE LT PUSH2 0xF5 JUMPI PUSH1 0x0 CALLDATALOAD PUSH1 0xE0 SHR DUP1 PUSH4 0x40C10F19 GT PUSH2 0x97 JUMPI DUP1 PUSH4 0xA457C2D7 GT PUSH2 0x66 JUMPI DUP1 PUSH4 0xA457C2D7 EQ PUSH2 0x29C JUMPI DUP1 PUSH4 0xA9059CBB EQ PUSH2 0x2CC JUMPI DUP1 PUSH4 0xD505ACCF EQ PUSH2 0x2FC JUMPI DUP1 PUSH4 0xDD62ED3E EQ PUSH2 0x318 JUMPI PUSH2 0xF5 JUMP JUMPDEST DUP1 PUSH4 0x40C10F19 EQ PUSH2 0x202 JUMPI DUP1 PUSH4 0x70A08231 EQ PUSH2 0x21E JUMPI DUP1 PUSH4 0x7ECEBE00 EQ PUSH2 0x24E JUMPI DUP1 PUSH4 0x95D89B41 EQ PUSH2 0x27E JUMPI PUSH2 0xF5 JUMP JUMPDEST DUP1 PUSH4 0x23B872DD GT PUSH2 0xD3 JUMPI DUP1 PUSH4 0x23B872DD EQ PUSH2 0x166 JUMPI DUP1 PUSH4 0x313CE567 EQ PUSH2 0x196 JUMPI DUP1 PUSH4 0x3644E515 EQ PUSH2 0x1B4 JUMPI DUP1 PUSH4 0x39509351 EQ PUSH2 0x1D2 JUMPI PUSH2 0xF5 JUMP JUMPDEST DUP1 PUSH4 0x6FDDE03 EQ PUSH2 0xFA JUMPI DUP1 PUSH4 0x95EA7B3 EQ PUSH2 0x118 JUMPI DUP1 PUSH4 0x18160DDD EQ PUSH2 0x148 JUMPI JUMPDEST PUSH1 0x0 DUP1 REVERT JUMPDEST PUSH2 0x102 PUSH2 0x348 JUMP JUMPDEST PUSH1 0x40 MLOAD PUSH2 0x10F SWAP2 SWAP1 PUSH2 0x18D8 JUMP JUMPDEST PUSH1 0x40 MLOAD DUP1 SWAP2 SUB SWAP1 RETURN JUMPDEST PUSH2 0x132 PUSH1 0x4 DUP1 CALLDATASIZE SUB DUP2 ADD SWAP1 PUSH2 0x12D SWAP2 SWAP1 PUSH2 0x14AD JUMP JUMPDEST PUSH2 0x3DA JUMP JUMPDEST PUSH1 0x40 MLOAD PUSH2 0x13F SWAP2 SWAP1 PUSH2 0x17A9 JUMP JUMPDEST PUSH1 0x40 MLOAD DUP1 SWAP2 SUB SWAP1 RETURN JUMPDEST PUSH2 0x150 PUSH2 0x3FD JUMP JUMPDEST PUSH1 0x40 MLOAD PUSH2 0x15D SWAP2 SWAP1 PUSH2 0x1A9A JUMP JUMPDEST PUSH1 0x40 MLOAD DUP1 SWAP2 SUB SWAP1 RETURN JUMPDEST PUSH2 0x180 PUSH1 0x4 DUP1 CALLDATASIZE SUB DUP2 ADD SWAP1 PUSH2 0x17B SWAP2 SWAP1 PUSH2 0x13B8 JUMP JUMPDEST PUSH2 0x407 JUMP JUMPDEST PUSH1 0x40 MLOAD PUSH2 0x18D SWAP2 SWAP1 PUSH2 0x17A9 JUMP JUMPDEST PUSH1 0x40 MLOAD DUP1 SWAP2 SUB SWAP1 RETURN JUMPDEST PUSH2 0x19E PUSH2 0x436 JUMP JUMPDEST PUSH1 0x40 MLOAD PUSH2 0x1AB SWAP2 SWAP1 PUSH2 0x1AB5 JUMP JUMPDEST PUSH1 0x40 MLOAD DUP1 SWAP2 SUB SWAP1 RETURN JUMPDEST PUSH2 0x1BC PUSH2 0x43F JUMP JUMPDEST PUSH1 0x40 MLOAD PUSH2 0x1C9 SWAP2 SWAP1 PUSH2 0x17C4 JUMP JUMPDEST PUSH1 0x40 MLOAD DUP1 SWAP2 SUB SWAP1 RETURN JUMPDEST PUSH2 0x1EC PUSH1 0x4 DUP1 CALLDATASIZE SUB DUP2 ADD SWAP1 PUSH2 0x1E7 SWAP2 SWAP1 PUSH2 0x14AD JUMP JUMPDEST PUSH2 0x44E JUMP JUMPDEST PUSH1 0x40 MLOAD PUSH2 0x1F9 SWAP2 SWAP1 PUSH2 0x17A9 JUMP JUMPDEST PUSH1 0x40 MLOAD DUP1 SWAP2 SUB SWAP1 RETURN JUMPDEST PUSH2 0x21C PUSH1 0x4 DUP1 CALLDATASIZE SUB DUP2 ADD SWAP1 PUSH2 0x217 SWAP2 SWAP1 PUSH2 0x14AD JUMP JUMPDEST PUSH2 0x485 JUMP JUMPDEST STOP JUMPDEST PUSH2 0x238 PUSH1 0x4 DUP1 CALLDATASIZE SUB DUP2 ADD SWAP1 PUSH2 0x233 SWAP2 SWAP1 PUSH2 0x134B JUMP JUMPDEST PUSH2 0x493 JUMP JUMPDEST PUSH1 0x40 MLOAD PUSH2 0x245 SWAP2 SWAP1 PUSH2 0x1A9A JUMP JUMPDEST PUSH1 0x40 MLOAD DUP1 SWAP2 SUB SWAP1 RETURN JUMPDEST PUSH2 0x268 PUSH1 0x4 DUP1 CALLDATASIZE SUB DUP2 ADD SWAP1 PUSH2 0x263 SWAP2 SWAP1 PUSH2 0x134B JUMP JUMPDEST PUSH2 0x4DB JUMP JUMPDEST PUSH1 0x40 MLOAD PUSH2 0x275 SWAP2 SWAP1 PUSH2 0x1A9A JUMP JUMPDEST PUSH1 0x40 MLOAD DUP1 SWAP2 SUB SWAP1 RETURN JUMPDEST PUSH2 0x286 PUSH2 0x52B JUMP JUMPDEST PUSH1 0x40 MLOAD PUSH2 0x293 SWAP2 SWAP1 PUSH2 0x18D8 JUMP JUMPDEST PUSH1 0x40 MLOAD DUP1 SWAP2 SUB SWAP1 RETURN JUMPDEST PUSH2 0x2B6 PUSH1 0x4 DUP1 CALLDATASIZE SUB DUP2 ADD SWAP1 PUSH2 0x2B1 SWAP2 SWAP1 PUSH2 0x14AD JUMP JUMPDEST PUSH2 0x5BD JUMP JUMPDEST PUSH1 0x40 MLOAD PUSH2 0x2C3 SWAP2 SWAP1 PUSH2 0x17A9 JUMP JUMPDEST PUSH1 0x40 MLOAD DUP1 SWAP2 SUB SWAP1 RETURN JUMPDEST PUSH2 0x2E6 PUSH1 0x4 DUP1 CALLDATASIZE SUB DUP2 ADD SWAP1 PUSH2 0x2E1 SWAP2 SWAP1 PUSH2 0x14AD JUMP JUMPDEST PUSH2 0x634 JUMP JUMPDEST PUSH1 0x40 MLOAD PUSH2 0x2F3 SWAP2 SWAP1 PUSH2 0x17A9 JUMP JUMPDEST PUSH1 0x40 MLOAD DUP1 SWAP2 SUB SWAP1 RETURN JUMPDEST PUSH2 0x316 PUSH1 0x4 DUP1 CALLDATASIZE SUB DUP2 ADD SWAP1 PUSH2 0x311 SWAP2 SWAP1 PUSH2 0x140B JUMP JUMPDEST PUSH2 0x657 JUMP JUMPDEST STOP JUMPDEST PUSH2 0x332 PUSH1 0x4 DUP1 CALLDATASIZE SUB DUP2 ADD SWAP1 PUSH2 0x32D SWAP2 SWAP1 PUSH2 0x1378 JUMP JUMPDEST PUSH2 0x799 JUMP JUMPDEST PUSH1 0x40 MLOAD PUSH2 0x33F SWAP2 SWAP1 PUSH2 0x1A9A JUMP JUMPDEST PUSH1 0x40 MLOAD DUP1 SWAP2 SUB SWAP1 RETURN JUMPDEST PUSH1 0x60 PUSH1 0x3 DUP1 SLOAD PUSH2 0x357 SWAP1 PUSH2 0x1BDF JUMP JUMPDEST DUP1 PUSH1 0x1F ADD PUSH1 0x20 DUP1 SWAP2 DIV MUL PUSH1 0x20 ADD PUSH1 0x40 MLOAD SWAP1 DUP2 ADD PUSH1 0x40 MSTORE DUP1 SWAP3 SWAP2 SWAP1 DUP2 DUP2 MSTORE PUSH1 0x20 ADD DUP3 DUP1 SLOAD PUSH2 0x383 SWAP1 PUSH2 0x1BDF JUMP JUMPDEST DUP1 ISZERO PUSH2 0x3D0 JUMPI DUP1 PUSH1 0x1F LT PUSH2 0x3A5 JUMPI PUSH2 0x100 DUP1 DUP4 SLOAD DIV MUL DUP4 MSTORE SWAP2 PUSH1 0x20 ADD SWAP2 PUSH2 0x3D0 JUMP JUMPDEST DUP3 ADD SWAP2 SWAP1 PUSH1 0x0 MSTORE PUSH1 0x20 PUSH1 0x0 KECCAK256 SWAP1 JUMPDEST DUP2 SLOAD DUP2 MSTORE SWAP1 PUSH1 0x1 ADD SWAP1 PUSH1 0x20 ADD DUP1 DUP4 GT PUSH2 0x3B3 JUMPI DUP3 SWAP1 SUB PUSH1 0x1F AND DUP3 ADD SWAP2 JUMPDEST POP POP POP POP POP SWAP1 POP SWAP1 JUMP JUMPDEST PUSH1 0x0 DUP1 PUSH2 0x3E5 PUSH2 0x820 JUMP JUMPDEST SWAP1 POP PUSH2 0x3F2 DUP2 DUP6 DUP6 PUSH2 0x828 JUMP JUMPDEST PUSH1 0x1 SWAP2 POP POP SWAP3 SWAP2 POP POP JUMP JUMPDEST PUSH1 0x0 PUSH1 0x2 SLOAD SWAP1 POP SWAP1 JUMP JUMPDEST PUSH1 0x0 DUP1 PUSH2 0x412 PUSH2 0x820 JUMP JUMPDEST SWAP1 POP PUSH2 0x41F DUP6 DUP3 DUP6 PUSH2 0x9F3 JUMP JUMPDEST PUSH2 0x42A DUP6 DUP6 DUP6 PUSH2 0xA7F JUMP JUMPDEST PUSH1 0x1 SWAP2 POP POP SWAP4 SWAP3 POP POP POP JUMP JUMPDEST PUSH1 0x0 PUSH1 0x12 SWAP1 POP SWAP1 JUMP JUMPDEST PUSH1 0x0 PUSH2 0x449 PUSH2 0xCF7 JUMP JUMPDEST SWAP1 POP SWAP1 JUMP JUMPDEST PUSH1 0x0 DUP1 PUSH2 0x459 PUSH2 0x820 JUMP JUMPDEST SWAP1 POP PUSH2 0x47A DUP2 DUP6 DUP6 PUSH2 0x46B DUP6 DUP10 PUSH2 0x799 JUMP JUMPDEST PUSH2 0x475 SWAP2 SWAP1 PUSH2 0x1AF7 JUMP JUMPDEST PUSH2 0x828 JUMP JUMPDEST PUSH1 0x1 SWAP2 POP POP SWAP3 SWAP2 POP POP JUMP JUMPDEST PUSH2 0x48F DUP3 DUP3 PUSH2 0xE11 JUMP JUMPDEST POP POP JUMP JUMPDEST PUSH1 0x0 DUP1 PUSH1 0x0 DUP4 PUSH20 0xFFFFFFFFFFFFFFFFFFFFFFFFFFFFFFFFFFFFFFFF AND PUSH20 0xFFFFFFFFFFFFFFFFFFFFFFFFFFFFFFFFFFFFFFFF AND DUP2 MSTORE PUSH1 0x20 ADD SWAP1 DUP2 MSTORE PUSH1 0x20 ADD PUSH1 0x0 KECCAK256 SLOAD SWAP1 POP SWAP2 SWAP1 POP JUMP JUMPDEST PUSH1 0x0 PUSH2 0x524 PUSH1 0x5 PUSH1 0x0 DUP5 PUSH20 0xFFFFFFFFFFFFFFFFFFFFFFFFFFFFFFFFFFFFFFFF AND PUSH20 0xFFFFFFFFFFFFFFFFFFFFFFFFFFFFFFFFFFFFFFFF AND DUP2 MSTORE PUSH1 0x20 ADD SWAP1 DUP2 MSTORE PUSH1 0x20 ADD PUSH1 0x0 KECCAK256 PUSH2 0xF68 JUMP JUMPDEST SWAP1 POP SWAP2 SWAP1 POP JUMP JUMPDEST PUSH1 0x60 PUSH1 0x4 DUP1 SLOAD PUSH2 0x53A SWAP1 PUSH2 0x1BDF JUMP JUMPDEST DUP1 PUSH1 0x1F ADD PUSH1 0x20 DUP1 SWAP2 DIV MUL PUSH1 0x20 ADD PUSH1 0x40 MLOAD SWAP1 DUP2 ADD PUSH1 0x40 MSTORE DUP1 SWAP3 SWAP2 SWAP1 DUP2 DUP2 MSTORE PUSH1 0x20 ADD DUP3 DUP1 SLOAD PUSH2 0x566 SWAP1 PUSH2 0x1BDF JUMP JUMPDEST DUP1 ISZERO PUSH2 0x5B3 JUMPI DUP1 PUSH1 0x1F LT PUSH2 0x588 JUMPI PUSH2 0x100 DUP1 DUP4 SLOAD DIV MUL DUP4 MSTORE SWAP2 PUSH1 0x20 ADD SWAP2 PUSH2 0x5B3 JUMP JUMPDEST DUP3 ADD SWAP2 SWAP1 PUSH1 0x0 MSTORE PUSH1 0x20 PUSH1 0x0 KECCAK256 SWAP1 JUMPDEST DUP2 SLOAD DUP2 MSTORE SWAP1 PUSH1 0x1 ADD SWAP1 PUSH1 0x20 ADD DUP1 DUP4 GT PUSH2 0x596 JUMPI DUP3 SWAP1 SUB PUSH1 0x1F AND DUP3 ADD SWAP2 JUMPDEST POP POP POP POP POP SWAP1 POP SWAP1 JUMP JUMPDEST PUSH1 0x0 DUP1 PUSH2 0x5C8 PUSH2 0x820 JUMP JUMPDEST SWAP1 POP PUSH1 0x0 PUSH2 0x5D6 DUP3 DUP7 PUSH2 0x799 JUMP JUMPDEST SWAP1 POP DUP4 DUP2 LT ISZERO PUSH2 0x61B JUMPI PUSH1 0x40 MLOAD PUSH32 0x8C379A000000000000000000000000000000000000000000000000000000000 DUP2 MSTORE PUSH1 0x4 ADD PUSH2 0x612 SWAP1 PUSH2 0x1A5A JUMP JUMPDEST PUSH1 0x40 MLOAD DUP1 SWAP2 SUB SWAP1 REVERT JUMPDEST PUSH2 0x628 DUP3 DUP7 DUP7 DUP5 SUB PUSH2 0x828 JUMP JUMPDEST PUSH1 0x1 SWAP3 POP POP POP SWAP3 SWAP2 POP POP JUMP JUMPDEST PUSH1 0x0 DUP1 PUSH2 0x63F PUSH2 0x820 JUMP JUMPDEST SWAP1 POP PUSH2 0x64C DUP2 DUP6 DUP6 PUSH2 0xA7F JUMP JUMPDEST PUSH1 0x1 SWAP2 POP POP SWAP3 SWAP2 POP POP JUMP JUMPDEST DUP4 TIMESTAMP GT ISZERO PUSH2 0x69A JUMPI PUSH1 0x40 MLOAD PUSH32 0x8C379A000000000000000000000000000000000000000000000000000000000 DUP2 MSTORE PUSH1 0x4 ADD PUSH2 0x691 SWAP1 PUSH2 0x199A JUMP JUMPDEST PUSH1 0x40 MLOAD DUP1 SWAP2 SUB SWAP1 REVERT JUMPDEST PUSH1 0x0 PUSH32 0x6E71EDAE12B1B97F4D1F60370FEF10105FA2FAAE0126114A169C64845D6126C9 DUP9 DUP9 DUP9 PUSH2 0x6C9 DUP13 PUSH2 0xF76 JUMP JUMPDEST DUP10 PUSH1 0x40 MLOAD PUSH1 0x20 ADD PUSH2 0x6DF SWAP7 SWAP6 SWAP5 SWAP4 SWAP3 SWAP2 SWAP1 PUSH2 0x17DF JUMP JUMPDEST PUSH1 0x40 MLOAD PUSH1 0x20 DUP2 DUP4 SUB SUB DUP2 MSTORE SWAP1 PUSH1 0x40 MSTORE DUP1 MLOAD SWAP1 PUSH1 0x20 ADD KECCAK256 SWAP1 POP PUSH1 0x0 PUSH2 0x702 DUP3 PUSH2 0xFD4 JUMP JUMPDEST SWAP1 POP PUSH1 0x0 PUSH2 0x712 DUP3 DUP8 DUP8 DUP8 PUSH2 0xFEE JUMP JUMPDEST SWAP1 POP DUP10 PUSH20 0xFFFFFFFFFFFFFFFFFFFFFFFFFFFFFFFFFFFFFFFF AND DUP2 PUSH20 0xFFFFFFFFFFFFFFFFFFFFFFFFFFFFFFFFFFFFFFFF AND EQ PUSH2 0x782 JUMPI PUSH1 0x40 MLOAD PUSH32 0x8C379A000000000000000000000000000000000000000000000000000000000 DUP2 MSTORE PUSH1 0x4 ADD PUSH2 0x779 SWAP1 PUSH2 0x19FA JUMP JUMPDEST PUSH1 0x40 MLOAD DUP1 SWAP2 SUB SWAP1 REVERT JUMPDEST PUSH2 0x78D DUP11 DUP11 DUP11 PUSH2 0x828 JUMP JUMPDEST POP POP POP POP POP POP POP POP POP POP JUMP JUMPDEST PUSH1 0x0 PUSH1 0x1 PUSH1 0x0 DUP5 PUSH20 0xFFFFFFFFFFFFFFFFFFFFFFFFFFFFFFFFFFFFFFFF AND PUSH20 0xFFFFFFFFFFFFFFFFFFFFFFFFFFFFFFFFFFFFFFFF AND DUP2 MSTORE PUSH1 0x20 ADD SWAP1 DUP2 MSTORE PUSH1 0x20 ADD PUSH1 0x0 KECCAK256 PUSH1 0x0 DUP4 PUSH20 0xFFFFFFFFFFFFFFFFFFFFFFFFFFFFFFFFFFFFFFFF AND PUSH20 0xFFFFFFFFFFFFFFFFFFFFFFFFFFFFFFFFFFFFFFFF AND DUP2 MSTORE PUSH1 0x20 ADD SWAP1 DUP2 MSTORE PUSH1 0x20 ADD PUSH1 0x0 KECCAK256 SLOAD SWAP1 POP SWAP3 SWAP2 POP POP JUMP JUMPDEST PUSH1 0x0 CALLER SWAP1 POP SWAP1 JUMP JUMPDEST PUSH1 0x0 PUSH20 0xFFFFFFFFFFFFFFFFFFFFFFFFFFFFFFFFFFFFFFFF AND DUP4 PUSH20 0xFFFFFFFFFFFFFFFFFFFFFFFFFFFFFFFFFFFFFFFF AND EQ ISZERO PUSH2 0x898 JUMPI PUSH1 0x40 MLOAD PUSH32 0x8C379A000000000000000000000000000000000000000000000000000000000 DUP2 MSTORE PUSH1 0x4 ADD PUSH2 0x88F SWAP1 PUSH2 0x1A3A JUMP JUMPDEST PUSH1 0x40 MLOAD DUP1 SWAP2 SUB SWAP1 REVERT JUMPDEST PUSH1 0x0 PUSH20 0xFFFFFFFFFFFFFFFFFFFFFFFFFFFFFFFFFFFFFFFF AND DUP3 PUSH20 0xFFFFFFFFFFFFFFFFFFFFFFFFFFFFFFFFFFFFFFFF AND EQ ISZERO PUSH2 0x908 JUMPI PUSH1 0x40 MLOAD PUSH32 0x8C379A000000000000000000000000000000000000000000000000000000000 DUP2 MSTORE PUSH1 0x4 ADD PUSH2 0x8FF SWAP1 PUSH2 0x195A JUMP JUMPDEST PUSH1 0x40 MLOAD DUP1 SWAP2 SUB SWAP1 REVERT JUMPDEST DUP1 PUSH1 0x1 PUSH1 0x0 DUP6 PUSH20 0xFFFFFFFFFFFFFFFFFFFFFFFFFFFFFFFFFFFFFFFF AND PUSH20 0xFFFFFFFFFFFFFFFFFFFFFFFFFFFFFFFFFFFFFFFF AND DUP2 MSTORE PUSH1 0x20 ADD SWAP1 DUP2 MSTORE PUSH1 0x20 ADD PUSH1 0x0 KECCAK256 PUSH1 0x0 DUP5 PUSH20 0xFFFFFFFFFFFFFFFFFFFFFFFFFFFFFFFFFFFFFFFF AND PUSH20 0xFFFFFFFFFFFFFFFFFFFFFFFFFFFFFFFFFFFFFFFF AND DUP2 MSTORE PUSH1 0x20 ADD SWAP1 DUP2 MSTORE PUSH1 0x20 ADD PUSH1 0x0 KECCAK256 DUP2 SWAP1 SSTORE POP DUP2 PUSH20 0xFFFFFFFFFFFFFFFFFFFFFFFFFFFFFFFFFFFFFFFF AND DUP4 PUSH20 0xFFFFFFFFFFFFFFFFFFFFFFFFFFFFFFFFFFFFFFFF AND PUSH32 0x8C5BE1E5EBEC7D5BD14F71427D1E84F3DD0314C0F7B2291E5B200AC8C7C3B925 DUP4 PUSH1 0x40 MLOAD PUSH2 0x9E6 SWAP2 SWAP1 PUSH2 0x1A9A JUMP JUMPDEST PUSH1 0x40 MLOAD DUP1 SWAP2 SUB SWAP1 LOG3 POP POP POP JUMP JUMPDEST PUSH1 0x0 PUSH2 0x9FF DUP5 DUP5 PUSH2 0x799 JUMP JUMPDEST SWAP1 POP PUSH32 0xFFFFFFFFFFFFFFFFFFFFFFFFFFFFFFFFFFFFFFFFFFFFFFFFFFFFFFFFFFFFFFFF DUP2 EQ PUSH2 0xA79 JUMPI DUP2 DUP2 LT ISZERO PUSH2 0xA6B JUMPI PUSH1 0x40 MLOAD PUSH32 0x8C379A000000000000000000000000000000000000000000000000000000000 DUP2 MSTORE PUSH1 0x4 ADD PUSH2 0xA62 SWAP1 PUSH2 0x197A JUMP JUMPDEST PUSH1 0x40 MLOAD DUP1 SWAP2 SUB SWAP1 REVERT JUMPDEST PUSH2 0xA78 DUP5 DUP5 DUP5 DUP5 SUB PUSH2 0x828 JUMP JUMPDEST JUMPDEST POP POP POP POP JUMP JUMPDEST PUSH1 0x0 PUSH20 0xFFFFFFFFFFFFFFFFFFFFFFFFFFFFFFFFFFFFFFFF AND DUP4 PUSH20 0xFFFFFFFFFFFFFFFFFFFFFFFFFFFFFFFFFFFFFFFF AND EQ ISZERO PUSH2 0xAEF JUMPI PUSH1 0x40 MLOAD PUSH32 0x8C379A000000000000000000000000000000000000000000000000000000000 DUP2 MSTORE PUSH1 0x4 ADD PUSH2 0xAE6 SWAP1 PUSH2 0x1A1A JUMP JUMPDEST PUSH1 0x40 MLOAD DUP1 SWAP2 SUB SWAP1 REVERT JUMPDEST PUSH1 0x0 PUSH20 0xFFFFFFFFFFFFFFFFFFFFFFFFFFFFFFFFFFFFFFFF AND DUP3 PUSH20 0xFFFFFFFFFFFFFFFFFFFFFFFFFFFFFFFFFFFFFFFF AND EQ ISZERO PUSH2 0xB5F JUMPI PUSH1 0x40 MLOAD PUSH32 0x8C379A000000000000000000000000000000000000000000000000000000000 DUP2 MSTORE PUSH1 0x4 ADD PUSH2 0xB56 SWAP1 PUSH2 0x191A JUMP JUMPDEST PUSH1 0x40 MLOAD DUP1 SWAP2 SUB SWAP1 REVERT JUMPDEST PUSH2 0xB6A DUP4 DUP4 DUP4 PUSH2 0x1019 JUMP JUMPDEST PUSH1 0x0 DUP1 PUSH1 0x0 DUP6 PUSH20 0xFFFFFFFFFFFFFFFFFFFFFFFFFFFFFFFFFFFFFFFF AND PUSH20 0xFFFFFFFFFFFFFFFFFFFFFFFFFFFFFFFFFFFFFFFF AND DUP2 MSTORE PUSH1 0x20 ADD SWAP1 DUP2 MSTORE PUSH1 0x20 ADD PUSH1 0x0 KECCAK256 SLOAD SWAP1 POP DUP2 DUP2 LT ISZERO PUSH2 0xBF0 JUMPI PUSH1 0x40 MLOAD PUSH32 0x8C379A000000000000000000000000000000000000000000000000000000000 DUP2 MSTORE PUSH1 0x4 ADD PUSH2 0xBE7 SWAP1 PUSH2 0x19BA JUMP JUMPDEST PUSH1 0x40 MLOAD DUP1 SWAP2 SUB SWAP1 REVERT JUMPDEST DUP2 DUP2 SUB PUSH1 0x0 DUP1 DUP7 PUSH20 0xFFFFFFFFFFFFFFFFFFFFFFFFFFFFFFFFFFFFFFFF AND PUSH20 0xFFFFFFFFFFFFFFFFFFFFFFFFFFFFFFFFFFFFFFFF AND DUP2 MSTORE PUSH1 0x20 ADD SWAP1 DUP2 MSTORE PUSH1 0x20 ADD PUSH1 0x0 KECCAK256 DUP2 SWAP1 SSTORE POP DUP2 PUSH1 0x0 DUP1 DUP6 PUSH20 0xFFFFFFFFFFFFFFFFFFFFFFFFFFFFFFFFFFFFFFFF AND PUSH20 0xFFFFFFFFFFFFFFFFFFFFFFFFFFFFFFFFFFFFFFFF AND DUP2 MSTORE PUSH1 0x20 ADD SWAP1 DUP2 MSTORE PUSH1 0x20 ADD PUSH1 0x0 KECCAK256 PUSH1 0x0 DUP3 DUP3 SLOAD ADD SWAP3 POP POP DUP2 SWAP1 SSTORE POP DUP3 PUSH20 0xFFFFFFFFFFFFFFFFFFFFFFFFFFFFFFFFFFFFFFFF AND DUP5 PUSH20 0xFFFFFFFFFFFFFFFFFFFFFFFFFFFFFFFFFFFFFFFF AND PUSH32 0xDDF252AD1BE2C89B69C2B068FC378DAA952BA7F163C4A11628F55A4DF523B3EF DUP5 PUSH1 0x40 MLOAD PUSH2 0xCDE SWAP2 SWAP1 PUSH2 0x1A9A JUMP JUMPDEST PUSH1 0x40 MLOAD DUP1 SWAP2 SUB SWAP1 LOG3 PUSH2 0xCF1 DUP5 DUP5 DUP5 PUSH2 0x101E JUMP JUMPDEST POP POP POP POP JUMP JUMPDEST PUSH1 0x0 PUSH32 0x0 PUSH20 0xFFFFFFFFFFFFFFFFFFFFFFFFFFFFFFFFFFFFFFFF AND ADDRESS PUSH20 0xFFFFFFFFFFFFFFFFFFFFFFFFFFFFFFFFFFFFFFFF AND EQ DUP1 ISZERO PUSH2 0xD73 JUMPI POP PUSH32 0x0 CHAINID EQ JUMPDEST ISZERO PUSH2 0xDA0 JUMPI PUSH32 0x0 SWAP1 POP PUSH2 0xE0E JUMP JUMPDEST PUSH2 0xE0B PUSH32 0x0 PUSH32 0x0 PUSH32 0x0 PUSH2 0x1023 JUMP JUMPDEST SWAP1 POP JUMPDEST SWAP1 JUMP JUMPDEST PUSH1 0x0 PUSH20 0xFFFFFFFFFFFFFFFFFFFFFFFFFFFFFFFFFFFFFFFF AND DUP3 PUSH20 0xFFFFFFFFFFFFFFFFFFFFFFFFFFFFFFFFFFFFFFFF AND EQ ISZERO PUSH2 0xE81 JUMPI PUSH1 0x40 MLOAD PUSH32 0x8C379A000000000000000000000000000000000000000000000000000000000 DUP2 MSTORE PUSH1 0x4 ADD PUSH2 0xE78 SWAP1 PUSH2 0x1A7A JUMP JUMPDEST PUSH1 0x40 MLOAD DUP1 SWAP2 SUB SWAP1 REVERT JUMPDEST PUSH2 0xE8D PUSH1 0x0 DUP4 DUP4 PUSH2 0x1019 JUMP JUMPDEST DUP1 PUSH1 0x2 PUSH1 0x0 DUP3 DUP3 SLOAD PUSH2 0xE9F SWAP2 SWAP1 PUSH2 0x1AF7 JUMP JUMPDEST SWAP3 POP POP DUP2 SWAP1 SSTORE POP DUP1 PUSH1 0x0 DUP1 DUP5 PUSH20 0xFFFFFFFFFFFFFFFFFFFFFFFFFFFFFFFFFFFFFFFF AND PUSH20 0xFFFFFFFFFFFFFFFFFFFFFFFFFFFFFFFFFFFFFFFF AND DUP2 MSTORE PUSH1 0x20 ADD SWAP1 DUP2 MSTORE PUSH1 0x20 ADD PUSH1 0x0 KECCAK256 PUSH1 0x0 DUP3 DUP3 SLOAD ADD SWAP3 POP POP DUP2 SWAP1 SSTORE POP DUP2 PUSH20 0xFFFFFFFFFFFFFFFFFFFFFFFFFFFFFFFFFFFFFFFF AND PUSH1 0x0 PUSH20 0xFFFFFFFFFFFFFFFFFFFFFFFFFFFFFFFFFFFFFFFF AND PUSH32 0xDDF252AD1BE2C89B69C2B068FC378DAA952BA7F163C4A11628F55A4DF523B3EF DUP4 PUSH1 0x40 MLOAD PUSH2 0xF50 SWAP2 SWAP1 PUSH2 0x1A9A JUMP JUMPDEST PUSH1 0x40 MLOAD DUP1 SWAP2 SUB SWAP1 LOG3 PUSH2 0xF64 PUSH1 0x0 DUP4 DUP4 PUSH2 0x101E JUMP JUMPDEST POP POP JUMP JUMPDEST PUSH1 0x0 DUP2 PUSH1 0x0 ADD SLOAD SWAP1 POP SWAP2 SWAP1 POP JUMP JUMPDEST PUSH1 0x0 DUP1 PUSH1 0x5 PUSH1 0x0 DUP5 PUSH20 0xFFFFFFFFFFFFFFFFFFFFFFFFFFFFFFFFFFFFFFFF AND PUSH20 0xFFFFFFFFFFFFFFFFFFFFFFFFFFFFFFFFFFFFFFFF AND DUP2 MSTORE PUSH1 0x20 ADD SWAP1 DUP2 MSTORE PUSH1 0x20 ADD PUSH1 0x0 KECCAK256 SWAP1 POP PUSH2 0xFC3 DUP2 PUSH2 0xF68 JUMP JUMPDEST SWAP2 POP PUSH2 0xFCE DUP2 PUSH2 0x105D JUMP JUMPDEST POP SWAP2 SWAP1 POP JUMP JUMPDEST PUSH1 0x0 PUSH2 0xFE7 PUSH2 0xFE1 PUSH2 0xCF7 JUMP JUMPDEST DUP4 PUSH2 0x1073 JUMP JUMPDEST SWAP1 POP SWAP2 SWAP1 POP JUMP JUMPDEST PUSH1 0x0 DUP1 PUSH1 0x0 PUSH2 0xFFF DUP8 DUP8 DUP8 DUP8 PUSH2 0x10A6 JUMP JUMPDEST SWAP2 POP SWAP2 POP PUSH2 0x100C DUP2 PUSH2 0x1189 JUMP JUMPDEST DUP2 SWAP3 POP POP POP SWAP5 SWAP4 POP POP POP POP JUMP JUMPDEST POP POP POP JUMP JUMPDEST POP POP POP JUMP JUMPDEST PUSH1 0x0 DUP4 DUP4 DUP4 CHAINID ADDRESS PUSH1 0x40 MLOAD PUSH1 0x20 ADD PUSH2 0x103E SWAP6 SWAP5 SWAP4 SWAP3 SWAP2 SWAP1 PUSH2 0x1840 JUMP JUMPDEST PUSH1 0x40 MLOAD PUSH1 0x20 DUP2 DUP4 SUB SUB DUP2 MSTORE SWAP1 PUSH1 0x40 MSTORE DUP1 MLOAD SWAP1 PUSH1 0x20 ADD KECCAK256 SWAP1 POP SWAP4 SWAP3 POP POP POP JUMP JUMPDEST PUSH1 0x1 DUP2 PUSH1 0x0 ADD PUSH1 0x0 DUP3 DUP3 SLOAD ADD SWAP3 POP POP DUP2 SWAP1 SSTORE POP POP JUMP JUMPDEST PUSH1 0x0 DUP3 DUP3 PUSH1 0x40 MLOAD PUSH1 0x20 ADD PUSH2 0x1088 SWAP3 SWAP2 SWAP1 PUSH2 0x1772 JUMP JUMPDEST PUSH1 0x40 MLOAD PUSH1 0x20 DUP2 DUP4 SUB SUB DUP2 MSTORE SWAP1 PUSH1 0x40 MSTORE DUP1 MLOAD SWAP1 PUSH1 0x20 ADD KECCAK256 SWAP1 POP SWAP3 SWAP2 POP POP JUMP JUMPDEST PUSH1 0x0 DUP1 PUSH32 0x7FFFFFFFFFFFFFFFFFFFFFFFFFFFFFFF5D576E7357A4501DDFE92F46681B20A0 DUP4 PUSH1 0x0 SHR GT ISZERO PUSH2 0x10E1 JUMPI PUSH1 0x0 PUSH1 0x3 SWAP2 POP SWAP2 POP PUSH2 0x1180 JUMP JUMPDEST PUSH1 0x0 PUSH1 0x1 DUP8 DUP8 DUP8 DUP8 PUSH1 0x40 MLOAD PUSH1 0x0 DUP2 MSTORE PUSH1 0x20 ADD PUSH1 0x40 MSTORE PUSH1 0x40 MLOAD PUSH2 0x1106 SWAP5 SWAP4 SWAP3 SWAP2 SWAP1 PUSH2 0x1893 JUMP JUMPDEST PUSH1 0x20 PUSH1 0x40 MLOAD PUSH1 0x20 DUP2 SUB SWAP1 DUP1 DUP5 SUB SWAP1 DUP6 GAS STATICCALL ISZERO DUP1 ISZERO PUSH2 0x1128 JUMPI RETURNDATASIZE PUSH1 0x0 DUP1 RETURNDATACOPY RETURNDATASIZE PUSH1 0x0 REVERT JUMPDEST POP POP POP PUSH1 0x20 PUSH1 0x40 MLOAD SUB MLOAD SWAP1 POP PUSH1 0x0 PUSH20 0xFFFFFFFFFFFFFFFFFFFFFFFFFFFFFFFFFFFFFFFF AND DUP2 PUSH20 0xFFFFFFFFFFFFFFFFFFFFFFFFFFFFFFFFFFFFFFFF AND EQ ISZERO PUSH2 0x1177 JUMPI PUSH1 0x0 PUSH1 0x1 SWAP3 POP SWAP3 POP POP PUSH2 0x1180 JUMP JUMPDEST DUP1 PUSH1 0x0 SWAP3 POP SWAP3 POP POP JUMPDEST SWAP5 POP SWAP5 SWAP3 POP POP POP JUMP JUMPDEST PUSH1 0x0 PUSH1 0x4 DUP2 GT ISZERO PUSH2 0x119D JUMPI PUSH2 0x119C PUSH2 0x1C4A JUMP JUMPDEST JUMPDEST DUP2 PUSH1 0x4 DUP2 GT ISZERO PUSH2 0x11B0 JUMPI PUSH2 0x11AF PUSH2 0x1C4A JUMP JUMPDEST JUMPDEST EQ ISZERO PUSH2 0x11BB JUMPI PUSH2 0x12F4 JUMP JUMPDEST PUSH1 0x1 PUSH1 0x4 DUP2 GT ISZERO PUSH2 0x11CF JUMPI PUSH2 0x11CE PUSH2 0x1C4A JUMP JUMPDEST JUMPDEST DUP2 PUSH1 0x4 DUP2 GT ISZERO PUSH2 0x11E2 JUMPI PUSH2 0x11E1 PUSH2 0x1C4A JUMP JUMPDEST JUMPDEST EQ ISZERO PUSH2 0x1223 JUMPI PUSH1 0x40 MLOAD PUSH32 0x8C379A000000000000000000000000000000000000000000000000000000000 DUP2 MSTORE PUSH1 0x4 ADD PUSH2 0x121A SWAP1 PUSH2 0x18FA JUMP JUMPDEST PUSH1 0x40 MLOAD DUP1 SWAP2 SUB SWAP1 REVERT JUMPDEST PUSH1 0x2 PUSH1 0x4 DUP2 GT ISZERO PUSH2 0x1237 JUMPI PUSH2 0x1236 PUSH2 0x1C4A JUMP JUMPDEST JUMPDEST DUP2 PUSH1 0x4 DUP2 GT ISZERO PUSH2 0x124A JUMPI PUSH2 0x1249 PUSH2 0x1C4A JUMP JUMPDEST JUMPDEST EQ ISZERO PUSH2 0x128B JUMPI PUSH1 0x40 MLOAD PUSH32 0x8C379A000000000000000000000000000000000000000000000000000000000 DUP2 MSTORE PUSH1 0x4 ADD PUSH2 0x1282 SWAP1 PUSH2 0x193A JUMP JUMPDEST PUSH1 0x40 MLOAD DUP1 SWAP2 SUB SWAP1 REVERT JUMPDEST PUSH1 0x3 PUSH1 0x4 DUP2 GT ISZERO PUSH2 0x129F JUMPI PUSH2 0x129E PUSH2 0x1C4A JUMP JUMPDEST JUMPDEST DUP2 PUSH1 0x4 DUP2 GT ISZERO PUSH2 0x12B2 JUMPI PUSH2 0x12B1 PUSH2 0x1C4A JUMP JUMPDEST JUMPDEST EQ ISZERO PUSH2 0x12F3 JUMPI PUSH1 0x40 MLOAD PUSH32 0x8C379A000000000000000000000000000000000000000000000000000000000 DUP2 MSTORE PUSH1 0x4 ADD PUSH2 0x12EA SWAP1 PUSH2 0x19DA JUMP JUMPDEST PUSH1 0x40 MLOAD DUP1 SWAP2 SUB SWAP1 REVERT JUMPDEST JUMPDEST POP JUMP JUMPDEST PUSH1 0x0 DUP2 CALLDATALOAD SWAP1 POP PUSH2 0x1306 DUP2 PUSH2 0x2006 JUMP JUMPDEST SWAP3 SWAP2 POP POP JUMP JUMPDEST PUSH1 0x0 DUP2 CALLDATALOAD SWAP1 POP PUSH2 0x131B DUP2 PUSH2 0x201D JUMP JUMPDEST SWAP3 SWAP2 POP POP JUMP JUMPDEST PUSH1 0x0 DUP2 CALLDATALOAD SWAP1 POP PUSH2 0x1330 DUP2 PUSH2 0x2034 JUMP JUMPDEST SWAP3 SWAP2 POP POP JUMP JUMPDEST PUSH1 0x0 DUP2 CALLDATALOAD SWAP1 POP PUSH2 0x1345 DUP2 PUSH2 0x204B JUMP JUMPDEST SWAP3 SWAP2 POP POP JUMP JUMPDEST PUSH1 0x0 PUSH1 0x20 DUP3 DUP5 SUB SLT ISZERO PUSH2 0x1361 JUMPI PUSH2 0x1360 PUSH2 0x1CA8 JUMP JUMPDEST JUMPDEST PUSH1 0x0 PUSH2 0x136F DUP5 DUP3 DUP6 ADD PUSH2 0x12F7 JUMP JUMPDEST SWAP2 POP POP SWAP3 SWAP2 POP POP JUMP JUMPDEST PUSH1 0x0 DUP1 PUSH1 0x40 DUP4 DUP6 SUB SLT ISZERO PUSH2 0x138F JUMPI PUSH2 0x138E PUSH2 0x1CA8 JUMP JUMPDEST JUMPDEST PUSH1 0x0 PUSH2 0x139D DUP6 DUP3 DUP7 ADD PUSH2 0x12F7 JUMP JUMPDEST SWAP3 POP POP PUSH1 0x20 PUSH2 0x13AE DUP6 DUP3 DUP7 ADD PUSH2 0x12F7 JUMP JUMPDEST SWAP2 POP POP SWAP3 POP SWAP3 SWAP1 POP JUMP JUMPDEST PUSH1 0x0 DUP1 PUSH1 0x0 PUSH1 0x60 DUP5 DUP7 SUB SLT ISZERO PUSH2 0x13D1 JUMPI PUSH2 0x13D0 PUSH2 0x1CA8 JUMP JUMPDEST JUMPDEST PUSH1 0x0 PUSH2 0x13DF DUP7 DUP3 DUP8 ADD PUSH2 0x12F7 JUMP JUMPDEST SWAP4 POP POP PUSH1 0x20 PUSH2 0x13F0 DUP7 DUP3 DUP8 ADD PUSH2 0x12F7 JUMP JUMPDEST SWAP3 POP POP PUSH1 0x40 PUSH2 0x1401 DUP7 DUP3 DUP8 ADD PUSH2 0x1321 JUMP JUMPDEST SWAP2 POP POP SWAP3 POP SWAP3 POP SWAP3 JUMP JUMPDEST PUSH1 0x0 DUP1 PUSH1 0x0 DUP1 PUSH1 0x0 DUP1 PUSH1 0x0 PUSH1 0xE0 DUP9 DUP11 SUB SLT ISZERO PUSH2 0x142A JUMPI PUSH2 0x1429 PUSH2 0x1CA8 JUMP JUMPDEST JUMPDEST PUSH1 0x0 PUSH2 0x1438 DUP11 DUP3 DUP12 ADD PUSH2 0x12F7 JUMP JUMPDEST SWAP8 POP POP PUSH1 0x20 PUSH2 0x1449 DUP11 DUP3 DUP12 ADD PUSH2 0x12F7 JUMP JUMPDEST SWAP7 POP POP PUSH1 0x40 PUSH2 0x145A DUP11 DUP3 DUP12 ADD PUSH2 0x1321 JUMP JUMPDEST SWAP6 POP POP PUSH1 0x60 PUSH2 0x146B DUP11 DUP3 DUP12 ADD PUSH2 0x1321 JUMP JUMPDEST SWAP5 POP POP PUSH1 0x80 PUSH2 0x147C DUP11 DUP3 DUP12 ADD PUSH2 0x1336 JUMP JUMPDEST SWAP4 POP POP PUSH1 0xA0 PUSH2 0x148D DUP11 DUP3 DUP12 ADD PUSH2 0x130C JUMP JUMPDEST SWAP3 POP POP PUSH1 0xC0 PUSH2 0x149E DUP11 DUP3 DUP12 ADD PUSH2 0x130C JUMP JUMPDEST SWAP2 POP POP SWAP3 SWAP6 SWAP9 SWAP2 SWAP5 SWAP8 POP SWAP3 SWAP6 POP JUMP JUMPDEST PUSH1 0x0 DUP1 PUSH1 0x40 DUP4 DUP6 SUB SLT ISZERO PUSH2 0x14C4 JUMPI PUSH2 0x14C3 PUSH2 0x1CA8 JUMP JUMPDEST JUMPDEST PUSH1 0x0 PUSH2 0x14D2 DUP6 DUP3 DUP7 ADD PUSH2 0x12F7 JUMP JUMPDEST SWAP3 POP POP PUSH1 0x20 PUSH2 0x14E3 DUP6 DUP3 DUP7 ADD PUSH2 0x1321 JUMP JUMPDEST SWAP2 POP POP SWAP3 POP SWAP3 SWAP1 POP JUMP JUMPDEST PUSH2 0x14F6 DUP2 PUSH2 0x1B4D JUMP JUMPDEST DUP3 MSTORE POP POP JUMP JUMPDEST PUSH2 0x1505 DUP2 PUSH2 0x1B5F JUMP JUMPDEST DUP3 MSTORE POP POP JUMP JUMPDEST PUSH2 0x1514 DUP2 PUSH2 0x1B6B JUMP JUMPDEST DUP3 MSTORE POP POP JUMP JUMPDEST PUSH2 0x152B PUSH2 0x1526 DUP3 PUSH2 0x1B6B JUMP JUMPDEST PUSH2 0x1C11 JUMP JUMPDEST DUP3 MSTORE POP POP JUMP JUMPDEST PUSH1 0x0 PUSH2 0x153C DUP3 PUSH2 0x1AD0 JUMP JUMPDEST PUSH2 0x1546 DUP2 DUP6 PUSH2 0x1ADB JUMP JUMPDEST SWAP4 POP PUSH2 0x1556 DUP2 DUP6 PUSH1 0x20 DUP7 ADD PUSH2 0x1BAC JUMP JUMPDEST PUSH2 0x155F DUP2 PUSH2 0x1CAD JUMP JUMPDEST DUP5 ADD SWAP2 POP POP SWAP3 SWAP2 POP POP JUMP JUMPDEST PUSH1 0x0 PUSH2 0x1577 PUSH1 0x18 DUP4 PUSH2 0x1ADB JUMP JUMPDEST SWAP2 POP PUSH2 0x1582 DUP3 PUSH2 0x1CBE JUMP JUMPDEST PUSH1 0x20 DUP3 ADD SWAP1 POP SWAP2 SWAP1 POP JUMP JUMPDEST PUSH1 0x0 PUSH2 0x159A PUSH1 0x23 DUP4 PUSH2 0x1ADB JUMP JUMPDEST SWAP2 POP PUSH2 0x15A5 DUP3 PUSH2 0x1CE7 JUMP JUMPDEST PUSH1 0x40 DUP3 ADD SWAP1 POP SWAP2 SWAP1 POP JUMP JUMPDEST PUSH1 0x0 PUSH2 0x15BD PUSH1 0x1F DUP4 PUSH2 0x1ADB JUMP JUMPDEST SWAP2 POP PUSH2 0x15C8 DUP3 PUSH2 0x1D36 JUMP JUMPDEST PUSH1 0x20 DUP3 ADD SWAP1 POP SWAP2 SWAP1 POP JUMP JUMPDEST PUSH1 0x0 PUSH2 0x15E0 PUSH1 0x22 DUP4 PUSH2 0x1ADB JUMP JUMPDEST SWAP2 POP PUSH2 0x15EB DUP3 PUSH2 0x1D5F JUMP JUMPDEST PUSH1 0x40 DUP3 ADD SWAP1 POP SWAP2 SWAP1 POP JUMP JUMPDEST PUSH1 0x0 PUSH2 0x1603 PUSH1 0x2 DUP4 PUSH2 0x1AEC JUMP JUMPDEST SWAP2 POP PUSH2 0x160E DUP3 PUSH2 0x1DAE JUMP JUMPDEST PUSH1 0x2 DUP3 ADD SWAP1 POP SWAP2 SWAP1 POP JUMP JUMPDEST PUSH1 0x0 PUSH2 0x1626 PUSH1 0x1D DUP4 PUSH2 0x1ADB JUMP JUMPDEST SWAP2 POP PUSH2 0x1631 DUP3 PUSH2 0x1DD7 JUMP JUMPDEST PUSH1 0x20 DUP3 ADD SWAP1 POP SWAP2 SWAP1 POP JUMP JUMPDEST PUSH1 0x0 PUSH2 0x1649 PUSH1 0x1D DUP4 PUSH2 0x1ADB JUMP JUMPDEST SWAP2 POP PUSH2 0x1654 DUP3 PUSH2 0x1E00 JUMP JUMPDEST PUSH1 0x20 DUP3 ADD SWAP1 POP SWAP2 SWAP1 POP JUMP JUMPDEST PUSH1 0x0 PUSH2 0x166C PUSH1 0x26 DUP4 PUSH2 0x1ADB JUMP JUMPDEST SWAP2 POP PUSH2 0x1677 DUP3 PUSH2 0x1E29 JUMP JUMPDEST PUSH1 0x40 DUP3 ADD SWAP1 POP SWAP2 SWAP1 POP JUMP JUMPDEST PUSH1 0x0 PUSH2 0x168F PUSH1 0x22 DUP4 PUSH2 0x1ADB JUMP JUMPDEST SWAP2 POP PUSH2 0x169A DUP3 PUSH2 0x1E78 JUMP JUMPDEST PUSH1 0x40 DUP3 ADD SWAP1 POP SWAP2 SWAP1 POP JUMP JUMPDEST PUSH1 0x0 PUSH2 0x16B2 PUSH1 0x1E DUP4 PUSH2 0x1ADB JUMP JUMPDEST SWAP2 POP PUSH2 0x16BD DUP3 PUSH2 0x1EC7 JUMP JUMPDEST PUSH1 0x20 DUP3 ADD SWAP1 POP SWAP2 SWAP1 POP JUMP JUMPDEST PUSH1 0x0 PUSH2 0x16D5 PUSH1 0x25 DUP4 PUSH2 0x1ADB JUMP JUMPDEST SWAP2 POP PUSH2 0x16E0 DUP3 PUSH2 0x1EF0 JUMP JUMPDEST PUSH1 0x40 DUP3 ADD SWAP1 POP SWAP2 SWAP1 POP JUMP JUMPDEST PUSH1 0x0 PUSH2 0x16F8 PUSH1 0x24 DUP4 PUSH2 0x1ADB JUMP JUMPDEST SWAP2 POP PUSH2 0x1703 DUP3 PUSH2 0x1F3F JUMP JUMPDEST PUSH1 0x40 DUP3 ADD SWAP1 POP SWAP2 SWAP1 POP JUMP JUMPDEST PUSH1 0x0 PUSH2 0x171B PUSH1 0x25 DUP4 PUSH2 0x1ADB JUMP JUMPDEST SWAP2 POP PUSH2 0x1726 DUP3 PUSH2 0x1F8E JUMP JUMPDEST PUSH1 0x40 DUP3 ADD SWAP1 POP SWAP2 SWAP1 POP JUMP JUMPDEST PUSH1 0x0 PUSH2 0x173E PUSH1 0x1F DUP4 PUSH2 0x1ADB JUMP JUMPDEST SWAP2 POP PUSH2 0x1749 DUP3 PUSH2 0x1FDD JUMP JUMPDEST PUSH1 0x20 DUP3 ADD SWAP1 POP SWAP2 SWAP1 POP JUMP JUMPDEST PUSH2 0x175D DUP2 PUSH2 0x1B95 JUMP JUMPDEST DUP3 MSTORE POP POP JUMP JUMPDEST PUSH2 0x176C DUP2 PUSH2 0x1B9F JUMP JUMPDEST DUP3 MSTORE POP POP JUMP JUMPDEST PUSH1 0x0 PUSH2 0x177D DUP3 PUSH2 0x15F6 JUMP JUMPDEST SWAP2 POP PUSH2 0x1789 DUP3 DUP6 PUSH2 0x151A JUMP JUMPDEST PUSH1 0x20 DUP3 ADD SWAP2 POP PUSH2 0x1799 DUP3 DUP5 PUSH2 0x151A JUMP JUMPDEST PUSH1 0x20 DUP3 ADD SWAP2 POP DUP2 SWAP1 POP SWAP4 SWAP3 POP POP POP JUMP JUMPDEST PUSH1 0x0 PUSH1 0x20 DUP3 ADD SWAP1 POP PUSH2 0x17BE PUSH1 0x0 DUP4 ADD DUP5 PUSH2 0x14FC JUMP JUMPDEST SWAP3 SWAP2 POP POP JUMP JUMPDEST PUSH1 0x0 PUSH1 0x20 DUP3 ADD SWAP1 POP PUSH2 0x17D9 PUSH1 0x0 DUP4 ADD DUP5 PUSH2 0x150B JUMP JUMPDEST SWAP3 SWAP2 POP POP JUMP JUMPDEST PUSH1 0x0 PUSH1 0xC0 DUP3 ADD SWAP1 POP PUSH2 0x17F4 PUSH1 0x0 DUP4 ADD DUP10 PUSH2 0x150B JUMP JUMPDEST PUSH2 0x1801 PUSH1 0x20 DUP4 ADD DUP9 PUSH2 0x14ED JUMP JUMPDEST PUSH2 0x180E PUSH1 0x40 DUP4 ADD DUP8 PUSH2 0x14ED JUMP JUMPDEST PUSH2 0x181B PUSH1 0x60 DUP4 ADD DUP7 PUSH2 0x1754 JUMP JUMPDEST PUSH2 0x1828 PUSH1 0x80 DUP4 ADD DUP6 PUSH2 0x1754 JUMP JUMPDEST PUSH2 0x1835 PUSH1 0xA0 DUP4 ADD DUP5 PUSH2 0x1754 JUMP JUMPDEST SWAP8 SWAP7 POP POP POP POP POP POP POP JUMP JUMPDEST PUSH1 0x0 PUSH1 0xA0 DUP3 ADD SWAP1 POP PUSH2 0x1855 PUSH1 0x0 DUP4 ADD DUP9 PUSH2 0x150B JUMP JUMPDEST PUSH2 0x1862 PUSH1 0x20 DUP4 ADD DUP8 PUSH2 0x150B JUMP JUMPDEST PUSH2 0x186F PUSH1 0x40 DUP4 ADD DUP7 PUSH2 0x150B JUMP JUMPDEST PUSH2 0x187C PUSH1 0x60 DUP4 ADD DUP6 PUSH2 0x1754 JUMP JUMPDEST PUSH2 0x1889 PUSH1 0x80 DUP4 ADD DUP5 PUSH2 0x14ED JUMP JUMPDEST SWAP7 SWAP6 POP POP POP POP POP POP JUMP JUMPDEST PUSH1 0x0 PUSH1 0x80 DUP3 ADD SWAP1 POP PUSH2 0x18A8 PUSH1 0x0 DUP4 ADD DUP8 PUSH2 0x150B JUMP JUMPDEST PUSH2 0x18B5 PUSH1 0x20 DUP4 ADD DUP7 PUSH2 0x1763 JUMP JUMPDEST PUSH2 0x18C2 PUSH1 0x40 DUP4 ADD DUP6 PUSH2 0x150B JUMP JUMPDEST PUSH2 0x18CF PUSH1 0x60 DUP4 ADD DUP5 PUSH2 0x150B JUMP JUMPDEST SWAP6 SWAP5 POP POP POP POP POP JUMP JUMPDEST PUSH1 0x0 PUSH1 0x20 DUP3 ADD SWAP1 POP DUP2 DUP2 SUB PUSH1 0x0 DUP4 ADD MSTORE PUSH2 0x18F2 DUP2 DUP5 PUSH2 0x1531 JUMP JUMPDEST SWAP1 POP SWAP3 SWAP2 POP POP JUMP JUMPDEST PUSH1 0x0 PUSH1 0x20 DUP3 ADD SWAP1 POP DUP2 DUP2 SUB PUSH1 0x0 DUP4 ADD MSTORE PUSH2 0x1913 DUP2 PUSH2 0x156A JUMP JUMPDEST SWAP1 POP SWAP2 SWAP1 POP JUMP JUMPDEST PUSH1 0x0 PUSH1 0x20 DUP3 ADD SWAP1 POP DUP2 DUP2 SUB PUSH1 0x0 DUP4 ADD MSTORE PUSH2 0x1933 DUP2 PUSH2 0x158D JUMP JUMPDEST SWAP1 POP SWAP2 SWAP1 POP JUMP JUMPDEST PUSH1 0x0 PUSH1 0x20 DUP3 ADD SWAP1 POP DUP2 DUP2 SUB PUSH1 0x0 DUP4 ADD MSTORE PUSH2 0x1953 DUP2 PUSH2 0x15B0 JUMP JUMPDEST SWAP1 POP SWAP2 SWAP1 POP JUMP JUMPDEST PUSH1 0x0 PUSH1 0x20 DUP3 ADD SWAP1 POP DUP2 DUP2 SUB PUSH1 0x0 DUP4 ADD MSTORE PUSH2 0x1973 DUP2 PUSH2 0x15D3 JUMP JUMPDEST SWAP1 POP SWAP2 SWAP1 POP JUMP JUMPDEST PUSH1 0x0 PUSH1 0x20 DUP3 ADD SWAP1 POP DUP2 DUP2 SUB PUSH1 0x0 DUP4 ADD MSTORE PUSH2 0x1993 DUP2 PUSH2 0x1619 JUMP JUMPDEST SWAP1 POP SWAP2 SWAP1 POP JUMP JUMPDEST PUSH1 0x0 PUSH1 0x20 DUP3 ADD SWAP1 POP DUP2 DUP2 SUB PUSH1 0x0 DUP4 ADD MSTORE PUSH2 0x19B3 DUP2 PUSH2 0x163C JUMP JUMPDEST SWAP1 POP SWAP2 SWAP1 POP JUMP JUMPDEST PUSH1 0x0 PUSH1 0x20 DUP3 ADD SWAP1 POP DUP2 DUP2 SUB PUSH1 0x0 DUP4 ADD MSTORE PUSH2 0x19D3 DUP2 PUSH2 0x165F JUMP JUMPDEST SWAP1 POP SWAP2 SWAP1 POP JUMP JUMPDEST PUSH1 0x0 PUSH1 0x20 DUP3 ADD SWAP1 POP DUP2 DUP2 SUB PUSH1 0x0 DUP4 ADD MSTORE PUSH2 0x19F3 DUP2 PUSH2 0x1682 JUMP JUMPDEST SWAP1 POP SWAP2 SWAP1 POP JUMP JUMPDEST PUSH1 0x0 PUSH1 0x20 DUP3 ADD SWAP1 POP DUP2 DUP2 SUB PUSH1 0x0 DUP4 ADD MSTORE PUSH2 0x1A13 DUP2 PUSH2 0x16A5 JUMP JUMPDEST SWAP1 POP SWAP2 SWAP1 POP JUMP JUMPDEST PUSH1 0x0 PUSH1 0x20 DUP3 ADD SWAP1 POP DUP2 DUP2 SUB PUSH1 0x0 DUP4 ADD MSTORE PUSH2 0x1A33 DUP2 PUSH2 0x16C8 JUMP JUMPDEST SWAP1 POP SWAP2 SWAP1 POP JUMP JUMPDEST PUSH1 0x0 PUSH1 0x20 DUP3 ADD SWAP1 POP DUP2 DUP2 SUB PUSH1 0x0 DUP4 ADD MSTORE PUSH2 0x1A53 DUP2 PUSH2 0x16EB JUMP JUMPDEST SWAP1 POP SWAP2 SWAP1 POP JUMP JUMPDEST PUSH1 0x0 PUSH1 0x20 DUP3 ADD SWAP1 POP DUP2 DUP2 SUB PUSH1 0x0 DUP4 ADD MSTORE PUSH2 0x1A73 DUP2 PUSH2 0x170E JUMP JUMPDEST SWAP1 POP SWAP2 SWAP1 POP JUMP JUMPDEST PUSH1 0x0 PUSH1 0x20 DUP3 ADD SWAP1 POP DUP2 DUP2 SUB PUSH1 0x0 DUP4 ADD MSTORE PUSH2 0x1A93 DUP2 PUSH2 0x1731 JUMP JUMPDEST SWAP1 POP SWAP2 SWAP1 POP JUMP JUMPDEST PUSH1 0x0 PUSH1 0x20 DUP3 ADD SWAP1 POP PUSH2 0x1AAF PUSH1 0x0 DUP4 ADD DUP5 PUSH2 0x1754 JUMP JUMPDEST SWAP3 SWAP2 POP POP JUMP JUMPDEST PUSH1 0x0 PUSH1 0x20 DUP3 ADD SWAP1 POP PUSH2 0x1ACA PUSH1 0x0 DUP4 ADD DUP5 PUSH2 0x1763 JUMP JUMPDEST SWAP3 SWAP2 POP POP JUMP JUMPDEST PUSH1 0x0 DUP2 MLOAD SWAP1 POP SWAP2 SWAP1 POP JUMP JUMPDEST PUSH1 0x0 DUP3 DUP3 MSTORE PUSH1 0x20 DUP3 ADD SWAP1 POP SWAP3 SWAP2 POP POP JUMP JUMPDEST PUSH1 0x0 DUP2 SWAP1 POP SWAP3 SWAP2 POP POP JUMP JUMPDEST PUSH1 0x0 PUSH2 0x1B02 DUP3 PUSH2 0x1B95 JUMP JUMPDEST SWAP2 POP PUSH2 0x1B0D DUP4 PUSH2 0x1B95 JUMP JUMPDEST SWAP3 POP DUP3 PUSH32 0xFFFFFFFFFFFFFFFFFFFFFFFFFFFFFFFFFFFFFFFFFFFFFFFFFFFFFFFFFFFFFFFF SUB DUP3 GT ISZERO PUSH2 0x1B42 JUMPI PUSH2 0x1B41 PUSH2 0x1C1B JUMP JUMPDEST JUMPDEST DUP3 DUP3 ADD SWAP1 POP SWAP3 SWAP2 POP POP JUMP JUMPDEST PUSH1 0x0 PUSH2 0x1B58 DUP3 PUSH2 0x1B75 JUMP JUMPDEST SWAP1 POP SWAP2 SWAP1 POP JUMP JUMPDEST PUSH1 0x0 DUP2 ISZERO ISZERO SWAP1 POP SWAP2 SWAP1 POP JUMP JUMPDEST PUSH1 0x0 DUP2 SWAP1 POP SWAP2 SWAP1 POP JUMP JUMPDEST PUSH1 0x0 PUSH20 0xFFFFFFFFFFFFFFFFFFFFFFFFFFFFFFFFFFFFFFFF DUP3 AND SWAP1 POP SWAP2 SWAP1 POP JUMP JUMPDEST PUSH1 0x0 DUP2 SWAP1 POP SWAP2 SWAP1 POP JUMP JUMPDEST PUSH1 0x0 PUSH1 0xFF DUP3 AND SWAP1 POP SWAP2 SWAP1 POP JUMP JUMPDEST PUSH1 0x0 JUMPDEST DUP4 DUP2 LT ISZERO PUSH2 0x1BCA JUMPI DUP1 DUP3 ADD MLOAD DUP2 DUP5 ADD MSTORE PUSH1 0x20 DUP2 ADD SWAP1 POP PUSH2 0x1BAF JUMP JUMPDEST DUP4 DUP2 GT ISZERO PUSH2 0x1BD9 JUMPI PUSH1 0x0 DUP5 DUP5 ADD MSTORE JUMPDEST POP POP POP POP JUMP JUMPDEST PUSH1 0x0 PUSH1 0x2 DUP3 DIV SWAP1 POP PUSH1 0x1 DUP3 AND DUP1 PUSH2 0x1BF7 JUMPI PUSH1 0x7F DUP3 AND SWAP2 POP JUMPDEST PUSH1 0x20 DUP3 LT DUP2 EQ ISZERO PUSH2 0x1C0B JUMPI PUSH2 0x1C0A PUSH2 0x1C79 JUMP JUMPDEST JUMPDEST POP SWAP2 SWAP1 POP JUMP JUMPDEST PUSH1 0x0 DUP2 SWAP1 POP SWAP2 SWAP1 POP JUMP JUMPDEST PUSH32 0x4E487B7100000000000000000000000000000000000000000000000000000000 PUSH1 0x0 MSTORE PUSH1 0x11 PUSH1 0x4 MSTORE PUSH1 0x24 PUSH1 0x0 REVERT JUMPDEST PUSH32 0x4E487B7100000000000000000000000000000000000000000000000000000000 PUSH1 0x0 MSTORE PUSH1 0x21 PUSH1 0x4 MSTORE PUSH1 0x24 PUSH1 0x0 REVERT JUMPDEST PUSH32 0x4E487B7100000000000000000000000000000000000000000000000000000000 PUSH1 0x0 MSTORE PUSH1 0x22 PUSH1 0x4 MSTORE PUSH1 0x24 PUSH1 0x0 REVERT JUMPDEST PUSH1 0x0 DUP1 REVERT JUMPDEST PUSH1 0x0 PUSH1 0x1F NOT PUSH1 0x1F DUP4 ADD AND SWAP1 POP SWAP2 SWAP1 POP JUMP JUMPDEST PUSH32 0x45434453413A20696E76616C6964207369676E61747572650000000000000000 PUSH1 0x0 DUP3 ADD MSTORE POP JUMP JUMPDEST PUSH32 0x45524332303A207472616E7366657220746F20746865207A65726F2061646472 PUSH1 0x0 DUP3 ADD MSTORE PUSH32 0x6573730000000000000000000000000000000000000000000000000000000000 PUSH1 0x20 DUP3 ADD MSTORE POP JUMP JUMPDEST PUSH32 0x45434453413A20696E76616C6964207369676E6174757265206C656E67746800 PUSH1 0x0 DUP3 ADD MSTORE POP JUMP JUMPDEST PUSH32 0x45524332303A20617070726F766520746F20746865207A65726F206164647265 PUSH1 0x0 DUP3 ADD MSTORE PUSH32 0x7373000000000000000000000000000000000000000000000000000000000000 PUSH1 0x20 DUP3 ADD MSTORE POP JUMP JUMPDEST PUSH32 0x1901000000000000000000000000000000000000000000000000000000000000 PUSH1 0x0 DUP3 ADD MSTORE POP JUMP JUMPDEST PUSH32 0x45524332303A20696E73756666696369656E7420616C6C6F77616E6365000000 PUSH1 0x0 DUP3 ADD MSTORE POP JUMP JUMPDEST PUSH32 0x45524332305065726D69743A206578706972656420646561646C696E65000000 PUSH1 0x0 DUP3 ADD MSTORE POP JUMP JUMPDEST PUSH32 0x45524332303A207472616E7366657220616D6F756E7420657863656564732062 PUSH1 0x0 DUP3 ADD MSTORE PUSH32 0x616C616E63650000000000000000000000000000000000000000000000000000 PUSH1 0x20 DUP3 ADD MSTORE POP JUMP JUMPDEST PUSH32 0x45434453413A20696E76616C6964207369676E6174757265202773272076616C PUSH1 0x0 DUP3 ADD MSTORE PUSH32 0x7565000000000000000000000000000000000000000000000000000000000000 PUSH1 0x20 DUP3 ADD MSTORE POP JUMP JUMPDEST PUSH32 0x45524332305065726D69743A20696E76616C6964207369676E61747572650000 PUSH1 0x0 DUP3 ADD MSTORE POP JUMP JUMPDEST PUSH32 0x45524332303A207472616E736665722066726F6D20746865207A65726F206164 PUSH1 0x0 DUP3 ADD MSTORE PUSH32 0x6472657373000000000000000000000000000000000000000000000000000000 PUSH1 0x20 DUP3 ADD MSTORE POP JUMP JUMPDEST PUSH32 0x45524332303A20617070726F76652066726F6D20746865207A65726F20616464 PUSH1 0x0 DUP3 ADD MSTORE PUSH32 0x7265737300000000000000000000000000000000000000000000000000000000 PUSH1 0x20 DUP3 ADD MSTORE POP JUMP JUMPDEST PUSH32 0x45524332303A2064656372656173656420616C6C6F77616E63652062656C6F77 PUSH1 0x0 DUP3 ADD MSTORE PUSH32 0x207A65726F000000000000000000000000000000000000000000000000000000 PUSH1 0x20 DUP3 ADD MSTORE POP JUMP JUMPDEST PUSH32 0x45524332303A206D696E7420746F20746865207A65726F206164647265737300 PUSH1 0x0 DUP3 ADD MSTORE POP JUMP JUMPDEST PUSH2 0x200F DUP2 PUSH2 0x1B4D JUMP JUMPDEST DUP2 EQ PUSH2 0x201A JUMPI PUSH1 0x0 DUP1 REVERT JUMPDEST POP JUMP JUMPDEST PUSH2 0x2026 DUP2 PUSH2 0x1B6B JUMP JUMPDEST DUP2 EQ PUSH2 0x2031 JUMPI PUSH1 0x0 DUP1 REVERT JUMPDEST POP JUMP JUMPDEST PUSH2 0x203D DUP2 PUSH2 0x1B95 JUMP JUMPDEST DUP2 EQ PUSH2 0x2048 JUMPI PUSH1 0x0 DUP1 REVERT JUMPDEST POP JUMP JUMPDEST PUSH2 0x2054 DUP2 PUSH2 0x1B9F JUMP JUMPDEST DUP2 EQ PUSH2 0x205F JUMPI PUSH1 0x0 DUP1 REVERT JUMPDEST POP JUMP INVALID LOG2 PUSH5 0x6970667358 0x22 SLT KECCAK256 DIV 0x4A LOG4 0xF8 DIV LOG2 SWAP15 PUSH7 0xC25F9FA0127D0E PUSH22 0xE613352BE6CD1F553C6DACA45D927EF364736F6C6343 STOP ADDMOD SMOD STOP CALLER "
				},
				"gasEstimates": {
					"creation": {
						"codeDepositCost": "1668800",
						"executionCost": "infinite",
						"totalCost": "infinite"
					},
					"external": {
						"DOMAIN_SEPARATOR()": "infinite",
						"allowance(address,address)": "infinite",
						"approve(address,uint256)": "infinite",
						"balanceOf(address)": "2886",
						"decimals()": "388",
						"decreaseAllowance(address,uint256)": "infinite",
						"increaseAllowance(address,uint256)": "infinite",
						"mint(address,uint256)": "infinite",
						"name()": "infinite",
						"nonces(address)": "2957",
						"permit(address,address,uint256,uint256,uint8,bytes32,bytes32)": "infinite",
						"symbol()": "infinite",
						"totalSupply()": "2505",
						"transfer(address,uint256)": "infinite",
						"transferFrom(address,address,uint256)": "infinite"
					}
				},
				"methodIdentifiers": {
					"DOMAIN_SEPARATOR()": "3644e515",
					"allowance(address,address)": "dd62ed3e",
					"approve(address,uint256)": "095ea7b3",
					"balanceOf(address)": "70a08231",
					"decimals()": "313ce567",
					"decreaseAllowance(address,uint256)": "a457c2d7",
					"increaseAllowance(address,uint256)": "39509351",
					"mint(address,uint256)": "40c10f19",
					"name()": "06fdde03",
					"nonces(address)": "7ecebe00",
					"permit(address,address,uint256,uint256,uint8,bytes32,bytes32)": "d505accf",
					"symbol()": "95d89b41",
					"totalSupply()": "18160ddd",
					"transfer(address,uint256)": "a9059cbb",
					"transferFrom(address,address,uint256)": "23b872dd"
				}
			},
			"storageLayout": {
				"storage": [
					{
						"astId": 48,
						"contract": "contracts/token.sol:token",
						"label": "_balances",
						"offset": 0,
						"slot": "0",
						"type": "t_mapping(t_address,t_uint256)"
					},
					{
						"astId": 54,
						"contract": "contracts/token.sol:token",
						"label": "_allowances",
						"offset": 0,
						"slot": "1",
						"type": "t_mapping(t_address,t_mapping(t_address,t_uint256))"
					},
					{
						"astId": 56,
						"contract": "contracts/token.sol:token",
						"label": "_totalSupply",
						"offset": 0,
						"slot": "2",
						"type": "t_uint256"
					},
					{
						"astId": 58,
						"contract": "contracts/token.sol:token",
						"label": "_name",
						"offset": 0,
						"slot": "3",
						"type": "t_string_storage"
					},
					{
						"astId": 60,
						"contract": "contracts/token.sol:token",
						"label": "_symbol",
						"offset": 0,
						"slot": "4",
						"type": "t_string_storage"
					},
					{
						"astId": 745,
						"contract": "contracts/token.sol:token",
						"label": "_nonces",
						"offset": 0,
						"slot": "5",
						"type": "t_mapping(t_address,t_struct(Counter)958_storage)"
					},
					{
						"astId": 753,
						"contract": "contracts/token.sol:token",
						"label": "_PERMIT_TYPEHASH_DEPRECATED_SLOT",
						"offset": 0,
						"slot": "6",
						"type": "t_bytes32"
					}
				],
				"types": {
					"t_address": {
						"encoding": "inplace",
						"label": "address",
						"numberOfBytes": "20"
					},
					"t_bytes32": {
						"encoding": "inplace",
						"label": "bytes32",
						"numberOfBytes": "32"
					},
					"t_mapping(t_address,t_mapping(t_address,t_uint256))": {
						"encoding": "mapping",
						"key": "t_address",
						"label": "mapping(address => mapping(address => uint256))",
						"numberOfBytes": "32",
						"value": "t_mapping(t_address,t_uint256)"
					},
					"t_mapping(t_address,t_struct(Counter)958_storage)": {
						"encoding": "mapping",
						"key": "t_address",
						"label": "mapping(address => struct Counters.Counter)",
						"numberOfBytes": "32",
						"value": "t_struct(Counter)958_storage"
					},
					"t_mapping(t_address,t_uint256)": {
						"encoding": "mapping",
						"key": "t_address",
						"label": "mapping(address => uint256)",
						"numberOfBytes": "32",
						"value": "t_uint256"
					},
					"t_string_storage": {
						"encoding": "bytes",
						"label": "string",
						"numberOfBytes": "32"
					},
					"t_struct(Counter)958_storage": {
						"encoding": "inplace",
						"label": "struct Counters.Counter",
						"members": [
							{
								"astId": 957,
								"contract": "contracts/token.sol:token",
								"label": "_value",
								"offset": 0,
								"slot": "0",
								"type": "t_uint256"
							}
						],
						"numberOfBytes": "32"
					},
					"t_uint256": {
						"encoding": "inplace",
						"label": "uint256",
						"numberOfBytes": "32"
					}
				}
			},
			"userdoc": {
				"kind": "user",
				"methods": {},
				"version": 1
			}
		}
	}
}