{
  "_format": "hh-sol-artifact-1",
  "contractName": "testSwap",
  "sourceName": "contracts/testSwap.sol",
  "abi": [
    {
      "inputs": [
        {
          "internalType": "address",
          "name": "_tokenIn",
          "type": "address"
        },
        {
          "internalType": "address",
          "name": "_tokenOut",
          "type": "address"
        },
        {
          "internalType": "uint256",
          "name": "_amountIn",
          "type": "uint256"
        },
        {
          "internalType": "uint256",
          "name": "_amountOutMin",
          "type": "uint256"
        },
        {
          "internalType": "address",
          "name": "_to",
          "type": "address"
        }
      ],
      "name": "swap",
      "outputs": [],
      "stateMutability": "nonpayable",
      "type": "function"
    }
  ],
  "bytecode": "0x608060405234801561001057600080fd5b50610900806100206000396000f3fe608060405234801561001057600080fd5b506004361061002b5760003560e01c8063d5bcb9b514610030575b600080fd5b61004a60048036038101906100459190610504565b61004c565b005b8473ffffffffffffffffffffffffffffffffffffffff166323b872dd3330866040518463ffffffff1660e01b815260040161008993929190610688565b602060405180830381600087803b1580156100a357600080fd5b505af11580156100b7573d6000803e3d6000fd5b505050506040513d601f19601f820116820180604052508101906100db91906105bc565b508473ffffffffffffffffffffffffffffffffffffffff1663095ea7b3737a250d5630b4cf539739df2c5dacb4c659f2488d856040518363ffffffff1660e01b815260040161012b9291906106bf565b602060405180830381600087803b15801561014557600080fd5b505af1158015610159573d6000803e3d6000fd5b505050506040513d601f19601f8201168201806040525081019061017d91906105bc565b506060600367ffffffffffffffff8111156101c1577f4e487b7100000000000000000000000000000000000000000000000000000000600052604160045260246000fd5b6040519080825280602002602001820160405280156101ef5781602001602082028036833780820191505090505b509050858160008151811061022d577f4e487b7100000000000000000000000000000000000000000000000000000000600052603260045260246000fd5b602002602001019073ffffffffffffffffffffffffffffffffffffffff16908173ffffffffffffffffffffffffffffffffffffffff168152505073c02aaa39b223fe8d0a0e5c4f27ead9083c756cc2816001815181106102b6577f4e487b7100000000000000000000000000000000000000000000000000000000600052603260045260246000fd5b602002602001019073ffffffffffffffffffffffffffffffffffffffff16908173ffffffffffffffffffffffffffffffffffffffff1681525050848160028151811061032b577f4e487b7100000000000000000000000000000000000000000000000000000000600052603260045260246000fd5b602002602001019073ffffffffffffffffffffffffffffffffffffffff16908173ffffffffffffffffffffffffffffffffffffffff1681525050737a250d5630b4cf539739df2c5dacb4c659f2488d73ffffffffffffffffffffffffffffffffffffffff16631239565885858486426040518663ffffffff1660e01b81526004016103ba9594939291906106e8565b600060405180830381600087803b1580156103d457600080fd5b505af11580156103e8573d6000803e3d6000fd5b505050506040513d6000823e3d601f19601f82011682018060405250810190610411919061057b565b50505050505050565b600061042d61042884610767565b610742565b9050808382526020820190508285602086028201111561044c57600080fd5b60005b8581101561047c578161046288826104ef565b84526020840193506020830192505060018101905061044f565b5050509392505050565b60008135905061049581610885565b92915050565b600082601f8301126104ac57600080fd5b81516104bc84826020860161041a565b91505092915050565b6000815190506104d48161089c565b92915050565b6000813590506104e9816108b3565b92915050565b6000815190506104fe816108b3565b92915050565b600080600080600060a0868803121561051c57600080fd5b600061052a88828901610486565b955050602061053b88828901610486565b945050604061054c888289016104da565b935050606061055d888289016104da565b925050608061056e88828901610486565b9150509295509295909350565b60006020828403121561058d57600080fd5b600082015167ffffffffffffffff8111156105a757600080fd5b6105b38482850161049b565b91505092915050565b6000602082840312156105ce57600080fd5b60006105dc848285016104c5565b91505092915050565b60006105f183836105fd565b60208301905092915050565b610606816107cc565b82525050565b610615816107cc565b82525050565b6000610626826107a3565b61063081856107bb565b935061063b83610793565b8060005b8381101561066c57815161065388826105e5565b975061065e836107ae565b92505060018101905061063f565b5085935050505092915050565b6106828161080a565b82525050565b600060608201905061069d600083018661060c565b6106aa602083018561060c565b6106b76040830184610679565b949350505050565b60006040820190506106d4600083018561060c565b6106e16020830184610679565b9392505050565b600060a0820190506106fd6000830188610679565b61070a6020830187610679565b818103604083015261071c818661061b565b905061072b606083018561060c565b6107386080830184610679565b9695505050505050565b600061074c61075d565b90506107588282610814565b919050565b6000604051905090565b600067ffffffffffffffff82111561078257610781610845565b5b602082029050602081019050919050565b6000819050602082019050919050565b600081519050919050565b6000602082019050919050565b600082825260208201905092915050565b60006107d7826107ea565b9050919050565b60008115159050919050565b600073ffffffffffffffffffffffffffffffffffffffff82169050919050565b6000819050919050565b61081d82610874565b810181811067ffffffffffffffff8211171561083c5761083b610845565b5b80604052505050565b7f4e487b7100000000000000000000000000000000000000000000000000000000600052604160045260246000fd5b6000601f19601f8301169050919050565b61088e816107cc565b811461089957600080fd5b50565b6108a5816107de565b81146108b057600080fd5b50565b6108bc8161080a565b81146108c757600080fd5b5056fea26469706673582212209df48b913770527776340f8a8f37010d7db07fd0385e2b064de091dcbfd230ef64736f6c63430008040033",
  "linkReferences": {},
  "deployedLinkReferences": {}
}