{
  "_format": "hh-sol-artifact-1",
  "contractName": "hotelBooking",
  "sourceName": "contracts/hotelBooking.sol",
  "abi": [
    {
      "inputs": [],
      "name": "bookRoomDeluxe",
      "outputs": [],
      "stateMutability": "nonpayable",
      "type": "function"
    },
    {
      "inputs": [],
      "name": "bookRoomPremium",
      "outputs": [],
      "stateMutability": "nonpayable",
      "type": "function"
    },
    {
      "inputs": [],
      "name": "bookRoomRoyal",
      "outputs": [],
      "stateMutability": "nonpayable",
      "type": "function"
    },
    {
      "inputs": [],
      "name": "checkInDeluxe",
      "outputs": [],
      "stateMutability": "nonpayable",
      "type": "function"
    },
    {
      "inputs": [],
      "name": "checkInPremium",
      "outputs": [],
      "stateMutability": "nonpayable",
      "type": "function"
    },
    {
      "inputs": [],
      "name": "checkInRoyal",
      "outputs": [],
      "stateMutability": "nonpayable",
      "type": "function"
    },
    {
      "inputs": [
        {
          "internalType": "uint256",
          "name": "_rating",
          "type": "uint256"
        }
      ],
      "name": "checkOutDeluxe",
      "outputs": [],
      "stateMutability": "nonpayable",
      "type": "function"
    },
    {
      "inputs": [
        {
          "internalType": "uint256",
          "name": "_rating",
          "type": "uint256"
        }
      ],
      "name": "checkOutPremium",
      "outputs": [],
      "stateMutability": "nonpayable",
      "type": "function"
    },
    {
      "inputs": [
        {
          "internalType": "uint256",
          "name": "_rating",
          "type": "uint256"
        }
      ],
      "name": "checkOutRoyal",
      "outputs": [],
      "stateMutability": "nonpayable",
      "type": "function"
    },
    {
      "inputs": [
        {
          "internalType": "address",
          "name": "",
          "type": "address"
        }
      ],
      "name": "costumerDetails",
      "outputs": [
        {
          "internalType": "string",
          "name": "name",
          "type": "string"
        },
        {
          "internalType": "string",
          "name": "addre",
          "type": "string"
        },
        {
          "internalType": "uint256",
          "name": "custIdNo",
          "type": "uint256"
        }
      ],
      "stateMutability": "view",
      "type": "function"
    },
    {
      "inputs": [
        {
          "internalType": "uint256",
          "name": "",
          "type": "uint256"
        }
      ],
      "name": "hotelRoomDetails",
      "outputs": [
        {
          "internalType": "string",
          "name": "categoryName",
          "type": "string"
        },
        {
          "internalType": "uint256",
          "name": "tariff",
          "type": "uint256"
        },
        {
          "internalType": "bool",
          "name": "occupied",
          "type": "bool"
        },
        {
          "internalType": "uint256",
          "name": "review",
          "type": "uint256"
        },
        {
          "internalType": "uint256",
          "name": "reviewNo",
          "type": "uint256"
        },
        {
          "internalType": "address",
          "name": "costumerBooked",
          "type": "address"
        },
        {
          "internalType": "bool",
          "name": "booked",
          "type": "bool"
        }
      ],
      "stateMutability": "view",
      "type": "function"
    },
    {
      "inputs": [],
      "name": "owner",
      "outputs": [
        {
          "internalType": "address",
          "name": "",
          "type": "address"
        }
      ],
      "stateMutability": "view",
      "type": "function"
    },
    {
      "inputs": [],
      "name": "payToBook",
      "outputs": [],
      "stateMutability": "payable",
      "type": "function"
    },
    {
      "inputs": [
        {
          "internalType": "uint256",
          "name": "_roomNo",
          "type": "uint256"
        },
        {
          "internalType": "string",
          "name": "_categoryName",
          "type": "string"
        },
        {
          "internalType": "uint256",
          "name": "_tariff",
          "type": "uint256"
        }
      ],
      "name": "setHotelRoom",
      "outputs": [],
      "stateMutability": "nonpayable",
      "type": "function"
    },
    {
      "inputs": [
        {
          "internalType": "address",
          "name": "_addr",
          "type": "address"
        },
        {
          "internalType": "string",
          "name": "_name",
          "type": "string"
        },
        {
          "internalType": "string",
          "name": "_addre",
          "type": "string"
        }
      ],
      "name": "setcust",
      "outputs": [],
      "stateMutability": "nonpayable",
      "type": "function"
    }
  ],
  "bytecode": "0x608060405233600260006101000a81548173ffffffffffffffffffffffffffffffffffffffff021916908373ffffffffffffffffffffffffffffffffffffffff16021790555034801561005157600080fd5b50611d38806100616000396000f3fe6080604052600436106100e85760003560e01c8063848aa9371161008a578063bde805a411610059578063bde805a414610284578063e043c3ab1461028e578063f6e5f0e3146102cd578063fd17d329146102e4576100e8565b8063848aa937146101e85780638da5cb5b1461022b5780639ecc7d4914610256578063bd5a04851461026d576100e8565b806346c42113116100c657806346c421131461016857806359bf8abb1461017f57806363ffbbf8146101a857806375b04e9f146101d1576100e8565b80630312ae33146100ed5780631462957d1461011657806319a05b1d1461013f575b600080fd5b3480156100f957600080fd5b50610114600480360381019061010f919061142f565b6102fb565b005b34801561012257600080fd5b5061013d600480360381019061013891906114f0565b610400565b005b34801561014b57600080fd5b50610166600480360381019061016191906114f0565b6105c3565b005b34801561017457600080fd5b5061017d610786565b005b34801561018b57600080fd5b506101a660048036038101906101a191906114f0565b610879565b005b3480156101b457600080fd5b506101cf60048036038101906101ca919061151d565b610a3c565b005b3480156101dd57600080fd5b506101e6610b60565b005b3480156101f457600080fd5b5061020f600480360381019061020a91906114f0565b610c37565b6040516102229796959493929190611644565b60405180910390f35b34801561023757600080fd5b50610240610d3b565b60405161024d91906116ba565b60405180910390f35b34801561026257600080fd5b5061026b610d61565b005b34801561027957600080fd5b50610282610e54565b005b61028c610f2b565b005b34801561029a57600080fd5b506102b560048036038101906102b091906116d5565b610f73565b6040516102c493929190611702565b60405180910390f35b3480156102d957600080fd5b506102e26110ad565b005b3480156102f057600080fd5b506102f96111a0565b005b81600460008573ffffffffffffffffffffffffffffffffffffffff1673ffffffffffffffffffffffffffffffffffffffff168152602001908152602001600020600001908161034a9190611953565b5080600460008573ffffffffffffffffffffffffffffffffffffffff1673ffffffffffffffffffffffffffffffffffffffff168152602001908152602001600020600101908161039a9190611953565b50600054600460008573ffffffffffffffffffffffffffffffffffffffff1673ffffffffffffffffffffffffffffffffffffffff168152602001908152602001600020600201819055506000808154809291906103f690611a54565b9190505550505050565b3373ffffffffffffffffffffffffffffffffffffffff16600360006003815260200190815260200160002060050160009054906101000a900473ffffffffffffffffffffffffffffffffffffffff1673ffffffffffffffffffffffffffffffffffffffff16146104a5576040517f08c379a000000000000000000000000000000000000000000000000000000000815260040161049c90611b0e565b60405180910390fd5b6000600360006003815260200190815260200160002060020160006101000a81548160ff0219169083151502179055506000600360006003815260200190815260200160002060050160146101000a81548160ff02191690831515021790555060016003600060038152602001908152602001600020600401546105299190611b2e565b6003600060038152602001908152602001600020600401546003600060038152602001908152602001600020600301546105639190611b62565b8261056e9190611b2e565b6105789190611bd3565b600360006003815260200190815260200160002060030181905550600360006003815260200190815260200160002060040160008154809291906105bb90611a54565b919050555050565b3373ffffffffffffffffffffffffffffffffffffffff16600360006001815260200190815260200160002060050160009054906101000a900473ffffffffffffffffffffffffffffffffffffffff1673ffffffffffffffffffffffffffffffffffffffff1614610668576040517f08c379a000000000000000000000000000000000000000000000000000000000815260040161065f90611b0e565b60405180910390fd5b6000600360006001815260200190815260200160002060020160006101000a81548160ff0219169083151502179055506000600360006001815260200190815260200160002060050160146101000a81548160ff02191690831515021790555060016003600060018152602001908152602001600020600401546106ec9190611b2e565b6003600060018152602001908152602001600020600401546003600060018152602001908152602001600020600301546107269190611b62565b826107319190611b2e565b61073b9190611bd3565b6003600060018152602001908152602001600020600301819055506003600060018152602001908152602001600020600401600081548092919061077e90611a54565b919050555050565b60001515600360006003815260200190815260200160002060050160149054906101000a900460ff161515146107f1576040517f08c379a00000000000000000000000000000000000000000000000000000000081526004016107e890611c50565b60405180910390fd5b6001600360006003815260200190815260200160002060050160146101000a81548160ff02191690831515021790555033600360006003815260200190815260200160002060050160006101000a81548173ffffffffffffffffffffffffffffffffffffffff021916908373ffffffffffffffffffffffffffffffffffffffff160217905550565b3373ffffffffffffffffffffffffffffffffffffffff16600360006002815260200190815260200160002060050160009054906101000a900473ffffffffffffffffffffffffffffffffffffffff1673ffffffffffffffffffffffffffffffffffffffff161461091e576040517f08c379a000000000000000000000000000000000000000000000000000000000815260040161091590611b0e565b60405180910390fd5b6000600360006002815260200190815260200160002060020160006101000a81548160ff0219169083151502179055506000600360006002815260200190815260200160002060050160146101000a81548160ff02191690831515021790555060016003600060028152602001908152602001600020600401546109a29190611b2e565b6003600060028152602001908152602001600020600401546003600060028152602001908152602001600020600301546109dc9190611b62565b826109e79190611b2e565b6109f19190611bd3565b60036000600281526020019081526020016000206003018190555060036000600281526020019081526020016000206004016000815480929190610a3490611a54565b919050555050565b600260009054906101000a900473ffffffffffffffffffffffffffffffffffffffff1673ffffffffffffffffffffffffffffffffffffffff163373ffffffffffffffffffffffffffffffffffffffff1614610acc576040517f08c379a0000000000000000000000000000000000000000000000000000000008152600401610ac390611ce2565b60405180910390fd5b81600360008581526020019081526020016000206000019081610aef9190611953565b50806003600085815260200190815260200160002060010181905550600060036000858152602001908152602001600020600301819055506000600360008581526020019081526020016000206004018190555060016000815480929190610b5690611a54565b9190505550505050565b3373ffffffffffffffffffffffffffffffffffffffff16600360006002815260200190815260200160002060050160009054906101000a900473ffffffffffffffffffffffffffffffffffffffff1673ffffffffffffffffffffffffffffffffffffffff1614610c05576040517f08c379a0000000000000000000000000000000000000000000000000000000008152600401610bfc90611b0e565b60405180910390fd5b6001600360006002815260200190815260200160002060020160006101000a81548160ff021916908315150217905550565b6003602052806000526040600020600091509050806000018054610c5a90611776565b80601f0160208091040260200160405190810160405280929190818152602001828054610c8690611776565b8015610cd35780601f10610ca857610100808354040283529160200191610cd3565b820191906000526020600020905b815481529060010190602001808311610cb657829003601f168201915b5050505050908060010154908060020160009054906101000a900460ff16908060030154908060040154908060050160009054906101000a900473ffffffffffffffffffffffffffffffffffffffff16908060050160149054906101000a900460ff16905087565b600260009054906101000a900473ffffffffffffffffffffffffffffffffffffffff1681565b60001515600360006001815260200190815260200160002060050160149054906101000a900460ff16151514610dcc576040517f08c379a0000000000000000000000000000000000000000000000000000000008152600401610dc390611c50565b60405180910390fd5b6001600360006001815260200190815260200160002060050160146101000a81548160ff02191690831515021790555033600360006001815260200190815260200160002060050160006101000a81548173ffffffffffffffffffffffffffffffffffffffff021916908373ffffffffffffffffffffffffffffffffffffffff160217905550565b3373ffffffffffffffffffffffffffffffffffffffff16600360006003815260200190815260200160002060050160009054906101000a900473ffffffffffffffffffffffffffffffffffffffff1673ffffffffffffffffffffffffffffffffffffffff1614610ef9576040517f08c379a0000000000000000000000000000000000000000000000000000000008152600401610ef090611b0e565b60405180910390fd5b6001600360006003815260200190815260200160002060020160006101000a81548160ff021916908315150217905550565b600a3403610f4057610f3b610d61565b610f71565b60053403610f5557610f506110ad565b610f70565b60033403610f6a57610f65610786565b610f6f565b600080fd5b5b5b565b6004602052806000526040600020600091509050806000018054610f9690611776565b80601f0160208091040260200160405190810160405280929190818152602001828054610fc290611776565b801561100f5780601f10610fe45761010080835404028352916020019161100f565b820191906000526020600020905b815481529060010190602001808311610ff257829003601f168201915b50505050509080600101805461102490611776565b80601f016020809104026020016040519081016040528092919081815260200182805461105090611776565b801561109d5780601f106110725761010080835404028352916020019161109d565b820191906000526020600020905b81548152906001019060200180831161108057829003601f168201915b5050505050908060020154905083565b60001515600360006002815260200190815260200160002060050160149054906101000a900460ff16151514611118576040517f08c379a000000000000000000000000000000000000000000000000000000000815260040161110f90611c50565b60405180910390fd5b6001600360006002815260200190815260200160002060050160146101000a81548160ff02191690831515021790555033600360006002815260200190815260200160002060050160006101000a81548173ffffffffffffffffffffffffffffffffffffffff021916908373ffffffffffffffffffffffffffffffffffffffff160217905550565b3373ffffffffffffffffffffffffffffffffffffffff16600360006001815260200190815260200160002060050160009054906101000a900473ffffffffffffffffffffffffffffffffffffffff1673ffffffffffffffffffffffffffffffffffffffff1614611245576040517f08c379a000000000000000000000000000000000000000000000000000000000815260040161123c90611b0e565b60405180910390fd5b6001600360006001815260200190815260200160002060020160006101000a81548160ff021916908315150217905550565b6000604051905090565b600080fd5b600080fd5b600073ffffffffffffffffffffffffffffffffffffffff82169050919050565b60006112b68261128b565b9050919050565b6112c6816112ab565b81146112d157600080fd5b50565b6000813590506112e3816112bd565b92915050565b600080fd5b600080fd5b6000601f19601f8301169050919050565b7f4e487b7100000000000000000000000000000000000000000000000000000000600052604160045260246000fd5b61133c826112f3565b810181811067ffffffffffffffff8211171561135b5761135a611304565b5b80604052505050565b600061136e611277565b905061137a8282611333565b919050565b600067ffffffffffffffff82111561139a57611399611304565b5b6113a3826112f3565b9050602081019050919050565b82818337600083830152505050565b60006113d26113cd8461137f565b611364565b9050828152602081018484840111156113ee576113ed6112ee565b5b6113f98482856113b0565b509392505050565b600082601f830112611416576114156112e9565b5b81356114268482602086016113bf565b91505092915050565b60008060006060848603121561144857611447611281565b5b6000611456868287016112d4565b935050602084013567ffffffffffffffff81111561147757611476611286565b5b61148386828701611401565b925050604084013567ffffffffffffffff8111156114a4576114a3611286565b5b6114b086828701611401565b9150509250925092565b6000819050919050565b6114cd816114ba565b81146114d857600080fd5b50565b6000813590506114ea816114c4565b92915050565b60006020828403121561150657611505611281565b5b6000611514848285016114db565b91505092915050565b60008060006060848603121561153657611535611281565b5b6000611544868287016114db565b935050602084013567ffffffffffffffff81111561156557611564611286565b5b61157186828701611401565b9250506040611582868287016114db565b9150509250925092565b600081519050919050565b600082825260208201905092915050565b60005b838110156115c65780820151818401526020810190506115ab565b60008484015250505050565b60006115dd8261158c565b6115e78185611597565b93506115f78185602086016115a8565b611600816112f3565b840191505092915050565b611614816114ba565b82525050565b60008115159050919050565b61162f8161161a565b82525050565b61163e816112ab565b82525050565b600060e082019050818103600083015261165e818a6115d2565b905061166d602083018961160b565b61167a6040830188611626565b611687606083018761160b565b611694608083018661160b565b6116a160a0830185611635565b6116ae60c0830184611626565b98975050505050505050565b60006020820190506116cf6000830184611635565b92915050565b6000602082840312156116eb576116ea611281565b5b60006116f9848285016112d4565b91505092915050565b6000606082019050818103600083015261171c81866115d2565b9050818103602083015261173081856115d2565b905061173f604083018461160b565b949350505050565b7f4e487b7100000000000000000000000000000000000000000000000000000000600052602260045260246000fd5b6000600282049050600182168061178e57607f821691505b6020821081036117a1576117a0611747565b5b50919050565b60008190508160005260206000209050919050565b60006020601f8301049050919050565b600082821b905092915050565b6000600883026118097fffffffffffffffffffffffffffffffffffffffffffffffffffffffffffffffff826117cc565b61181386836117cc565b95508019841693508086168417925050509392505050565b6000819050919050565b600061185061184b611846846114ba565b61182b565b6114ba565b9050919050565b6000819050919050565b61186a83611835565b61187e61187682611857565b8484546117d9565b825550505050565b600090565b611893611886565b61189e818484611861565b505050565b5b818110156118c2576118b760008261188b565b6001810190506118a4565b5050565b601f821115611907576118d8816117a7565b6118e1846117bc565b810160208510156118f0578190505b6119046118fc856117bc565b8301826118a3565b50505b505050565b600082821c905092915050565b600061192a6000198460080261190c565b1980831691505092915050565b60006119438383611919565b9150826002028217905092915050565b61195c8261158c565b67ffffffffffffffff81111561197557611974611304565b5b61197f8254611776565b61198a8282856118c6565b600060209050601f8311600181146119bd57600084156119ab578287015190505b6119b58582611937565b865550611a1d565b601f1984166119cb866117a7565b60005b828110156119f3578489015182556001820191506020850194506020810190506119ce565b86831015611a105784890151611a0c601f891682611919565b8355505b6001600288020188555050505b505050505050565b7f4e487b7100000000000000000000000000000000000000000000000000000000600052601160045260246000fd5b6000611a5f826114ba565b91507fffffffffffffffffffffffffffffffffffffffffffffffffffffffffffffffff8203611a9157611a90611a25565b5b600182019050919050565b7f5468697320726f6f6d20686173206e6f74206265656e20626f6f6b656420627960008201527f20796f752e000000000000000000000000000000000000000000000000000000602082015250565b6000611af8602583611597565b9150611b0382611a9c565b604082019050919050565b60006020820190508181036000830152611b2781611aeb565b9050919050565b6000611b39826114ba565b9150611b44836114ba565b9250828201905080821115611b5c57611b5b611a25565b5b92915050565b6000611b6d826114ba565b9150611b78836114ba565b9250828202611b86816114ba565b91508282048414831517611b9d57611b9c611a25565b5b5092915050565b7f4e487b7100000000000000000000000000000000000000000000000000000000600052601260045260246000fd5b6000611bde826114ba565b9150611be9836114ba565b925082611bf957611bf8611ba4565b5b828204905092915050565b7f526f6f6d20697320616c726561647920626f6f6b656400000000000000000000600082015250565b6000611c3a601683611597565b9150611c4582611c04565b602082019050919050565b60006020820190508181036000830152611c6981611c2d565b9050919050565b7f4f6e6c79206f776e657220686173207468652072696768747320746f2061646460008201527f20726f6f6d730000000000000000000000000000000000000000000000000000602082015250565b6000611ccc602683611597565b9150611cd782611c70565b604082019050919050565b60006020820190508181036000830152611cfb81611cbf565b905091905056fea2646970667358221220fff3dba93c774a10508ab1e5b9ffc55b3cd478825d0bb8799891954cad0cbf4164736f6c63430008110033",
  "linkReferences": {},
  "deployedLinkReferences": {}
}