{"abi":[{"type":"constructor","inputs":[{"name":"_token","type":"address","internalType":"address"}],"stateMutability":"nonpayable"},{"type":"function","name":"balanceOf","inputs":[{"name":"","type":"address","internalType":"address"}],"outputs":[{"name":"","type":"uint256","internalType":"uint256"}],"stateMutability":"view"},{"type":"function","name":"deposit","inputs":[{"name":"_amount","type":"uint256","internalType":"uint256"}],"outputs":[],"stateMutability":"nonpayable"},{"type":"function","name":"depositWithPermit","inputs":[{"name":"owner","type":"address","internalType":"address"},{"name":"spender","type":"address","internalType":"address"},{"name":"amount","type":"uint256","internalType":"uint256"},{"name":"deadline","type":"uint256","internalType":"uint256"},{"name":"v","type":"uint8","internalType":"uint8"},{"name":"r","type":"bytes32","internalType":"bytes32"},{"name":"s","type":"bytes32","internalType":"bytes32"}],"outputs":[],"stateMutability":"nonpayable"},{"type":"function","name":"token","inputs":[],"outputs":[{"name":"","type":"address","internalType":"contract IERC20Permit"}],"stateMutability":"view"},{"type":"function","name":"withdraw","inputs":[{"name":"_amount","type":"uint256","internalType":"uint256"}],"outputs":[],"stateMutability":"nonpayable"}],"bytecode":{"object":"0x60a060405234801561001057600080fd5b5060405161060338038061060383398101604081905261002f91610040565b6001600160a01b0316608052610070565b60006020828403121561005257600080fd5b81516001600160a01b038116811461006957600080fd5b9392505050565b60805161055d6100a66000396000818160cf015281816101490152818161020e01528181610294015261035c015261055d6000f3fe608060405234801561001057600080fd5b50600436106100575760003560e01c80632e1a7d4d1461005c57806370a08231146100715780638ef59739146100a4578063b6b55f25146100b7578063fc0c546a146100ca575b600080fd5b61006f61006a3660046103f9565b610109565b005b61009161007f36600461042e565b60006020819052908152604090205481565b6040519081526020015b60405180910390f35b61006f6100b2366004610450565b6101c2565b61006f6100c53660046103f9565b61033a565b6100f17f000000000000000000000000000000000000000000000000000000000000000081565b6040516001600160a01b03909116815260200161009b565b33600090815260208190526040812080548392906101289084906104d9565b909155505060405163a9059cbb60e01b8152336004820152602481018290527f00000000000000000000000000000000000000000000000000000000000000006001600160a01b03169063a9059cbb906044016020604051808303816000875af115801561019a573d6000803e3d6000fd5b505050506040513d601f19601f820116820180604052508101906101be91906104f2565b5050565b60405163d505accf60e01b81526001600160a01b0388811660048301528781166024830152604482018790526064820186905260ff8516608483015260a4820184905260c482018390527f0000000000000000000000000000000000000000000000000000000000000000169063d505accf9060e401600060405180830381600087803b15801561025257600080fd5b505af1158015610266573d6000803e3d6000fd5b50506040516323b872dd60e01b81526001600160a01b038a81166004830152306024830152604482018990527f00000000000000000000000000000000000000000000000000000000000000001692506323b872dd91506064016020604051808303816000875af11580156102df573d6000803e3d6000fd5b505050506040513d601f19601f8201168201806040525081019061030391906104f2565b506001600160a01b0386166000908152602081905260408120805487929061032c908490610514565b909155505050505050505050565b6040516323b872dd60e01b8152336004820152306024820152604481018290527f00000000000000000000000000000000000000000000000000000000000000006001600160a01b0316906323b872dd906064016020604051808303816000875af11580156103ad573d6000803e3d6000fd5b505050506040513d601f19601f820116820180604052508101906103d191906104f2565b5033600090815260208190526040812080548392906103f1908490610514565b909155505050565b60006020828403121561040b57600080fd5b5035919050565b80356001600160a01b038116811461042957600080fd5b919050565b60006020828403121561044057600080fd5b61044982610412565b9392505050565b600080600080600080600060e0888a03121561046b57600080fd5b61047488610412565b965061048260208901610412565b95506040880135945060608801359350608088013560ff811681146104a657600080fd5b9699959850939692959460a0840135945060c09093013592915050565b634e487b7160e01b600052601160045260246000fd5b818103818111156104ec576104ec6104c3565b92915050565b60006020828403121561050457600080fd5b8151801515811461044957600080fd5b808201808211156104ec576104ec6104c356fea2646970667358221220273a7e5a6fa59c387ed15a3bcc9ab6ceee4463b7c95e14f8c686b673091d956c64736f6c63430008180033","linkReferences":{}},"methodIdentifiers":{"balanceOf(address)":"70a08231","deposit(uint256)":"b6b55f25","depositWithPermit(address,address,uint256,uint256,uint8,bytes32,bytes32)":"8ef59739","token()":"fc0c546a","withdraw(uint256)":"2e1a7d4d"},"id":0}